{
  "_format": "hh-sol-artifact-1",
  "contractName": "YourContractMinimal",
  "sourceName": "contracts/YourContractMinimal.sol",
  "abi": [
    {
      "inputs": [],
      "stateMutability": "nonpayable",
      "type": "constructor"
    },
    {
      "anonymous": false,
      "inputs": [
        {
          "indexed": true,
          "internalType": "address",
          "name": "owner",
          "type": "address"
        },
        {
          "indexed": true,
          "internalType": "address",
          "name": "approved",
          "type": "address"
        },
        {
          "indexed": true,
          "internalType": "uint256",
          "name": "tokenId",
          "type": "uint256"
        }
      ],
      "name": "Approval",
      "type": "event"
    },
    {
      "anonymous": false,
      "inputs": [
        {
          "indexed": true,
          "internalType": "address",
          "name": "owner",
          "type": "address"
        },
        {
          "indexed": true,
          "internalType": "address",
          "name": "operator",
          "type": "address"
        },
        {
          "indexed": false,
          "internalType": "bool",
          "name": "approved",
          "type": "bool"
        }
      ],
      "name": "ApprovalForAll",
      "type": "event"
    },
    {
      "anonymous": false,
      "inputs": [
        {
          "indexed": true,
          "internalType": "address",
          "name": "previousOwner",
          "type": "address"
        },
        {
          "indexed": true,
          "internalType": "address",
          "name": "newOwner",
          "type": "address"
        }
      ],
      "name": "OwnershipTransferred",
      "type": "event"
    },
    {
      "anonymous": false,
      "inputs": [
        {
          "indexed": false,
          "internalType": "address",
          "name": "account",
          "type": "address"
        }
      ],
      "name": "Paused",
      "type": "event"
    },
    {
      "anonymous": false,
      "inputs": [
        {
          "indexed": true,
          "internalType": "bytes32",
          "name": "role",
          "type": "bytes32"
        },
        {
          "indexed": true,
          "internalType": "bytes32",
          "name": "previousAdminRole",
          "type": "bytes32"
        },
        {
          "indexed": true,
          "internalType": "bytes32",
          "name": "newAdminRole",
          "type": "bytes32"
        }
      ],
      "name": "RoleAdminChanged",
      "type": "event"
    },
    {
      "anonymous": false,
      "inputs": [
        {
          "indexed": true,
          "internalType": "bytes32",
          "name": "role",
          "type": "bytes32"
        },
        {
          "indexed": true,
          "internalType": "address",
          "name": "account",
          "type": "address"
        },
        {
          "indexed": true,
          "internalType": "address",
          "name": "sender",
          "type": "address"
        }
      ],
      "name": "RoleGranted",
      "type": "event"
    },
    {
      "anonymous": false,
      "inputs": [
        {
          "indexed": true,
          "internalType": "bytes32",
          "name": "role",
          "type": "bytes32"
        },
        {
          "indexed": true,
          "internalType": "address",
          "name": "account",
          "type": "address"
        },
        {
          "indexed": true,
          "internalType": "address",
          "name": "sender",
          "type": "address"
        }
      ],
      "name": "RoleRevoked",
      "type": "event"
    },
    {
      "anonymous": false,
      "inputs": [
        {
          "indexed": true,
          "internalType": "address",
          "name": "from",
          "type": "address"
        },
        {
          "indexed": true,
          "internalType": "address",
          "name": "to",
          "type": "address"
        },
        {
          "indexed": true,
          "internalType": "uint256",
          "name": "tokenId",
          "type": "uint256"
        }
      ],
      "name": "Transfer",
      "type": "event"
    },
    {
      "anonymous": false,
      "inputs": [
        {
          "indexed": false,
          "internalType": "address",
          "name": "account",
          "type": "address"
        }
      ],
      "name": "Unpaused",
      "type": "event"
    },
    {
      "stateMutability": "payable",
      "type": "fallback"
    },
    {
      "inputs": [],
      "name": "ARTIST_PROOF_COUNT",
      "outputs": [
        {
          "internalType": "uint256",
          "name": "",
          "type": "uint256"
        }
      ],
      "stateMutability": "view",
      "type": "function"
    },
    {
      "inputs": [],
      "name": "DEFAULT_ADMIN_ROLE",
      "outputs": [
        {
          "internalType": "bytes32",
          "name": "",
          "type": "bytes32"
        }
      ],
      "stateMutability": "view",
      "type": "function"
    },
    {
      "inputs": [],
      "name": "ETH_PRICE",
      "outputs": [
        {
          "internalType": "uint256",
          "name": "",
          "type": "uint256"
        }
      ],
      "stateMutability": "view",
      "type": "function"
    },
    {
      "inputs": [],
      "name": "MANAGER_ROLE",
      "outputs": [
        {
          "internalType": "bytes32",
          "name": "",
          "type": "bytes32"
        }
      ],
      "stateMutability": "view",
      "type": "function"
    },
    {
      "inputs": [],
      "name": "MAX_MINT_COUNT",
      "outputs": [
        {
          "internalType": "uint256",
          "name": "",
          "type": "uint256"
        }
      ],
      "stateMutability": "view",
      "type": "function"
    },
    {
      "inputs": [],
      "name": "MAX_SUPPLY",
      "outputs": [
        {
          "internalType": "uint256",
          "name": "",
          "type": "uint256"
        }
      ],
      "stateMutability": "view",
      "type": "function"
    },
    {
      "inputs": [],
      "name": "_baseURIextended",
      "outputs": [
        {
          "internalType": "string",
          "name": "",
          "type": "string"
        }
      ],
      "stateMutability": "view",
      "type": "function"
    },
    {
      "inputs": [],
      "name": "_merkleRoot",
      "outputs": [
        {
          "internalType": "bytes32",
          "name": "",
          "type": "bytes32"
        }
      ],
      "stateMutability": "view",
      "type": "function"
    },
    {
      "inputs": [],
      "name": "_royaltyBasis",
      "outputs": [
        {
          "internalType": "uint256",
          "name": "",
          "type": "uint256"
        }
      ],
      "stateMutability": "view",
      "type": "function"
    },
    {
      "inputs": [
        {
          "internalType": "address",
          "name": "to",
          "type": "address"
        },
        {
          "internalType": "uint256",
          "name": "tokenId",
          "type": "uint256"
        }
      ],
      "name": "approve",
      "outputs": [],
      "stateMutability": "nonpayable",
      "type": "function"
    },
    {
      "inputs": [
        {
          "internalType": "uint256",
          "name": "count",
          "type": "uint256"
        },
        {
          "internalType": "address",
          "name": "recipient",
          "type": "address"
        }
      ],
      "name": "artistMint",
      "outputs": [
        {
          "internalType": "uint256",
          "name": "",
          "type": "uint256"
        }
      ],
      "stateMutability": "nonpayable",
      "type": "function"
    },
    {
      "inputs": [
        {
          "internalType": "address",
          "name": "owner",
          "type": "address"
        }
      ],
      "name": "balanceOf",
      "outputs": [
        {
          "internalType": "uint256",
          "name": "",
          "type": "uint256"
        }
      ],
      "stateMutability": "view",
      "type": "function"
    },
    {
      "inputs": [],
      "name": "contractURI",
      "outputs": [
        {
          "internalType": "string",
          "name": "",
          "type": "string"
        }
      ],
      "stateMutability": "view",
      "type": "function"
    },
    {
      "inputs": [
        {
          "internalType": "uint256",
          "name": "tokenId",
          "type": "uint256"
        }
      ],
      "name": "getApproved",
      "outputs": [
        {
          "internalType": "address",
          "name": "",
          "type": "address"
        }
      ],
      "stateMutability": "view",
      "type": "function"
    },
    {
      "inputs": [
        {
          "internalType": "bytes32",
          "name": "role",
          "type": "bytes32"
        }
      ],
      "name": "getRoleAdmin",
      "outputs": [
        {
          "internalType": "bytes32",
          "name": "",
          "type": "bytes32"
        }
      ],
      "stateMutability": "view",
      "type": "function"
    },
    {
      "inputs": [
        {
          "internalType": "bytes32",
          "name": "role",
          "type": "bytes32"
        },
        {
          "internalType": "address",
          "name": "account",
          "type": "address"
        }
      ],
      "name": "grantRole",
      "outputs": [],
      "stateMutability": "nonpayable",
      "type": "function"
    },
    {
      "inputs": [
        {
          "internalType": "bytes32",
          "name": "role",
          "type": "bytes32"
        },
        {
          "internalType": "address",
          "name": "account",
          "type": "address"
        }
      ],
      "name": "hasRole",
      "outputs": [
        {
          "internalType": "bool",
          "name": "",
          "type": "bool"
        }
      ],
      "stateMutability": "view",
      "type": "function"
    },
    {
      "inputs": [
        {
          "internalType": "address",
          "name": "owner",
          "type": "address"
        },
        {
          "internalType": "address",
          "name": "operator",
          "type": "address"
        }
      ],
      "name": "isApprovedForAll",
      "outputs": [
        {
          "internalType": "bool",
          "name": "",
          "type": "bool"
        }
      ],
      "stateMutability": "view",
      "type": "function"
    },
    {
      "inputs": [],
      "name": "maxSupply",
      "outputs": [
        {
          "internalType": "uint256",
          "name": "",
          "type": "uint256"
        }
      ],
      "stateMutability": "pure",
      "type": "function"
    },
    {
      "inputs": [
        {
          "internalType": "uint256",
          "name": "count",
          "type": "uint256"
        }
      ],
      "name": "mint",
      "outputs": [
        {
          "internalType": "uint256",
          "name": "",
          "type": "uint256"
        }
      ],
      "stateMutability": "payable",
      "type": "function"
    },
    {
      "inputs": [],
      "name": "name",
      "outputs": [
        {
          "internalType": "string",
          "name": "",
          "type": "string"
        }
      ],
      "stateMutability": "view",
      "type": "function"
    },
    {
      "inputs": [],
      "name": "owner",
      "outputs": [
        {
          "internalType": "address",
          "name": "",
          "type": "address"
        }
      ],
      "stateMutability": "view",
      "type": "function"
    },
    {
      "inputs": [
        {
          "internalType": "uint256",
          "name": "tokenId",
          "type": "uint256"
        }
      ],
      "name": "ownerOf",
      "outputs": [
        {
          "internalType": "address",
          "name": "",
          "type": "address"
        }
      ],
      "stateMutability": "view",
      "type": "function"
    },
    {
      "inputs": [],
      "name": "pause",
      "outputs": [],
      "stateMutability": "nonpayable",
      "type": "function"
    },
    {
      "inputs": [],
      "name": "paused",
      "outputs": [
        {
          "internalType": "bool",
          "name": "",
          "type": "bool"
        }
      ],
      "stateMutability": "view",
      "type": "function"
    },
    {
      "inputs": [],
      "name": "presaleActive",
      "outputs": [
        {
          "internalType": "bool",
          "name": "",
          "type": "bool"
        }
      ],
      "stateMutability": "view",
      "type": "function"
    },
    {
      "inputs": [],
      "name": "renounceOwnership",
      "outputs": [],
      "stateMutability": "nonpayable",
      "type": "function"
    },
    {
      "inputs": [
        {
          "internalType": "bytes32",
          "name": "role",
          "type": "bytes32"
        },
        {
          "internalType": "address",
          "name": "account",
          "type": "address"
        }
      ],
      "name": "renounceRole",
      "outputs": [],
      "stateMutability": "nonpayable",
      "type": "function"
    },
    {
      "inputs": [
        {
          "internalType": "bytes32",
          "name": "role",
          "type": "bytes32"
        },
        {
          "internalType": "address",
          "name": "account",
          "type": "address"
        }
      ],
      "name": "revokeRole",
      "outputs": [],
      "stateMutability": "nonpayable",
      "type": "function"
    },
    {
      "inputs": [
        {
          "internalType": "uint256",
          "name": "tokenId",
          "type": "uint256"
        },
        {
          "internalType": "uint256",
          "name": "salePrice",
          "type": "uint256"
        }
      ],
      "name": "royaltyInfo",
      "outputs": [
        {
          "internalType": "address",
          "name": "receiver",
          "type": "address"
        },
        {
          "internalType": "uint256",
          "name": "royaltyAmount",
          "type": "uint256"
        }
      ],
      "stateMutability": "view",
      "type": "function"
    },
    {
      "inputs": [
        {
          "internalType": "address",
          "name": "from",
          "type": "address"
        },
        {
          "internalType": "address",
          "name": "to",
          "type": "address"
        },
        {
          "internalType": "uint256",
          "name": "tokenId",
          "type": "uint256"
        }
      ],
      "name": "safeTransferFrom",
      "outputs": [],
      "stateMutability": "nonpayable",
      "type": "function"
    },
    {
      "inputs": [
        {
          "internalType": "address",
          "name": "from",
          "type": "address"
        },
        {
          "internalType": "address",
          "name": "to",
          "type": "address"
        },
        {
          "internalType": "uint256",
          "name": "tokenId",
          "type": "uint256"
        },
        {
          "internalType": "bytes",
          "name": "_data",
          "type": "bytes"
        }
      ],
      "name": "safeTransferFrom",
      "outputs": [],
      "stateMutability": "nonpayable",
      "type": "function"
    },
    {
      "inputs": [],
      "name": "saleActive",
      "outputs": [
        {
          "internalType": "bool",
          "name": "",
          "type": "bool"
        }
      ],
      "stateMutability": "view",
      "type": "function"
    },
    {
      "inputs": [
        {
          "internalType": "address",
          "name": "operator",
          "type": "address"
        },
        {
          "internalType": "bool",
          "name": "approved",
          "type": "bool"
        }
      ],
      "name": "setApprovalForAll",
      "outputs": [],
      "stateMutability": "nonpayable",
      "type": "function"
    },
    {
      "inputs": [
        {
          "internalType": "string",
          "name": "baseURI_",
          "type": "string"
        }
      ],
      "name": "setBaseURI",
      "outputs": [],
      "stateMutability": "nonpayable",
      "type": "function"
    },
    {
      "inputs": [
        {
          "internalType": "address payable",
          "name": "royaltyWallet_",
          "type": "address"
        }
      ],
      "name": "setRoyaltyWallet",
      "outputs": [],
      "stateMutability": "nonpayable",
      "type": "function"
    },
    {
      "inputs": [
        {
          "internalType": "bool",
          "name": "val",
          "type": "bool"
        }
      ],
      "name": "setSaleActive",
      "outputs": [],
      "stateMutability": "nonpayable",
      "type": "function"
    },
    {
      "inputs": [
        {
          "internalType": "address payable",
          "name": "withdrawalWallet_",
          "type": "address"
        }
      ],
      "name": "setWithdrawalWallet",
      "outputs": [],
      "stateMutability": "nonpayable",
      "type": "function"
    },
    {
      "inputs": [
        {
          "internalType": "bytes4",
          "name": "interfaceId",
          "type": "bytes4"
        }
      ],
      "name": "supportsInterface",
      "outputs": [
        {
          "internalType": "bool",
          "name": "",
          "type": "bool"
        }
      ],
      "stateMutability": "view",
      "type": "function"
    },
    {
      "inputs": [],
      "name": "symbol",
      "outputs": [
        {
          "internalType": "string",
          "name": "",
          "type": "string"
        }
      ],
      "stateMutability": "view",
      "type": "function"
    },
    {
      "inputs": [
        {
          "internalType": "uint256",
          "name": "tokenId",
          "type": "uint256"
        }
      ],
      "name": "tokenURI",
      "outputs": [
        {
          "internalType": "string",
          "name": "",
          "type": "string"
        }
      ],
      "stateMutability": "view",
      "type": "function"
    },
    {
      "inputs": [],
      "name": "totalSupply",
      "outputs": [
        {
          "internalType": "uint256",
          "name": "",
          "type": "uint256"
        }
      ],
      "stateMutability": "view",
      "type": "function"
    },
    {
      "inputs": [
        {
          "internalType": "address",
          "name": "from",
          "type": "address"
        },
        {
          "internalType": "address",
          "name": "to",
          "type": "address"
        },
        {
          "internalType": "uint256",
          "name": "tokenId",
          "type": "uint256"
        }
      ],
      "name": "transferFrom",
      "outputs": [],
      "stateMutability": "nonpayable",
      "type": "function"
    },
    {
      "inputs": [
        {
          "internalType": "address",
          "name": "_newOwner",
          "type": "address"
        }
      ],
      "name": "transferOwnership",
      "outputs": [],
      "stateMutability": "nonpayable",
      "type": "function"
    },
    {
      "inputs": [],
      "name": "unpause",
      "outputs": [],
      "stateMutability": "nonpayable",
      "type": "function"
    },
    {
      "inputs": [],
      "name": "withdraw",
      "outputs": [],
      "stateMutability": "nonpayable",
      "type": "function"
    },
    {
      "stateMutability": "payable",
      "type": "receive"
    }
  ],
  "bytecode": "0x60e060405260236080818152906200333060a03980516200002991600a91602090910190620004f8565b507f7f9947af1470e7df017d480516fb72e1b515240c75cf5afacfd79d475f309f35600b556102ee600e55600f805461ffff191690553480156200006c57600080fd5b50604080518082018252600c8082526b165bdd5c90dbdb9d1c9858dd60a21b602080840182815285518087019096529285528401528151919291620000b491600091620004f8565b508051620000ca906001906020840190620004f8565b50506006805460ff1916905550620000e23362000121565b620000ef60003362000173565b6200011b7f241ecf16d79d0f8dbfb92cbc07fe17840425976cf0667f022fe9877caa831b083362000183565b62000729565b600880546001600160a01b038381166001600160a01b0319831681179093556040519116919082907f8be0079c531659141344cd1fd0a4f28419497f9722a3daafe3b4186f6b6457e090600090a35050565b6200017f8282620001b2565b5050565b600082815260076020526040902060010154620001a1813362000256565b620001ad8383620001b2565b505050565b60008281526007602090815260408083206001600160a01b038516845290915290205460ff166200017f5760008281526007602090815260408083206001600160a01b03851684529091529020805460ff19166001179055620002123390565b6001600160a01b0316816001600160a01b0316837f2f8788117e7eff1d82e926ec794901d17c78024a50270940304540a733656f0d60405160405180910390a45050565b60008281526007602090815260408083206001600160a01b038516845290915290205460ff166200017f57620002a2816001600160a01b03166014620002fc60201b6200163c1760201c565b620002b88360206200163c620002fc821b17811c565b604051602001620002cb9291906200059e565b60408051601f198184030181529082905262461bcd60e51b8252620002f39160040162000617565b60405180910390fd5b606060006200030d83600262000667565b6200031a9060026200064c565b6001600160401b038111156200034057634e487b7160e01b600052604160045260246000fd5b6040519080825280601f01601f1916602001820160405280156200036b576020820181803683370190505b509050600360fc1b816000815181106200039557634e487b7160e01b600052603260045260246000fd5b60200101906001600160f81b031916908160001a905350600f60fb1b81600181518110620003d357634e487b7160e01b600052603260045260246000fd5b60200101906001600160f81b031916908160001a9053506000620003f984600262000667565b620004069060016200064c565b90505b6001811115620004a0576f181899199a1a9b1b9c1cb0b131b232b360811b85600f16601081106200044a57634e487b7160e01b600052603260045260246000fd5b1a60f81b8282815181106200046f57634e487b7160e01b600052603260045260246000fd5b60200101906001600160f81b031916908160001a90535060049490941c936200049881620006bc565b905062000409565b508315620004f15760405162461bcd60e51b815260206004820181905260248201527f537472696e67733a20686578206c656e67746820696e73756666696369656e746044820152606401620002f3565b9392505050565b8280546200050690620006d6565b90600052602060002090601f0160209004810192826200052a576000855562000575565b82601f106200054557805160ff191683800117855562000575565b8280016001018555821562000575579182015b828111156200057557825182559160200191906001019062000558565b506200058392915062000587565b5090565b5b8082111562000583576000815560010162000588565b7f416363657373436f6e74726f6c3a206163636f756e7420000000000000000000815260008351620005d881601785016020880162000689565b7001034b99036b4b9b9b4b733903937b6329607d1b60179184019182015283516200060b81602884016020880162000689565b01602801949350505050565b60208152600082518060208401526200063881604085016020870162000689565b601f01601f19169190910160400192915050565b6000821982111562000662576200066262000713565b500190565b600081600019048311821515161562000684576200068462000713565b500290565b60005b83811015620006a65781810151838201526020016200068c565b83811115620006b6576000848401525b50505050565b600081620006ce57620006ce62000713565b506000190190565b600181811c90821680620006eb57607f821691505b602082108114156200070d57634e487b7160e01b600052602260045260246000fd5b50919050565b634e487b7160e01b600052601160045260246000fd5b612bf780620007396000396000f3fe6080604052600436106102d15760003560e01c8063715018a611610177578063a22cb465116100d5578063d547741f11610084578063e985e9c511610061578063e985e9c514610807578063ec87621c14610850578063f2fde38b1461087257005b8063d547741f146107bd578063d5abeb01146107dd578063e8a3d485146107f257005b8063c87b56dd116100b2578063c87b56dd14610768578063cdeee63714610788578063cdf65306146107a857005b8063a22cb46514610712578063ae3146e914610732578063b88d4fde1461074857005b80638832bc291161013157806395d89b411161010e57806395d89b41146106d5578063a0712d68146106ea578063a217fddf146106fd57005b80638832bc29146106565780638da5cb5b1461067157806391d148541461068f57005b8063841718a61161015f578063841718a61461060c5780638456cb591461062c57806387033ce91461064157005b8063715018a6146105d757806375796f76146105ec57005b80632fc37ab21161022f57806353135ca0116101de5780636352211e116101bb5780636352211e1461057857806368428a1b1461059857806370a08231146105b757005b806353135ca01461052657806355f804b3146105405780635c975abb1461056057005b80633ccfd60b1161020c5780633ccfd60b146104dc5780633f4ba83a146104f157806342842e0e1461050657005b80632fc37ab21461049057806332cb6b0c146104a657806336568abe146104bc57005b80630edc96291161028b578063248a9ca311610268578063248a9ca3146104015780632a55205a146104315780632f2ff15d1461047057005b80630edc96291461039e57806318160ddd146103cc57806323b872dd146103e157005b8063081812fc116102b9578063081812fc146103315780630928fc2214610369578063095ea7b31461037e57005b806301ffc9a7146102da57806306fdde031461030f57005b366102d857005b005b3480156102e657600080fd5b506102fa6102f536600461276c565b610892565b60405190151581526020015b60405180910390f35b34801561031b57600080fd5b506103246108d6565b6040516103069190612a12565b34801561033d57600080fd5b5061035161034c366004612730565b610968565b6040516001600160a01b039091168152602001610306565b34801561037557600080fd5b50610324610a02565b34801561038a57600080fd5b506102d86103993660046126eb565b610a90565b3480156103aa57600080fd5b506103be6103b9366004612748565b610bc2565b604051908152602001610306565b3480156103d857600080fd5b506103be610cd9565b3480156103ed57600080fd5b506102d86103fc3660046125fa565b610ce9565b34801561040d57600080fd5b506103be61041c366004612730565b60009081526007602052604090206001015490565b34801561043d57600080fd5b5061045161044c3660046127ea565b610d70565b604080516001600160a01b039093168352602083019190915201610306565b34801561047c57600080fd5b506102d861048b366004612748565b610e0b565b34801561049c57600080fd5b506103be600b5481565b3480156104b257600080fd5b506103be61029a81565b3480156104c857600080fd5b506102d86104d7366004612748565b610e31565b3480156104e857600080fd5b506102d8610ebd565b3480156104fd57600080fd5b506102d8610f0f565b34801561051257600080fd5b506102d86105213660046125fa565b610f33565b34801561053257600080fd5b50600f546102fa9060ff1681565b34801561054c57600080fd5b506102d861055b3660046127a4565b610f4e565b34801561056c57600080fd5b5060065460ff166102fa565b34801561058457600080fd5b50610351610593366004612730565b610f7a565b3480156105a457600080fd5b50600f546102fa90610100900460ff1681565b3480156105c357600080fd5b506103be6105d23660046125a6565b611005565b3480156105e357600080fd5b506102d861109f565b3480156105f857600080fd5b506102d86106073660046125a6565b611105565b34801561061857600080fd5b506102d8610627366004612716565b611141565b34801561063857600080fd5b506102d8611175565b34801561064d57600080fd5b506103be601181565b34801561066257600080fd5b506103be66f523226980800081565b34801561067d57600080fd5b506008546001600160a01b0316610351565b34801561069b57600080fd5b506102fa6106aa366004612748565b60009182526007602090815260408084206001600160a01b0393909316845291905290205460ff1690565b3480156106e157600080fd5b50610324611196565b6103be6106f8366004612730565b6111a5565b34801561070957600080fd5b506103be600081565b34801561071e57600080fd5b506102d861072d3660046126b7565b6113c1565b34801561073e57600080fd5b506103be600e5481565b34801561075457600080fd5b506102d861076336600461263a565b6113cc565b34801561077457600080fd5b50610324610783366004612730565b61145a565b34801561079457600080fd5b506102d86107a33660046125a6565b6114e6565b3480156107b457600080fd5b506103be600b81565b3480156107c957600080fd5b506102d86107d8366004612748565b611522565b3480156107e957600080fd5b5061029a6103be565b3480156107fe57600080fd5b50610324611548565b34801561081357600080fd5b506102fa6108223660046125c2565b6001600160a01b03918216600090815260056020908152604080832093909416825291909152205460ff1690565b34801561085c57600080fd5b506103be600080516020612ba283398151915281565b34801561087e57600080fd5b506102d861088d3660046125a6565b611570565b60006001600160e01b031982167f2a55205a0000000000000000000000000000000000000000000000000000000014806108d057506108d08261184e565b92915050565b6060600080546108e590612aca565b80601f016020809104026020016040519081016040528092919081815260200182805461091190612aca565b801561095e5780601f106109335761010080835404028352916020019161095e565b820191906000526020600020905b81548152906001019060200180831161094157829003601f168201915b5050505050905090565b6000818152600260205260408120546001600160a01b03166109e65760405162461bcd60e51b815260206004820152602c60248201527f4552433732313a20617070726f76656420717565727920666f72206e6f6e657860448201526b34b9ba32b73a103a37b5b2b760a11b60648201526084015b60405180910390fd5b506000908152600460205260409020546001600160a01b031690565b600a8054610a0f90612aca565b80601f0160208091040260200160405190810160405280929190818152602001828054610a3b90612aca565b8015610a885780601f10610a5d57610100808354040283529160200191610a88565b820191906000526020600020905b815481529060010190602001808311610a6b57829003601f168201915b505050505081565b6000610a9b82610f7a565b9050806001600160a01b0316836001600160a01b03161415610b255760405162461bcd60e51b815260206004820152602160248201527f4552433732313a20617070726f76616c20746f2063757272656e74206f776e6560448201527f720000000000000000000000000000000000000000000000000000000000000060648201526084016109dd565b336001600160a01b0382161480610b415750610b418133610822565b610bb35760405162461bcd60e51b815260206004820152603860248201527f4552433732313a20617070726f76652063616c6c6572206973206e6f74206f7760448201527f6e6572206e6f7220617070726f76656420666f7220616c6c000000000000000060648201526084016109dd565b610bbd838361188c565b505050565b6000600080516020612ba2833981519152610bdd81336118fa565b601184610be960095490565b610bf39190612a25565b10610c405760405162461bcd60e51b815260206004820152601360248201527f4578636565646564206d61782070726f6f66730000000000000000000000000060448201526064016109dd565b61029a84610c4d60095490565b610c579190612a25565b10610c8f5760405162461bcd60e51b815260206004820152600860248201526714d3d3110813d55560c21b60448201526064016109dd565b60005b84811015610ccc57610ca8600980546001019055565b610cba84610cb560095490565b61197a565b80610cc481612b05565b915050610c92565b506009545b949350505050565b6000610ce460095490565b905090565b610cf33382611abc565b610d655760405162461bcd60e51b815260206004820152603160248201527f4552433732313a207472616e736665722063616c6c6572206973206e6f74206f60448201527f776e6572206e6f7220617070726f76656400000000000000000000000000000060648201526084016109dd565b610bbd838383611baf565b60008281526002602052604081205481906001600160a01b0316610dd65760405162461bcd60e51b815260206004820152601160248201527f4e6f6e6578697374656e7420746f6b656e00000000000000000000000000000060448201526064016109dd565b600d54600e546001600160a01b039091169061271090610df69086612a51565b610e009190612a3d565b915091509250929050565b600082815260076020526040902060010154610e2781336118fa565b610bbd8383611d7c565b6001600160a01b0381163314610eaf5760405162461bcd60e51b815260206004820152602f60248201527f416363657373436f6e74726f6c3a2063616e206f6e6c792072656e6f756e636560448201527f20726f6c657320666f722073656c66000000000000000000000000000000000060648201526084016109dd565b610eb98282611e1e565b5050565b600080516020612ba2833981519152610ed681336118fa565b600c546040516001600160a01b03909116904780156108fc02916000818181858888f19350505050158015610eb9573d6000803e3d6000fd5b600080516020612ba2833981519152610f2881336118fa565b610f30611ea1565b50565b610bbd838383604051806020016040528060008152506113cc565b600080516020612ba2833981519152610f6781336118fa565b8151610bbd90600a906020850190612487565b6000818152600260205260408120546001600160a01b0316806108d05760405162461bcd60e51b815260206004820152602960248201527f4552433732313a206f776e657220717565727920666f72206e6f6e657869737460448201527f656e7420746f6b656e000000000000000000000000000000000000000000000060648201526084016109dd565b60006001600160a01b0382166110835760405162461bcd60e51b815260206004820152602a60248201527f4552433732313a2062616c616e636520717565727920666f7220746865207a6560448201527f726f20616464726573730000000000000000000000000000000000000000000060648201526084016109dd565b506001600160a01b031660009081526003602052604090205490565b6008546001600160a01b031633146110f95760405162461bcd60e51b815260206004820181905260248201527f4f776e61626c653a2063616c6c6572206973206e6f7420746865206f776e657260448201526064016109dd565b6111036000611f3d565b565b600080516020612ba283398151915261111e81336118fa565b50600c80546001600160a01b0319166001600160a01b0392909216919091179055565b600080516020612ba283398151915261115a81336118fa565b50600f80549115156101000261ff0019909216919091179055565b600080516020612ba283398151915261118e81336118fa565b610f30611f8f565b6060600180546108e590612aca565b60006111b360065460ff1690565b156112005760405162461bcd60e51b815260206004820152601060248201527f5061757361626c653a207061757365640000000000000000000000000000000060448201526064016109dd565b600f54610100900460ff166112575760405162461bcd60e51b815260206004820152601260248201527f53616c6520686173206e6f7420626567756e000000000000000000000000000060448201526064016109dd565b346112698366f5232269808000612a51565b146112b65760405162461bcd60e51b815260206004820181905260248201527f496e636f7272656374204554482073656e743b20636865636b2070726963652160448201526064016109dd565b600b821061132c5760405162461bcd60e51b815260206004820152602360248201527f547269656420746f206d696e7420746f6f206d616e79204e465473206174206f60448201527f6e6365000000000000000000000000000000000000000000000000000000000060648201526084016109dd565b61029a8261133960095490565b6113439190612a25565b1061137b5760405162461bcd60e51b815260206004820152600860248201526714d3d3110813d55560c21b60448201526064016109dd565b60005b828110156113b357611394600980546001019055565b6113a133610cb560095490565b806113ab81612b05565b91505061137e565b506009546108d0565b919050565b610eb9338383612017565b6113d63383611abc565b6114485760405162461bcd60e51b815260206004820152603160248201527f4552433732313a207472616e736665722063616c6c6572206973206e6f74206f60448201527f776e6572206e6f7220617070726f76656400000000000000000000000000000060648201526084016109dd565b611454848484846120e6565b50505050565b606061146560095490565b8211156114b45760405162461bcd60e51b815260206004820152601160248201527f4e6f6e6578697374656e7420746f6b656e00000000000000000000000000000060448201526064016109dd565b600a6114bf8361216f565b6040516020016114d09291906128cf565b6040516020818303038152906040529050919050565b600080516020612ba28339815191526114ff81336118fa565b50600d80546001600160a01b0319166001600160a01b0392909216919091179055565b60008281526007602052604090206001015461153e81336118fa565b610bbd8383611e1e565b6060600a60405160200161155c919061291c565b604051602081830303815290604052905090565b6008546001600160a01b031633146115ca5760405162461bcd60e51b815260206004820181905260248201527f4f776e61626c653a2063616c6c6572206973206e6f7420746865206f776e657260448201526064016109dd565b60006115de6008546001600160a01b031690565b90506115f8600080516020612ba283398151915282611522565b611610600080516020612ba283398151915282611522565b61161982611f3d565b611624600083610e0b565b610eb9600080516020612ba283398151915283610e0b565b6060600061164b836002612a51565b611656906002612a25565b67ffffffffffffffff81111561167c57634e487b7160e01b600052604160045260246000fd5b6040519080825280601f01601f1916602001820160405280156116a6576020820181803683370190505b509050600360fc1b816000815181106116cf57634e487b7160e01b600052603260045260246000fd5b60200101906001600160f81b031916908160001a9053507f78000000000000000000000000000000000000000000000000000000000000008160018151811061172857634e487b7160e01b600052603260045260246000fd5b60200101906001600160f81b031916908160001a905350600061174c846002612a51565b611757906001612a25565b90505b60018111156117f8577f303132333435363738396162636465660000000000000000000000000000000085600f16601081106117a657634e487b7160e01b600052603260045260246000fd5b1a60f81b8282815181106117ca57634e487b7160e01b600052603260045260246000fd5b60200101906001600160f81b031916908160001a90535060049490941c936117f181612ab3565b905061175a565b5083156118475760405162461bcd60e51b815260206004820181905260248201527f537472696e67733a20686578206c656e67746820696e73756666696369656e7460448201526064016109dd565b9392505050565b60006001600160e01b031982167f7965db0b0000000000000000000000000000000000000000000000000000000014806108d057506108d082612289565b600081815260046020526040902080546001600160a01b0319166001600160a01b03841690811790915581906118c182610f7a565b6001600160a01b03167f8c5be1e5ebec7d5bd14f71427d1e84f3dd0314c0f7b2291e5b200ac8c7c3b92560405160405180910390a45050565b60008281526007602090815260408083206001600160a01b038516845290915290205460ff16610eb957611938816001600160a01b0316601461163c565b61194383602061163c565b604051602001611954929190612955565b60408051601f198184030181529082905262461bcd60e51b82526109dd91600401612a12565b6001600160a01b0382166119d05760405162461bcd60e51b815260206004820181905260248201527f4552433732313a206d696e7420746f20746865207a65726f206164647265737360448201526064016109dd565b6000818152600260205260409020546001600160a01b031615611a355760405162461bcd60e51b815260206004820152601c60248201527f4552433732313a20746f6b656e20616c7265616479206d696e7465640000000060448201526064016109dd565b6001600160a01b0382166000908152600360205260408120805460019290611a5e908490612a25565b909155505060008181526002602052604080822080546001600160a01b0319166001600160a01b03861690811790915590518392907fddf252ad1be2c89b69c2b068fc378daa952ba7f163c4a11628f55a4df523b3ef908290a45050565b6000818152600260205260408120546001600160a01b0316611b355760405162461bcd60e51b815260206004820152602c60248201527f4552433732313a206f70657261746f7220717565727920666f72206e6f6e657860448201526b34b9ba32b73a103a37b5b2b760a11b60648201526084016109dd565b6000611b4083610f7a565b9050806001600160a01b0316846001600160a01b03161480611b7b5750836001600160a01b0316611b7084610968565b6001600160a01b0316145b80610cd157506001600160a01b0380821660009081526005602090815260408083209388168352929052205460ff16610cd1565b826001600160a01b0316611bc282610f7a565b6001600160a01b031614611c3e5760405162461bcd60e51b815260206004820152602560248201527f4552433732313a207472616e736665722066726f6d20696e636f72726563742060448201527f6f776e657200000000000000000000000000000000000000000000000000000060648201526084016109dd565b6001600160a01b038216611cb95760405162461bcd60e51b8152602060048201526024808201527f4552433732313a207472616e7366657220746f20746865207a65726f2061646460448201527f726573730000000000000000000000000000000000000000000000000000000060648201526084016109dd565b611cc460008261188c565b6001600160a01b0383166000908152600360205260408120805460019290611ced908490612a70565b90915550506001600160a01b0382166000908152600360205260408120805460019290611d1b908490612a25565b909155505060008181526002602052604080822080546001600160a01b0319166001600160a01b0386811691821790925591518493918716917fddf252ad1be2c89b69c2b068fc378daa952ba7f163c4a11628f55a4df523b3ef91a4505050565b60008281526007602090815260408083206001600160a01b038516845290915290205460ff16610eb95760008281526007602090815260408083206001600160a01b03851684529091529020805460ff19166001179055611dda3390565b6001600160a01b0316816001600160a01b0316837f2f8788117e7eff1d82e926ec794901d17c78024a50270940304540a733656f0d60405160405180910390a45050565b60008281526007602090815260408083206001600160a01b038516845290915290205460ff1615610eb95760008281526007602090815260408083206001600160a01b0385168085529252808320805460ff1916905551339285917ff6391f5c32d9c69d2a47ea670b442974b53935d1edc7fd64eb21e047a839171b9190a45050565b60065460ff16611ef35760405162461bcd60e51b815260206004820152601460248201527f5061757361626c653a206e6f742070617573656400000000000000000000000060448201526064016109dd565b6006805460ff191690557f5db9ee0a495bf2e6ff9c91a7834c1ba4fdd244a5e8aa4e537bd38aeae4b073aa335b6040516001600160a01b03909116815260200160405180910390a1565b600880546001600160a01b038381166001600160a01b0319831681179093556040519116919082907f8be0079c531659141344cd1fd0a4f28419497f9722a3daafe3b4186f6b6457e090600090a35050565b60065460ff1615611fe25760405162461bcd60e51b815260206004820152601060248201527f5061757361626c653a207061757365640000000000000000000000000000000060448201526064016109dd565b6006805460ff191660011790557f62e78cea01bee320cd4e420270b5ea74000d11b0c9f74754ebdbfc544b05a258611f203390565b816001600160a01b0316836001600160a01b031614156120795760405162461bcd60e51b815260206004820152601960248201527f4552433732313a20617070726f766520746f2063616c6c65720000000000000060448201526064016109dd565b6001600160a01b03838116600081815260056020908152604080832094871680845294825291829020805460ff191686151590811790915591519182527f17307eab39ab6107e8899845ad3d59bd9653f200f220920489ca2b5937696c31910160405180910390a3505050565b6120f1848484611baf565b6120fd84848484612324565b6114545760405162461bcd60e51b815260206004820152603260248201527f4552433732313a207472616e7366657220746f206e6f6e20455243373231526560448201527f63656976657220696d706c656d656e746572000000000000000000000000000060648201526084016109dd565b6060816121935750506040805180820190915260018152600360fc1b602082015290565b8160005b81156121bd57806121a781612b05565b91506121b69050600a83612a3d565b9150612197565b60008167ffffffffffffffff8111156121e657634e487b7160e01b600052604160045260246000fd5b6040519080825280601f01601f191660200182016040528015612210576020820181803683370190505b5090505b8415610cd157612225600183612a70565b9150612232600a86612b20565b61223d906030612a25565b60f81b81838151811061226057634e487b7160e01b600052603260045260246000fd5b60200101906001600160f81b031916908160001a905350612282600a86612a3d565b9450612214565b60006001600160e01b031982167f80ac58cd0000000000000000000000000000000000000000000000000000000014806122ec57506001600160e01b031982167f5b5e139f00000000000000000000000000000000000000000000000000000000145b806108d057507f01ffc9a7000000000000000000000000000000000000000000000000000000006001600160e01b03198316146108d0565b60006001600160a01b0384163b1561247c57604051630a85bd0160e11b81526001600160a01b0385169063150b7a02906123689033908990889088906004016129d6565b602060405180830381600087803b15801561238257600080fd5b505af19250505080156123b2575060408051601f3d908101601f191682019092526123af91810190612788565b60015b612462573d8080156123e0576040519150601f19603f3d011682016040523d82523d6000602084013e6123e5565b606091505b50805161245a5760405162461bcd60e51b815260206004820152603260248201527f4552433732313a207472616e7366657220746f206e6f6e20455243373231526560448201527f63656976657220696d706c656d656e746572000000000000000000000000000060648201526084016109dd565b805181602001fd5b6001600160e01b031916630a85bd0160e11b149050610cd1565b506001949350505050565b82805461249390612aca565b90600052602060002090601f0160209004810192826124b557600085556124fb565b82601f106124ce57805160ff19168380011785556124fb565b828001600101855582156124fb579182015b828111156124fb5782518255916020019190600101906124e0565b5061250792915061250b565b5090565b5b80821115612507576000815560010161250c565b600067ffffffffffffffff8084111561253b5761253b612b60565b604051601f8501601f19908116603f0116810190828211818310171561256357612563612b60565b8160405280935085815286868601111561257c57600080fd5b858560208301376000602087830101525050509392505050565b803580151581146113bc57600080fd5b6000602082840312156125b7578081fd5b813561184781612b76565b600080604083850312156125d4578081fd5b82356125df81612b76565b915060208301356125ef81612b76565b809150509250929050565b60008060006060848603121561260e578081fd5b833561261981612b76565b9250602084013561262981612b76565b929592945050506040919091013590565b6000806000806080858703121561264f578081fd5b843561265a81612b76565b9350602085013561266a81612b76565b925060408501359150606085013567ffffffffffffffff81111561268c578182fd5b8501601f8101871361269c578182fd5b6126ab87823560208401612520565b91505092959194509250565b600080604083850312156126c9578182fd5b82356126d481612b76565b91506126e260208401612596565b90509250929050565b600080604083850312156126fd578182fd5b823561270881612b76565b946020939093013593505050565b600060208284031215612727578081fd5b61184782612596565b600060208284031215612741578081fd5b5035919050565b6000806040838503121561275a578182fd5b8235915060208301356125ef81612b76565b60006020828403121561277d578081fd5b813561184781612b8b565b600060208284031215612799578081fd5b815161184781612b8b565b6000602082840312156127b5578081fd5b813567ffffffffffffffff8111156127cb578182fd5b8201601f810184136127db578182fd5b610cd184823560208401612520565b600080604083850312156127fc578182fd5b50508035926020909101359150565b60008151808452612823816020860160208601612a87565b601f01601f19169290920160200192915050565b8054600090600181811c908083168061285157607f831692505b602080841082141561287157634e487b7160e01b86526022600452602486fd5b8180156128855760018114612896576128c3565b60ff198616895284890196506128c3565b60008881526020902060005b868110156128bb5781548b8201529085019083016128a2565b505084890196505b50505050505092915050565b60006128db8285612837565b83516128eb818360208801612a87565b7f2e6a736f6e0000000000000000000000000000000000000000000000000000009101908152600501949350505050565b60006129288284612837565b7f6d657461646174612e6a736f6e000000000000000000000000000000000000008152600d019392505050565b7f416363657373436f6e74726f6c3a206163636f756e742000000000000000000081526000835161298d816017850160208801612a87565b7f206973206d697373696e6720726f6c652000000000000000000000000000000060179184019182015283516129ca816028840160208801612a87565b01602801949350505050565b60006001600160a01b03808716835280861660208401525083604083015260806060830152612a08608083018461280b565b9695505050505050565b602081526000611847602083018461280b565b60008219821115612a3857612a38612b34565b500190565b600082612a4c57612a4c612b4a565b500490565b6000816000190483118215151615612a6b57612a6b612b34565b500290565b600082821015612a8257612a82612b34565b500390565b60005b83811015612aa2578181015183820152602001612a8a565b838111156114545750506000910152565b600081612ac257612ac2612b34565b506000190190565b600181811c90821680612ade57607f821691505b60208210811415612aff57634e487b7160e01b600052602260045260246000fd5b50919050565b6000600019821415612b1957612b19612b34565b5060010190565b600082612b2f57612b2f612b4a565b500690565b634e487b7160e01b600052601160045260246000fd5b634e487b7160e01b600052601260045260246000fd5b634e487b7160e01b600052604160045260246000fd5b6001600160a01b0381168114610f3057600080fd5b6001600160e01b031981168114610f3057600080fdfe241ecf16d79d0f8dbfb92cbc07fe17840425976cf0667f022fe9877caa831b08a264697066735822122032c5a798ccfeefed7e2d477a28f8984ebaa48d5c7454ca174be2d7d236817e4e64736f6c63430008040033687474703a2f2f6c6f63616c686f73743a333030302f6170692f6d657461646174612f",
  "linkReferences": {},
  "deployedLinkReferences": {}
}