{
  "_format": "hh-sol-artifact-1",
  "contractName": "YourContractMinimal",
  "sourceName": "contracts/YourContractMinimal.sol",
  "abi": [
    {
      "inputs": [],
      "stateMutability": "nonpayable",
      "type": "constructor"
    },
    {
      "anonymous": false,
      "inputs": [
        {
          "indexed": true,
          "internalType": "address",
          "name": "owner",
          "type": "address"
        },
        {
          "indexed": true,
          "internalType": "address",
          "name": "approved",
          "type": "address"
        },
        {
          "indexed": true,
          "internalType": "uint256",
          "name": "tokenId",
          "type": "uint256"
        }
      ],
      "name": "Approval",
      "type": "event"
    },
    {
      "anonymous": false,
      "inputs": [
        {
          "indexed": true,
          "internalType": "address",
          "name": "owner",
          "type": "address"
        },
        {
          "indexed": true,
          "internalType": "address",
          "name": "operator",
          "type": "address"
        },
        {
          "indexed": false,
          "internalType": "bool",
          "name": "approved",
          "type": "bool"
        }
      ],
      "name": "ApprovalForAll",
      "type": "event"
    },
    {
      "anonymous": false,
      "inputs": [
        {
          "indexed": true,
          "internalType": "address",
          "name": "previousOwner",
          "type": "address"
        },
        {
          "indexed": true,
          "internalType": "address",
          "name": "newOwner",
          "type": "address"
        }
      ],
      "name": "OwnershipTransferred",
      "type": "event"
    },
    {
      "anonymous": false,
      "inputs": [
        {
          "indexed": false,
          "internalType": "address",
          "name": "account",
          "type": "address"
        }
      ],
      "name": "Paused",
      "type": "event"
    },
    {
      "anonymous": false,
      "inputs": [
        {
          "indexed": true,
          "internalType": "bytes32",
          "name": "role",
          "type": "bytes32"
        },
        {
          "indexed": true,
          "internalType": "bytes32",
          "name": "previousAdminRole",
          "type": "bytes32"
        },
        {
          "indexed": true,
          "internalType": "bytes32",
          "name": "newAdminRole",
          "type": "bytes32"
        }
      ],
      "name": "RoleAdminChanged",
      "type": "event"
    },
    {
      "anonymous": false,
      "inputs": [
        {
          "indexed": true,
          "internalType": "bytes32",
          "name": "role",
          "type": "bytes32"
        },
        {
          "indexed": true,
          "internalType": "address",
          "name": "account",
          "type": "address"
        },
        {
          "indexed": true,
          "internalType": "address",
          "name": "sender",
          "type": "address"
        }
      ],
      "name": "RoleGranted",
      "type": "event"
    },
    {
      "anonymous": false,
      "inputs": [
        {
          "indexed": true,
          "internalType": "bytes32",
          "name": "role",
          "type": "bytes32"
        },
        {
          "indexed": true,
          "internalType": "address",
          "name": "account",
          "type": "address"
        },
        {
          "indexed": true,
          "internalType": "address",
          "name": "sender",
          "type": "address"
        }
      ],
      "name": "RoleRevoked",
      "type": "event"
    },
    {
      "anonymous": false,
      "inputs": [
        {
          "indexed": true,
          "internalType": "address",
          "name": "from",
          "type": "address"
        },
        {
          "indexed": true,
          "internalType": "address",
          "name": "to",
          "type": "address"
        },
        {
          "indexed": true,
          "internalType": "uint256",
          "name": "tokenId",
          "type": "uint256"
        }
      ],
      "name": "Transfer",
      "type": "event"
    },
    {
      "anonymous": false,
      "inputs": [
        {
          "indexed": false,
          "internalType": "address",
          "name": "account",
          "type": "address"
        }
      ],
      "name": "Unpaused",
      "type": "event"
    },
    {
      "stateMutability": "payable",
      "type": "fallback"
    },
    {
      "inputs": [],
      "name": "DEFAULT_ADMIN_ROLE",
      "outputs": [
        {
          "internalType": "bytes32",
          "name": "",
          "type": "bytes32"
        }
      ],
      "stateMutability": "view",
      "type": "function"
    },
    {
      "inputs": [],
      "name": "ETH_PRICE",
      "outputs": [
        {
          "internalType": "uint256",
          "name": "",
          "type": "uint256"
        }
      ],
      "stateMutability": "view",
      "type": "function"
    },
    {
      "inputs": [],
      "name": "MANAGER_ROLE",
      "outputs": [
        {
          "internalType": "bytes32",
          "name": "",
          "type": "bytes32"
        }
      ],
      "stateMutability": "view",
      "type": "function"
    },
    {
      "inputs": [],
      "name": "MAX_MINT_COUNT",
      "outputs": [
        {
          "internalType": "uint256",
          "name": "",
          "type": "uint256"
        }
      ],
      "stateMutability": "view",
      "type": "function"
    },
    {
      "inputs": [],
      "name": "MAX_SUPPLY",
      "outputs": [
        {
          "internalType": "uint256",
          "name": "",
          "type": "uint256"
        }
      ],
      "stateMutability": "view",
      "type": "function"
    },
    {
      "inputs": [],
      "name": "TEAM_MINT_COUNT",
      "outputs": [
        {
          "internalType": "uint256",
          "name": "",
          "type": "uint256"
        }
      ],
      "stateMutability": "view",
      "type": "function"
    },
    {
      "inputs": [],
      "name": "_baseURIextended",
      "outputs": [
        {
          "internalType": "string",
          "name": "",
          "type": "string"
        }
      ],
      "stateMutability": "view",
      "type": "function"
    },
    {
      "inputs": [],
      "name": "_merkleRoot",
      "outputs": [
        {
          "internalType": "bytes32",
          "name": "",
          "type": "bytes32"
        }
      ],
      "stateMutability": "view",
      "type": "function"
    },
    {
      "inputs": [],
      "name": "_royaltyBasis",
      "outputs": [
        {
          "internalType": "uint256",
          "name": "",
          "type": "uint256"
        }
      ],
      "stateMutability": "view",
      "type": "function"
    },
    {
      "inputs": [
        {
          "internalType": "address",
          "name": "to",
          "type": "address"
        },
        {
          "internalType": "uint256",
          "name": "tokenId",
          "type": "uint256"
        }
      ],
      "name": "approve",
      "outputs": [],
      "stateMutability": "nonpayable",
      "type": "function"
    },
    {
      "inputs": [
        {
          "internalType": "address",
          "name": "owner",
          "type": "address"
        }
      ],
      "name": "balanceOf",
      "outputs": [
        {
          "internalType": "uint256",
          "name": "",
          "type": "uint256"
        }
      ],
      "stateMutability": "view",
      "type": "function"
    },
    {
      "inputs": [],
      "name": "contractURI",
      "outputs": [
        {
          "internalType": "string",
          "name": "",
          "type": "string"
        }
      ],
      "stateMutability": "view",
      "type": "function"
    },
    {
      "inputs": [
        {
          "internalType": "uint256",
          "name": "tokenId",
          "type": "uint256"
        }
      ],
      "name": "getApproved",
      "outputs": [
        {
          "internalType": "address",
          "name": "",
          "type": "address"
        }
      ],
      "stateMutability": "view",
      "type": "function"
    },
    {
      "inputs": [
        {
          "internalType": "bytes32",
          "name": "role",
          "type": "bytes32"
        }
      ],
      "name": "getRoleAdmin",
      "outputs": [
        {
          "internalType": "bytes32",
          "name": "",
          "type": "bytes32"
        }
      ],
      "stateMutability": "view",
      "type": "function"
    },
    {
      "inputs": [
        {
          "internalType": "bytes32",
          "name": "role",
          "type": "bytes32"
        },
        {
          "internalType": "address",
          "name": "account",
          "type": "address"
        }
      ],
      "name": "grantRole",
      "outputs": [],
      "stateMutability": "nonpayable",
      "type": "function"
    },
    {
      "inputs": [
        {
          "internalType": "bytes32",
          "name": "role",
          "type": "bytes32"
        },
        {
          "internalType": "address",
          "name": "account",
          "type": "address"
        }
      ],
      "name": "hasRole",
      "outputs": [
        {
          "internalType": "bool",
          "name": "",
          "type": "bool"
        }
      ],
      "stateMutability": "view",
      "type": "function"
    },
    {
      "inputs": [
        {
          "internalType": "address",
          "name": "owner",
          "type": "address"
        },
        {
          "internalType": "address",
          "name": "operator",
          "type": "address"
        }
      ],
      "name": "isApprovedForAll",
      "outputs": [
        {
          "internalType": "bool",
          "name": "",
          "type": "bool"
        }
      ],
      "stateMutability": "view",
      "type": "function"
    },
    {
      "inputs": [],
      "name": "maxSupply",
      "outputs": [
        {
          "internalType": "uint256",
          "name": "",
          "type": "uint256"
        }
      ],
      "stateMutability": "pure",
      "type": "function"
    },
    {
      "inputs": [
        {
          "internalType": "uint256",
          "name": "count",
          "type": "uint256"
        }
      ],
      "name": "mint",
      "outputs": [
        {
          "internalType": "uint256",
          "name": "",
          "type": "uint256"
        }
      ],
      "stateMutability": "payable",
      "type": "function"
    },
    {
      "inputs": [],
      "name": "name",
      "outputs": [
        {
          "internalType": "string",
          "name": "",
          "type": "string"
        }
      ],
      "stateMutability": "view",
      "type": "function"
    },
    {
      "inputs": [],
      "name": "owner",
      "outputs": [
        {
          "internalType": "address",
          "name": "",
          "type": "address"
        }
      ],
      "stateMutability": "view",
      "type": "function"
    },
    {
      "inputs": [
        {
          "internalType": "uint256",
          "name": "tokenId",
          "type": "uint256"
        }
      ],
      "name": "ownerOf",
      "outputs": [
        {
          "internalType": "address",
          "name": "",
          "type": "address"
        }
      ],
      "stateMutability": "view",
      "type": "function"
    },
    {
      "inputs": [],
      "name": "pause",
      "outputs": [],
      "stateMutability": "nonpayable",
      "type": "function"
    },
    {
      "inputs": [],
      "name": "paused",
      "outputs": [
        {
          "internalType": "bool",
          "name": "",
          "type": "bool"
        }
      ],
      "stateMutability": "view",
      "type": "function"
    },
    {
      "inputs": [],
      "name": "renounceOwnership",
      "outputs": [],
      "stateMutability": "nonpayable",
      "type": "function"
    },
    {
      "inputs": [
        {
          "internalType": "bytes32",
          "name": "role",
          "type": "bytes32"
        },
        {
          "internalType": "address",
          "name": "account",
          "type": "address"
        }
      ],
      "name": "renounceRole",
      "outputs": [],
      "stateMutability": "nonpayable",
      "type": "function"
    },
    {
      "inputs": [
        {
          "internalType": "bytes32",
          "name": "role",
          "type": "bytes32"
        },
        {
          "internalType": "address",
          "name": "account",
          "type": "address"
        }
      ],
      "name": "revokeRole",
      "outputs": [],
      "stateMutability": "nonpayable",
      "type": "function"
    },
    {
      "inputs": [
        {
          "internalType": "uint256",
          "name": "tokenId",
          "type": "uint256"
        },
        {
          "internalType": "uint256",
          "name": "salePrice",
          "type": "uint256"
        }
      ],
      "name": "royaltyInfo",
      "outputs": [
        {
          "internalType": "address",
          "name": "receiver",
          "type": "address"
        },
        {
          "internalType": "uint256",
          "name": "royaltyAmount",
          "type": "uint256"
        }
      ],
      "stateMutability": "view",
      "type": "function"
    },
    {
      "inputs": [
        {
          "internalType": "address",
          "name": "from",
          "type": "address"
        },
        {
          "internalType": "address",
          "name": "to",
          "type": "address"
        },
        {
          "internalType": "uint256",
          "name": "tokenId",
          "type": "uint256"
        }
      ],
      "name": "safeTransferFrom",
      "outputs": [],
      "stateMutability": "nonpayable",
      "type": "function"
    },
    {
      "inputs": [
        {
          "internalType": "address",
          "name": "from",
          "type": "address"
        },
        {
          "internalType": "address",
          "name": "to",
          "type": "address"
        },
        {
          "internalType": "uint256",
          "name": "tokenId",
          "type": "uint256"
        },
        {
          "internalType": "bytes",
          "name": "_data",
          "type": "bytes"
        }
      ],
      "name": "safeTransferFrom",
      "outputs": [],
      "stateMutability": "nonpayable",
      "type": "function"
    },
    {
      "inputs": [],
      "name": "saleActive",
      "outputs": [
        {
          "internalType": "bool",
          "name": "",
          "type": "bool"
        }
      ],
      "stateMutability": "view",
      "type": "function"
    },
    {
      "inputs": [
        {
          "internalType": "address",
          "name": "operator",
          "type": "address"
        },
        {
          "internalType": "bool",
          "name": "approved",
          "type": "bool"
        }
      ],
      "name": "setApprovalForAll",
      "outputs": [],
      "stateMutability": "nonpayable",
      "type": "function"
    },
    {
      "inputs": [
        {
          "internalType": "string",
          "name": "baseURI_",
          "type": "string"
        }
      ],
      "name": "setBaseURI",
      "outputs": [],
      "stateMutability": "nonpayable",
      "type": "function"
    },
    {
      "inputs": [
        {
          "internalType": "address payable",
          "name": "royaltyWallet_",
          "type": "address"
        }
      ],
      "name": "setRoyaltyWallet",
      "outputs": [],
      "stateMutability": "nonpayable",
      "type": "function"
    },
    {
      "inputs": [
        {
          "internalType": "bool",
          "name": "val",
          "type": "bool"
        }
      ],
      "name": "setSaleActive",
      "outputs": [],
      "stateMutability": "nonpayable",
      "type": "function"
    },
    {
      "inputs": [
        {
          "internalType": "address payable",
          "name": "withdrawalWallet_",
          "type": "address"
        }
      ],
      "name": "setWithdrawalWallet",
      "outputs": [],
      "stateMutability": "nonpayable",
      "type": "function"
    },
    {
      "inputs": [
        {
          "internalType": "bytes4",
          "name": "interfaceId",
          "type": "bytes4"
        }
      ],
      "name": "supportsInterface",
      "outputs": [
        {
          "internalType": "bool",
          "name": "",
          "type": "bool"
        }
      ],
      "stateMutability": "view",
      "type": "function"
    },
    {
      "inputs": [],
      "name": "symbol",
      "outputs": [
        {
          "internalType": "string",
          "name": "",
          "type": "string"
        }
      ],
      "stateMutability": "view",
      "type": "function"
    },
    {
      "inputs": [
        {
          "internalType": "uint256",
          "name": "count",
          "type": "uint256"
        },
        {
          "internalType": "address",
          "name": "recipient",
          "type": "address"
        }
      ],
      "name": "teamMint",
      "outputs": [
        {
          "internalType": "uint256",
          "name": "",
          "type": "uint256"
        }
      ],
      "stateMutability": "nonpayable",
      "type": "function"
    },
    {
      "inputs": [
        {
          "internalType": "uint256",
          "name": "tokenId",
          "type": "uint256"
        }
      ],
      "name": "tokenURI",
      "outputs": [
        {
          "internalType": "string",
          "name": "",
          "type": "string"
        }
      ],
      "stateMutability": "view",
      "type": "function"
    },
    {
      "inputs": [],
      "name": "totalSupply",
      "outputs": [
        {
          "internalType": "uint256",
          "name": "",
          "type": "uint256"
        }
      ],
      "stateMutability": "view",
      "type": "function"
    },
    {
      "inputs": [
        {
          "internalType": "address",
          "name": "from",
          "type": "address"
        },
        {
          "internalType": "address",
          "name": "to",
          "type": "address"
        },
        {
          "internalType": "uint256",
          "name": "tokenId",
          "type": "uint256"
        }
      ],
      "name": "transferFrom",
      "outputs": [],
      "stateMutability": "nonpayable",
      "type": "function"
    },
    {
      "inputs": [
        {
          "internalType": "address",
          "name": "_newOwner",
          "type": "address"
        }
      ],
      "name": "transferOwnership",
      "outputs": [],
      "stateMutability": "nonpayable",
      "type": "function"
    },
    {
      "inputs": [],
      "name": "unpause",
      "outputs": [],
      "stateMutability": "nonpayable",
      "type": "function"
    },
    {
      "inputs": [],
      "name": "withdraw",
      "outputs": [],
      "stateMutability": "nonpayable",
      "type": "function"
    },
    {
      "stateMutability": "payable",
      "type": "receive"
    }
  ],
  "bytecode": "0x60e06040526023608081815290620032fd60a03980516200002991600a91602090910190620004f7565b507f7f9947af1470e7df017d480516fb72e1b515240c75cf5afacfd79d475f309f35600b556102ee600e55600f805460ff191690553480156200006b57600080fd5b50604080518082018252600c8082526b165bdd5c90dbdb9d1c9858dd60a21b602080840182815285518087019096529285528401528151919291620000b391600091620004f7565b508051620000c9906001906020840190620004f7565b50506006805460ff1916905550620000e13362000120565b620000ee60003362000172565b6200011a7f241ecf16d79d0f8dbfb92cbc07fe17840425976cf0667f022fe9877caa831b083362000182565b62000728565b600880546001600160a01b038381166001600160a01b0319831681179093556040519116919082907f8be0079c531659141344cd1fd0a4f28419497f9722a3daafe3b4186f6b6457e090600090a35050565b6200017e8282620001b1565b5050565b600082815260076020526040902060010154620001a0813362000255565b620001ac8383620001b1565b505050565b60008281526007602090815260408083206001600160a01b038516845290915290205460ff166200017e5760008281526007602090815260408083206001600160a01b03851684529091529020805460ff19166001179055620002113390565b6001600160a01b0316816001600160a01b0316837f2f8788117e7eff1d82e926ec794901d17c78024a50270940304540a733656f0d60405160405180910390a45050565b60008281526007602090815260408083206001600160a01b038516845290915290205460ff166200017e57620002a1816001600160a01b03166014620002fb60201b6200160a1760201c565b620002b78360206200160a620002fb821b17811c565b604051602001620002ca9291906200059d565b60408051601f198184030181529082905262461bcd60e51b8252620002f29160040162000616565b60405180910390fd5b606060006200030c83600262000666565b620003199060026200064b565b6001600160401b038111156200033f57634e487b7160e01b600052604160045260246000fd5b6040519080825280601f01601f1916602001820160405280156200036a576020820181803683370190505b509050600360fc1b816000815181106200039457634e487b7160e01b600052603260045260246000fd5b60200101906001600160f81b031916908160001a905350600f60fb1b81600181518110620003d257634e487b7160e01b600052603260045260246000fd5b60200101906001600160f81b031916908160001a9053506000620003f884600262000666565b620004059060016200064b565b90505b60018111156200049f576f181899199a1a9b1b9c1cb0b131b232b360811b85600f16601081106200044957634e487b7160e01b600052603260045260246000fd5b1a60f81b8282815181106200046e57634e487b7160e01b600052603260045260246000fd5b60200101906001600160f81b031916908160001a90535060049490941c936200049781620006bb565b905062000408565b508315620004f05760405162461bcd60e51b815260206004820181905260248201527f537472696e67733a20686578206c656e67746820696e73756666696369656e746044820152606401620002f2565b9392505050565b8280546200050590620006d5565b90600052602060002090601f01602090048101928262000529576000855562000574565b82601f106200054457805160ff191683800117855562000574565b8280016001018555821562000574579182015b828111156200057457825182559160200191906001019062000557565b506200058292915062000586565b5090565b5b8082111562000582576000815560010162000587565b7f416363657373436f6e74726f6c3a206163636f756e7420000000000000000000815260008351620005d781601785016020880162000688565b7001034b99036b4b9b9b4b733903937b6329607d1b60179184019182015283516200060a81602884016020880162000688565b01602801949350505050565b60208152600082518060208401526200063781604085016020870162000688565b601f01601f19169190910160400192915050565b6000821982111562000661576200066162000712565b500190565b600081600019048311821515161562000683576200068362000712565b500290565b60005b83811015620006a55781810151838201526020016200068b565b83811115620006b5576000848401525b50505050565b600081620006cd57620006cd62000712565b506000190190565b600181811c90821680620006ea57607f821691505b602082108114156200070c57634e487b7160e01b600052602260045260246000fd5b50919050565b634e487b7160e01b600052601160045260246000fd5b612bc580620007386000396000f3fe6080604052600436106102c65760003560e01c806375796f7611610177578063b88d4fde116100d5578063d5abeb0111610084578063e985e9c511610061578063e985e9c5146107dd578063ec87621c14610826578063f2fde38b1461084857005b8063d5abeb011461079e578063e320acb3146107b3578063e8a3d485146107c857005b8063cdeee637116100b2578063cdeee63714610749578063cdf6530614610769578063d547741f1461077e57005b8063b88d4fde146106e9578063bfa457bc14610709578063c87b56dd1461072957005b806391d1485411610131578063a217fddf1161010e578063a217fddf1461069e578063a22cb465146106b3578063ae3146e9146106d357005b806391d148541461063057806395d89b4114610676578063a0712d681461068b57005b80638456cb591161015f5780638456cb59146105e25780638832bc29146105f75780638da5cb5b1461061257005b806375796f76146105a2578063841718a6146105c257005b806332cb6b0c1161022457806355f804b3116101de57806368428a1b116101bb57806368428a1b1461055357806370a082311461056d578063715018a61461058d57005b806355f804b3146104fb5780635c975abb1461051b5780636352211e1461053357005b80633ccfd60b1161020c5780633ccfd60b146104b15780633f4ba83a146104c657806342842e0e146104db57005b806332cb6b0c1461047b57806336568abe1461049157005b806318160ddd116102805780632a55205a1161025d5780632a55205a146104065780632f2ff15d146104455780632fc37ab21461046557005b806318160ddd1461039357806323b872dd146103b6578063248a9ca3146103d657005b8063081812fc116102ae578063081812fc146103265780630928fc221461035e578063095ea7b31461037357005b806301ffc9a7146102cf57806306fdde031461030457005b366102cd57005b005b3480156102db57600080fd5b506102ef6102ea36600461273a565b610868565b60405190151581526020015b60405180910390f35b34801561031057600080fd5b506103196108ac565b6040516102fb91906129e0565b34801561033257600080fd5b506103466103413660046126fe565b61093e565b6040516001600160a01b0390911681526020016102fb565b34801561036a57600080fd5b506103196109d8565b34801561037f57600080fd5b506102cd61038e3660046126b9565b610a66565b34801561039f57600080fd5b506103a8610b98565b6040519081526020016102fb565b3480156103c257600080fd5b506102cd6103d13660046125c8565b610ba8565b3480156103e257600080fd5b506103a86103f13660046126fe565b60009081526007602052604090206001015490565b34801561041257600080fd5b506104266104213660046127b8565b610c2f565b604080516001600160a01b0390931683526020830191909152016102fb565b34801561045157600080fd5b506102cd610460366004612716565b610cca565b34801561047157600080fd5b506103a8600b5481565b34801561048757600080fd5b506103a861029a81565b34801561049d57600080fd5b506102cd6104ac366004612716565b610cf0565b3480156104bd57600080fd5b506102cd610d7c565b3480156104d257600080fd5b506102cd610dce565b3480156104e757600080fd5b506102cd6104f63660046125c8565b610df2565b34801561050757600080fd5b506102cd610516366004612772565b610e0d565b34801561052757600080fd5b5060065460ff166102ef565b34801561053f57600080fd5b5061034661054e3660046126fe565b610e39565b34801561055f57600080fd5b50600f546102ef9060ff1681565b34801561057957600080fd5b506103a8610588366004612574565b610ec4565b34801561059957600080fd5b506102cd610f5e565b3480156105ae57600080fd5b506102cd6105bd366004612574565b610fc4565b3480156105ce57600080fd5b506102cd6105dd3660046126e4565b611000565b3480156105ee57600080fd5b506102cd61102d565b34801561060357600080fd5b506103a866f523226980800081565b34801561061e57600080fd5b506008546001600160a01b0316610346565b34801561063c57600080fd5b506102ef61064b366004612716565b60009182526007602090815260408084206001600160a01b0393909316845291905290205460ff1690565b34801561068257600080fd5b5061031961104e565b6103a86106993660046126fe565b61105d565b3480156106aa57600080fd5b506103a8600081565b3480156106bf57600080fd5b506102cd6106ce366004612685565b61127b565b3480156106df57600080fd5b506103a8600e5481565b3480156106f557600080fd5b506102cd610704366004612608565b611286565b34801561071557600080fd5b506103a8610724366004612716565b611314565b34801561073557600080fd5b506103196107443660046126fe565b611428565b34801561075557600080fd5b506102cd610764366004612574565b6114b4565b34801561077557600080fd5b506103a8600a81565b34801561078a57600080fd5b506102cd610799366004612716565b6114f0565b3480156107aa57600080fd5b5061029a6103a8565b3480156107bf57600080fd5b506103a8601481565b3480156107d457600080fd5b50610319611516565b3480156107e957600080fd5b506102ef6107f8366004612590565b6001600160a01b03918216600090815260056020908152604080832093909416825291909152205460ff1690565b34801561083257600080fd5b506103a8600080516020612b7083398151915281565b34801561085457600080fd5b506102cd610863366004612574565b61153e565b60006001600160e01b031982167f2a55205a0000000000000000000000000000000000000000000000000000000014806108a657506108a68261181c565b92915050565b6060600080546108bb90612a98565b80601f01602080910402602001604051908101604052809291908181526020018280546108e790612a98565b80156109345780601f1061090957610100808354040283529160200191610934565b820191906000526020600020905b81548152906001019060200180831161091757829003601f168201915b5050505050905090565b6000818152600260205260408120546001600160a01b03166109bc5760405162461bcd60e51b815260206004820152602c60248201527f4552433732313a20617070726f76656420717565727920666f72206e6f6e657860448201526b34b9ba32b73a103a37b5b2b760a11b60648201526084015b60405180910390fd5b506000908152600460205260409020546001600160a01b031690565b600a80546109e590612a98565b80601f0160208091040260200160405190810160405280929190818152602001828054610a1190612a98565b8015610a5e5780601f10610a3357610100808354040283529160200191610a5e565b820191906000526020600020905b815481529060010190602001808311610a4157829003601f168201915b505050505081565b6000610a7182610e39565b9050806001600160a01b0316836001600160a01b03161415610afb5760405162461bcd60e51b815260206004820152602160248201527f4552433732313a20617070726f76616c20746f2063757272656e74206f776e6560448201527f720000000000000000000000000000000000000000000000000000000000000060648201526084016109b3565b336001600160a01b0382161480610b175750610b1781336107f8565b610b895760405162461bcd60e51b815260206004820152603860248201527f4552433732313a20617070726f76652063616c6c6572206973206e6f74206f7760448201527f6e6572206e6f7220617070726f76656420666f7220616c6c000000000000000060648201526084016109b3565b610b93838361185a565b505050565b6000610ba360095490565b905090565b610bb233826118c8565b610c245760405162461bcd60e51b815260206004820152603160248201527f4552433732313a207472616e736665722063616c6c6572206973206e6f74206f60448201527f776e6572206e6f7220617070726f76656400000000000000000000000000000060648201526084016109b3565b610b938383836119bb565b60008281526002602052604081205481906001600160a01b0316610c955760405162461bcd60e51b815260206004820152601160248201527f4e6f6e6578697374656e7420746f6b656e00000000000000000000000000000060448201526064016109b3565b600d54600e546001600160a01b039091169061271090610cb59086612a1f565b610cbf9190612a0b565b915091509250929050565b600082815260076020526040902060010154610ce68133611b88565b610b938383611c08565b6001600160a01b0381163314610d6e5760405162461bcd60e51b815260206004820152602f60248201527f416363657373436f6e74726f6c3a2063616e206f6e6c792072656e6f756e636560448201527f20726f6c657320666f722073656c66000000000000000000000000000000000060648201526084016109b3565b610d788282611caa565b5050565b600080516020612b70833981519152610d958133611b88565b600c546040516001600160a01b03909116904780156108fc02916000818181858888f19350505050158015610d78573d6000803e3d6000fd5b600080516020612b70833981519152610de78133611b88565b610def611d2d565b50565b610b9383838360405180602001604052806000815250611286565b600080516020612b70833981519152610e268133611b88565b8151610b9390600a906020850190612455565b6000818152600260205260408120546001600160a01b0316806108a65760405162461bcd60e51b815260206004820152602960248201527f4552433732313a206f776e657220717565727920666f72206e6f6e657869737460448201527f656e7420746f6b656e000000000000000000000000000000000000000000000060648201526084016109b3565b60006001600160a01b038216610f425760405162461bcd60e51b815260206004820152602a60248201527f4552433732313a2062616c616e636520717565727920666f7220746865207a6560448201527f726f20616464726573730000000000000000000000000000000000000000000060648201526084016109b3565b506001600160a01b031660009081526003602052604090205490565b6008546001600160a01b03163314610fb85760405162461bcd60e51b815260206004820181905260248201527f4f776e61626c653a2063616c6c6572206973206e6f7420746865206f776e657260448201526064016109b3565b610fc26000611dc9565b565b600080516020612b70833981519152610fdd8133611b88565b50600c80546001600160a01b0319166001600160a01b0392909216919091179055565b600080516020612b708339815191526110198133611b88565b50600f805460ff1916911515919091179055565b600080516020612b708339815191526110468133611b88565b610def611e1b565b6060600180546108bb90612a98565b600061106b60065460ff1690565b156110b85760405162461bcd60e51b815260206004820152601060248201527f5061757361626c653a207061757365640000000000000000000000000000000060448201526064016109b3565b600f5460ff1661110a5760405162461bcd60e51b815260206004820152601260248201527f53616c6520686173206e6f7420626567756e000000000000000000000000000060448201526064016109b3565b3461111c8366f5232269808000612a1f565b146111695760405162461bcd60e51b815260206004820181905260248201527f496e636f7272656374204554482073656e743b20636865636b2070726963652160448201526064016109b3565b600a8211156111e05760405162461bcd60e51b815260206004820152602360248201527f547269656420746f206d696e7420746f6f206d616e79204e465473206174206f60448201527f6e6365000000000000000000000000000000000000000000000000000000000060648201526084016109b3565b61029a826111ed60095490565b6111f791906129f3565b11156112305760405162461bcd60e51b815260206004820152600860248201526714d3d3110813d55560c21b60448201526064016109b3565b60005b8281101561126d57611249600980546001019055565b61125b3361125660095490565b611ea3565b8061126581612ad3565b915050611233565b506009546108a6565b919050565b610d78338383611fe5565b61129033836118c8565b6113025760405162461bcd60e51b815260206004820152603160248201527f4552433732313a207472616e736665722063616c6c6572206973206e6f74206f60448201527f776e6572206e6f7220617070726f76656400000000000000000000000000000060648201526084016109b3565b61130e848484846120b4565b50505050565b6000600080516020612b7083398151915261132f8133611b88565b60148461133b60095490565b61134591906129f3565b11156113935760405162461bcd60e51b815260206004820152601060248201527f4578636565646564206d6178696d756d0000000000000000000000000000000060448201526064016109b3565b61029a846113a060095490565b6113aa91906129f3565b11156113e35760405162461bcd60e51b815260206004820152600860248201526714d3d3110813d55560c21b60448201526064016109b3565b60005b8481101561141b576113fc600980546001019055565b6114098461125660095490565b8061141381612ad3565b9150506113e6565b506009545b949350505050565b606061143360095490565b8211156114825760405162461bcd60e51b815260206004820152601160248201527f4e6f6e6578697374656e7420746f6b656e00000000000000000000000000000060448201526064016109b3565b600a61148d8361213d565b60405160200161149e92919061289d565b6040516020818303038152906040529050919050565b600080516020612b708339815191526114cd8133611b88565b50600d80546001600160a01b0319166001600160a01b0392909216919091179055565b60008281526007602052604090206001015461150c8133611b88565b610b938383611caa565b6060600a60405160200161152a91906128ea565b604051602081830303815290604052905090565b6008546001600160a01b031633146115985760405162461bcd60e51b815260206004820181905260248201527f4f776e61626c653a2063616c6c6572206973206e6f7420746865206f776e657260448201526064016109b3565b60006115ac6008546001600160a01b031690565b90506115c6600080516020612b70833981519152826114f0565b6115de600080516020612b70833981519152826114f0565b6115e782611dc9565b6115f2600083610cca565b610d78600080516020612b7083398151915283610cca565b60606000611619836002612a1f565b6116249060026129f3565b67ffffffffffffffff81111561164a57634e487b7160e01b600052604160045260246000fd5b6040519080825280601f01601f191660200182016040528015611674576020820181803683370190505b509050600360fc1b8160008151811061169d57634e487b7160e01b600052603260045260246000fd5b60200101906001600160f81b031916908160001a9053507f7800000000000000000000000000000000000000000000000000000000000000816001815181106116f657634e487b7160e01b600052603260045260246000fd5b60200101906001600160f81b031916908160001a905350600061171a846002612a1f565b6117259060016129f3565b90505b60018111156117c6577f303132333435363738396162636465660000000000000000000000000000000085600f166010811061177457634e487b7160e01b600052603260045260246000fd5b1a60f81b82828151811061179857634e487b7160e01b600052603260045260246000fd5b60200101906001600160f81b031916908160001a90535060049490941c936117bf81612a81565b9050611728565b5083156118155760405162461bcd60e51b815260206004820181905260248201527f537472696e67733a20686578206c656e67746820696e73756666696369656e7460448201526064016109b3565b9392505050565b60006001600160e01b031982167f7965db0b0000000000000000000000000000000000000000000000000000000014806108a657506108a682612257565b600081815260046020526040902080546001600160a01b0319166001600160a01b038416908117909155819061188f82610e39565b6001600160a01b03167f8c5be1e5ebec7d5bd14f71427d1e84f3dd0314c0f7b2291e5b200ac8c7c3b92560405160405180910390a45050565b6000818152600260205260408120546001600160a01b03166119415760405162461bcd60e51b815260206004820152602c60248201527f4552433732313a206f70657261746f7220717565727920666f72206e6f6e657860448201526b34b9ba32b73a103a37b5b2b760a11b60648201526084016109b3565b600061194c83610e39565b9050806001600160a01b0316846001600160a01b031614806119875750836001600160a01b031661197c8461093e565b6001600160a01b0316145b8061142057506001600160a01b0380821660009081526005602090815260408083209388168352929052205460ff16611420565b826001600160a01b03166119ce82610e39565b6001600160a01b031614611a4a5760405162461bcd60e51b815260206004820152602560248201527f4552433732313a207472616e736665722066726f6d20696e636f72726563742060448201527f6f776e657200000000000000000000000000000000000000000000000000000060648201526084016109b3565b6001600160a01b038216611ac55760405162461bcd60e51b8152602060048201526024808201527f4552433732313a207472616e7366657220746f20746865207a65726f2061646460448201527f726573730000000000000000000000000000000000000000000000000000000060648201526084016109b3565b611ad060008261185a565b6001600160a01b0383166000908152600360205260408120805460019290611af9908490612a3e565b90915550506001600160a01b0382166000908152600360205260408120805460019290611b279084906129f3565b909155505060008181526002602052604080822080546001600160a01b0319166001600160a01b0386811691821790925591518493918716917fddf252ad1be2c89b69c2b068fc378daa952ba7f163c4a11628f55a4df523b3ef91a4505050565b60008281526007602090815260408083206001600160a01b038516845290915290205460ff16610d7857611bc6816001600160a01b0316601461160a565b611bd183602061160a565b604051602001611be2929190612923565b60408051601f198184030181529082905262461bcd60e51b82526109b3916004016129e0565b60008281526007602090815260408083206001600160a01b038516845290915290205460ff16610d785760008281526007602090815260408083206001600160a01b03851684529091529020805460ff19166001179055611c663390565b6001600160a01b0316816001600160a01b0316837f2f8788117e7eff1d82e926ec794901d17c78024a50270940304540a733656f0d60405160405180910390a45050565b60008281526007602090815260408083206001600160a01b038516845290915290205460ff1615610d785760008281526007602090815260408083206001600160a01b0385168085529252808320805460ff1916905551339285917ff6391f5c32d9c69d2a47ea670b442974b53935d1edc7fd64eb21e047a839171b9190a45050565b60065460ff16611d7f5760405162461bcd60e51b815260206004820152601460248201527f5061757361626c653a206e6f742070617573656400000000000000000000000060448201526064016109b3565b6006805460ff191690557f5db9ee0a495bf2e6ff9c91a7834c1ba4fdd244a5e8aa4e537bd38aeae4b073aa335b6040516001600160a01b03909116815260200160405180910390a1565b600880546001600160a01b038381166001600160a01b0319831681179093556040519116919082907f8be0079c531659141344cd1fd0a4f28419497f9722a3daafe3b4186f6b6457e090600090a35050565b60065460ff1615611e6e5760405162461bcd60e51b815260206004820152601060248201527f5061757361626c653a207061757365640000000000000000000000000000000060448201526064016109b3565b6006805460ff191660011790557f62e78cea01bee320cd4e420270b5ea74000d11b0c9f74754ebdbfc544b05a258611dac3390565b6001600160a01b038216611ef95760405162461bcd60e51b815260206004820181905260248201527f4552433732313a206d696e7420746f20746865207a65726f206164647265737360448201526064016109b3565b6000818152600260205260409020546001600160a01b031615611f5e5760405162461bcd60e51b815260206004820152601c60248201527f4552433732313a20746f6b656e20616c7265616479206d696e7465640000000060448201526064016109b3565b6001600160a01b0382166000908152600360205260408120805460019290611f879084906129f3565b909155505060008181526002602052604080822080546001600160a01b0319166001600160a01b03861690811790915590518392907fddf252ad1be2c89b69c2b068fc378daa952ba7f163c4a11628f55a4df523b3ef908290a45050565b816001600160a01b0316836001600160a01b031614156120475760405162461bcd60e51b815260206004820152601960248201527f4552433732313a20617070726f766520746f2063616c6c65720000000000000060448201526064016109b3565b6001600160a01b03838116600081815260056020908152604080832094871680845294825291829020805460ff191686151590811790915591519182527f17307eab39ab6107e8899845ad3d59bd9653f200f220920489ca2b5937696c31910160405180910390a3505050565b6120bf8484846119bb565b6120cb848484846122f2565b61130e5760405162461bcd60e51b815260206004820152603260248201527f4552433732313a207472616e7366657220746f206e6f6e20455243373231526560448201527f63656976657220696d706c656d656e746572000000000000000000000000000060648201526084016109b3565b6060816121615750506040805180820190915260018152600360fc1b602082015290565b8160005b811561218b578061217581612ad3565b91506121849050600a83612a0b565b9150612165565b60008167ffffffffffffffff8111156121b457634e487b7160e01b600052604160045260246000fd5b6040519080825280601f01601f1916602001820160405280156121de576020820181803683370190505b5090505b8415611420576121f3600183612a3e565b9150612200600a86612aee565b61220b9060306129f3565b60f81b81838151811061222e57634e487b7160e01b600052603260045260246000fd5b60200101906001600160f81b031916908160001a905350612250600a86612a0b565b94506121e2565b60006001600160e01b031982167f80ac58cd0000000000000000000000000000000000000000000000000000000014806122ba57506001600160e01b031982167f5b5e139f00000000000000000000000000000000000000000000000000000000145b806108a657507f01ffc9a7000000000000000000000000000000000000000000000000000000006001600160e01b03198316146108a6565b60006001600160a01b0384163b1561244a57604051630a85bd0160e11b81526001600160a01b0385169063150b7a02906123369033908990889088906004016129a4565b602060405180830381600087803b15801561235057600080fd5b505af1925050508015612380575060408051601f3d908101601f1916820190925261237d91810190612756565b60015b612430573d8080156123ae576040519150601f19603f3d011682016040523d82523d6000602084013e6123b3565b606091505b5080516124285760405162461bcd60e51b815260206004820152603260248201527f4552433732313a207472616e7366657220746f206e6f6e20455243373231526560448201527f63656976657220696d706c656d656e746572000000000000000000000000000060648201526084016109b3565b805181602001fd5b6001600160e01b031916630a85bd0160e11b149050611420565b506001949350505050565b82805461246190612a98565b90600052602060002090601f01602090048101928261248357600085556124c9565b82601f1061249c57805160ff19168380011785556124c9565b828001600101855582156124c9579182015b828111156124c95782518255916020019190600101906124ae565b506124d59291506124d9565b5090565b5b808211156124d557600081556001016124da565b600067ffffffffffffffff8084111561250957612509612b2e565b604051601f8501601f19908116603f0116810190828211818310171561253157612531612b2e565b8160405280935085815286868601111561254a57600080fd5b858560208301376000602087830101525050509392505050565b8035801515811461127657600080fd5b600060208284031215612585578081fd5b813561181581612b44565b600080604083850312156125a2578081fd5b82356125ad81612b44565b915060208301356125bd81612b44565b809150509250929050565b6000806000606084860312156125dc578081fd5b83356125e781612b44565b925060208401356125f781612b44565b929592945050506040919091013590565b6000806000806080858703121561261d578081fd5b843561262881612b44565b9350602085013561263881612b44565b925060408501359150606085013567ffffffffffffffff81111561265a578182fd5b8501601f8101871361266a578182fd5b612679878235602084016124ee565b91505092959194509250565b60008060408385031215612697578182fd5b82356126a281612b44565b91506126b060208401612564565b90509250929050565b600080604083850312156126cb578182fd5b82356126d681612b44565b946020939093013593505050565b6000602082840312156126f5578081fd5b61181582612564565b60006020828403121561270f578081fd5b5035919050565b60008060408385031215612728578182fd5b8235915060208301356125bd81612b44565b60006020828403121561274b578081fd5b813561181581612b59565b600060208284031215612767578081fd5b815161181581612b59565b600060208284031215612783578081fd5b813567ffffffffffffffff811115612799578182fd5b8201601f810184136127a9578182fd5b611420848235602084016124ee565b600080604083850312156127ca578182fd5b50508035926020909101359150565b600081518084526127f1816020860160208601612a55565b601f01601f19169290920160200192915050565b8054600090600181811c908083168061281f57607f831692505b602080841082141561283f57634e487b7160e01b86526022600452602486fd5b818015612853576001811461286457612891565b60ff19861689528489019650612891565b60008881526020902060005b868110156128895781548b820152908501908301612870565b505084890196505b50505050505092915050565b60006128a98285612805565b83516128b9818360208801612a55565b7f2e6a736f6e0000000000000000000000000000000000000000000000000000009101908152600501949350505050565b60006128f68284612805565b7f6d657461646174612e6a736f6e000000000000000000000000000000000000008152600d019392505050565b7f416363657373436f6e74726f6c3a206163636f756e742000000000000000000081526000835161295b816017850160208801612a55565b7f206973206d697373696e6720726f6c65200000000000000000000000000000006017918401918201528351612998816028840160208801612a55565b01602801949350505050565b60006001600160a01b038087168352808616602084015250836040830152608060608301526129d660808301846127d9565b9695505050505050565b60208152600061181560208301846127d9565b60008219821115612a0657612a06612b02565b500190565b600082612a1a57612a1a612b18565b500490565b6000816000190483118215151615612a3957612a39612b02565b500290565b600082821015612a5057612a50612b02565b500390565b60005b83811015612a70578181015183820152602001612a58565b8381111561130e5750506000910152565b600081612a9057612a90612b02565b506000190190565b600181811c90821680612aac57607f821691505b60208210811415612acd57634e487b7160e01b600052602260045260246000fd5b50919050565b6000600019821415612ae757612ae7612b02565b5060010190565b600082612afd57612afd612b18565b500690565b634e487b7160e01b600052601160045260246000fd5b634e487b7160e01b600052601260045260246000fd5b634e487b7160e01b600052604160045260246000fd5b6001600160a01b0381168114610def57600080fd5b6001600160e01b031981168114610def57600080fdfe241ecf16d79d0f8dbfb92cbc07fe17840425976cf0667f022fe9877caa831b08a26469706673582212204d24217d762a288cb91ad1e34a10da259a3326e91d5a7a0d25aa7778795fd4f164736f6c63430008040033687474703a2f2f6c6f63616c686f73743a333030302f6170692f6d657461646174612f",
  "linkReferences": {},
  "deployedLinkReferences": {}
}