{
  "_format": "hh-sol-artifact-1",
  "contractName": "YOURCONTRACT",
  "sourceName": "contracts/YOURCONTRACT.sol",
  "abi": [
    {
      "inputs": [],
      "stateMutability": "nonpayable",
      "type": "constructor"
    },
    {
      "anonymous": false,
      "inputs": [
        {
          "indexed": true,
          "internalType": "address",
          "name": "owner",
          "type": "address"
        },
        {
          "indexed": true,
          "internalType": "address",
          "name": "approved",
          "type": "address"
        },
        {
          "indexed": true,
          "internalType": "uint256",
          "name": "tokenId",
          "type": "uint256"
        }
      ],
      "name": "Approval",
      "type": "event"
    },
    {
      "anonymous": false,
      "inputs": [
        {
          "indexed": true,
          "internalType": "address",
          "name": "owner",
          "type": "address"
        },
        {
          "indexed": true,
          "internalType": "address",
          "name": "operator",
          "type": "address"
        },
        {
          "indexed": false,
          "internalType": "bool",
          "name": "approved",
          "type": "bool"
        }
      ],
      "name": "ApprovalForAll",
      "type": "event"
    },
    {
      "anonymous": false,
      "inputs": [
        {
          "indexed": false,
          "internalType": "address",
          "name": "account",
          "type": "address"
        }
      ],
      "name": "Paused",
      "type": "event"
    },
    {
      "anonymous": false,
      "inputs": [
        {
          "indexed": true,
          "internalType": "bytes32",
          "name": "role",
          "type": "bytes32"
        },
        {
          "indexed": true,
          "internalType": "bytes32",
          "name": "previousAdminRole",
          "type": "bytes32"
        },
        {
          "indexed": true,
          "internalType": "bytes32",
          "name": "newAdminRole",
          "type": "bytes32"
        }
      ],
      "name": "RoleAdminChanged",
      "type": "event"
    },
    {
      "anonymous": false,
      "inputs": [
        {
          "indexed": true,
          "internalType": "bytes32",
          "name": "role",
          "type": "bytes32"
        },
        {
          "indexed": true,
          "internalType": "address",
          "name": "account",
          "type": "address"
        },
        {
          "indexed": true,
          "internalType": "address",
          "name": "sender",
          "type": "address"
        }
      ],
      "name": "RoleGranted",
      "type": "event"
    },
    {
      "anonymous": false,
      "inputs": [
        {
          "indexed": true,
          "internalType": "bytes32",
          "name": "role",
          "type": "bytes32"
        },
        {
          "indexed": true,
          "internalType": "address",
          "name": "account",
          "type": "address"
        },
        {
          "indexed": true,
          "internalType": "address",
          "name": "sender",
          "type": "address"
        }
      ],
      "name": "RoleRevoked",
      "type": "event"
    },
    {
      "anonymous": false,
      "inputs": [
        {
          "indexed": true,
          "internalType": "address",
          "name": "from",
          "type": "address"
        },
        {
          "indexed": true,
          "internalType": "address",
          "name": "to",
          "type": "address"
        },
        {
          "indexed": true,
          "internalType": "uint256",
          "name": "tokenId",
          "type": "uint256"
        }
      ],
      "name": "Transfer",
      "type": "event"
    },
    {
      "anonymous": false,
      "inputs": [
        {
          "indexed": false,
          "internalType": "address",
          "name": "account",
          "type": "address"
        }
      ],
      "name": "Unpaused",
      "type": "event"
    },
    {
      "inputs": [],
      "name": "ARTIST_PROOF_COUNT",
      "outputs": [
        {
          "internalType": "uint256",
          "name": "",
          "type": "uint256"
        }
      ],
      "stateMutability": "view",
      "type": "function"
    },
    {
      "inputs": [],
      "name": "DEFAULT_ADMIN_ROLE",
      "outputs": [
        {
          "internalType": "bytes32",
          "name": "",
          "type": "bytes32"
        }
      ],
      "stateMutability": "view",
      "type": "function"
    },
    {
      "inputs": [],
      "name": "ETH_PRICE",
      "outputs": [
        {
          "internalType": "uint256",
          "name": "",
          "type": "uint256"
        }
      ],
      "stateMutability": "view",
      "type": "function"
    },
    {
      "inputs": [],
      "name": "MANAGER_ROLE",
      "outputs": [
        {
          "internalType": "bytes32",
          "name": "",
          "type": "bytes32"
        }
      ],
      "stateMutability": "view",
      "type": "function"
    },
    {
      "inputs": [],
      "name": "MAX_MINT_COUNT",
      "outputs": [
        {
          "internalType": "uint256",
          "name": "",
          "type": "uint256"
        }
      ],
      "stateMutability": "view",
      "type": "function"
    },
    {
      "inputs": [],
      "name": "MAX_SUPPLY",
      "outputs": [
        {
          "internalType": "uint256",
          "name": "",
          "type": "uint256"
        }
      ],
      "stateMutability": "view",
      "type": "function"
    },
    {
      "inputs": [
        {
          "internalType": "address",
          "name": "to",
          "type": "address"
        },
        {
          "internalType": "uint256",
          "name": "tokenId",
          "type": "uint256"
        }
      ],
      "name": "approve",
      "outputs": [],
      "stateMutability": "nonpayable",
      "type": "function"
    },
    {
      "inputs": [
        {
          "internalType": "uint256",
          "name": "count",
          "type": "uint256"
        },
        {
          "internalType": "address",
          "name": "recipient",
          "type": "address"
        }
      ],
      "name": "artistMint",
      "outputs": [
        {
          "internalType": "uint256",
          "name": "",
          "type": "uint256"
        }
      ],
      "stateMutability": "nonpayable",
      "type": "function"
    },
    {
      "inputs": [
        {
          "internalType": "address",
          "name": "owner",
          "type": "address"
        }
      ],
      "name": "balanceOf",
      "outputs": [
        {
          "internalType": "uint256",
          "name": "",
          "type": "uint256"
        }
      ],
      "stateMutability": "view",
      "type": "function"
    },
    {
      "inputs": [],
      "name": "contractURI",
      "outputs": [
        {
          "internalType": "string",
          "name": "",
          "type": "string"
        }
      ],
      "stateMutability": "view",
      "type": "function"
    },
    {
      "inputs": [
        {
          "internalType": "uint256",
          "name": "tokenId",
          "type": "uint256"
        }
      ],
      "name": "getApproved",
      "outputs": [
        {
          "internalType": "address",
          "name": "",
          "type": "address"
        }
      ],
      "stateMutability": "view",
      "type": "function"
    },
    {
      "inputs": [
        {
          "internalType": "bytes32",
          "name": "role",
          "type": "bytes32"
        }
      ],
      "name": "getRoleAdmin",
      "outputs": [
        {
          "internalType": "bytes32",
          "name": "",
          "type": "bytes32"
        }
      ],
      "stateMutability": "view",
      "type": "function"
    },
    {
      "inputs": [
        {
          "internalType": "bytes32",
          "name": "role",
          "type": "bytes32"
        },
        {
          "internalType": "address",
          "name": "account",
          "type": "address"
        }
      ],
      "name": "grantRole",
      "outputs": [],
      "stateMutability": "nonpayable",
      "type": "function"
    },
    {
      "inputs": [
        {
          "internalType": "bytes32",
          "name": "role",
          "type": "bytes32"
        },
        {
          "internalType": "address",
          "name": "account",
          "type": "address"
        }
      ],
      "name": "hasRole",
      "outputs": [
        {
          "internalType": "bool",
          "name": "",
          "type": "bool"
        }
      ],
      "stateMutability": "view",
      "type": "function"
    },
    {
      "inputs": [
        {
          "internalType": "address",
          "name": "owner",
          "type": "address"
        },
        {
          "internalType": "address",
          "name": "operator",
          "type": "address"
        }
      ],
      "name": "isApprovedForAll",
      "outputs": [
        {
          "internalType": "bool",
          "name": "",
          "type": "bool"
        }
      ],
      "stateMutability": "view",
      "type": "function"
    },
    {
      "inputs": [],
      "name": "maxSupply",
      "outputs": [
        {
          "internalType": "uint256",
          "name": "",
          "type": "uint256"
        }
      ],
      "stateMutability": "pure",
      "type": "function"
    },
    {
      "inputs": [
        {
          "internalType": "uint256",
          "name": "count",
          "type": "uint256"
        }
      ],
      "name": "mint",
      "outputs": [
        {
          "internalType": "uint256",
          "name": "",
          "type": "uint256"
        }
      ],
      "stateMutability": "payable",
      "type": "function"
    },
    {
      "inputs": [],
      "name": "name",
      "outputs": [
        {
          "internalType": "string",
          "name": "",
          "type": "string"
        }
      ],
      "stateMutability": "view",
      "type": "function"
    },
    {
      "inputs": [
        {
          "internalType": "uint256",
          "name": "tokenId",
          "type": "uint256"
        }
      ],
      "name": "ownerOf",
      "outputs": [
        {
          "internalType": "address",
          "name": "",
          "type": "address"
        }
      ],
      "stateMutability": "view",
      "type": "function"
    },
    {
      "inputs": [],
      "name": "pause",
      "outputs": [],
      "stateMutability": "nonpayable",
      "type": "function"
    },
    {
      "inputs": [],
      "name": "paused",
      "outputs": [
        {
          "internalType": "bool",
          "name": "",
          "type": "bool"
        }
      ],
      "stateMutability": "view",
      "type": "function"
    },
    {
      "inputs": [],
      "name": "provenanceHash",
      "outputs": [
        {
          "internalType": "string",
          "name": "",
          "type": "string"
        }
      ],
      "stateMutability": "view",
      "type": "function"
    },
    {
      "inputs": [
        {
          "internalType": "bytes32",
          "name": "role",
          "type": "bytes32"
        },
        {
          "internalType": "address",
          "name": "account",
          "type": "address"
        }
      ],
      "name": "renounceRole",
      "outputs": [],
      "stateMutability": "nonpayable",
      "type": "function"
    },
    {
      "inputs": [
        {
          "internalType": "bytes32",
          "name": "role",
          "type": "bytes32"
        },
        {
          "internalType": "address",
          "name": "account",
          "type": "address"
        }
      ],
      "name": "revokeRole",
      "outputs": [],
      "stateMutability": "nonpayable",
      "type": "function"
    },
    {
      "inputs": [
        {
          "internalType": "uint256",
          "name": "tokenId",
          "type": "uint256"
        },
        {
          "internalType": "uint256",
          "name": "salePrice",
          "type": "uint256"
        }
      ],
      "name": "royaltyInfo",
      "outputs": [
        {
          "internalType": "address",
          "name": "receiver",
          "type": "address"
        },
        {
          "internalType": "uint256",
          "name": "royaltyAmount",
          "type": "uint256"
        }
      ],
      "stateMutability": "view",
      "type": "function"
    },
    {
      "inputs": [
        {
          "internalType": "address",
          "name": "from",
          "type": "address"
        },
        {
          "internalType": "address",
          "name": "to",
          "type": "address"
        },
        {
          "internalType": "uint256",
          "name": "tokenId",
          "type": "uint256"
        }
      ],
      "name": "safeTransferFrom",
      "outputs": [],
      "stateMutability": "nonpayable",
      "type": "function"
    },
    {
      "inputs": [
        {
          "internalType": "address",
          "name": "from",
          "type": "address"
        },
        {
          "internalType": "address",
          "name": "to",
          "type": "address"
        },
        {
          "internalType": "uint256",
          "name": "tokenId",
          "type": "uint256"
        },
        {
          "internalType": "bytes",
          "name": "_data",
          "type": "bytes"
        }
      ],
      "name": "safeTransferFrom",
      "outputs": [],
      "stateMutability": "nonpayable",
      "type": "function"
    },
    {
      "inputs": [
        {
          "internalType": "address",
          "name": "operator",
          "type": "address"
        },
        {
          "internalType": "bool",
          "name": "approved",
          "type": "bool"
        }
      ],
      "name": "setApprovalForAll",
      "outputs": [],
      "stateMutability": "nonpayable",
      "type": "function"
    },
    {
      "inputs": [
        {
          "internalType": "string",
          "name": "baseURI_",
          "type": "string"
        }
      ],
      "name": "setBaseURI",
      "outputs": [],
      "stateMutability": "nonpayable",
      "type": "function"
    },
    {
      "inputs": [
        {
          "internalType": "string",
          "name": "provenanceHash_",
          "type": "string"
        }
      ],
      "name": "setProvenanceHash",
      "outputs": [],
      "stateMutability": "nonpayable",
      "type": "function"
    },
    {
      "inputs": [
        {
          "internalType": "address payable",
          "name": "withdrawalWallet_",
          "type": "address"
        }
      ],
      "name": "setWithdrawalWallet",
      "outputs": [],
      "stateMutability": "nonpayable",
      "type": "function"
    },
    {
      "inputs": [
        {
          "internalType": "bytes4",
          "name": "interfaceId",
          "type": "bytes4"
        }
      ],
      "name": "supportsInterface",
      "outputs": [
        {
          "internalType": "bool",
          "name": "",
          "type": "bool"
        }
      ],
      "stateMutability": "view",
      "type": "function"
    },
    {
      "inputs": [],
      "name": "symbol",
      "outputs": [
        {
          "internalType": "string",
          "name": "",
          "type": "string"
        }
      ],
      "stateMutability": "view",
      "type": "function"
    },
    {
      "inputs": [
        {
          "internalType": "uint256",
          "name": "tokenId",
          "type": "uint256"
        }
      ],
      "name": "tokenURI",
      "outputs": [
        {
          "internalType": "string",
          "name": "",
          "type": "string"
        }
      ],
      "stateMutability": "view",
      "type": "function"
    },
    {
      "inputs": [],
      "name": "totalSupply",
      "outputs": [
        {
          "internalType": "uint256",
          "name": "",
          "type": "uint256"
        }
      ],
      "stateMutability": "view",
      "type": "function"
    },
    {
      "inputs": [
        {
          "internalType": "address",
          "name": "from",
          "type": "address"
        },
        {
          "internalType": "address",
          "name": "to",
          "type": "address"
        },
        {
          "internalType": "uint256",
          "name": "tokenId",
          "type": "uint256"
        }
      ],
      "name": "transferFrom",
      "outputs": [],
      "stateMutability": "nonpayable",
      "type": "function"
    },
    {
      "inputs": [],
      "name": "unpause",
      "outputs": [],
      "stateMutability": "nonpayable",
      "type": "function"
    },
    {
      "inputs": [],
      "name": "withdraw",
      "outputs": [],
      "stateMutability": "nonpayable",
      "type": "function"
    }
  ],
  "bytecode": "0x60a06040819052600060808190526200001b9160099162000547565b50604051806060016040528060238152602001620030e46023913980516200004c91600a9160209091019062000547565b503480156200005a57600080fd5b50604080518082018252600c8082526b1653d55490d3d395149050d560a21b602080840182815285518087019096529285528401528151919291620000a29160009162000547565b508051620000b890600190602084019062000547565b50506006805460ff1916905550620000cf6200012c565b620000dc600033620001cb565b6200010b600080516020620030c483398151915273cb77c9a73e969d0d19ccae16545ef635702baa85620001cb565b62000126600080516020620030c483398151915233620001db565b62000778565b60065460ff1615620001785760405162461bcd60e51b815260206004820152601060248201526f14185d5cd8589b194e881c185d5cd95960821b60448201526064015b60405180910390fd5b6006805460ff191660011790557f62e78cea01bee320cd4e420270b5ea74000d11b0c9f74754ebdbfc544b05a258620001ae3390565b6040516001600160a01b03909116815260200160405180910390a1565b620001d782826200020a565b5050565b600082815260076020526040902060010154620001f98133620002ae565b6200020583836200020a565b505050565b60008281526007602090815260408083206001600160a01b038516845290915290205460ff16620001d75760008281526007602090815260408083206001600160a01b03851684529091529020805460ff191660011790556200026a3390565b6001600160a01b0316816001600160a01b0316837f2f8788117e7eff1d82e926ec794901d17c78024a50270940304540a733656f0d60405160405180910390a45050565b60008281526007602090815260408083206001600160a01b038516845290915290205460ff16620001d757620002fa816001600160a01b031660146200034b60201b620013cf1760201c565b62000310836020620013cf6200034b821b17811c565b60405160200162000323929190620005ed565b60408051601f198184030181529082905262461bcd60e51b82526200016f9160040162000666565b606060006200035c836002620006b6565b620003699060026200069b565b6001600160401b038111156200038f57634e487b7160e01b600052604160045260246000fd5b6040519080825280601f01601f191660200182016040528015620003ba576020820181803683370190505b509050600360fc1b81600081518110620003e457634e487b7160e01b600052603260045260246000fd5b60200101906001600160f81b031916908160001a905350600f60fb1b816001815181106200042257634e487b7160e01b600052603260045260246000fd5b60200101906001600160f81b031916908160001a905350600062000448846002620006b6565b620004559060016200069b565b90505b6001811115620004ef576f181899199a1a9b1b9c1cb0b131b232b360811b85600f16601081106200049957634e487b7160e01b600052603260045260246000fd5b1a60f81b828281518110620004be57634e487b7160e01b600052603260045260246000fd5b60200101906001600160f81b031916908160001a90535060049490941c93620004e7816200070b565b905062000458565b508315620005405760405162461bcd60e51b815260206004820181905260248201527f537472696e67733a20686578206c656e67746820696e73756666696369656e7460448201526064016200016f565b9392505050565b828054620005559062000725565b90600052602060002090601f016020900481019282620005795760008555620005c4565b82601f106200059457805160ff1916838001178555620005c4565b82800160010185558215620005c4579182015b82811115620005c4578251825591602001919060010190620005a7565b50620005d2929150620005d6565b5090565b5b80821115620005d25760008155600101620005d7565b7f416363657373436f6e74726f6c3a206163636f756e742000000000000000000081526000835162000627816017850160208801620006d8565b7001034b99036b4b9b9b4b733903937b6329607d1b60179184019182015283516200065a816028840160208801620006d8565b01602801949350505050565b602081526000825180602084015262000687816040850160208701620006d8565b601f01601f19169190910160400192915050565b60008219821115620006b157620006b162000762565b500190565b6000816000190483118215151615620006d357620006d362000762565b500290565b60005b83811015620006f5578181015183820152602001620006db565b8381111562000705576000848401525b50505050565b6000816200071d576200071d62000762565b506000190190565b600181811c908216806200073a57607f821691505b602082108114156200075c57634e487b7160e01b600052602260045260246000fd5b50919050565b634e487b7160e01b600052601160045260246000fd5b61293c80620007886000396000f3fe6080604052600436106102855760003560e01c806370a0823111610153578063a22cb465116100cb578063d547741f1161007f578063e8a3d48511610064578063e8a3d485146106ed578063e985e9c514610702578063ec87621c1461074b57600080fd5b8063d547741f146106b8578063d5abeb01146106d857600080fd5b8063c6ab67a3116100b0578063c6ab67a31461066e578063c87b56dd14610683578063cdf65306146106a357600080fd5b8063a22cb4651461062e578063b88d4fde1461064e57600080fd5b80638832bc291161012257806395d89b411161010757806395d89b41146105f1578063a0712d6814610606578063a217fddf1461061957600080fd5b80638832bc291461058f57806391d14854146105ab57600080fd5b806370a082311461052557806375796f76146105455780638456cb591461056557806387033ce91461057a57600080fd5b80632a55205a116102015780633f4ba83a116101b557806355f804b31161019a57806355f804b3146104cd5780635c975abb146104ed5780636352211e1461050557600080fd5b80633f4ba83a1461049857806342842e0e146104ad57600080fd5b806332cb6b0c116101e657806332cb6b0c1461044d57806336568abe146104635780633ccfd60b1461048357600080fd5b80632a55205a146103ee5780632f2ff15d1461042d57600080fd5b80630edc96291161025857806318160ddd1161023d57806318160ddd1461038957806323b872dd1461039e578063248a9ca3146103be57600080fd5b80630edc96291461033b578063109695231461036957600080fd5b806301ffc9a71461028a57806306fdde03146102bf578063081812fc146102e1578063095ea7b314610319575b600080fd5b34801561029657600080fd5b506102aa6102a53660046124bf565b61077f565b60405190151581526020015b60405180910390f35b3480156102cb57600080fd5b506102d46107c3565b6040516102b69190612777565b3480156102ed57600080fd5b506103016102fc366004612483565b610855565b6040516001600160a01b0390911681526020016102b6565b34801561032557600080fd5b50610339610334366004612458565b6108ef565b005b34801561034757600080fd5b5061035b61035636600461253d565b610a21565b6040519081526020016102b6565b34801561037557600080fd5b506103396103843660046124f7565b610b4a565b34801561039557600080fd5b5061035b610b88565b3480156103aa57600080fd5b506103396103b936600461236a565b610b98565b3480156103ca57600080fd5b5061035b6103d9366004612483565b60009081526007602052604090206001015490565b3480156103fa57600080fd5b5061040e61040936600461254f565b610c1f565b604080516001600160a01b0390931683526020830191909152016102b6565b34801561043957600080fd5b5061033961044836600461249b565b610ca6565b34801561045957600080fd5b5061035b61014e81565b34801561046f57600080fd5b5061033961047e36600461249b565b610ccc565b34801561048f57600080fd5b50610339610d58565b3480156104a457600080fd5b50610339610dbc565b3480156104b957600080fd5b506103396104c836600461236a565b610df2565b3480156104d957600080fd5b506103396104e83660046124f7565b610e0d565b3480156104f957600080fd5b5060065460ff166102aa565b34801561051157600080fd5b50610301610520366004612483565b610e4b565b34801561053157600080fd5b5061035b610540366004612316565b610ed6565b34801561055157600080fd5b50610339610560366004612316565b610f70565b34801561057157600080fd5b50610339610fcb565b34801561058657600080fd5b5061035b600b81565b34801561059b57600080fd5b5061035b67030d98d59a96000081565b3480156105b757600080fd5b506102aa6105c636600461249b565b60009182526007602090815260408084206001600160a01b0393909316845291905290205460ff1690565b3480156105fd57600080fd5b506102d4610ffe565b61035b610614366004612483565b61100d565b34801561062557600080fd5b5061035b600081565b34801561063a57600080fd5b50610339610649366004612427565b6111ce565b34801561065a57600080fd5b506103396106693660046123aa565b6111d9565b34801561067a57600080fd5b506102d4611267565b34801561068f57600080fd5b506102d461069e366004612483565b6112f5565b3480156106af57600080fd5b5061035b600881565b3480156106c457600080fd5b506103396106d336600461249b565b611381565b3480156106e457600080fd5b5061014e61035b565b3480156106f957600080fd5b506102d46113a7565b34801561070e57600080fd5b506102aa61071d366004612332565b6001600160a01b03918216600090815260056020908152604080832093909416825291909152205460ff1690565b34801561075757600080fd5b5061035b7f241ecf16d79d0f8dbfb92cbc07fe17840425976cf0667f022fe9877caa831b0881565b60006001600160e01b031982167f2a55205a0000000000000000000000000000000000000000000000000000000014806107bd57506107bd826115e1565b92915050565b6060600080546107d29061282f565b80601f01602080910402602001604051908101604052809291908181526020018280546107fe9061282f565b801561084b5780601f106108205761010080835404028352916020019161084b565b820191906000526020600020905b81548152906001019060200180831161082e57829003601f168201915b5050505050905090565b6000818152600260205260408120546001600160a01b03166108d35760405162461bcd60e51b815260206004820152602c60248201527f4552433732313a20617070726f76656420717565727920666f72206e6f6e657860448201526b34b9ba32b73a103a37b5b2b760a11b60648201526084015b60405180910390fd5b506000908152600460205260409020546001600160a01b031690565b60006108fa82610e4b565b9050806001600160a01b0316836001600160a01b031614156109845760405162461bcd60e51b815260206004820152602160248201527f4552433732313a20617070726f76616c20746f2063757272656e74206f776e6560448201527f720000000000000000000000000000000000000000000000000000000000000060648201526084016108ca565b336001600160a01b03821614806109a057506109a0813361071d565b610a125760405162461bcd60e51b815260206004820152603860248201527f4552433732313a20617070726f76652063616c6c6572206973206e6f74206f7760448201527f6e6572206e6f7220617070726f76656420666f7220616c6c000000000000000060648201526084016108ca565b610a1c838361161f565b505050565b60007f241ecf16d79d0f8dbfb92cbc07fe17840425976cf0667f022fe9877caa831b08610a4e813361169a565b600b84610a5a60085490565b610a64919061278a565b10610ab15760405162461bcd60e51b815260206004820152601360248201527f4578636565646564206d61782070726f6f66730000000000000000000000000060448201526064016108ca565b61014e84610abe60085490565b610ac8919061278a565b10610b005760405162461bcd60e51b815260206004820152600860248201526714d3d3110813d55560c21b60448201526064016108ca565b60005b84811015610b3d57610b19600880546001019055565b610b2b84610b2660085490565b61171a565b80610b358161286a565b915050610b03565b506008545b949350505050565b7f241ecf16d79d0f8dbfb92cbc07fe17840425976cf0667f022fe9877caa831b08610b75813361169a565b8151610a1c906009906020850190612207565b6000610b9360085490565b905090565b610ba23382611869565b610c145760405162461bcd60e51b815260206004820152603160248201527f4552433732313a207472616e736665722063616c6c6572206973206e6f74206f60448201527f776e6572206e6f7220617070726f76656400000000000000000000000000000060648201526084016108ca565b610a1c83838361195c565b60008281526002602052604081205481906001600160a01b0316610c855760405162461bcd60e51b815260206004820152601160248201527f4e6f6e6578697374656e7420746f6b656e00000000000000000000000000000060448201526064016108ca565b30610c9b610c9485600a611b36565b6064611b42565b915091509250929050565b600082815260076020526040902060010154610cc2813361169a565b610a1c8383611b4e565b6001600160a01b0381163314610d4a5760405162461bcd60e51b815260206004820152602f60248201527f416363657373436f6e74726f6c3a2063616e206f6e6c792072656e6f756e636560448201527f20726f6c657320666f722073656c66000000000000000000000000000000000060648201526084016108ca565b610d548282611bf0565b5050565b7f241ecf16d79d0f8dbfb92cbc07fe17840425976cf0667f022fe9877caa831b08610d83813361169a565b600b546040516001600160a01b03909116904780156108fc02916000818181858888f19350505050158015610d54573d6000803e3d6000fd5b7f241ecf16d79d0f8dbfb92cbc07fe17840425976cf0667f022fe9877caa831b08610de7813361169a565b610def611c73565b50565b610a1c838383604051806020016040528060008152506111d9565b7f241ecf16d79d0f8dbfb92cbc07fe17840425976cf0667f022fe9877caa831b08610e38813361169a565b8151610a1c90600a906020850190612207565b6000818152600260205260408120546001600160a01b0316806107bd5760405162461bcd60e51b815260206004820152602960248201527f4552433732313a206f776e657220717565727920666f72206e6f6e657869737460448201527f656e7420746f6b656e000000000000000000000000000000000000000000000060648201526084016108ca565b60006001600160a01b038216610f545760405162461bcd60e51b815260206004820152602a60248201527f4552433732313a2062616c616e636520717565727920666f7220746865207a6560448201527f726f20616464726573730000000000000000000000000000000000000000000060648201526084016108ca565b506001600160a01b031660009081526003602052604090205490565b7f241ecf16d79d0f8dbfb92cbc07fe17840425976cf0667f022fe9877caa831b08610f9b813361169a565b50600b805473ffffffffffffffffffffffffffffffffffffffff19166001600160a01b0392909216919091179055565b7f241ecf16d79d0f8dbfb92cbc07fe17840425976cf0667f022fe9877caa831b08610ff6813361169a565b610def611d0f565b6060600180546107d29061282f565b600061101b60065460ff1690565b156110685760405162461bcd60e51b815260206004820152601060248201527f5061757361626c653a207061757365640000000000000000000000000000000060448201526064016108ca565b3461107b8367030d98d59a9600006127b6565b146110c85760405162461bcd60e51b815260206004820181905260248201527f496e636f7272656374204554482073656e743b20636865636b2070726963652160448201526064016108ca565b6008821061113e5760405162461bcd60e51b815260206004820152602360248201527f547269656420746f206d696e7420746f6f206d616e79204e465473206174206f60448201527f6e6365000000000000000000000000000000000000000000000000000000000060648201526084016108ca565b61014e8261114b60085490565b611155919061278a565b1061118d5760405162461bcd60e51b815260206004820152600860248201526714d3d3110813d55560c21b60448201526064016108ca565b60005b828110156111c5576111a6600880546001019055565b6111b333610b2660085490565b806111bd8161286a565b915050611190565b506008546107bd565b610d54338383611d97565b6111e33383611869565b6112555760405162461bcd60e51b815260206004820152603160248201527f4552433732313a207472616e736665722063616c6c6572206973206e6f74206f60448201527f776e6572206e6f7220617070726f76656400000000000000000000000000000060648201526084016108ca565b61126184848484611e66565b50505050565b600980546112749061282f565b80601f01602080910402602001604051908101604052809291908181526020018280546112a09061282f565b80156112ed5780601f106112c2576101008083540402835291602001916112ed565b820191906000526020600020905b8154815290600101906020018083116112d057829003601f168201915b505050505081565b606061130060085490565b82111561134f5760405162461bcd60e51b815260206004820152601160248201527f4e6f6e6578697374656e7420746f6b656e00000000000000000000000000000060448201526064016108ca565b600a61135a83611eef565b60405160200161136b929190612634565b6040516020818303038152906040529050919050565b60008281526007602052604090206001015461139d813361169a565b610a1c8383611bf0565b6060600a6040516020016113bb9190612681565b604051602081830303815290604052905090565b606060006113de8360026127b6565b6113e990600261278a565b67ffffffffffffffff81111561140f57634e487b7160e01b600052604160045260246000fd5b6040519080825280601f01601f191660200182016040528015611439576020820181803683370190505b509050600360fc1b8160008151811061146257634e487b7160e01b600052603260045260246000fd5b60200101906001600160f81b031916908160001a9053507f7800000000000000000000000000000000000000000000000000000000000000816001815181106114bb57634e487b7160e01b600052603260045260246000fd5b60200101906001600160f81b031916908160001a90535060006114df8460026127b6565b6114ea90600161278a565b90505b600181111561158b577f303132333435363738396162636465660000000000000000000000000000000085600f166010811061153957634e487b7160e01b600052603260045260246000fd5b1a60f81b82828151811061155d57634e487b7160e01b600052603260045260246000fd5b60200101906001600160f81b031916908160001a90535060049490941c9361158481612818565b90506114ed565b5083156115da5760405162461bcd60e51b815260206004820181905260248201527f537472696e67733a20686578206c656e67746820696e73756666696369656e7460448201526064016108ca565b9392505050565b60006001600160e01b031982167f7965db0b0000000000000000000000000000000000000000000000000000000014806107bd57506107bd82612009565b6000818152600460205260409020805473ffffffffffffffffffffffffffffffffffffffff19166001600160a01b038416908117909155819061166182610e4b565b6001600160a01b03167f8c5be1e5ebec7d5bd14f71427d1e84f3dd0314c0f7b2291e5b200ac8c7c3b92560405160405180910390a45050565b60008281526007602090815260408083206001600160a01b038516845290915290205460ff16610d54576116d8816001600160a01b031660146113cf565b6116e38360206113cf565b6040516020016116f49291906126ba565b60408051601f198184030181529082905262461bcd60e51b82526108ca91600401612777565b6001600160a01b0382166117705760405162461bcd60e51b815260206004820181905260248201527f4552433732313a206d696e7420746f20746865207a65726f206164647265737360448201526064016108ca565b6000818152600260205260409020546001600160a01b0316156117d55760405162461bcd60e51b815260206004820152601c60248201527f4552433732313a20746f6b656e20616c7265616479206d696e7465640000000060448201526064016108ca565b6001600160a01b03821660009081526003602052604081208054600192906117fe90849061278a565b9091555050600081815260026020526040808220805473ffffffffffffffffffffffffffffffffffffffff19166001600160a01b03861690811790915590518392907fddf252ad1be2c89b69c2b068fc378daa952ba7f163c4a11628f55a4df523b3ef908290a45050565b6000818152600260205260408120546001600160a01b03166118e25760405162461bcd60e51b815260206004820152602c60248201527f4552433732313a206f70657261746f7220717565727920666f72206e6f6e657860448201526b34b9ba32b73a103a37b5b2b760a11b60648201526084016108ca565b60006118ed83610e4b565b9050806001600160a01b0316846001600160a01b031614806119285750836001600160a01b031661191d84610855565b6001600160a01b0316145b80610b4257506001600160a01b0380821660009081526005602090815260408083209388168352929052205460ff16610b42565b826001600160a01b031661196f82610e4b565b6001600160a01b0316146119eb5760405162461bcd60e51b815260206004820152602560248201527f4552433732313a207472616e736665722066726f6d20696e636f72726563742060448201527f6f776e657200000000000000000000000000000000000000000000000000000060648201526084016108ca565b6001600160a01b038216611a665760405162461bcd60e51b8152602060048201526024808201527f4552433732313a207472616e7366657220746f20746865207a65726f2061646460448201527f726573730000000000000000000000000000000000000000000000000000000060648201526084016108ca565b611a7160008261161f565b6001600160a01b0383166000908152600360205260408120805460019290611a9a9084906127d5565b90915550506001600160a01b0382166000908152600360205260408120805460019290611ac890849061278a565b9091555050600081815260026020526040808220805473ffffffffffffffffffffffffffffffffffffffff19166001600160a01b0386811691821790925591518493918716917fddf252ad1be2c89b69c2b068fc378daa952ba7f163c4a11628f55a4df523b3ef91a4505050565b60006115da82846127b6565b60006115da82846127a2565b60008281526007602090815260408083206001600160a01b038516845290915290205460ff16610d545760008281526007602090815260408083206001600160a01b03851684529091529020805460ff19166001179055611bac3390565b6001600160a01b0316816001600160a01b0316837f2f8788117e7eff1d82e926ec794901d17c78024a50270940304540a733656f0d60405160405180910390a45050565b60008281526007602090815260408083206001600160a01b038516845290915290205460ff1615610d545760008281526007602090815260408083206001600160a01b0385168085529252808320805460ff1916905551339285917ff6391f5c32d9c69d2a47ea670b442974b53935d1edc7fd64eb21e047a839171b9190a45050565b60065460ff16611cc55760405162461bcd60e51b815260206004820152601460248201527f5061757361626c653a206e6f742070617573656400000000000000000000000060448201526064016108ca565b6006805460ff191690557f5db9ee0a495bf2e6ff9c91a7834c1ba4fdd244a5e8aa4e537bd38aeae4b073aa335b6040516001600160a01b03909116815260200160405180910390a1565b60065460ff1615611d625760405162461bcd60e51b815260206004820152601060248201527f5061757361626c653a207061757365640000000000000000000000000000000060448201526064016108ca565b6006805460ff191660011790557f62e78cea01bee320cd4e420270b5ea74000d11b0c9f74754ebdbfc544b05a258611cf23390565b816001600160a01b0316836001600160a01b03161415611df95760405162461bcd60e51b815260206004820152601960248201527f4552433732313a20617070726f766520746f2063616c6c65720000000000000060448201526064016108ca565b6001600160a01b03838116600081815260056020908152604080832094871680845294825291829020805460ff191686151590811790915591519182527f17307eab39ab6107e8899845ad3d59bd9653f200f220920489ca2b5937696c31910160405180910390a3505050565b611e7184848461195c565b611e7d848484846120a4565b6112615760405162461bcd60e51b815260206004820152603260248201527f4552433732313a207472616e7366657220746f206e6f6e20455243373231526560448201527f63656976657220696d706c656d656e746572000000000000000000000000000060648201526084016108ca565b606081611f135750506040805180820190915260018152600360fc1b602082015290565b8160005b8115611f3d5780611f278161286a565b9150611f369050600a836127a2565b9150611f17565b60008167ffffffffffffffff811115611f6657634e487b7160e01b600052604160045260246000fd5b6040519080825280601f01601f191660200182016040528015611f90576020820181803683370190505b5090505b8415610b4257611fa56001836127d5565b9150611fb2600a86612885565b611fbd90603061278a565b60f81b818381518110611fe057634e487b7160e01b600052603260045260246000fd5b60200101906001600160f81b031916908160001a905350612002600a866127a2565b9450611f94565b60006001600160e01b031982167f80ac58cd00000000000000000000000000000000000000000000000000000000148061206c57506001600160e01b031982167f5b5e139f00000000000000000000000000000000000000000000000000000000145b806107bd57507f01ffc9a7000000000000000000000000000000000000000000000000000000006001600160e01b03198316146107bd565b60006001600160a01b0384163b156121fc57604051630a85bd0160e11b81526001600160a01b0385169063150b7a02906120e890339089908890889060040161273b565b602060405180830381600087803b15801561210257600080fd5b505af1925050508015612132575060408051601f3d908101601f1916820190925261212f918101906124db565b60015b6121e2573d808015612160576040519150601f19603f3d011682016040523d82523d6000602084013e612165565b606091505b5080516121da5760405162461bcd60e51b815260206004820152603260248201527f4552433732313a207472616e7366657220746f206e6f6e20455243373231526560448201527f63656976657220696d706c656d656e746572000000000000000000000000000060648201526084016108ca565b805181602001fd5b6001600160e01b031916630a85bd0160e11b149050610b42565b506001949350505050565b8280546122139061282f565b90600052602060002090601f016020900481019282612235576000855561227b565b82601f1061224e57805160ff191683800117855561227b565b8280016001018555821561227b579182015b8281111561227b578251825591602001919060010190612260565b5061228792915061228b565b5090565b5b80821115612287576000815560010161228c565b600067ffffffffffffffff808411156122bb576122bb6128c5565b604051601f8501601f19908116603f011681019082821181831017156122e3576122e36128c5565b816040528093508581528686860111156122fc57600080fd5b858560208301376000602087830101525050509392505050565b600060208284031215612327578081fd5b81356115da816128db565b60008060408385031215612344578081fd5b823561234f816128db565b9150602083013561235f816128db565b809150509250929050565b60008060006060848603121561237e578081fd5b8335612389816128db565b92506020840135612399816128db565b929592945050506040919091013590565b600080600080608085870312156123bf578081fd5b84356123ca816128db565b935060208501356123da816128db565b925060408501359150606085013567ffffffffffffffff8111156123fc578182fd5b8501601f8101871361240c578182fd5b61241b878235602084016122a0565b91505092959194509250565b60008060408385031215612439578182fd5b8235612444816128db565b91506020830135801515811461235f578182fd5b6000806040838503121561246a578182fd5b8235612475816128db565b946020939093013593505050565b600060208284031215612494578081fd5b5035919050565b600080604083850312156124ad578182fd5b82359150602083013561235f816128db565b6000602082840312156124d0578081fd5b81356115da816128f0565b6000602082840312156124ec578081fd5b81516115da816128f0565b600060208284031215612508578081fd5b813567ffffffffffffffff81111561251e578182fd5b8201601f8101841361252e578182fd5b610b42848235602084016122a0565b600080604083850312156124ad578081fd5b60008060408385031215612561578182fd5b50508035926020909101359150565b600081518084526125888160208601602086016127ec565b601f01601f19169290920160200192915050565b8054600090600181811c90808316806125b657607f831692505b60208084108214156125d657634e487b7160e01b86526022600452602486fd5b8180156125ea57600181146125fb57612628565b60ff19861689528489019650612628565b60008881526020902060005b868110156126205781548b820152908501908301612607565b505084890196505b50505050505092915050565b6000612640828561259c565b83516126508183602088016127ec565b7f2e6a736f6e0000000000000000000000000000000000000000000000000000009101908152600501949350505050565b600061268d828461259c565b7f6d657461646174612e6a736f6e000000000000000000000000000000000000008152600d019392505050565b7f416363657373436f6e74726f6c3a206163636f756e74200000000000000000008152600083516126f28160178501602088016127ec565b7f206973206d697373696e6720726f6c6520000000000000000000000000000000601791840191820152835161272f8160288401602088016127ec565b01602801949350505050565b60006001600160a01b0380871683528086166020840152508360408301526080606083015261276d6080830184612570565b9695505050505050565b6020815260006115da6020830184612570565b6000821982111561279d5761279d612899565b500190565b6000826127b1576127b16128af565b500490565b60008160001904831182151516156127d0576127d0612899565b500290565b6000828210156127e7576127e7612899565b500390565b60005b838110156128075781810151838201526020016127ef565b838111156112615750506000910152565b60008161282757612827612899565b506000190190565b600181811c9082168061284357607f821691505b6020821081141561286457634e487b7160e01b600052602260045260246000fd5b50919050565b600060001982141561287e5761287e612899565b5060010190565b600082612894576128946128af565b500690565b634e487b7160e01b600052601160045260246000fd5b634e487b7160e01b600052601260045260246000fd5b634e487b7160e01b600052604160045260246000fd5b6001600160a01b0381168114610def57600080fd5b6001600160e01b031981168114610def57600080fdfea26469706673582212209335968cb6f4d579b67931879b9b2516ac8fafd1dd9f5c5058689005fa14b38d64736f6c63430008040033241ecf16d79d0f8dbfb92cbc07fe17840425976cf0667f022fe9877caa831b08687474703a2f2f6c6f63616c686f73743a333030302f6170692f6d657461646174612f",
  "linkReferences": {},
  "deployedLinkReferences": {}
}