{
  "_format": "hh-sol-artifact-1",
  "contractName": "YourContract",
  "sourceName": "contracts/YourContract.sol",
  "abi": [
    {
      "inputs": [],
      "stateMutability": "nonpayable",
      "type": "constructor"
    },
    {
      "anonymous": false,
      "inputs": [
        {
          "indexed": true,
          "internalType": "address",
          "name": "owner",
          "type": "address"
        },
        {
          "indexed": true,
          "internalType": "address",
          "name": "approved",
          "type": "address"
        },
        {
          "indexed": true,
          "internalType": "uint256",
          "name": "tokenId",
          "type": "uint256"
        }
      ],
      "name": "Approval",
      "type": "event"
    },
    {
      "anonymous": false,
      "inputs": [
        {
          "indexed": true,
          "internalType": "address",
          "name": "owner",
          "type": "address"
        },
        {
          "indexed": true,
          "internalType": "address",
          "name": "operator",
          "type": "address"
        },
        {
          "indexed": false,
          "internalType": "bool",
          "name": "approved",
          "type": "bool"
        }
      ],
      "name": "ApprovalForAll",
      "type": "event"
    },
    {
      "anonymous": false,
      "inputs": [
        {
          "indexed": true,
          "internalType": "address",
          "name": "previousOwner",
          "type": "address"
        },
        {
          "indexed": true,
          "internalType": "address",
          "name": "newOwner",
          "type": "address"
        }
      ],
      "name": "OwnershipTransferred",
      "type": "event"
    },
    {
      "anonymous": false,
      "inputs": [
        {
          "indexed": false,
          "internalType": "address",
          "name": "account",
          "type": "address"
        }
      ],
      "name": "Paused",
      "type": "event"
    },
    {
      "anonymous": false,
      "inputs": [
        {
          "indexed": true,
          "internalType": "bytes32",
          "name": "role",
          "type": "bytes32"
        },
        {
          "indexed": true,
          "internalType": "bytes32",
          "name": "previousAdminRole",
          "type": "bytes32"
        },
        {
          "indexed": true,
          "internalType": "bytes32",
          "name": "newAdminRole",
          "type": "bytes32"
        }
      ],
      "name": "RoleAdminChanged",
      "type": "event"
    },
    {
      "anonymous": false,
      "inputs": [
        {
          "indexed": true,
          "internalType": "bytes32",
          "name": "role",
          "type": "bytes32"
        },
        {
          "indexed": true,
          "internalType": "address",
          "name": "account",
          "type": "address"
        },
        {
          "indexed": true,
          "internalType": "address",
          "name": "sender",
          "type": "address"
        }
      ],
      "name": "RoleGranted",
      "type": "event"
    },
    {
      "anonymous": false,
      "inputs": [
        {
          "indexed": true,
          "internalType": "bytes32",
          "name": "role",
          "type": "bytes32"
        },
        {
          "indexed": true,
          "internalType": "address",
          "name": "account",
          "type": "address"
        },
        {
          "indexed": true,
          "internalType": "address",
          "name": "sender",
          "type": "address"
        }
      ],
      "name": "RoleRevoked",
      "type": "event"
    },
    {
      "anonymous": false,
      "inputs": [
        {
          "indexed": true,
          "internalType": "address",
          "name": "from",
          "type": "address"
        },
        {
          "indexed": true,
          "internalType": "address",
          "name": "to",
          "type": "address"
        },
        {
          "indexed": true,
          "internalType": "uint256",
          "name": "tokenId",
          "type": "uint256"
        }
      ],
      "name": "Transfer",
      "type": "event"
    },
    {
      "anonymous": false,
      "inputs": [
        {
          "indexed": false,
          "internalType": "address",
          "name": "account",
          "type": "address"
        }
      ],
      "name": "Unpaused",
      "type": "event"
    },
    {
      "stateMutability": "payable",
      "type": "fallback"
    },
    {
      "inputs": [],
      "name": "DEFAULT_ADMIN_ROLE",
      "outputs": [
        {
          "internalType": "bytes32",
          "name": "",
          "type": "bytes32"
        }
      ],
      "stateMutability": "view",
      "type": "function"
    },
    {
      "inputs": [],
      "name": "ETH_PRICE",
      "outputs": [
        {
          "internalType": "uint256",
          "name": "",
          "type": "uint256"
        }
      ],
      "stateMutability": "view",
      "type": "function"
    },
    {
      "inputs": [],
      "name": "MANAGER_ROLE",
      "outputs": [
        {
          "internalType": "bytes32",
          "name": "",
          "type": "bytes32"
        }
      ],
      "stateMutability": "view",
      "type": "function"
    },
    {
      "inputs": [],
      "name": "MAX_MINT_COUNT",
      "outputs": [
        {
          "internalType": "uint256",
          "name": "",
          "type": "uint256"
        }
      ],
      "stateMutability": "view",
      "type": "function"
    },
    {
      "inputs": [],
      "name": "MAX_SUPPLY",
      "outputs": [
        {
          "internalType": "uint256",
          "name": "",
          "type": "uint256"
        }
      ],
      "stateMutability": "view",
      "type": "function"
    },
    {
      "inputs": [],
      "name": "PRESALE_ETH_PRICE",
      "outputs": [
        {
          "internalType": "uint256",
          "name": "",
          "type": "uint256"
        }
      ],
      "stateMutability": "view",
      "type": "function"
    },
    {
      "inputs": [],
      "name": "PRESALE_MAX_MINT_COUNT",
      "outputs": [
        {
          "internalType": "uint256",
          "name": "",
          "type": "uint256"
        }
      ],
      "stateMutability": "view",
      "type": "function"
    },
    {
      "inputs": [],
      "name": "TEAM_MINT_COUNT",
      "outputs": [
        {
          "internalType": "uint256",
          "name": "",
          "type": "uint256"
        }
      ],
      "stateMutability": "view",
      "type": "function"
    },
    {
      "inputs": [],
      "name": "_baseURIextended",
      "outputs": [
        {
          "internalType": "string",
          "name": "",
          "type": "string"
        }
      ],
      "stateMutability": "view",
      "type": "function"
    },
    {
      "inputs": [],
      "name": "_merkleRoot",
      "outputs": [
        {
          "internalType": "bytes32",
          "name": "",
          "type": "bytes32"
        }
      ],
      "stateMutability": "view",
      "type": "function"
    },
    {
      "inputs": [],
      "name": "_royaltyBasis",
      "outputs": [
        {
          "internalType": "uint256",
          "name": "",
          "type": "uint256"
        }
      ],
      "stateMutability": "view",
      "type": "function"
    },
    {
      "inputs": [
        {
          "internalType": "address",
          "name": "to",
          "type": "address"
        },
        {
          "internalType": "uint256",
          "name": "tokenId",
          "type": "uint256"
        }
      ],
      "name": "approve",
      "outputs": [],
      "stateMutability": "nonpayable",
      "type": "function"
    },
    {
      "inputs": [
        {
          "internalType": "address",
          "name": "owner",
          "type": "address"
        }
      ],
      "name": "balanceOf",
      "outputs": [
        {
          "internalType": "uint256",
          "name": "",
          "type": "uint256"
        }
      ],
      "stateMutability": "view",
      "type": "function"
    },
    {
      "inputs": [],
      "name": "contractURI",
      "outputs": [
        {
          "internalType": "string",
          "name": "",
          "type": "string"
        }
      ],
      "stateMutability": "view",
      "type": "function"
    },
    {
      "inputs": [
        {
          "internalType": "uint256",
          "name": "tokenId",
          "type": "uint256"
        }
      ],
      "name": "getApproved",
      "outputs": [
        {
          "internalType": "address",
          "name": "",
          "type": "address"
        }
      ],
      "stateMutability": "view",
      "type": "function"
    },
    {
      "inputs": [
        {
          "internalType": "bytes32",
          "name": "role",
          "type": "bytes32"
        }
      ],
      "name": "getRoleAdmin",
      "outputs": [
        {
          "internalType": "bytes32",
          "name": "",
          "type": "bytes32"
        }
      ],
      "stateMutability": "view",
      "type": "function"
    },
    {
      "inputs": [
        {
          "internalType": "bytes32",
          "name": "role",
          "type": "bytes32"
        },
        {
          "internalType": "address",
          "name": "account",
          "type": "address"
        }
      ],
      "name": "grantRole",
      "outputs": [],
      "stateMutability": "nonpayable",
      "type": "function"
    },
    {
      "inputs": [
        {
          "internalType": "bytes32",
          "name": "role",
          "type": "bytes32"
        },
        {
          "internalType": "address",
          "name": "account",
          "type": "address"
        }
      ],
      "name": "hasRole",
      "outputs": [
        {
          "internalType": "bool",
          "name": "",
          "type": "bool"
        }
      ],
      "stateMutability": "view",
      "type": "function"
    },
    {
      "inputs": [
        {
          "internalType": "address",
          "name": "owner",
          "type": "address"
        },
        {
          "internalType": "address",
          "name": "operator",
          "type": "address"
        }
      ],
      "name": "isApprovedForAll",
      "outputs": [
        {
          "internalType": "bool",
          "name": "",
          "type": "bool"
        }
      ],
      "stateMutability": "view",
      "type": "function"
    },
    {
      "inputs": [],
      "name": "maxSupply",
      "outputs": [
        {
          "internalType": "uint256",
          "name": "",
          "type": "uint256"
        }
      ],
      "stateMutability": "pure",
      "type": "function"
    },
    {
      "inputs": [
        {
          "internalType": "uint256",
          "name": "count",
          "type": "uint256"
        }
      ],
      "name": "mint",
      "outputs": [
        {
          "internalType": "uint256",
          "name": "",
          "type": "uint256"
        }
      ],
      "stateMutability": "payable",
      "type": "function"
    },
    {
      "inputs": [],
      "name": "name",
      "outputs": [
        {
          "internalType": "string",
          "name": "",
          "type": "string"
        }
      ],
      "stateMutability": "view",
      "type": "function"
    },
    {
      "inputs": [],
      "name": "owner",
      "outputs": [
        {
          "internalType": "address",
          "name": "",
          "type": "address"
        }
      ],
      "stateMutability": "view",
      "type": "function"
    },
    {
      "inputs": [
        {
          "internalType": "uint256",
          "name": "tokenId",
          "type": "uint256"
        }
      ],
      "name": "ownerOf",
      "outputs": [
        {
          "internalType": "address",
          "name": "",
          "type": "address"
        }
      ],
      "stateMutability": "view",
      "type": "function"
    },
    {
      "inputs": [],
      "name": "pause",
      "outputs": [],
      "stateMutability": "nonpayable",
      "type": "function"
    },
    {
      "inputs": [],
      "name": "paused",
      "outputs": [
        {
          "internalType": "bool",
          "name": "",
          "type": "bool"
        }
      ],
      "stateMutability": "view",
      "type": "function"
    },
    {
      "inputs": [],
      "name": "presaleActive",
      "outputs": [
        {
          "internalType": "bool",
          "name": "",
          "type": "bool"
        }
      ],
      "stateMutability": "view",
      "type": "function"
    },
    {
      "inputs": [
        {
          "internalType": "uint256",
          "name": "count",
          "type": "uint256"
        },
        {
          "internalType": "uint256",
          "name": "index",
          "type": "uint256"
        },
        {
          "internalType": "bytes32[]",
          "name": "proof",
          "type": "bytes32[]"
        }
      ],
      "name": "presaleMint",
      "outputs": [
        {
          "internalType": "uint256",
          "name": "",
          "type": "uint256"
        }
      ],
      "stateMutability": "payable",
      "type": "function"
    },
    {
      "inputs": [],
      "name": "renounceOwnership",
      "outputs": [],
      "stateMutability": "nonpayable",
      "type": "function"
    },
    {
      "inputs": [
        {
          "internalType": "bytes32",
          "name": "role",
          "type": "bytes32"
        },
        {
          "internalType": "address",
          "name": "account",
          "type": "address"
        }
      ],
      "name": "renounceRole",
      "outputs": [],
      "stateMutability": "nonpayable",
      "type": "function"
    },
    {
      "inputs": [
        {
          "internalType": "bytes32",
          "name": "role",
          "type": "bytes32"
        },
        {
          "internalType": "address",
          "name": "account",
          "type": "address"
        }
      ],
      "name": "revokeRole",
      "outputs": [],
      "stateMutability": "nonpayable",
      "type": "function"
    },
    {
      "inputs": [
        {
          "internalType": "uint256",
          "name": "tokenId",
          "type": "uint256"
        },
        {
          "internalType": "uint256",
          "name": "salePrice",
          "type": "uint256"
        }
      ],
      "name": "royaltyInfo",
      "outputs": [
        {
          "internalType": "address",
          "name": "receiver",
          "type": "address"
        },
        {
          "internalType": "uint256",
          "name": "royaltyAmount",
          "type": "uint256"
        }
      ],
      "stateMutability": "view",
      "type": "function"
    },
    {
      "inputs": [
        {
          "internalType": "address",
          "name": "from",
          "type": "address"
        },
        {
          "internalType": "address",
          "name": "to",
          "type": "address"
        },
        {
          "internalType": "uint256",
          "name": "tokenId",
          "type": "uint256"
        }
      ],
      "name": "safeTransferFrom",
      "outputs": [],
      "stateMutability": "nonpayable",
      "type": "function"
    },
    {
      "inputs": [
        {
          "internalType": "address",
          "name": "from",
          "type": "address"
        },
        {
          "internalType": "address",
          "name": "to",
          "type": "address"
        },
        {
          "internalType": "uint256",
          "name": "tokenId",
          "type": "uint256"
        },
        {
          "internalType": "bytes",
          "name": "_data",
          "type": "bytes"
        }
      ],
      "name": "safeTransferFrom",
      "outputs": [],
      "stateMutability": "nonpayable",
      "type": "function"
    },
    {
      "inputs": [],
      "name": "saleActive",
      "outputs": [
        {
          "internalType": "bool",
          "name": "",
          "type": "bool"
        }
      ],
      "stateMutability": "view",
      "type": "function"
    },
    {
      "inputs": [
        {
          "internalType": "address",
          "name": "operator",
          "type": "address"
        },
        {
          "internalType": "bool",
          "name": "approved",
          "type": "bool"
        }
      ],
      "name": "setApprovalForAll",
      "outputs": [],
      "stateMutability": "nonpayable",
      "type": "function"
    },
    {
      "inputs": [
        {
          "internalType": "string",
          "name": "baseURI_",
          "type": "string"
        }
      ],
      "name": "setBaseURI",
      "outputs": [],
      "stateMutability": "nonpayable",
      "type": "function"
    },
    {
      "inputs": [
        {
          "internalType": "bytes32",
          "name": "merkleRoot_",
          "type": "bytes32"
        }
      ],
      "name": "setMerkleRoot",
      "outputs": [],
      "stateMutability": "nonpayable",
      "type": "function"
    },
    {
      "inputs": [
        {
          "internalType": "bool",
          "name": "val",
          "type": "bool"
        }
      ],
      "name": "setPresaleActive",
      "outputs": [],
      "stateMutability": "nonpayable",
      "type": "function"
    },
    {
      "inputs": [
        {
          "internalType": "address payable",
          "name": "royaltyWallet_",
          "type": "address"
        }
      ],
      "name": "setRoyaltyWallet",
      "outputs": [],
      "stateMutability": "nonpayable",
      "type": "function"
    },
    {
      "inputs": [
        {
          "internalType": "bool",
          "name": "val",
          "type": "bool"
        }
      ],
      "name": "setSaleActive",
      "outputs": [],
      "stateMutability": "nonpayable",
      "type": "function"
    },
    {
      "inputs": [
        {
          "internalType": "address payable",
          "name": "withdrawalWallet_",
          "type": "address"
        }
      ],
      "name": "setWithdrawalWallet",
      "outputs": [],
      "stateMutability": "nonpayable",
      "type": "function"
    },
    {
      "inputs": [
        {
          "internalType": "bytes4",
          "name": "interfaceId",
          "type": "bytes4"
        }
      ],
      "name": "supportsInterface",
      "outputs": [
        {
          "internalType": "bool",
          "name": "",
          "type": "bool"
        }
      ],
      "stateMutability": "view",
      "type": "function"
    },
    {
      "inputs": [],
      "name": "symbol",
      "outputs": [
        {
          "internalType": "string",
          "name": "",
          "type": "string"
        }
      ],
      "stateMutability": "view",
      "type": "function"
    },
    {
      "inputs": [
        {
          "internalType": "uint256",
          "name": "count",
          "type": "uint256"
        },
        {
          "internalType": "address",
          "name": "recipient",
          "type": "address"
        }
      ],
      "name": "teamMint",
      "outputs": [
        {
          "internalType": "uint256",
          "name": "",
          "type": "uint256"
        }
      ],
      "stateMutability": "nonpayable",
      "type": "function"
    },
    {
      "inputs": [
        {
          "internalType": "uint256",
          "name": "tokenId",
          "type": "uint256"
        }
      ],
      "name": "tokenURI",
      "outputs": [
        {
          "internalType": "string",
          "name": "",
          "type": "string"
        }
      ],
      "stateMutability": "view",
      "type": "function"
    },
    {
      "inputs": [],
      "name": "totalSupply",
      "outputs": [
        {
          "internalType": "uint256",
          "name": "",
          "type": "uint256"
        }
      ],
      "stateMutability": "view",
      "type": "function"
    },
    {
      "inputs": [
        {
          "internalType": "address",
          "name": "from",
          "type": "address"
        },
        {
          "internalType": "address",
          "name": "to",
          "type": "address"
        },
        {
          "internalType": "uint256",
          "name": "tokenId",
          "type": "uint256"
        }
      ],
      "name": "transferFrom",
      "outputs": [],
      "stateMutability": "nonpayable",
      "type": "function"
    },
    {
      "inputs": [
        {
          "internalType": "address",
          "name": "_newOwner",
          "type": "address"
        }
      ],
      "name": "transferOwnership",
      "outputs": [],
      "stateMutability": "nonpayable",
      "type": "function"
    },
    {
      "inputs": [],
      "name": "unpause",
      "outputs": [],
      "stateMutability": "nonpayable",
      "type": "function"
    },
    {
      "inputs": [],
      "name": "withdraw",
      "outputs": [],
      "stateMutability": "nonpayable",
      "type": "function"
    },
    {
      "stateMutability": "payable",
      "type": "receive"
    }
  ],
  "bytecode": "0x60e060405260236080818152906200381860a03980516200002991600a91602090910190620004f8565b507f7f9947af1470e7df017d480516fb72e1b515240c75cf5afacfd79d475f309f35600b556102ee600e556010805461ffff191690553480156200006c57600080fd5b50604080518082018252600c8082526b165bdd5c90dbdb9d1c9858dd60a21b602080840182815285518087019096529285528401528151919291620000b491600091620004f8565b508051620000ca906001906020840190620004f8565b50506006805460ff1916905550620000e23362000121565b620000ef60003362000173565b6200011b7f241ecf16d79d0f8dbfb92cbc07fe17840425976cf0667f022fe9877caa831b083362000183565b62000729565b600880546001600160a01b038381166001600160a01b0319831681179093556040519116919082907f8be0079c531659141344cd1fd0a4f28419497f9722a3daafe3b4186f6b6457e090600090a35050565b6200017f8282620001b2565b5050565b600082815260076020526040902060010154620001a1813362000256565b620001ad8383620001b2565b505050565b60008281526007602090815260408083206001600160a01b038516845290915290205460ff166200017f5760008281526007602090815260408083206001600160a01b03851684529091529020805460ff19166001179055620002123390565b6001600160a01b0316816001600160a01b0316837f2f8788117e7eff1d82e926ec794901d17c78024a50270940304540a733656f0d60405160405180910390a45050565b60008281526007602090815260408083206001600160a01b038516845290915290205460ff166200017f57620002a2816001600160a01b03166014620002fc60201b620019961760201c565b620002b883602062001996620002fc821b17811c565b604051602001620002cb9291906200059e565b60408051601f198184030181529082905262461bcd60e51b8252620002f39160040162000617565b60405180910390fd5b606060006200030d83600262000667565b6200031a9060026200064c565b6001600160401b038111156200034057634e487b7160e01b600052604160045260246000fd5b6040519080825280601f01601f1916602001820160405280156200036b576020820181803683370190505b509050600360fc1b816000815181106200039557634e487b7160e01b600052603260045260246000fd5b60200101906001600160f81b031916908160001a905350600f60fb1b81600181518110620003d357634e487b7160e01b600052603260045260246000fd5b60200101906001600160f81b031916908160001a9053506000620003f984600262000667565b620004069060016200064c565b90505b6001811115620004a0576f181899199a1a9b1b9c1cb0b131b232b360811b85600f16601081106200044a57634e487b7160e01b600052603260045260246000fd5b1a60f81b8282815181106200046f57634e487b7160e01b600052603260045260246000fd5b60200101906001600160f81b031916908160001a90535060049490941c936200049881620006bc565b905062000409565b508315620004f15760405162461bcd60e51b815260206004820181905260248201527f537472696e67733a20686578206c656e67746820696e73756666696369656e746044820152606401620002f3565b9392505050565b8280546200050690620006d6565b90600052602060002090601f0160209004810192826200052a576000855562000575565b82601f106200054557805160ff191683800117855562000575565b8280016001018555821562000575579182015b828111156200057557825182559160200191906001019062000558565b506200058392915062000587565b5090565b5b8082111562000583576000815560010162000588565b7f416363657373436f6e74726f6c3a206163636f756e7420000000000000000000815260008351620005d881601785016020880162000689565b7001034b99036b4b9b9b4b733903937b6329607d1b60179184019182015283516200060b81602884016020880162000689565b01602801949350505050565b60208152600082518060208401526200063881604085016020870162000689565b601f01601f19169190910160400192915050565b6000821982111562000662576200066262000713565b500190565b600081600019048311821515161562000684576200068462000713565b500290565b60005b83811015620006a65781810151838201526020016200068c565b83811115620006b6576000848401525b50505050565b600081620006ce57620006ce62000713565b506000190190565b600181811c90821680620006eb57607f821691505b602082108114156200070d57634e487b7160e01b600052602260045260246000fd5b50919050565b634e487b7160e01b600052601160045260246000fd5b6130df80620007396000396000f3fe6080604052600436106103085760003560e01c8063715018a611610198578063b88d4fde116100e0578063d547741f1161008f578063e8a3d4851161006c578063e8a3d485146108ac578063e985e9c5146108c1578063ec87621c1461090a578063f2fde38b1461092c57005b8063d547741f14610862578063d5abeb0114610882578063e320acb31461089757005b8063cdeee637116100bd578063cdeee63714610812578063cdf6530614610832578063ce394f471461084757005b8063b88d4fde146107b2578063bfa457bc146107d2578063c87b56dd146107f257005b80638da5cb5b11610147578063a0712d6811610124578063a0712d6814610754578063a217fddf14610767578063a22cb4651461077c578063ae3146e91461079c57005b80638da5cb5b146106db57806391d14854146106f957806395d89b411461073f57005b8063841718a611610175578063841718a61461068b5780638456cb59146106ab5780638832bc29146106c057005b8063715018a61461063657806375796f761461064b5780637cb647591461066b57005b80632fc37ab21161025b57806342842e0e1161020a5780635c975abb116101e75780635c975abb146105bf5780636352211e146105d757806368428a1b146105f757806370a082311461061657005b806342842e0e1461056557806353135ca01461058557806355f804b31461059f57005b80633ccfd60b116102385780633ccfd60b1461051b5780633f4ba83a146105305780633f8121a21461054557005b80632fc37ab2146104cf57806332cb6b0c146104e557806336568abe146104fb57005b80631b59169d116102b7578063248a9ca311610294578063248a9ca3146104405780632a55205a146104705780632f2ff15d146104af57005b80631b59169d146103f85780631e305c9e1461040b57806323b872dd1461042057005b80630928fc22116102e55780630928fc22146103a0578063095ea7b3146103b557806318160ddd146103d557005b806301ffc9a71461031157806306fdde0314610346578063081812fc1461036857005b3661030f57005b005b34801561031d57600080fd5b5061033161032c366004612bd6565b61094c565b60405190151581526020015b60405180910390f35b34801561035257600080fd5b5061035b610990565b60405161033d9190612efa565b34801561037457600080fd5b50610388610383366004612b9a565b610a22565b6040516001600160a01b03909116815260200161033d565b3480156103ac57600080fd5b5061035b610abc565b3480156103c157600080fd5b5061030f6103d0366004612b55565b610b4a565b3480156103e157600080fd5b506103ea610c7c565b60405190815260200161033d565b6103ea610406366004612c75565b610c8c565b34801561041757600080fd5b506103ea600381565b34801561042c57600080fd5b5061030f61043b366004612a64565b610eef565b34801561044c57600080fd5b506103ea61045b366004612b9a565b60009081526007602052604090206001015490565b34801561047c57600080fd5b5061049061048b366004612c54565b610f76565b604080516001600160a01b03909316835260208301919091520161033d565b3480156104bb57600080fd5b5061030f6104ca366004612bb2565b611011565b3480156104db57600080fd5b506103ea600b5481565b3480156104f157600080fd5b506103ea61029a81565b34801561050757600080fd5b5061030f610516366004612bb2565b611037565b34801561052757600080fd5b5061030f6110c3565b34801561053c57600080fd5b5061030f611115565b34801561055157600080fd5b5061030f610560366004612b80565b611139565b34801561057157600080fd5b5061030f610580366004612a64565b611166565b34801561059157600080fd5b506010546103319060ff1681565b3480156105ab57600080fd5b5061030f6105ba366004612c0e565b611181565b3480156105cb57600080fd5b5060065460ff16610331565b3480156105e357600080fd5b506103886105f2366004612b9a565b6111ad565b34801561060357600080fd5b5060105461033190610100900460ff1681565b34801561062257600080fd5b506103ea610631366004612a10565b611238565b34801561064257600080fd5b5061030f6112d2565b34801561065757600080fd5b5061030f610666366004612a10565b611338565b34801561067757600080fd5b5061030f610686366004612b9a565b611374565b34801561069757600080fd5b5061030f6106a6366004612b80565b611393565b3480156106b757600080fd5b5061030f6113c7565b3480156106cc57600080fd5b506103ea66f523226980800081565b3480156106e757600080fd5b506008546001600160a01b0316610388565b34801561070557600080fd5b50610331610714366004612bb2565b60009182526007602090815260408084206001600160a01b0393909316845291905290205460ff1690565b34801561074b57600080fd5b5061035b6113e8565b6103ea610762366004612b9a565b6113f7565b34801561077357600080fd5b506103ea600081565b34801561078857600080fd5b5061030f610797366004612b21565b611608565b3480156107a857600080fd5b506103ea600e5481565b3480156107be57600080fd5b5061030f6107cd366004612aa4565b611613565b3480156107de57600080fd5b506103ea6107ed366004612bb2565b6116a1565b3480156107fe57600080fd5b5061035b61080d366004612b9a565b6117b4565b34801561081e57600080fd5b5061030f61082d366004612a10565b611840565b34801561083e57600080fd5b506103ea600a81565b34801561085357600080fd5b506103ea66ea7aa67b2d000081565b34801561086e57600080fd5b5061030f61087d366004612bb2565b61187c565b34801561088e57600080fd5b5061029a6103ea565b3480156108a357600080fd5b506103ea601481565b3480156108b857600080fd5b5061035b6118a2565b3480156108cd57600080fd5b506103316108dc366004612a2c565b6001600160a01b03918216600090815260056020908152604080832093909416825291909152205460ff1690565b34801561091657600080fd5b506103ea60008051602061308a83398151915281565b34801561093857600080fd5b5061030f610947366004612a10565b6118ca565b60006001600160e01b031982167f2a55205a00000000000000000000000000000000000000000000000000000000148061098a575061098a82611ba8565b92915050565b60606000805461099f90612fb2565b80601f01602080910402602001604051908101604052809291908181526020018280546109cb90612fb2565b8015610a185780601f106109ed57610100808354040283529160200191610a18565b820191906000526020600020905b8154815290600101906020018083116109fb57829003601f168201915b5050505050905090565b6000818152600260205260408120546001600160a01b0316610aa05760405162461bcd60e51b815260206004820152602c60248201527f4552433732313a20617070726f76656420717565727920666f72206e6f6e657860448201526b34b9ba32b73a103a37b5b2b760a11b60648201526084015b60405180910390fd5b506000908152600460205260409020546001600160a01b031690565b600a8054610ac990612fb2565b80601f0160208091040260200160405190810160405280929190818152602001828054610af590612fb2565b8015610b425780601f10610b1757610100808354040283529160200191610b42565b820191906000526020600020905b815481529060010190602001808311610b2557829003601f168201915b505050505081565b6000610b55826111ad565b9050806001600160a01b0316836001600160a01b03161415610bdf5760405162461bcd60e51b815260206004820152602160248201527f4552433732313a20617070726f76616c20746f2063757272656e74206f776e6560448201527f72000000000000000000000000000000000000000000000000000000000000006064820152608401610a97565b336001600160a01b0382161480610bfb5750610bfb81336108dc565b610c6d5760405162461bcd60e51b815260206004820152603860248201527f4552433732313a20617070726f76652063616c6c6572206973206e6f74206f7760448201527f6e6572206e6f7220617070726f76656420666f7220616c6c00000000000000006064820152608401610a97565b610c778383611be6565b505050565b6000610c8760095490565b905090565b6000610c9a60065460ff1690565b15610cda5760405162461bcd60e51b815260206004820152601060248201526f14185d5cd8589b194e881c185d5cd95960821b6044820152606401610a97565b60105460ff16610d2c5760405162461bcd60e51b815260206004820152601560248201527f50726573616c6520686173206e6f7420626567756e00000000000000000000006044820152606401610a97565b34610d3e8666ea7aa67b2d0000612f39565b14610d8b5760405162461bcd60e51b815260206004820181905260248201527f496e636f7272656374204554482073656e743b20636865636b207072696365216044820152606401610a97565b61029a85610d9860095490565b610da29190612f0d565b1115610ddb5760405162461bcd60e51b815260206004820152600860248201526714d3d3110813d55560c21b6044820152606401610a97565b610de485611c54565b60408051602081018690523391810191909152600090606001604051602081830303815290604052805190602001209050610e5684848080602002602001604051908101604052809392919081815260200183836020028082843760009201919091525050600b549150849050611cdc565b610ea25760405162461bcd60e51b815260206004820152600d60248201527f496e76616c69642070726f6f66000000000000000000000000000000000000006044820152606401610a97565b60005b86811015610edf57610ebb600980546001019055565b610ecd33610ec860095490565b611cf2565b80610ed781612fed565b915050610ea5565b506009549150505b949350505050565b610ef93382611e34565b610f6b5760405162461bcd60e51b815260206004820152603160248201527f4552433732313a207472616e736665722063616c6c6572206973206e6f74206f60448201527f776e6572206e6f7220617070726f7665640000000000000000000000000000006064820152608401610a97565b610c77838383611f27565b60008281526002602052604081205481906001600160a01b0316610fdc5760405162461bcd60e51b815260206004820152601160248201527f4e6f6e6578697374656e7420746f6b656e0000000000000000000000000000006044820152606401610a97565b600d54600e546001600160a01b039091169061271090610ffc9086612f39565b6110069190612f25565b915091509250929050565b60008281526007602052604090206001015461102d81336120f4565b610c778383612174565b6001600160a01b03811633146110b55760405162461bcd60e51b815260206004820152602f60248201527f416363657373436f6e74726f6c3a2063616e206f6e6c792072656e6f756e636560448201527f20726f6c657320666f722073656c6600000000000000000000000000000000006064820152608401610a97565b6110bf8282612216565b5050565b60008051602061308a8339815191526110dc81336120f4565b600c546040516001600160a01b03909116904780156108fc02916000818181858888f193505050501580156110bf573d6000803e3d6000fd5b60008051602061308a83398151915261112e81336120f4565b611136612299565b50565b60008051602061308a83398151915261115281336120f4565b506010805460ff1916911515919091179055565b610c7783838360405180602001604052806000815250611613565b60008051602061308a83398151915261119a81336120f4565b8151610c7790600a9060208501906128f1565b6000818152600260205260408120546001600160a01b03168061098a5760405162461bcd60e51b815260206004820152602960248201527f4552433732313a206f776e657220717565727920666f72206e6f6e657869737460448201527f656e7420746f6b656e00000000000000000000000000000000000000000000006064820152608401610a97565b60006001600160a01b0382166112b65760405162461bcd60e51b815260206004820152602a60248201527f4552433732313a2062616c616e636520717565727920666f7220746865207a6560448201527f726f2061646472657373000000000000000000000000000000000000000000006064820152608401610a97565b506001600160a01b031660009081526003602052604090205490565b6008546001600160a01b0316331461132c5760405162461bcd60e51b815260206004820181905260248201527f4f776e61626c653a2063616c6c6572206973206e6f7420746865206f776e65726044820152606401610a97565b6113366000612335565b565b60008051602061308a83398151915261135181336120f4565b50600c80546001600160a01b0319166001600160a01b0392909216919091179055565b60008051602061308a83398151915261138d81336120f4565b50600b55565b60008051602061308a8339815191526113ac81336120f4565b50601080549115156101000261ff0019909216919091179055565b60008051602061308a8339815191526113e081336120f4565b611136612387565b60606001805461099f90612fb2565b600061140560065460ff1690565b156114455760405162461bcd60e51b815260206004820152601060248201526f14185d5cd8589b194e881c185d5cd95960821b6044820152606401610a97565b601054610100900460ff1661149c5760405162461bcd60e51b815260206004820152601260248201527f53616c6520686173206e6f7420626567756e00000000000000000000000000006044820152606401610a97565b346114ae8366f5232269808000612f39565b146114fb5760405162461bcd60e51b815260206004820181905260248201527f496e636f7272656374204554482073656e743b20636865636b207072696365216044820152606401610a97565b600a8211156115725760405162461bcd60e51b815260206004820152602360248201527f547269656420746f206d696e7420746f6f206d616e79204e465473206174206f60448201527f6e636500000000000000000000000000000000000000000000000000000000006064820152608401610a97565b61029a8261157f60095490565b6115899190612f0d565b11156115c25760405162461bcd60e51b815260206004820152600860248201526714d3d3110813d55560c21b6044820152606401610a97565b60005b828110156115fa576115db600980546001019055565b6115e833610ec860095490565b806115f281612fed565b9150506115c5565b5060095461098a565b919050565b6110bf338383612402565b61161d3383611e34565b61168f5760405162461bcd60e51b815260206004820152603160248201527f4552433732313a207472616e736665722063616c6c6572206973206e6f74206f60448201527f776e6572206e6f7220617070726f7665640000000000000000000000000000006064820152608401610a97565b61169b848484846124d1565b50505050565b600060008051602061308a8339815191526116bc81336120f4565b6014846116c860095490565b6116d29190612f0d565b11156117205760405162461bcd60e51b815260206004820152601060248201527f4578636565646564206d6178696d756d000000000000000000000000000000006044820152606401610a97565b61029a8461172d60095490565b6117379190612f0d565b11156117705760405162461bcd60e51b815260206004820152600860248201526714d3d3110813d55560c21b6044820152606401610a97565b60005b848110156117a857611789600980546001019055565b61179684610ec860095490565b806117a081612fed565b915050611773565b50600954949350505050565b60606117bf60095490565b82111561180e5760405162461bcd60e51b815260206004820152601160248201527f4e6f6e6578697374656e7420746f6b656e0000000000000000000000000000006044820152606401610a97565b600a6118198361255a565b60405160200161182a929190612db7565b6040516020818303038152906040529050919050565b60008051602061308a83398151915261185981336120f4565b50600d80546001600160a01b0319166001600160a01b0392909216919091179055565b60008281526007602052604090206001015461189881336120f4565b610c778383612216565b6060600a6040516020016118b69190612e04565b604051602081830303815290604052905090565b6008546001600160a01b031633146119245760405162461bcd60e51b815260206004820181905260248201527f4f776e61626c653a2063616c6c6572206973206e6f7420746865206f776e65726044820152606401610a97565b60006119386008546001600160a01b031690565b905061195260008051602061308a8339815191528261187c565b61196a60008051602061308a8339815191528261187c565b61197382612335565b61197e600083611011565b6110bf60008051602061308a83398151915283611011565b606060006119a5836002612f39565b6119b0906002612f0d565b67ffffffffffffffff8111156119d657634e487b7160e01b600052604160045260246000fd5b6040519080825280601f01601f191660200182016040528015611a00576020820181803683370190505b509050600360fc1b81600081518110611a2957634e487b7160e01b600052603260045260246000fd5b60200101906001600160f81b031916908160001a9053507f780000000000000000000000000000000000000000000000000000000000000081600181518110611a8257634e487b7160e01b600052603260045260246000fd5b60200101906001600160f81b031916908160001a9053506000611aa6846002612f39565b611ab1906001612f0d565b90505b6001811115611b52577f303132333435363738396162636465660000000000000000000000000000000085600f1660108110611b0057634e487b7160e01b600052603260045260246000fd5b1a60f81b828281518110611b2457634e487b7160e01b600052603260045260246000fd5b60200101906001600160f81b031916908160001a90535060049490941c93611b4b81612f9b565b9050611ab4565b508315611ba15760405162461bcd60e51b815260206004820181905260248201527f537472696e67733a20686578206c656e67746820696e73756666696369656e746044820152606401610a97565b9392505050565b60006001600160e01b031982167f7965db0b00000000000000000000000000000000000000000000000000000000148061098a575061098a82612674565b600081815260046020526040902080546001600160a01b0319166001600160a01b0384169081179091558190611c1b826111ad565b6001600160a01b03167f8c5be1e5ebec7d5bd14f71427d1e84f3dd0314c0f7b2291e5b200ac8c7c3b92560405160405180910390a45050565b336000908152600f60205260409020546003611c708383612f0d565b1115611cbe5760405162461bcd60e51b815260206004820152601e60248201527f43616e2774206d696e74206d6f7265207468616e20616c6c6f636174656400006044820152606401610a97565b611cc88282612f0d565b336000908152600f60205260409020555050565b600082611ce9858461270f565b14949350505050565b6001600160a01b038216611d485760405162461bcd60e51b815260206004820181905260248201527f4552433732313a206d696e7420746f20746865207a65726f20616464726573736044820152606401610a97565b6000818152600260205260409020546001600160a01b031615611dad5760405162461bcd60e51b815260206004820152601c60248201527f4552433732313a20746f6b656e20616c7265616479206d696e746564000000006044820152606401610a97565b6001600160a01b0382166000908152600360205260408120805460019290611dd6908490612f0d565b909155505060008181526002602052604080822080546001600160a01b0319166001600160a01b03861690811790915590518392907fddf252ad1be2c89b69c2b068fc378daa952ba7f163c4a11628f55a4df523b3ef908290a45050565b6000818152600260205260408120546001600160a01b0316611ead5760405162461bcd60e51b815260206004820152602c60248201527f4552433732313a206f70657261746f7220717565727920666f72206e6f6e657860448201526b34b9ba32b73a103a37b5b2b760a11b6064820152608401610a97565b6000611eb8836111ad565b9050806001600160a01b0316846001600160a01b03161480611ef35750836001600160a01b0316611ee884610a22565b6001600160a01b0316145b80610ee757506001600160a01b0380821660009081526005602090815260408083209388168352929052205460ff16610ee7565b826001600160a01b0316611f3a826111ad565b6001600160a01b031614611fb65760405162461bcd60e51b815260206004820152602560248201527f4552433732313a207472616e736665722066726f6d20696e636f72726563742060448201527f6f776e65720000000000000000000000000000000000000000000000000000006064820152608401610a97565b6001600160a01b0382166120315760405162461bcd60e51b8152602060048201526024808201527f4552433732313a207472616e7366657220746f20746865207a65726f2061646460448201527f72657373000000000000000000000000000000000000000000000000000000006064820152608401610a97565b61203c600082611be6565b6001600160a01b0383166000908152600360205260408120805460019290612065908490612f58565b90915550506001600160a01b0382166000908152600360205260408120805460019290612093908490612f0d565b909155505060008181526002602052604080822080546001600160a01b0319166001600160a01b0386811691821790925591518493918716917fddf252ad1be2c89b69c2b068fc378daa952ba7f163c4a11628f55a4df523b3ef91a4505050565b60008281526007602090815260408083206001600160a01b038516845290915290205460ff166110bf57612132816001600160a01b03166014611996565b61213d836020611996565b60405160200161214e929190612e3d565b60408051601f198184030181529082905262461bcd60e51b8252610a9791600401612efa565b60008281526007602090815260408083206001600160a01b038516845290915290205460ff166110bf5760008281526007602090815260408083206001600160a01b03851684529091529020805460ff191660011790556121d23390565b6001600160a01b0316816001600160a01b0316837f2f8788117e7eff1d82e926ec794901d17c78024a50270940304540a733656f0d60405160405180910390a45050565b60008281526007602090815260408083206001600160a01b038516845290915290205460ff16156110bf5760008281526007602090815260408083206001600160a01b0385168085529252808320805460ff1916905551339285917ff6391f5c32d9c69d2a47ea670b442974b53935d1edc7fd64eb21e047a839171b9190a45050565b60065460ff166122eb5760405162461bcd60e51b815260206004820152601460248201527f5061757361626c653a206e6f74207061757365640000000000000000000000006044820152606401610a97565b6006805460ff191690557f5db9ee0a495bf2e6ff9c91a7834c1ba4fdd244a5e8aa4e537bd38aeae4b073aa335b6040516001600160a01b03909116815260200160405180910390a1565b600880546001600160a01b038381166001600160a01b0319831681179093556040519116919082907f8be0079c531659141344cd1fd0a4f28419497f9722a3daafe3b4186f6b6457e090600090a35050565b60065460ff16156123cd5760405162461bcd60e51b815260206004820152601060248201526f14185d5cd8589b194e881c185d5cd95960821b6044820152606401610a97565b6006805460ff191660011790557f62e78cea01bee320cd4e420270b5ea74000d11b0c9f74754ebdbfc544b05a2586123183390565b816001600160a01b0316836001600160a01b031614156124645760405162461bcd60e51b815260206004820152601960248201527f4552433732313a20617070726f766520746f2063616c6c6572000000000000006044820152606401610a97565b6001600160a01b03838116600081815260056020908152604080832094871680845294825291829020805460ff191686151590811790915591519182527f17307eab39ab6107e8899845ad3d59bd9653f200f220920489ca2b5937696c31910160405180910390a3505050565b6124dc848484611f27565b6124e884848484612791565b61169b5760405162461bcd60e51b815260206004820152603260248201527f4552433732313a207472616e7366657220746f206e6f6e20455243373231526560448201527f63656976657220696d706c656d656e74657200000000000000000000000000006064820152608401610a97565b60608161257e5750506040805180820190915260018152600360fc1b602082015290565b8160005b81156125a8578061259281612fed565b91506125a19050600a83612f25565b9150612582565b60008167ffffffffffffffff8111156125d157634e487b7160e01b600052604160045260246000fd5b6040519080825280601f01601f1916602001820160405280156125fb576020820181803683370190505b5090505b8415610ee757612610600183612f58565b915061261d600a86613008565b612628906030612f0d565b60f81b81838151811061264b57634e487b7160e01b600052603260045260246000fd5b60200101906001600160f81b031916908160001a90535061266d600a86612f25565b94506125ff565b60006001600160e01b031982167f80ac58cd0000000000000000000000000000000000000000000000000000000014806126d757506001600160e01b031982167f5b5e139f00000000000000000000000000000000000000000000000000000000145b8061098a57507f01ffc9a7000000000000000000000000000000000000000000000000000000006001600160e01b031983161461098a565b600081815b845181101561278957600085828151811061273f57634e487b7160e01b600052603260045260246000fd5b602002602001015190508083116127655760008381526020829052604090209250612776565b600081815260208490526040902092505b508061278181612fed565b915050612714565b509392505050565b60006001600160a01b0384163b156128e957604051630a85bd0160e11b81526001600160a01b0385169063150b7a02906127d5903390899088908890600401612ebe565b602060405180830381600087803b1580156127ef57600080fd5b505af192505050801561281f575060408051601f3d908101601f1916820190925261281c91810190612bf2565b60015b6128cf573d80801561284d576040519150601f19603f3d011682016040523d82523d6000602084013e612852565b606091505b5080516128c75760405162461bcd60e51b815260206004820152603260248201527f4552433732313a207472616e7366657220746f206e6f6e20455243373231526560448201527f63656976657220696d706c656d656e74657200000000000000000000000000006064820152608401610a97565b805181602001fd5b6001600160e01b031916630a85bd0160e11b149050610ee7565b506001610ee7565b8280546128fd90612fb2565b90600052602060002090601f01602090048101928261291f5760008555612965565b82601f1061293857805160ff1916838001178555612965565b82800160010185558215612965579182015b8281111561296557825182559160200191906001019061294a565b50612971929150612975565b5090565b5b808211156129715760008155600101612976565b600067ffffffffffffffff808411156129a5576129a5613048565b604051601f8501601f19908116603f011681019082821181831017156129cd576129cd613048565b816040528093508581528686860111156129e657600080fd5b858560208301376000602087830101525050509392505050565b8035801515811461160357600080fd5b600060208284031215612a21578081fd5b8135611ba18161305e565b60008060408385031215612a3e578081fd5b8235612a498161305e565b91506020830135612a598161305e565b809150509250929050565b600080600060608486031215612a78578081fd5b8335612a838161305e565b92506020840135612a938161305e565b929592945050506040919091013590565b60008060008060808587031215612ab9578081fd5b8435612ac48161305e565b93506020850135612ad48161305e565b925060408501359150606085013567ffffffffffffffff811115612af6578182fd5b8501601f81018713612b06578182fd5b612b158782356020840161298a565b91505092959194509250565b60008060408385031215612b33578182fd5b8235612b3e8161305e565b9150612b4c60208401612a00565b90509250929050565b60008060408385031215612b67578182fd5b8235612b728161305e565b946020939093013593505050565b600060208284031215612b91578081fd5b611ba182612a00565b600060208284031215612bab578081fd5b5035919050565b60008060408385031215612bc4578182fd5b823591506020830135612a598161305e565b600060208284031215612be7578081fd5b8135611ba181613073565b600060208284031215612c03578081fd5b8151611ba181613073565b600060208284031215612c1f578081fd5b813567ffffffffffffffff811115612c35578182fd5b8201601f81018413612c45578182fd5b610ee78482356020840161298a565b60008060408385031215612c66578182fd5b50508035926020909101359150565b60008060008060608587031215612c8a578182fd5b8435935060208501359250604085013567ffffffffffffffff80821115612caf578384fd5b818701915087601f830112612cc2578384fd5b813581811115612cd0578485fd5b8860208260051b8501011115612ce4578485fd5b95989497505060200194505050565b60008151808452612d0b816020860160208601612f6f565b601f01601f19169290920160200192915050565b8054600090600181811c9080831680612d3957607f831692505b6020808410821415612d5957634e487b7160e01b86526022600452602486fd5b818015612d6d5760018114612d7e57612dab565b60ff19861689528489019650612dab565b60008881526020902060005b86811015612da35781548b820152908501908301612d8a565b505084890196505b50505050505092915050565b6000612dc38285612d1f565b8351612dd3818360208801612f6f565b7f2e6a736f6e0000000000000000000000000000000000000000000000000000009101908152600501949350505050565b6000612e108284612d1f565b7f6d657461646174612e6a736f6e000000000000000000000000000000000000008152600d019392505050565b7f416363657373436f6e74726f6c3a206163636f756e7420000000000000000000815260008351612e75816017850160208801612f6f565b7f206973206d697373696e6720726f6c65200000000000000000000000000000006017918401918201528351612eb2816028840160208801612f6f565b01602801949350505050565b60006001600160a01b03808716835280861660208401525083604083015260806060830152612ef06080830184612cf3565b9695505050505050565b602081526000611ba16020830184612cf3565b60008219821115612f2057612f2061301c565b500190565b600082612f3457612f34613032565b500490565b6000816000190483118215151615612f5357612f5361301c565b500290565b600082821015612f6a57612f6a61301c565b500390565b60005b83811015612f8a578181015183820152602001612f72565b8381111561169b5750506000910152565b600081612faa57612faa61301c565b506000190190565b600181811c90821680612fc657607f821691505b60208210811415612fe757634e487b7160e01b600052602260045260246000fd5b50919050565b60006000198214156130015761300161301c565b5060010190565b60008261301757613017613032565b500690565b634e487b7160e01b600052601160045260246000fd5b634e487b7160e01b600052601260045260246000fd5b634e487b7160e01b600052604160045260246000fd5b6001600160a01b038116811461113657600080fd5b6001600160e01b03198116811461113657600080fdfe241ecf16d79d0f8dbfb92cbc07fe17840425976cf0667f022fe9877caa831b08a26469706673582212205d9413f8827051d898dfbd6a448a5b7bbfacc879bc0fbe0ca7a8d280cd28304b64736f6c63430008040033687474703a2f2f6c6f63616c686f73743a333030302f6170692f6d657461646174612f",
  "linkReferences": {},
  "deployedLinkReferences": {}
}