{
  "_format": "hh-sol-artifact-1",
  "contractName": "YourContract",
  "sourceName": "contracts/YourContract.sol",
  "abi": [
    {
      "inputs": [],
      "stateMutability": "nonpayable",
      "type": "constructor"
    },
    {
      "anonymous": false,
      "inputs": [
        {
          "indexed": true,
          "internalType": "address",
          "name": "owner",
          "type": "address"
        },
        {
          "indexed": true,
          "internalType": "address",
          "name": "approved",
          "type": "address"
        },
        {
          "indexed": true,
          "internalType": "uint256",
          "name": "tokenId",
          "type": "uint256"
        }
      ],
      "name": "Approval",
      "type": "event"
    },
    {
      "anonymous": false,
      "inputs": [
        {
          "indexed": true,
          "internalType": "address",
          "name": "owner",
          "type": "address"
        },
        {
          "indexed": true,
          "internalType": "address",
          "name": "operator",
          "type": "address"
        },
        {
          "indexed": false,
          "internalType": "bool",
          "name": "approved",
          "type": "bool"
        }
      ],
      "name": "ApprovalForAll",
      "type": "event"
    },
    {
      "anonymous": false,
      "inputs": [
        {
          "indexed": false,
          "internalType": "address",
          "name": "account",
          "type": "address"
        }
      ],
      "name": "Paused",
      "type": "event"
    },
    {
      "anonymous": false,
      "inputs": [
        {
          "indexed": true,
          "internalType": "bytes32",
          "name": "role",
          "type": "bytes32"
        },
        {
          "indexed": true,
          "internalType": "bytes32",
          "name": "previousAdminRole",
          "type": "bytes32"
        },
        {
          "indexed": true,
          "internalType": "bytes32",
          "name": "newAdminRole",
          "type": "bytes32"
        }
      ],
      "name": "RoleAdminChanged",
      "type": "event"
    },
    {
      "anonymous": false,
      "inputs": [
        {
          "indexed": true,
          "internalType": "bytes32",
          "name": "role",
          "type": "bytes32"
        },
        {
          "indexed": true,
          "internalType": "address",
          "name": "account",
          "type": "address"
        },
        {
          "indexed": true,
          "internalType": "address",
          "name": "sender",
          "type": "address"
        }
      ],
      "name": "RoleGranted",
      "type": "event"
    },
    {
      "anonymous": false,
      "inputs": [
        {
          "indexed": true,
          "internalType": "bytes32",
          "name": "role",
          "type": "bytes32"
        },
        {
          "indexed": true,
          "internalType": "address",
          "name": "account",
          "type": "address"
        },
        {
          "indexed": true,
          "internalType": "address",
          "name": "sender",
          "type": "address"
        }
      ],
      "name": "RoleRevoked",
      "type": "event"
    },
    {
      "anonymous": false,
      "inputs": [
        {
          "indexed": true,
          "internalType": "address",
          "name": "from",
          "type": "address"
        },
        {
          "indexed": true,
          "internalType": "address",
          "name": "to",
          "type": "address"
        },
        {
          "indexed": true,
          "internalType": "uint256",
          "name": "tokenId",
          "type": "uint256"
        }
      ],
      "name": "Transfer",
      "type": "event"
    },
    {
      "anonymous": false,
      "inputs": [
        {
          "indexed": false,
          "internalType": "address",
          "name": "account",
          "type": "address"
        }
      ],
      "name": "Unpaused",
      "type": "event"
    },
    {
      "inputs": [],
      "name": "ARTIST_PROOF_COUNT",
      "outputs": [
        {
          "internalType": "uint256",
          "name": "",
          "type": "uint256"
        }
      ],
      "stateMutability": "view",
      "type": "function"
    },
    {
      "inputs": [],
      "name": "A_MANAGER_ROLE",
      "outputs": [
        {
          "internalType": "bytes32",
          "name": "",
          "type": "bytes32"
        }
      ],
      "stateMutability": "view",
      "type": "function"
    },
    {
      "inputs": [],
      "name": "DEFAULT_ADMIN_ROLE",
      "outputs": [
        {
          "internalType": "bytes32",
          "name": "",
          "type": "bytes32"
        }
      ],
      "stateMutability": "view",
      "type": "function"
    },
    {
      "inputs": [],
      "name": "ETH_PRICE",
      "outputs": [
        {
          "internalType": "uint256",
          "name": "",
          "type": "uint256"
        }
      ],
      "stateMutability": "view",
      "type": "function"
    },
    {
      "inputs": [],
      "name": "MANAGER_ROLE",
      "outputs": [
        {
          "internalType": "bytes32",
          "name": "",
          "type": "bytes32"
        }
      ],
      "stateMutability": "view",
      "type": "function"
    },
    {
      "inputs": [],
      "name": "MAX_MINT_COUNT",
      "outputs": [
        {
          "internalType": "uint256",
          "name": "",
          "type": "uint256"
        }
      ],
      "stateMutability": "view",
      "type": "function"
    },
    {
      "inputs": [],
      "name": "MAX_SUPPLY",
      "outputs": [
        {
          "internalType": "uint256",
          "name": "",
          "type": "uint256"
        }
      ],
      "stateMutability": "view",
      "type": "function"
    },
    {
      "inputs": [],
      "name": "PRESALE_ETH_PRICE",
      "outputs": [
        {
          "internalType": "uint256",
          "name": "",
          "type": "uint256"
        }
      ],
      "stateMutability": "view",
      "type": "function"
    },
    {
      "inputs": [],
      "name": "PRESALE_MAX_MINT_COUNT",
      "outputs": [
        {
          "internalType": "uint256",
          "name": "",
          "type": "uint256"
        }
      ],
      "stateMutability": "view",
      "type": "function"
    },
    {
      "inputs": [],
      "name": "_baseURIextended",
      "outputs": [
        {
          "internalType": "string",
          "name": "",
          "type": "string"
        }
      ],
      "stateMutability": "view",
      "type": "function"
    },
    {
      "inputs": [],
      "name": "_merkleRoot",
      "outputs": [
        {
          "internalType": "bytes32",
          "name": "",
          "type": "bytes32"
        }
      ],
      "stateMutability": "view",
      "type": "function"
    },
    {
      "inputs": [
        {
          "internalType": "address",
          "name": "to",
          "type": "address"
        },
        {
          "internalType": "uint256",
          "name": "tokenId",
          "type": "uint256"
        }
      ],
      "name": "approve",
      "outputs": [],
      "stateMutability": "nonpayable",
      "type": "function"
    },
    {
      "inputs": [
        {
          "internalType": "uint256",
          "name": "count",
          "type": "uint256"
        },
        {
          "internalType": "address",
          "name": "recipient",
          "type": "address"
        }
      ],
      "name": "artistMint",
      "outputs": [
        {
          "internalType": "uint256",
          "name": "",
          "type": "uint256"
        }
      ],
      "stateMutability": "nonpayable",
      "type": "function"
    },
    {
      "inputs": [
        {
          "internalType": "address",
          "name": "owner",
          "type": "address"
        }
      ],
      "name": "balanceOf",
      "outputs": [
        {
          "internalType": "uint256",
          "name": "",
          "type": "uint256"
        }
      ],
      "stateMutability": "view",
      "type": "function"
    },
    {
      "inputs": [],
      "name": "contractURI",
      "outputs": [
        {
          "internalType": "string",
          "name": "",
          "type": "string"
        }
      ],
      "stateMutability": "view",
      "type": "function"
    },
    {
      "inputs": [
        {
          "internalType": "uint256",
          "name": "tokenId",
          "type": "uint256"
        }
      ],
      "name": "getApproved",
      "outputs": [
        {
          "internalType": "address",
          "name": "",
          "type": "address"
        }
      ],
      "stateMutability": "view",
      "type": "function"
    },
    {
      "inputs": [
        {
          "internalType": "bytes32",
          "name": "role",
          "type": "bytes32"
        }
      ],
      "name": "getRoleAdmin",
      "outputs": [
        {
          "internalType": "bytes32",
          "name": "",
          "type": "bytes32"
        }
      ],
      "stateMutability": "view",
      "type": "function"
    },
    {
      "inputs": [
        {
          "internalType": "bytes32",
          "name": "role",
          "type": "bytes32"
        },
        {
          "internalType": "address",
          "name": "account",
          "type": "address"
        }
      ],
      "name": "grantRole",
      "outputs": [],
      "stateMutability": "nonpayable",
      "type": "function"
    },
    {
      "inputs": [
        {
          "internalType": "bytes32",
          "name": "role",
          "type": "bytes32"
        },
        {
          "internalType": "address",
          "name": "account",
          "type": "address"
        }
      ],
      "name": "hasRole",
      "outputs": [
        {
          "internalType": "bool",
          "name": "",
          "type": "bool"
        }
      ],
      "stateMutability": "view",
      "type": "function"
    },
    {
      "inputs": [
        {
          "internalType": "address",
          "name": "owner",
          "type": "address"
        },
        {
          "internalType": "address",
          "name": "operator",
          "type": "address"
        }
      ],
      "name": "isApprovedForAll",
      "outputs": [
        {
          "internalType": "bool",
          "name": "",
          "type": "bool"
        }
      ],
      "stateMutability": "view",
      "type": "function"
    },
    {
      "inputs": [],
      "name": "maxSupply",
      "outputs": [
        {
          "internalType": "uint256",
          "name": "",
          "type": "uint256"
        }
      ],
      "stateMutability": "pure",
      "type": "function"
    },
    {
      "inputs": [
        {
          "internalType": "uint256",
          "name": "count",
          "type": "uint256"
        }
      ],
      "name": "mint",
      "outputs": [
        {
          "internalType": "uint256",
          "name": "",
          "type": "uint256"
        }
      ],
      "stateMutability": "payable",
      "type": "function"
    },
    {
      "inputs": [],
      "name": "name",
      "outputs": [
        {
          "internalType": "string",
          "name": "",
          "type": "string"
        }
      ],
      "stateMutability": "view",
      "type": "function"
    },
    {
      "inputs": [
        {
          "internalType": "uint256",
          "name": "tokenId",
          "type": "uint256"
        }
      ],
      "name": "ownerOf",
      "outputs": [
        {
          "internalType": "address",
          "name": "",
          "type": "address"
        }
      ],
      "stateMutability": "view",
      "type": "function"
    },
    {
      "inputs": [],
      "name": "pause",
      "outputs": [],
      "stateMutability": "nonpayable",
      "type": "function"
    },
    {
      "inputs": [],
      "name": "paused",
      "outputs": [
        {
          "internalType": "bool",
          "name": "",
          "type": "bool"
        }
      ],
      "stateMutability": "view",
      "type": "function"
    },
    {
      "inputs": [],
      "name": "presaleActive",
      "outputs": [
        {
          "internalType": "bool",
          "name": "",
          "type": "bool"
        }
      ],
      "stateMutability": "view",
      "type": "function"
    },
    {
      "inputs": [
        {
          "internalType": "uint256",
          "name": "count",
          "type": "uint256"
        },
        {
          "internalType": "uint256",
          "name": "index",
          "type": "uint256"
        },
        {
          "internalType": "bytes32[]",
          "name": "proof",
          "type": "bytes32[]"
        }
      ],
      "name": "presaleMint",
      "outputs": [
        {
          "internalType": "uint256",
          "name": "",
          "type": "uint256"
        }
      ],
      "stateMutability": "payable",
      "type": "function"
    },
    {
      "inputs": [
        {
          "internalType": "bytes32",
          "name": "role",
          "type": "bytes32"
        },
        {
          "internalType": "address",
          "name": "account",
          "type": "address"
        }
      ],
      "name": "renounceRole",
      "outputs": [],
      "stateMutability": "nonpayable",
      "type": "function"
    },
    {
      "inputs": [
        {
          "internalType": "bytes32",
          "name": "role",
          "type": "bytes32"
        },
        {
          "internalType": "address",
          "name": "account",
          "type": "address"
        }
      ],
      "name": "revokeRole",
      "outputs": [],
      "stateMutability": "nonpayable",
      "type": "function"
    },
    {
      "inputs": [
        {
          "internalType": "uint256",
          "name": "tokenId",
          "type": "uint256"
        },
        {
          "internalType": "uint256",
          "name": "salePrice",
          "type": "uint256"
        }
      ],
      "name": "royaltyInfo",
      "outputs": [
        {
          "internalType": "address",
          "name": "receiver",
          "type": "address"
        },
        {
          "internalType": "uint256",
          "name": "royaltyAmount",
          "type": "uint256"
        }
      ],
      "stateMutability": "view",
      "type": "function"
    },
    {
      "inputs": [
        {
          "internalType": "address",
          "name": "from",
          "type": "address"
        },
        {
          "internalType": "address",
          "name": "to",
          "type": "address"
        },
        {
          "internalType": "uint256",
          "name": "tokenId",
          "type": "uint256"
        }
      ],
      "name": "safeTransferFrom",
      "outputs": [],
      "stateMutability": "nonpayable",
      "type": "function"
    },
    {
      "inputs": [
        {
          "internalType": "address",
          "name": "from",
          "type": "address"
        },
        {
          "internalType": "address",
          "name": "to",
          "type": "address"
        },
        {
          "internalType": "uint256",
          "name": "tokenId",
          "type": "uint256"
        },
        {
          "internalType": "bytes",
          "name": "_data",
          "type": "bytes"
        }
      ],
      "name": "safeTransferFrom",
      "outputs": [],
      "stateMutability": "nonpayable",
      "type": "function"
    },
    {
      "inputs": [],
      "name": "saleActive",
      "outputs": [
        {
          "internalType": "bool",
          "name": "",
          "type": "bool"
        }
      ],
      "stateMutability": "view",
      "type": "function"
    },
    {
      "inputs": [
        {
          "internalType": "address",
          "name": "operator",
          "type": "address"
        },
        {
          "internalType": "bool",
          "name": "approved",
          "type": "bool"
        }
      ],
      "name": "setApprovalForAll",
      "outputs": [],
      "stateMutability": "nonpayable",
      "type": "function"
    },
    {
      "inputs": [
        {
          "internalType": "string",
          "name": "baseURI_",
          "type": "string"
        }
      ],
      "name": "setBaseURI",
      "outputs": [],
      "stateMutability": "nonpayable",
      "type": "function"
    },
    {
      "inputs": [
        {
          "internalType": "bytes32",
          "name": "merkleRoot_",
          "type": "bytes32"
        }
      ],
      "name": "setMerkleRoot",
      "outputs": [],
      "stateMutability": "nonpayable",
      "type": "function"
    },
    {
      "inputs": [
        {
          "internalType": "bool",
          "name": "val",
          "type": "bool"
        }
      ],
      "name": "setPresaleActive",
      "outputs": [],
      "stateMutability": "nonpayable",
      "type": "function"
    },
    {
      "inputs": [
        {
          "internalType": "bool",
          "name": "val",
          "type": "bool"
        }
      ],
      "name": "setSaleActive",
      "outputs": [],
      "stateMutability": "nonpayable",
      "type": "function"
    },
    {
      "inputs": [
        {
          "internalType": "address payable",
          "name": "withdrawalWallet_",
          "type": "address"
        }
      ],
      "name": "setWithdrawalWallet",
      "outputs": [],
      "stateMutability": "nonpayable",
      "type": "function"
    },
    {
      "inputs": [
        {
          "internalType": "bytes4",
          "name": "interfaceId",
          "type": "bytes4"
        }
      ],
      "name": "supportsInterface",
      "outputs": [
        {
          "internalType": "bool",
          "name": "",
          "type": "bool"
        }
      ],
      "stateMutability": "view",
      "type": "function"
    },
    {
      "inputs": [],
      "name": "symbol",
      "outputs": [
        {
          "internalType": "string",
          "name": "",
          "type": "string"
        }
      ],
      "stateMutability": "view",
      "type": "function"
    },
    {
      "inputs": [
        {
          "internalType": "uint256",
          "name": "tokenId",
          "type": "uint256"
        }
      ],
      "name": "tokenURI",
      "outputs": [
        {
          "internalType": "string",
          "name": "",
          "type": "string"
        }
      ],
      "stateMutability": "view",
      "type": "function"
    },
    {
      "inputs": [],
      "name": "totalSupply",
      "outputs": [
        {
          "internalType": "uint256",
          "name": "",
          "type": "uint256"
        }
      ],
      "stateMutability": "view",
      "type": "function"
    },
    {
      "inputs": [
        {
          "internalType": "address",
          "name": "from",
          "type": "address"
        },
        {
          "internalType": "address",
          "name": "to",
          "type": "address"
        },
        {
          "internalType": "uint256",
          "name": "tokenId",
          "type": "uint256"
        }
      ],
      "name": "transferFrom",
      "outputs": [],
      "stateMutability": "nonpayable",
      "type": "function"
    },
    {
      "inputs": [],
      "name": "unpause",
      "outputs": [],
      "stateMutability": "nonpayable",
      "type": "function"
    },
    {
      "inputs": [],
      "name": "withdraw",
      "outputs": [],
      "stateMutability": "nonpayable",
      "type": "function"
    }
  ],
  "bytecode": "0x60e060405260236080818152906200390160a03980516200002991600991602090910190620004f3565b507f7f9947af1470e7df017d480516fb72e1b515240c75cf5afacfd79d475f309f35600a55600b805461ffff60a01b19169055604080516101208101825260001980825260208201819052918101829052606081018290526080810182905260a0810182905260c0810182905260e08101829052610100810191909152620000b690600c90600962000582565b50348015620000c457600080fd5b50604080518082018252600c8082526b165bdd5c90dbdb9d1c9858dd60a21b6020808401828152855180870190965292855284015281519192916200010c91600091620004f3565b50805162000122906001906020840190620004f3565b50506006805460ff19169055506200013c6000336200016e565b620001687f241ecf16d79d0f8dbfb92cbc07fe17840425976cf0667f022fe9877caa831b08336200017e565b62000754565b6200017a8282620001ad565b5050565b6000828152600760205260409020600101546200019c813362000251565b620001a88383620001ad565b505050565b60008281526007602090815260408083206001600160a01b038516845290915290205460ff166200017a5760008281526007602090815260408083206001600160a01b03851684529091529020805460ff191660011790556200020d3390565b6001600160a01b0316816001600160a01b0316837f2f8788117e7eff1d82e926ec794901d17c78024a50270940304540a733656f0d60405160405180910390a45050565b60008281526007602090815260408083206001600160a01b038516845290915290205460ff166200017a576200029d816001600160a01b03166014620002f760201b6200189c1760201c565b620002b38360206200189c620002f7821b17811c565b604051602001620002c6929190620005c9565b60408051601f198184030181529082905262461bcd60e51b8252620002ee9160040162000642565b60405180910390fd5b606060006200030883600262000692565b6200031590600262000677565b6001600160401b038111156200033b57634e487b7160e01b600052604160045260246000fd5b6040519080825280601f01601f19166020018201604052801562000366576020820181803683370190505b509050600360fc1b816000815181106200039057634e487b7160e01b600052603260045260246000fd5b60200101906001600160f81b031916908160001a905350600f60fb1b81600181518110620003ce57634e487b7160e01b600052603260045260246000fd5b60200101906001600160f81b031916908160001a9053506000620003f484600262000692565b6200040190600162000677565b90505b60018111156200049b576f181899199a1a9b1b9c1cb0b131b232b360811b85600f16601081106200044557634e487b7160e01b600052603260045260246000fd5b1a60f81b8282815181106200046a57634e487b7160e01b600052603260045260246000fd5b60200101906001600160f81b031916908160001a90535060049490941c936200049381620006e7565b905062000404565b508315620004ec5760405162461bcd60e51b815260206004820181905260248201527f537472696e67733a20686578206c656e67746820696e73756666696369656e746044820152606401620002ee565b9392505050565b828054620005019062000701565b90600052602060002090601f01602090048101928262000525576000855562000570565b82601f106200054057805160ff191683800117855562000570565b8280016001018555821562000570579182015b828111156200057057825182559160200191906001019062000553565b506200057e929150620005b2565b5090565b82600981019282156200057057916020028201828111156200057057825182559160200191906001019062000553565b5b808211156200057e5760008155600101620005b3565b7f416363657373436f6e74726f6c3a206163636f756e742000000000000000000081526000835162000603816017850160208801620006b4565b7001034b99036b4b9b9b4b733903937b6329607d1b601791840191820152835162000636816028840160208801620006b4565b01602801949350505050565b602081526000825180602084015262000663816040850160208701620006b4565b601f01601f19169190910160400192915050565b600082198211156200068d576200068d6200073e565b500190565b6000816000190483118215151615620006af57620006af6200073e565b500290565b60005b83811015620006d1578181015183820152602001620006b7565b83811115620006e1576000848401525b50505050565b600081620006f957620006f96200073e565b506000190190565b600181811c908216806200071657607f821691505b602082108114156200073857634e487b7160e01b600052602260045260246000fd5b50919050565b634e487b7160e01b600052601160045260246000fd5b61319d80620007646000396000f3fe6080604052600436106103085760003560e01c80636352211e1161019a578063a217fddf116100e1578063ce394f471161008a578063e8a3d48511610064578063e8a3d4851461087e578063e985e9c514610893578063ec87621c146107c557600080fd5b8063ce394f471461082e578063d547741f14610849578063d5abeb011461086957600080fd5b8063c096bd1f116100bb578063c096bd1f146107c5578063c87b56dd146107f9578063cdf653061461081957600080fd5b8063a217fddf14610770578063a22cb46514610785578063b88d4fde146107a557600080fd5b80638456cb591161014357806391d148541161011d57806391d148541461070257806395d89b4114610748578063a0712d681461075d57600080fd5b80638456cb59146106bd57806387033ce9146106d25780638832bc29146106e757600080fd5b806375796f761161017457806375796f761461065d5780637cb647591461067d578063841718a61461069d57600080fd5b80636352211e146105fc57806368428a1b1461061c57806370a082311461063d57600080fd5b80632a55205a1161025e5780633f4ba83a1161020757806353135ca0116101e157806353135ca0146105a357806355f804b3146105c45780635c975abb146105e457600080fd5b80633f4ba83a1461054e5780633f8121a21461056357806342842e0e1461058357600080fd5b806332cb6b0c1161023857806332cb6b0c1461050357806336568abe146105195780633ccfd60b1461053957600080fd5b80632a55205a1461048e5780632f2ff15d146104cd5780632fc37ab2146104ed57600080fd5b80630edc9629116102c05780631e305c9e1161029a5780631e305c9e1461042957806323b872dd1461043e578063248a9ca31461045e57600080fd5b80630edc9629146103d357806318160ddd146104015780631b59169d1461041657600080fd5b8063081812fc116102f1578063081812fc146103645780630928fc221461039c578063095ea7b3146103b157600080fd5b806301ffc9a71461030d57806306fdde0314610342575b600080fd5b34801561031957600080fd5b5061032d610328366004612cb4565b6108dc565b60405190151581526020015b60405180910390f35b34801561034e57600080fd5b50610357610920565b6040516103399190612fd8565b34801561037057600080fd5b5061038461037f366004612c78565b6109b2565b6040516001600160a01b039091168152602001610339565b3480156103a857600080fd5b50610357610a4c565b3480156103bd57600080fd5b506103d16103cc366004612c33565b610ada565b005b3480156103df57600080fd5b506103f36103ee366004612c90565b610c0c565b604051908152602001610339565b34801561040d57600080fd5b506103f3610d35565b6103f3610424366004612d53565b610d45565b34801561043557600080fd5b506103f3600381565b34801561044a57600080fd5b506103d1610459366004612b42565b610fa8565b34801561046a57600080fd5b506103f3610479366004612c78565b60009081526007602052604090206001015490565b34801561049a57600080fd5b506104ae6104a9366004612d32565b61102f565b604080516001600160a01b039093168352602083019190915201610339565b3480156104d957600080fd5b506103d16104e8366004612c90565b6110b6565b3480156104f957600080fd5b506103f3600a5481565b34801561050f57600080fd5b506103f361037981565b34801561052557600080fd5b506103d1610534366004612c90565b6110dc565b34801561054557600080fd5b506103d1611168565b34801561055a57600080fd5b506103d16111cc565b34801561056f57600080fd5b506103d161057e366004612c5e565b611202565b34801561058f57600080fd5b506103d161059e366004612b42565b611267565b3480156105af57600080fd5b50600b5461032d90600160a01b900460ff1681565b3480156105d057600080fd5b506103d16105df366004612cec565b611282565b3480156105f057600080fd5b5060065460ff1661032d565b34801561060857600080fd5b50610384610617366004612c78565b6112c0565b34801561062857600080fd5b50600b5461032d90600160a81b900460ff1681565b34801561064957600080fd5b506103f3610658366004612aee565b61134b565b34801561066957600080fd5b506103d1610678366004612aee565b6113e5565b34801561068957600080fd5b506103d1610698366004612c78565b611440565b3480156106a957600080fd5b506103d16106b8366004612c5e565b611471565b3480156106c957600080fd5b506103d16114d6565b3480156106de57600080fd5b506103f3601181565b3480156106f357600080fd5b506103f366f523226980800081565b34801561070e57600080fd5b5061032d61071d366004612c90565b60009182526007602090815260408084206001600160a01b0393909316845291905290205460ff1690565b34801561075457600080fd5b50610357611509565b6103f361076b366004612c78565b611518565b34801561077c57600080fd5b506103f3600081565b34801561079157600080fd5b506103d16107a0366004612bff565b611729565b3480156107b157600080fd5b506103d16107c0366004612b82565b611734565b3480156107d157600080fd5b506103f37f241ecf16d79d0f8dbfb92cbc07fe17840425976cf0667f022fe9877caa831b0881565b34801561080557600080fd5b50610357610814366004612c78565b6117c2565b34801561082557600080fd5b506103f3600b81565b34801561083a57600080fd5b506103f366ea7aa67b2d000081565b34801561085557600080fd5b506103d1610864366004612c90565b61184e565b34801561087557600080fd5b506103796103f3565b34801561088a57600080fd5b50610357611874565b34801561089f57600080fd5b5061032d6108ae366004612b0a565b6001600160a01b03918216600090815260056020908152604080832093909416825291909152205460ff1690565b60006001600160e01b031982167f2a55205a00000000000000000000000000000000000000000000000000000000148061091a575061091a82611aae565b92915050565b60606000805461092f90613090565b80601f016020809104026020016040519081016040528092919081815260200182805461095b90613090565b80156109a85780601f1061097d576101008083540402835291602001916109a8565b820191906000526020600020905b81548152906001019060200180831161098b57829003601f168201915b5050505050905090565b6000818152600260205260408120546001600160a01b0316610a305760405162461bcd60e51b815260206004820152602c60248201527f4552433732313a20617070726f76656420717565727920666f72206e6f6e657860448201526b34b9ba32b73a103a37b5b2b760a11b60648201526084015b60405180910390fd5b506000908152600460205260409020546001600160a01b031690565b60098054610a5990613090565b80601f0160208091040260200160405190810160405280929190818152602001828054610a8590613090565b8015610ad25780601f10610aa757610100808354040283529160200191610ad2565b820191906000526020600020905b815481529060010190602001808311610ab557829003601f168201915b505050505081565b6000610ae5826112c0565b9050806001600160a01b0316836001600160a01b03161415610b6f5760405162461bcd60e51b815260206004820152602160248201527f4552433732313a20617070726f76616c20746f2063757272656e74206f776e6560448201527f72000000000000000000000000000000000000000000000000000000000000006064820152608401610a27565b336001600160a01b0382161480610b8b5750610b8b81336108ae565b610bfd5760405162461bcd60e51b815260206004820152603860248201527f4552433732313a20617070726f76652063616c6c6572206973206e6f74206f7760448201527f6e6572206e6f7220617070726f76656420666f7220616c6c00000000000000006064820152608401610a27565b610c078383611aec565b505050565b60007f241ecf16d79d0f8dbfb92cbc07fe17840425976cf0667f022fe9877caa831b08610c398133611b67565b601184610c4560085490565b610c4f9190612feb565b10610c9c5760405162461bcd60e51b815260206004820152601360248201527f4578636565646564206d61782070726f6f6673000000000000000000000000006044820152606401610a27565b61037984610ca960085490565b610cb39190612feb565b10610ceb5760405162461bcd60e51b815260206004820152600860248201526714d3d3110813d55560c21b6044820152606401610a27565b60005b84811015610d2857610d04600880546001019055565b610d1684610d1160085490565b611be7565b80610d20816130cb565b915050610cee565b506008545b949350505050565b6000610d4060085490565b905090565b6000610d5360065460ff1690565b15610d935760405162461bcd60e51b815260206004820152601060248201526f14185d5cd8589b194e881c185d5cd95960821b6044820152606401610a27565b600b54600160a01b900460ff16610dec5760405162461bcd60e51b815260206004820152601560248201527f50726573616c6520686173206e6f7420626567756e00000000000000000000006044820152606401610a27565b34610dfe8666ea7aa67b2d0000613017565b14610e4b5760405162461bcd60e51b815260206004820181905260248201527f496e636f7272656374204554482073656e743b20636865636b207072696365216044820152606401610a27565b61037985610e5860085490565b610e629190612feb565b10610e9a5760405162461bcd60e51b815260206004820152600860248201526714d3d3110813d55560c21b6044820152606401610a27565b610ea48585611d36565b60408051602081018690523391810191909152600090606001604051602081830303815290604052805190602001209050610f1684848080602002602001604051908101604052809392919081815260200183836020028082843760009201919091525050600a549150849050611fa9565b610f625760405162461bcd60e51b815260206004820152600d60248201527f496e76616c69642070726f6f66000000000000000000000000000000000000006044820152606401610a27565b60005b86811015610f9a57610f7b600880546001019055565b610f8833610d1160085490565b80610f92816130cb565b915050610f65565b505060085495945050505050565b610fb23382611fbf565b6110245760405162461bcd60e51b815260206004820152603160248201527f4552433732313a207472616e736665722063616c6c6572206973206e6f74206f60448201527f776e6572206e6f7220617070726f7665640000000000000000000000000000006064820152608401610a27565b610c078383836120b2565b60008281526002602052604081205481906001600160a01b03166110955760405162461bcd60e51b815260206004820152601160248201527f4e6f6e6578697374656e7420746f6b656e0000000000000000000000000000006044820152606401610a27565b306110ab6110a485600a61228c565b6064612298565b915091509250929050565b6000828152600760205260409020600101546110d28133611b67565b610c0783836122a4565b6001600160a01b038116331461115a5760405162461bcd60e51b815260206004820152602f60248201527f416363657373436f6e74726f6c3a2063616e206f6e6c792072656e6f756e636560448201527f20726f6c657320666f722073656c6600000000000000000000000000000000006064820152608401610a27565b6111648282612346565b5050565b7f241ecf16d79d0f8dbfb92cbc07fe17840425976cf0667f022fe9877caa831b086111938133611b67565b600b546040516001600160a01b03909116904780156108fc02916000818181858888f19350505050158015611164573d6000803e3d6000fd5b7f241ecf16d79d0f8dbfb92cbc07fe17840425976cf0667f022fe9877caa831b086111f78133611b67565b6111ff6123c9565b50565b7f241ecf16d79d0f8dbfb92cbc07fe17840425976cf0667f022fe9877caa831b0861122d8133611b67565b50600b8054911515600160a01b027fffffffffffffffffffffff00ffffffffffffffffffffffffffffffffffffffff909216919091179055565b610c0783838360405180602001604052806000815250611734565b7f241ecf16d79d0f8dbfb92cbc07fe17840425976cf0667f022fe9877caa831b086112ad8133611b67565b8151610c079060099060208501906129cf565b6000818152600260205260408120546001600160a01b03168061091a5760405162461bcd60e51b815260206004820152602960248201527f4552433732313a206f776e657220717565727920666f72206e6f6e657869737460448201527f656e7420746f6b656e00000000000000000000000000000000000000000000006064820152608401610a27565b60006001600160a01b0382166113c95760405162461bcd60e51b815260206004820152602a60248201527f4552433732313a2062616c616e636520717565727920666f7220746865207a6560448201527f726f2061646472657373000000000000000000000000000000000000000000006064820152608401610a27565b506001600160a01b031660009081526003602052604090205490565b7f241ecf16d79d0f8dbfb92cbc07fe17840425976cf0667f022fe9877caa831b086114108133611b67565b50600b805473ffffffffffffffffffffffffffffffffffffffff19166001600160a01b0392909216919091179055565b7f241ecf16d79d0f8dbfb92cbc07fe17840425976cf0667f022fe9877caa831b0861146b8133611b67565b50600a55565b7f241ecf16d79d0f8dbfb92cbc07fe17840425976cf0667f022fe9877caa831b0861149c8133611b67565b50600b8054911515600160a81b027fffffffffffffffffffff00ffffffffffffffffffffffffffffffffffffffffff909216919091179055565b7f241ecf16d79d0f8dbfb92cbc07fe17840425976cf0667f022fe9877caa831b086115018133611b67565b6111ff612465565b60606001805461092f90613090565b600061152660065460ff1690565b156115665760405162461bcd60e51b815260206004820152601060248201526f14185d5cd8589b194e881c185d5cd95960821b6044820152606401610a27565b600b54600160a81b900460ff166115bf5760405162461bcd60e51b815260206004820152601260248201527f53616c6520686173206e6f7420626567756e00000000000000000000000000006044820152606401610a27565b346115d18366f5232269808000613017565b1461161e5760405162461bcd60e51b815260206004820181905260248201527f496e636f7272656374204554482073656e743b20636865636b207072696365216044820152606401610a27565b600b82106116945760405162461bcd60e51b815260206004820152602360248201527f547269656420746f206d696e7420746f6f206d616e79204e465473206174206f60448201527f6e636500000000000000000000000000000000000000000000000000000000006064820152608401610a27565b610379826116a160085490565b6116ab9190612feb565b106116e35760405162461bcd60e51b815260206004820152600860248201526714d3d3110813d55560c21b6044820152606401610a27565b60005b8281101561171b576116fc600880546001019055565b61170933610d1160085490565b80611713816130cb565b9150506116e6565b5060085461091a565b919050565b6111643383836124e0565b61173e3383611fbf565b6117b05760405162461bcd60e51b815260206004820152603160248201527f4552433732313a207472616e736665722063616c6c6572206973206e6f74206f60448201527f776e6572206e6f7220617070726f7665640000000000000000000000000000006064820152608401610a27565b6117bc848484846125af565b50505050565b60606117cd60085490565b82111561181c5760405162461bcd60e51b815260206004820152601160248201527f4e6f6e6578697374656e7420746f6b656e0000000000000000000000000000006044820152606401610a27565b600961182783612638565b604051602001611838929190612e95565b6040516020818303038152906040529050919050565b60008281526007602052604090206001015461186a8133611b67565b610c078383612346565b606060096040516020016118889190612ee2565b604051602081830303815290604052905090565b606060006118ab836002613017565b6118b6906002612feb565b67ffffffffffffffff8111156118dc57634e487b7160e01b600052604160045260246000fd5b6040519080825280601f01601f191660200182016040528015611906576020820181803683370190505b509050600360fc1b8160008151811061192f57634e487b7160e01b600052603260045260246000fd5b60200101906001600160f81b031916908160001a9053507f78000000000000000000000000000000000000000000000000000000000000008160018151811061198857634e487b7160e01b600052603260045260246000fd5b60200101906001600160f81b031916908160001a90535060006119ac846002613017565b6119b7906001612feb565b90505b6001811115611a58577f303132333435363738396162636465660000000000000000000000000000000085600f1660108110611a0657634e487b7160e01b600052603260045260246000fd5b1a60f81b828281518110611a2a57634e487b7160e01b600052603260045260246000fd5b60200101906001600160f81b031916908160001a90535060049490941c93611a5181613079565b90506119ba565b508315611aa75760405162461bcd60e51b815260206004820181905260248201527f537472696e67733a20686578206c656e67746820696e73756666696369656e746044820152606401610a27565b9392505050565b60006001600160e01b031982167f7965db0b00000000000000000000000000000000000000000000000000000000148061091a575061091a82612752565b6000818152600460205260409020805473ffffffffffffffffffffffffffffffffffffffff19166001600160a01b0384169081179091558190611b2e826112c0565b6001600160a01b03167f8c5be1e5ebec7d5bd14f71427d1e84f3dd0314c0f7b2291e5b200ac8c7c3b92560405160405180910390a45050565b60008281526007602090815260408083206001600160a01b038516845290915290205460ff1661116457611ba5816001600160a01b0316601461189c565b611bb083602061189c565b604051602001611bc1929190612f1b565b60408051601f198184030181529082905262461bcd60e51b8252610a2791600401612fd8565b6001600160a01b038216611c3d5760405162461bcd60e51b815260206004820181905260248201527f4552433732313a206d696e7420746f20746865207a65726f20616464726573736044820152606401610a27565b6000818152600260205260409020546001600160a01b031615611ca25760405162461bcd60e51b815260206004820152601c60248201527f4552433732313a20746f6b656e20616c7265616479206d696e746564000000006044820152606401610a27565b6001600160a01b0382166000908152600360205260408120805460019290611ccb908490612feb565b9091555050600081815260026020526040808220805473ffffffffffffffffffffffffffffffffffffffff19166001600160a01b03861690811790915590518392907fddf252ad1be2c89b69c2b068fc378daa952ba7f163c4a11628f55a4df523b3ef908290a45050565b611d436009610100613017565b8110611d915760405162461bcd60e51b815260206004820152600a60248201527f626164207469636b6574000000000000000000000000000000000000000000006044820152606401610a27565b6000611d9f61010083613003565b90506000611daf610100846130e6565b90506000600c8360098110611dd457634e487b7160e01b600052603260045260246000fd5b015490506000600c611de7856003612feb565b60098110611e0557634e487b7160e01b600052603260045260246000fd5b015490506000600c611e18866006612feb565b60098110611e3657634e487b7160e01b600052603260045260246000fd5b01549050600183851c81169083861c81169083871c16600081611e598486612feb565b611e639190612feb565b9050808b1115611eb55760405162461bcd60e51b815260206004820152601e60248201527f43616e2774206d696e74206d6f7265207468616e20616c6c6f636174656400006044820152606401610a27565b876001901b198716965086600c8a60098110611ee157634e487b7160e01b600052603260045260246000fd5b0155600181611ef160038e612feb565b611efb9190613036565b1115611f3a576001881b19959095169485600c611f1960038c612feb565b60098110611f3757634e487b7160e01b600052603260045260246000fd5b01555b600281611f4860038e612feb565b611f529190613036565b1115611f9c576001881b19949094169384600c611f7160036002613017565b611f7b908c612feb565b60098110611f9957634e487b7160e01b600052603260045260246000fd5b01555b5050505050505050505050565b600082611fb685846127ed565b14949350505050565b6000818152600260205260408120546001600160a01b03166120385760405162461bcd60e51b815260206004820152602c60248201527f4552433732313a206f70657261746f7220717565727920666f72206e6f6e657860448201526b34b9ba32b73a103a37b5b2b760a11b6064820152608401610a27565b6000612043836112c0565b9050806001600160a01b0316846001600160a01b0316148061207e5750836001600160a01b0316612073846109b2565b6001600160a01b0316145b80610d2d57506001600160a01b0380821660009081526005602090815260408083209388168352929052205460ff16610d2d565b826001600160a01b03166120c5826112c0565b6001600160a01b0316146121415760405162461bcd60e51b815260206004820152602560248201527f4552433732313a207472616e736665722066726f6d20696e636f72726563742060448201527f6f776e65720000000000000000000000000000000000000000000000000000006064820152608401610a27565b6001600160a01b0382166121bc5760405162461bcd60e51b8152602060048201526024808201527f4552433732313a207472616e7366657220746f20746865207a65726f2061646460448201527f72657373000000000000000000000000000000000000000000000000000000006064820152608401610a27565b6121c7600082611aec565b6001600160a01b03831660009081526003602052604081208054600192906121f0908490613036565b90915550506001600160a01b038216600090815260036020526040812080546001929061221e908490612feb565b9091555050600081815260026020526040808220805473ffffffffffffffffffffffffffffffffffffffff19166001600160a01b0386811691821790925591518493918716917fddf252ad1be2c89b69c2b068fc378daa952ba7f163c4a11628f55a4df523b3ef91a4505050565b6000611aa78284613017565b6000611aa78284613003565b60008281526007602090815260408083206001600160a01b038516845290915290205460ff166111645760008281526007602090815260408083206001600160a01b03851684529091529020805460ff191660011790556123023390565b6001600160a01b0316816001600160a01b0316837f2f8788117e7eff1d82e926ec794901d17c78024a50270940304540a733656f0d60405160405180910390a45050565b60008281526007602090815260408083206001600160a01b038516845290915290205460ff16156111645760008281526007602090815260408083206001600160a01b0385168085529252808320805460ff1916905551339285917ff6391f5c32d9c69d2a47ea670b442974b53935d1edc7fd64eb21e047a839171b9190a45050565b60065460ff1661241b5760405162461bcd60e51b815260206004820152601460248201527f5061757361626c653a206e6f74207061757365640000000000000000000000006044820152606401610a27565b6006805460ff191690557f5db9ee0a495bf2e6ff9c91a7834c1ba4fdd244a5e8aa4e537bd38aeae4b073aa335b6040516001600160a01b03909116815260200160405180910390a1565b60065460ff16156124ab5760405162461bcd60e51b815260206004820152601060248201526f14185d5cd8589b194e881c185d5cd95960821b6044820152606401610a27565b6006805460ff191660011790557f62e78cea01bee320cd4e420270b5ea74000d11b0c9f74754ebdbfc544b05a2586124483390565b816001600160a01b0316836001600160a01b031614156125425760405162461bcd60e51b815260206004820152601960248201527f4552433732313a20617070726f766520746f2063616c6c6572000000000000006044820152606401610a27565b6001600160a01b03838116600081815260056020908152604080832094871680845294825291829020805460ff191686151590811790915591519182527f17307eab39ab6107e8899845ad3d59bd9653f200f220920489ca2b5937696c31910160405180910390a3505050565b6125ba8484846120b2565b6125c68484848461286f565b6117bc5760405162461bcd60e51b815260206004820152603260248201527f4552433732313a207472616e7366657220746f206e6f6e20455243373231526560448201527f63656976657220696d706c656d656e74657200000000000000000000000000006064820152608401610a27565b60608161265c5750506040805180820190915260018152600360fc1b602082015290565b8160005b81156126865780612670816130cb565b915061267f9050600a83613003565b9150612660565b60008167ffffffffffffffff8111156126af57634e487b7160e01b600052604160045260246000fd5b6040519080825280601f01601f1916602001820160405280156126d9576020820181803683370190505b5090505b8415610d2d576126ee600183613036565b91506126fb600a866130e6565b612706906030612feb565b60f81b81838151811061272957634e487b7160e01b600052603260045260246000fd5b60200101906001600160f81b031916908160001a90535061274b600a86613003565b94506126dd565b60006001600160e01b031982167f80ac58cd0000000000000000000000000000000000000000000000000000000014806127b557506001600160e01b031982167f5b5e139f00000000000000000000000000000000000000000000000000000000145b8061091a57507f01ffc9a7000000000000000000000000000000000000000000000000000000006001600160e01b031983161461091a565b600081815b845181101561286757600085828151811061281d57634e487b7160e01b600052603260045260246000fd5b602002602001015190508083116128435760008381526020829052604090209250612854565b600081815260208490526040902092505b508061285f816130cb565b9150506127f2565b509392505050565b60006001600160a01b0384163b156129c757604051630a85bd0160e11b81526001600160a01b0385169063150b7a02906128b3903390899088908890600401612f9c565b602060405180830381600087803b1580156128cd57600080fd5b505af19250505080156128fd575060408051601f3d908101601f191682019092526128fa91810190612cd0565b60015b6129ad573d80801561292b576040519150601f19603f3d011682016040523d82523d6000602084013e612930565b606091505b5080516129a55760405162461bcd60e51b815260206004820152603260248201527f4552433732313a207472616e7366657220746f206e6f6e20455243373231526560448201527f63656976657220696d706c656d656e74657200000000000000000000000000006064820152608401610a27565b805181602001fd5b6001600160e01b031916630a85bd0160e11b149050610d2d565b506001610d2d565b8280546129db90613090565b90600052602060002090601f0160209004810192826129fd5760008555612a43565b82601f10612a1657805160ff1916838001178555612a43565b82800160010185558215612a43579182015b82811115612a43578251825591602001919060010190612a28565b50612a4f929150612a53565b5090565b5b80821115612a4f5760008155600101612a54565b600067ffffffffffffffff80841115612a8357612a83613126565b604051601f8501601f19908116603f01168101908282118183101715612aab57612aab613126565b81604052809350858152868686011115612ac457600080fd5b858560208301376000602087830101525050509392505050565b8035801515811461172457600080fd5b600060208284031215612aff578081fd5b8135611aa78161313c565b60008060408385031215612b1c578081fd5b8235612b278161313c565b91506020830135612b378161313c565b809150509250929050565b600080600060608486031215612b56578081fd5b8335612b618161313c565b92506020840135612b718161313c565b929592945050506040919091013590565b60008060008060808587031215612b97578081fd5b8435612ba28161313c565b93506020850135612bb28161313c565b925060408501359150606085013567ffffffffffffffff811115612bd4578182fd5b8501601f81018713612be4578182fd5b612bf387823560208401612a68565b91505092959194509250565b60008060408385031215612c11578182fd5b8235612c1c8161313c565b9150612c2a60208401612ade565b90509250929050565b60008060408385031215612c45578182fd5b8235612c508161313c565b946020939093013593505050565b600060208284031215612c6f578081fd5b611aa782612ade565b600060208284031215612c89578081fd5b5035919050565b60008060408385031215612ca2578182fd5b823591506020830135612b378161313c565b600060208284031215612cc5578081fd5b8135611aa781613151565b600060208284031215612ce1578081fd5b8151611aa781613151565b600060208284031215612cfd578081fd5b813567ffffffffffffffff811115612d13578182fd5b8201601f81018413612d23578182fd5b610d2d84823560208401612a68565b60008060408385031215612d44578182fd5b50508035926020909101359150565b60008060008060608587031215612d68578182fd5b8435935060208501359250604085013567ffffffffffffffff80821115612d8d578384fd5b818701915087601f830112612da0578384fd5b813581811115612dae578485fd5b8860208260051b8501011115612dc2578485fd5b95989497505060200194505050565b60008151808452612de981602086016020860161304d565b601f01601f19169290920160200192915050565b8054600090600181811c9080831680612e1757607f831692505b6020808410821415612e3757634e487b7160e01b86526022600452602486fd5b818015612e4b5760018114612e5c57612e89565b60ff19861689528489019650612e89565b60008881526020902060005b86811015612e815781548b820152908501908301612e68565b505084890196505b50505050505092915050565b6000612ea18285612dfd565b8351612eb181836020880161304d565b7f2e6a736f6e0000000000000000000000000000000000000000000000000000009101908152600501949350505050565b6000612eee8284612dfd565b7f6d657461646174612e6a736f6e000000000000000000000000000000000000008152600d019392505050565b7f416363657373436f6e74726f6c3a206163636f756e7420000000000000000000815260008351612f5381601785016020880161304d565b7f206973206d697373696e6720726f6c65200000000000000000000000000000006017918401918201528351612f9081602884016020880161304d565b01602801949350505050565b60006001600160a01b03808716835280861660208401525083604083015260806060830152612fce6080830184612dd1565b9695505050505050565b602081526000611aa76020830184612dd1565b60008219821115612ffe57612ffe6130fa565b500190565b60008261301257613012613110565b500490565b6000816000190483118215151615613031576130316130fa565b500290565b600082821015613048576130486130fa565b500390565b60005b83811015613068578181015183820152602001613050565b838111156117bc5750506000910152565b600081613088576130886130fa565b506000190190565b600181811c908216806130a457607f821691505b602082108114156130c557634e487b7160e01b600052602260045260246000fd5b50919050565b60006000198214156130df576130df6130fa565b5060010190565b6000826130f5576130f5613110565b500690565b634e487b7160e01b600052601160045260246000fd5b634e487b7160e01b600052601260045260246000fd5b634e487b7160e01b600052604160045260246000fd5b6001600160a01b03811681146111ff57600080fd5b6001600160e01b0319811681146111ff57600080fdfea26469706673582212204ec8a9dbbff26e7f35c2def7842658b3e4e5c8db98d21e33a54401a1a01c281164736f6c63430008040033687474703a2f2f6c6f63616c686f73743a333030302f6170692f6d657461646174612f",
  "linkReferences": {},
  "deployedLinkReferences": {}
}