{
  "_format": "hh-sol-artifact-1",
  "contractName": "YourContract",
  "sourceName": "contracts/YourContract.sol",
  "abi": [
    {
      "inputs": [],
      "stateMutability": "nonpayable",
      "type": "constructor"
    },
    {
      "anonymous": false,
      "inputs": [
        {
          "indexed": true,
          "internalType": "address",
          "name": "owner",
          "type": "address"
        },
        {
          "indexed": true,
          "internalType": "address",
          "name": "approved",
          "type": "address"
        },
        {
          "indexed": true,
          "internalType": "uint256",
          "name": "tokenId",
          "type": "uint256"
        }
      ],
      "name": "Approval",
      "type": "event"
    },
    {
      "anonymous": false,
      "inputs": [
        {
          "indexed": true,
          "internalType": "address",
          "name": "owner",
          "type": "address"
        },
        {
          "indexed": true,
          "internalType": "address",
          "name": "operator",
          "type": "address"
        },
        {
          "indexed": false,
          "internalType": "bool",
          "name": "approved",
          "type": "bool"
        }
      ],
      "name": "ApprovalForAll",
      "type": "event"
    },
    {
      "anonymous": false,
      "inputs": [
        {
          "indexed": false,
          "internalType": "address",
          "name": "account",
          "type": "address"
        }
      ],
      "name": "Paused",
      "type": "event"
    },
    {
      "anonymous": false,
      "inputs": [
        {
          "indexed": true,
          "internalType": "bytes32",
          "name": "role",
          "type": "bytes32"
        },
        {
          "indexed": true,
          "internalType": "bytes32",
          "name": "previousAdminRole",
          "type": "bytes32"
        },
        {
          "indexed": true,
          "internalType": "bytes32",
          "name": "newAdminRole",
          "type": "bytes32"
        }
      ],
      "name": "RoleAdminChanged",
      "type": "event"
    },
    {
      "anonymous": false,
      "inputs": [
        {
          "indexed": true,
          "internalType": "bytes32",
          "name": "role",
          "type": "bytes32"
        },
        {
          "indexed": true,
          "internalType": "address",
          "name": "account",
          "type": "address"
        },
        {
          "indexed": true,
          "internalType": "address",
          "name": "sender",
          "type": "address"
        }
      ],
      "name": "RoleGranted",
      "type": "event"
    },
    {
      "anonymous": false,
      "inputs": [
        {
          "indexed": true,
          "internalType": "bytes32",
          "name": "role",
          "type": "bytes32"
        },
        {
          "indexed": true,
          "internalType": "address",
          "name": "account",
          "type": "address"
        },
        {
          "indexed": true,
          "internalType": "address",
          "name": "sender",
          "type": "address"
        }
      ],
      "name": "RoleRevoked",
      "type": "event"
    },
    {
      "anonymous": false,
      "inputs": [
        {
          "indexed": true,
          "internalType": "address",
          "name": "from",
          "type": "address"
        },
        {
          "indexed": true,
          "internalType": "address",
          "name": "to",
          "type": "address"
        },
        {
          "indexed": true,
          "internalType": "uint256",
          "name": "tokenId",
          "type": "uint256"
        }
      ],
      "name": "Transfer",
      "type": "event"
    },
    {
      "anonymous": false,
      "inputs": [
        {
          "indexed": false,
          "internalType": "address",
          "name": "account",
          "type": "address"
        }
      ],
      "name": "Unpaused",
      "type": "event"
    },
    {
      "inputs": [],
      "name": "ARTIST_PROOF_COUNT",
      "outputs": [
        {
          "internalType": "uint256",
          "name": "",
          "type": "uint256"
        }
      ],
      "stateMutability": "view",
      "type": "function"
    },
    {
      "inputs": [],
      "name": "DEFAULT_ADMIN_ROLE",
      "outputs": [
        {
          "internalType": "bytes32",
          "name": "",
          "type": "bytes32"
        }
      ],
      "stateMutability": "view",
      "type": "function"
    },
    {
      "inputs": [],
      "name": "ETH_PRICE",
      "outputs": [
        {
          "internalType": "uint256",
          "name": "",
          "type": "uint256"
        }
      ],
      "stateMutability": "view",
      "type": "function"
    },
    {
      "inputs": [],
      "name": "MANAGER_ROLE",
      "outputs": [
        {
          "internalType": "bytes32",
          "name": "",
          "type": "bytes32"
        }
      ],
      "stateMutability": "view",
      "type": "function"
    },
    {
      "inputs": [],
      "name": "MAX_MINT_COUNT",
      "outputs": [
        {
          "internalType": "uint256",
          "name": "",
          "type": "uint256"
        }
      ],
      "stateMutability": "view",
      "type": "function"
    },
    {
      "inputs": [],
      "name": "MAX_SUPPLY",
      "outputs": [
        {
          "internalType": "uint256",
          "name": "",
          "type": "uint256"
        }
      ],
      "stateMutability": "view",
      "type": "function"
    },
    {
      "inputs": [
        {
          "internalType": "address",
          "name": "to",
          "type": "address"
        },
        {
          "internalType": "uint256",
          "name": "tokenId",
          "type": "uint256"
        }
      ],
      "name": "approve",
      "outputs": [],
      "stateMutability": "nonpayable",
      "type": "function"
    },
    {
      "inputs": [
        {
          "internalType": "uint256",
          "name": "count",
          "type": "uint256"
        },
        {
          "internalType": "address",
          "name": "recipient",
          "type": "address"
        }
      ],
      "name": "artistMint",
      "outputs": [
        {
          "internalType": "uint256",
          "name": "",
          "type": "uint256"
        }
      ],
      "stateMutability": "nonpayable",
      "type": "function"
    },
    {
      "inputs": [
        {
          "internalType": "address",
          "name": "owner",
          "type": "address"
        }
      ],
      "name": "balanceOf",
      "outputs": [
        {
          "internalType": "uint256",
          "name": "",
          "type": "uint256"
        }
      ],
      "stateMutability": "view",
      "type": "function"
    },
    {
      "inputs": [
        {
          "internalType": "uint256",
          "name": "ticketNumber",
          "type": "uint256"
        }
      ],
      "name": "claimTicket",
      "outputs": [],
      "stateMutability": "nonpayable",
      "type": "function"
    },
    {
      "inputs": [],
      "name": "contractURI",
      "outputs": [
        {
          "internalType": "string",
          "name": "",
          "type": "string"
        }
      ],
      "stateMutability": "view",
      "type": "function"
    },
    {
      "inputs": [
        {
          "internalType": "uint256",
          "name": "tokenId",
          "type": "uint256"
        }
      ],
      "name": "getApproved",
      "outputs": [
        {
          "internalType": "address",
          "name": "",
          "type": "address"
        }
      ],
      "stateMutability": "view",
      "type": "function"
    },
    {
      "inputs": [
        {
          "internalType": "bytes32",
          "name": "role",
          "type": "bytes32"
        }
      ],
      "name": "getRoleAdmin",
      "outputs": [
        {
          "internalType": "bytes32",
          "name": "",
          "type": "bytes32"
        }
      ],
      "stateMutability": "view",
      "type": "function"
    },
    {
      "inputs": [
        {
          "internalType": "bytes32",
          "name": "role",
          "type": "bytes32"
        },
        {
          "internalType": "address",
          "name": "account",
          "type": "address"
        }
      ],
      "name": "grantRole",
      "outputs": [],
      "stateMutability": "nonpayable",
      "type": "function"
    },
    {
      "inputs": [
        {
          "internalType": "bytes32",
          "name": "role",
          "type": "bytes32"
        },
        {
          "internalType": "address",
          "name": "account",
          "type": "address"
        }
      ],
      "name": "hasRole",
      "outputs": [
        {
          "internalType": "bool",
          "name": "",
          "type": "bool"
        }
      ],
      "stateMutability": "view",
      "type": "function"
    },
    {
      "inputs": [
        {
          "internalType": "address",
          "name": "owner",
          "type": "address"
        },
        {
          "internalType": "address",
          "name": "operator",
          "type": "address"
        }
      ],
      "name": "isApprovedForAll",
      "outputs": [
        {
          "internalType": "bool",
          "name": "",
          "type": "bool"
        }
      ],
      "stateMutability": "view",
      "type": "function"
    },
    {
      "inputs": [],
      "name": "maxSupply",
      "outputs": [
        {
          "internalType": "uint256",
          "name": "",
          "type": "uint256"
        }
      ],
      "stateMutability": "pure",
      "type": "function"
    },
    {
      "inputs": [
        {
          "internalType": "uint256",
          "name": "count",
          "type": "uint256"
        }
      ],
      "name": "mint",
      "outputs": [
        {
          "internalType": "uint256",
          "name": "",
          "type": "uint256"
        }
      ],
      "stateMutability": "payable",
      "type": "function"
    },
    {
      "inputs": [],
      "name": "name",
      "outputs": [
        {
          "internalType": "string",
          "name": "",
          "type": "string"
        }
      ],
      "stateMutability": "view",
      "type": "function"
    },
    {
      "inputs": [
        {
          "internalType": "uint256",
          "name": "tokenId",
          "type": "uint256"
        }
      ],
      "name": "ownerOf",
      "outputs": [
        {
          "internalType": "address",
          "name": "",
          "type": "address"
        }
      ],
      "stateMutability": "view",
      "type": "function"
    },
    {
      "inputs": [],
      "name": "pause",
      "outputs": [],
      "stateMutability": "nonpayable",
      "type": "function"
    },
    {
      "inputs": [],
      "name": "paused",
      "outputs": [
        {
          "internalType": "bool",
          "name": "",
          "type": "bool"
        }
      ],
      "stateMutability": "view",
      "type": "function"
    },
    {
      "inputs": [
        {
          "internalType": "bytes32",
          "name": "role",
          "type": "bytes32"
        },
        {
          "internalType": "address",
          "name": "account",
          "type": "address"
        }
      ],
      "name": "renounceRole",
      "outputs": [],
      "stateMutability": "nonpayable",
      "type": "function"
    },
    {
      "inputs": [
        {
          "internalType": "bytes32",
          "name": "role",
          "type": "bytes32"
        },
        {
          "internalType": "address",
          "name": "account",
          "type": "address"
        }
      ],
      "name": "revokeRole",
      "outputs": [],
      "stateMutability": "nonpayable",
      "type": "function"
    },
    {
      "inputs": [
        {
          "internalType": "uint256",
          "name": "tokenId",
          "type": "uint256"
        },
        {
          "internalType": "uint256",
          "name": "salePrice",
          "type": "uint256"
        }
      ],
      "name": "royaltyInfo",
      "outputs": [
        {
          "internalType": "address",
          "name": "receiver",
          "type": "address"
        },
        {
          "internalType": "uint256",
          "name": "royaltyAmount",
          "type": "uint256"
        }
      ],
      "stateMutability": "view",
      "type": "function"
    },
    {
      "inputs": [
        {
          "internalType": "address",
          "name": "from",
          "type": "address"
        },
        {
          "internalType": "address",
          "name": "to",
          "type": "address"
        },
        {
          "internalType": "uint256",
          "name": "tokenId",
          "type": "uint256"
        }
      ],
      "name": "safeTransferFrom",
      "outputs": [],
      "stateMutability": "nonpayable",
      "type": "function"
    },
    {
      "inputs": [
        {
          "internalType": "address",
          "name": "from",
          "type": "address"
        },
        {
          "internalType": "address",
          "name": "to",
          "type": "address"
        },
        {
          "internalType": "uint256",
          "name": "tokenId",
          "type": "uint256"
        },
        {
          "internalType": "bytes",
          "name": "_data",
          "type": "bytes"
        }
      ],
      "name": "safeTransferFrom",
      "outputs": [],
      "stateMutability": "nonpayable",
      "type": "function"
    },
    {
      "inputs": [
        {
          "internalType": "address",
          "name": "operator",
          "type": "address"
        },
        {
          "internalType": "bool",
          "name": "approved",
          "type": "bool"
        }
      ],
      "name": "setApprovalForAll",
      "outputs": [],
      "stateMutability": "nonpayable",
      "type": "function"
    },
    {
      "inputs": [
        {
          "internalType": "string",
          "name": "baseURI_",
          "type": "string"
        }
      ],
      "name": "setBaseURI",
      "outputs": [],
      "stateMutability": "nonpayable",
      "type": "function"
    },
    {
      "inputs": [
        {
          "internalType": "address payable",
          "name": "withdrawalWallet_",
          "type": "address"
        }
      ],
      "name": "setWithdrawalWallet",
      "outputs": [],
      "stateMutability": "nonpayable",
      "type": "function"
    },
    {
      "inputs": [
        {
          "internalType": "bytes4",
          "name": "interfaceId",
          "type": "bytes4"
        }
      ],
      "name": "supportsInterface",
      "outputs": [
        {
          "internalType": "bool",
          "name": "",
          "type": "bool"
        }
      ],
      "stateMutability": "view",
      "type": "function"
    },
    {
      "inputs": [],
      "name": "symbol",
      "outputs": [
        {
          "internalType": "string",
          "name": "",
          "type": "string"
        }
      ],
      "stateMutability": "view",
      "type": "function"
    },
    {
      "inputs": [
        {
          "internalType": "uint256",
          "name": "tokenId",
          "type": "uint256"
        }
      ],
      "name": "tokenURI",
      "outputs": [
        {
          "internalType": "string",
          "name": "",
          "type": "string"
        }
      ],
      "stateMutability": "view",
      "type": "function"
    },
    {
      "inputs": [],
      "name": "totalSupply",
      "outputs": [
        {
          "internalType": "uint256",
          "name": "",
          "type": "uint256"
        }
      ],
      "stateMutability": "view",
      "type": "function"
    },
    {
      "inputs": [
        {
          "internalType": "address",
          "name": "from",
          "type": "address"
        },
        {
          "internalType": "address",
          "name": "to",
          "type": "address"
        },
        {
          "internalType": "uint256",
          "name": "tokenId",
          "type": "uint256"
        }
      ],
      "name": "transferFrom",
      "outputs": [],
      "stateMutability": "nonpayable",
      "type": "function"
    },
    {
      "inputs": [],
      "name": "unpause",
      "outputs": [],
      "stateMutability": "nonpayable",
      "type": "function"
    },
    {
      "inputs": [],
      "name": "withdraw",
      "outputs": [],
      "stateMutability": "nonpayable",
      "type": "function"
    }
  ],
  "bytecode": "0x60e060405260236080818152906200310360a039805162000029916009916020909101906200053a565b50604051806060016040528060001981526020016000198152602001600019815250600b9060036200005d929190620005c9565b503480156200006b57600080fd5b50604080518082018252600c8082526b165bdd5c90dbdb9d1c9858dd60a21b602080840182815285518087019096529285528401528151919291620000b3916000916200053a565b508051620000c99060019060208401906200053a565b50506006805460ff1916905550620000e06200011f565b620000ed600033620001be565b620001197f241ecf16d79d0f8dbfb92cbc07fe17840425976cf0667f022fe9877caa831b0833620001ce565b6200079b565b60065460ff16156200016b5760405162461bcd60e51b815260206004820152601060248201526f14185d5cd8589b194e881c185d5cd95960821b60448201526064015b60405180910390fd5b6006805460ff191660011790557f62e78cea01bee320cd4e420270b5ea74000d11b0c9f74754ebdbfc544b05a258620001a13390565b6040516001600160a01b03909116815260200160405180910390a1565b620001ca8282620001fd565b5050565b600082815260076020526040902060010154620001ec8133620002a1565b620001f88383620001fd565b505050565b60008281526007602090815260408083206001600160a01b038516845290915290205460ff16620001ca5760008281526007602090815260408083206001600160a01b03851684529091529020805460ff191660011790556200025d3390565b6001600160a01b0316816001600160a01b0316837f2f8788117e7eff1d82e926ec794901d17c78024a50270940304540a733656f0d60405160405180910390a45050565b60008281526007602090815260408083206001600160a01b038516845290915290205460ff16620001ca57620002ed816001600160a01b031660146200033e60201b620013eb1760201c565b62000303836020620013eb6200033e821b17811c565b6040516020016200031692919062000610565b60408051601f198184030181529082905262461bcd60e51b8252620001629160040162000689565b606060006200034f836002620006d9565b6200035c906002620006be565b6001600160401b038111156200038257634e487b7160e01b600052604160045260246000fd5b6040519080825280601f01601f191660200182016040528015620003ad576020820181803683370190505b509050600360fc1b81600081518110620003d757634e487b7160e01b600052603260045260246000fd5b60200101906001600160f81b031916908160001a905350600f60fb1b816001815181106200041557634e487b7160e01b600052603260045260246000fd5b60200101906001600160f81b031916908160001a90535060006200043b846002620006d9565b62000448906001620006be565b90505b6001811115620004e2576f181899199a1a9b1b9c1cb0b131b232b360811b85600f16601081106200048c57634e487b7160e01b600052603260045260246000fd5b1a60f81b828281518110620004b157634e487b7160e01b600052603260045260246000fd5b60200101906001600160f81b031916908160001a90535060049490941c93620004da816200072e565b90506200044b565b508315620005335760405162461bcd60e51b815260206004820181905260248201527f537472696e67733a20686578206c656e67746820696e73756666696369656e74604482015260640162000162565b9392505050565b828054620005489062000748565b90600052602060002090601f0160209004810192826200056c5760008555620005b7565b82601f106200058757805160ff1916838001178555620005b7565b82800160010185558215620005b7579182015b82811115620005b75782518255916020019190600101906200059a565b50620005c5929150620005f9565b5090565b8260038101928215620005b75791602002820182811115620005b75782518255916020019190600101906200059a565b5b80821115620005c55760008155600101620005fa565b7f416363657373436f6e74726f6c3a206163636f756e74200000000000000000008152600083516200064a816017850160208801620006fb565b7001034b99036b4b9b9b4b733903937b6329607d1b60179184019182015283516200067d816028840160208801620006fb565b01602801949350505050565b6020815260008251806020840152620006aa816040850160208701620006fb565b601f01601f19169190910160400192915050565b60008219821115620006d457620006d462000785565b500190565b6000816000190483118215151615620006f657620006f662000785565b500290565b60005b8381101562000718578181015183820152602001620006fe565b8381111562000728576000848401525b50505050565b60008162000740576200074062000785565b506000190190565b600181811c908216806200075d57607f821691505b602082108114156200077f57634e487b7160e01b600052602260045260246000fd5b50919050565b634e487b7160e01b600052601160045260246000fd5b61295880620007ab6000396000f3fe60806040526004361061026a5760003560e01c80636352211e11610153578063a217fddf116100cb578063d547741f1161007f578063e8a3d48511610064578063e8a3d485146106bc578063e985e9c5146106d1578063ec87621c1461071a57600080fd5b8063d547741f14610687578063d5abeb01146106a757600080fd5b8063b88d4fde116100b0578063b88d4fde14610632578063c87b56dd14610652578063cdf653061461067257600080fd5b8063a217fddf146105fd578063a22cb4651461061257600080fd5b806387033ce91161012257806391d148541161010757806391d148541461058f57806395d89b41146105d5578063a0712d68146105ea57600080fd5b806387033ce91461055f5780638832bc291461057457600080fd5b80636352211e146104ea57806370a082311461050a57806375796f761461052a5780638456cb591461054a57600080fd5b80632a55205a116101e65780633ccfd60b116101b557806342842e0e1161019a57806342842e0e1461049257806355f804b3146104b25780635c975abb146104d257600080fd5b80633ccfd60b146104685780633f4ba83a1461047d57600080fd5b80632a55205a146103d35780632f2ff15d1461041257806332cb6b0c1461043257806336568abe1461044857600080fd5b80630edc96291161023d57806318160ddd1161022257806318160ddd1461036e57806323b872dd14610383578063248a9ca3146103a357600080fd5b80630edc9629146103205780630fb116d21461034e57600080fd5b806301ffc9a71461026f57806306fdde03146102a4578063081812fc146102c6578063095ea7b3146102fe575b600080fd5b34801561027b57600080fd5b5061028f61028a3660046124db565b61074e565b60405190151581526020015b60405180910390f35b3480156102b057600080fd5b506102b9610792565b60405161029b9190612793565b3480156102d257600080fd5b506102e66102e136600461249f565b610824565b6040516001600160a01b03909116815260200161029b565b34801561030a57600080fd5b5061031e610319366004612474565b6108be565b005b34801561032c57600080fd5b5061034061033b366004612559565b6109f0565b60405190815260200161029b565b34801561035a57600080fd5b5061031e61036936600461249f565b610b19565b34801561037a57600080fd5b50610340610c33565b34801561038f57600080fd5b5061031e61039e366004612386565b610c43565b3480156103af57600080fd5b506103406103be36600461249f565b60009081526007602052604090206001015490565b3480156103df57600080fd5b506103f36103ee36600461256b565b610cca565b604080516001600160a01b03909316835260208301919091520161029b565b34801561041e57600080fd5b5061031e61042d3660046124b7565b610d51565b34801561043e57600080fd5b5061034061037981565b34801561045457600080fd5b5061031e6104633660046124b7565b610d77565b34801561047457600080fd5b5061031e610e03565b34801561048957600080fd5b5061031e610e67565b34801561049e57600080fd5b5061031e6104ad366004612386565b610e9d565b3480156104be57600080fd5b5061031e6104cd366004612513565b610eb8565b3480156104de57600080fd5b5060065460ff1661028f565b3480156104f657600080fd5b506102e661050536600461249f565b610ef6565b34801561051657600080fd5b50610340610525366004612332565b610f81565b34801561053657600080fd5b5061031e610545366004612332565b61101b565b34801561055657600080fd5b5061031e611076565b34801561056b57600080fd5b50610340600b81565b34801561058057600080fd5b506103406618838370f3400081565b34801561059b57600080fd5b5061028f6105aa3660046124b7565b60009182526007602090815260408084206001600160a01b0393909316845291905290205460ff1690565b3480156105e157600080fd5b506102b96110a9565b6103406105f836600461249f565b6110b8565b34801561060957600080fd5b50610340600081565b34801561061e57600080fd5b5061031e61062d366004612443565b611278565b34801561063e57600080fd5b5061031e61064d3660046123c6565b611283565b34801561065e57600080fd5b506102b961066d36600461249f565b611311565b34801561067e57600080fd5b50610340600481565b34801561069357600080fd5b5061031e6106a23660046124b7565b61139d565b3480156106b357600080fd5b50610379610340565b3480156106c857600080fd5b506102b96113c3565b3480156106dd57600080fd5b5061028f6106ec36600461234e565b6001600160a01b03918216600090815260056020908152604080832093909416825291909152205460ff1690565b34801561072657600080fd5b506103407f241ecf16d79d0f8dbfb92cbc07fe17840425976cf0667f022fe9877caa831b0881565b60006001600160e01b031982167f2a55205a00000000000000000000000000000000000000000000000000000000148061078c575061078c826115fd565b92915050565b6060600080546107a19061284b565b80601f01602080910402602001604051908101604052809291908181526020018280546107cd9061284b565b801561081a5780601f106107ef5761010080835404028352916020019161081a565b820191906000526020600020905b8154815290600101906020018083116107fd57829003601f168201915b5050505050905090565b6000818152600260205260408120546001600160a01b03166108a25760405162461bcd60e51b815260206004820152602c60248201527f4552433732313a20617070726f76656420717565727920666f72206e6f6e657860448201526b34b9ba32b73a103a37b5b2b760a11b60648201526084015b60405180910390fd5b506000908152600460205260409020546001600160a01b031690565b60006108c982610ef6565b9050806001600160a01b0316836001600160a01b031614156109535760405162461bcd60e51b815260206004820152602160248201527f4552433732313a20617070726f76616c20746f2063757272656e74206f776e6560448201527f72000000000000000000000000000000000000000000000000000000000000006064820152608401610899565b336001600160a01b038216148061096f575061096f81336106ec565b6109e15760405162461bcd60e51b815260206004820152603860248201527f4552433732313a20617070726f76652063616c6c6572206973206e6f74206f7760448201527f6e6572206e6f7220617070726f76656420666f7220616c6c00000000000000006064820152608401610899565b6109eb838361163b565b505050565b60007f241ecf16d79d0f8dbfb92cbc07fe17840425976cf0667f022fe9877caa831b08610a1d81336116b6565b600b84610a2960085490565b610a3391906127a6565b10610a805760405162461bcd60e51b815260206004820152601360248201527f4578636565646564206d61782070726f6f6673000000000000000000000000006044820152606401610899565b61037984610a8d60085490565b610a9791906127a6565b10610acf5760405162461bcd60e51b815260206004820152600860248201526714d3d3110813d55560c21b6044820152606401610899565b60005b84811015610b0c57610ae8600880546001019055565b610afa84610af560085490565b611736565b80610b0481612886565b915050610ad2565b506008545b949350505050565b610b2660036101006127d2565b8110610b745760405162461bcd60e51b815260206004820152600a60248201527f626164207469636b6574000000000000000000000000000000000000000000006044820152606401610899565b610100810460ff8216600080600b8460038110610ba157634e487b7160e01b600052603260045260246000fd5b0154915060018383901c16905080600114610bfe5760405162461bcd60e51b815260206004820152600f60248201527f616c726561647920636c61696d656400000000000000000000000000000000006044820152606401610899565b826001901b198216915081600b8560038110610c2a57634e487b7160e01b600052603260045260246000fd5b01555050505050565b6000610c3e60085490565b905090565b610c4d3382611885565b610cbf5760405162461bcd60e51b815260206004820152603160248201527f4552433732313a207472616e736665722063616c6c6572206973206e6f74206f60448201527f776e6572206e6f7220617070726f7665640000000000000000000000000000006064820152608401610899565b6109eb838383611978565b60008281526002602052604081205481906001600160a01b0316610d305760405162461bcd60e51b815260206004820152601160248201527f4e6f6e6578697374656e7420746f6b656e0000000000000000000000000000006044820152606401610899565b30610d46610d3f85600a611b52565b6064611b5e565b915091509250929050565b600082815260076020526040902060010154610d6d81336116b6565b6109eb8383611b6a565b6001600160a01b0381163314610df55760405162461bcd60e51b815260206004820152602f60248201527f416363657373436f6e74726f6c3a2063616e206f6e6c792072656e6f756e636560448201527f20726f6c657320666f722073656c6600000000000000000000000000000000006064820152608401610899565b610dff8282611c0c565b5050565b7f241ecf16d79d0f8dbfb92cbc07fe17840425976cf0667f022fe9877caa831b08610e2e81336116b6565b600a546040516001600160a01b03909116904780156108fc02916000818181858888f19350505050158015610dff573d6000803e3d6000fd5b7f241ecf16d79d0f8dbfb92cbc07fe17840425976cf0667f022fe9877caa831b08610e9281336116b6565b610e9a611c8f565b50565b6109eb83838360405180602001604052806000815250611283565b7f241ecf16d79d0f8dbfb92cbc07fe17840425976cf0667f022fe9877caa831b08610ee381336116b6565b81516109eb906009906020850190612223565b6000818152600260205260408120546001600160a01b03168061078c5760405162461bcd60e51b815260206004820152602960248201527f4552433732313a206f776e657220717565727920666f72206e6f6e657869737460448201527f656e7420746f6b656e00000000000000000000000000000000000000000000006064820152608401610899565b60006001600160a01b038216610fff5760405162461bcd60e51b815260206004820152602a60248201527f4552433732313a2062616c616e636520717565727920666f7220746865207a6560448201527f726f2061646472657373000000000000000000000000000000000000000000006064820152608401610899565b506001600160a01b031660009081526003602052604090205490565b7f241ecf16d79d0f8dbfb92cbc07fe17840425976cf0667f022fe9877caa831b0861104681336116b6565b50600a805473ffffffffffffffffffffffffffffffffffffffff19166001600160a01b0392909216919091179055565b7f241ecf16d79d0f8dbfb92cbc07fe17840425976cf0667f022fe9877caa831b086110a181336116b6565b610e9a611d2b565b6060600180546107a19061284b565b60006110c660065460ff1690565b156111135760405162461bcd60e51b815260206004820152601060248201527f5061757361626c653a20706175736564000000000000000000000000000000006044820152606401610899565b34611125836618838370f340006127d2565b146111725760405162461bcd60e51b815260206004820181905260248201527f496e636f7272656374204554482073656e743b20636865636b207072696365216044820152606401610899565b600482106111e85760405162461bcd60e51b815260206004820152602360248201527f547269656420746f206d696e7420746f6f206d616e79204e465473206174206f60448201527f6e636500000000000000000000000000000000000000000000000000000000006064820152608401610899565b610379826111f560085490565b6111ff91906127a6565b106112375760405162461bcd60e51b815260206004820152600860248201526714d3d3110813d55560c21b6044820152606401610899565b60005b8281101561126f57611250600880546001019055565b61125d33610af560085490565b8061126781612886565b91505061123a565b5060085461078c565b610dff338383611db3565b61128d3383611885565b6112ff5760405162461bcd60e51b815260206004820152603160248201527f4552433732313a207472616e736665722063616c6c6572206973206e6f74206f60448201527f776e6572206e6f7220617070726f7665640000000000000000000000000000006064820152608401610899565b61130b84848484611e82565b50505050565b606061131c60085490565b82111561136b5760405162461bcd60e51b815260206004820152601160248201527f4e6f6e6578697374656e7420746f6b656e0000000000000000000000000000006044820152606401610899565b600961137683611f0b565b604051602001611387929190612650565b6040516020818303038152906040529050919050565b6000828152600760205260409020600101546113b981336116b6565b6109eb8383611c0c565b606060096040516020016113d7919061269d565b604051602081830303815290604052905090565b606060006113fa8360026127d2565b6114059060026127a6565b67ffffffffffffffff81111561142b57634e487b7160e01b600052604160045260246000fd5b6040519080825280601f01601f191660200182016040528015611455576020820181803683370190505b509050600360fc1b8160008151811061147e57634e487b7160e01b600052603260045260246000fd5b60200101906001600160f81b031916908160001a9053507f7800000000000000000000000000000000000000000000000000000000000000816001815181106114d757634e487b7160e01b600052603260045260246000fd5b60200101906001600160f81b031916908160001a90535060006114fb8460026127d2565b6115069060016127a6565b90505b60018111156115a7577f303132333435363738396162636465660000000000000000000000000000000085600f166010811061155557634e487b7160e01b600052603260045260246000fd5b1a60f81b82828151811061157957634e487b7160e01b600052603260045260246000fd5b60200101906001600160f81b031916908160001a90535060049490941c936115a081612834565b9050611509565b5083156115f65760405162461bcd60e51b815260206004820181905260248201527f537472696e67733a20686578206c656e67746820696e73756666696369656e746044820152606401610899565b9392505050565b60006001600160e01b031982167f7965db0b00000000000000000000000000000000000000000000000000000000148061078c575061078c82612025565b6000818152600460205260409020805473ffffffffffffffffffffffffffffffffffffffff19166001600160a01b038416908117909155819061167d82610ef6565b6001600160a01b03167f8c5be1e5ebec7d5bd14f71427d1e84f3dd0314c0f7b2291e5b200ac8c7c3b92560405160405180910390a45050565b60008281526007602090815260408083206001600160a01b038516845290915290205460ff16610dff576116f4816001600160a01b031660146113eb565b6116ff8360206113eb565b6040516020016117109291906126d6565b60408051601f198184030181529082905262461bcd60e51b825261089991600401612793565b6001600160a01b03821661178c5760405162461bcd60e51b815260206004820181905260248201527f4552433732313a206d696e7420746f20746865207a65726f20616464726573736044820152606401610899565b6000818152600260205260409020546001600160a01b0316156117f15760405162461bcd60e51b815260206004820152601c60248201527f4552433732313a20746f6b656e20616c7265616479206d696e746564000000006044820152606401610899565b6001600160a01b038216600090815260036020526040812080546001929061181a9084906127a6565b9091555050600081815260026020526040808220805473ffffffffffffffffffffffffffffffffffffffff19166001600160a01b03861690811790915590518392907fddf252ad1be2c89b69c2b068fc378daa952ba7f163c4a11628f55a4df523b3ef908290a45050565b6000818152600260205260408120546001600160a01b03166118fe5760405162461bcd60e51b815260206004820152602c60248201527f4552433732313a206f70657261746f7220717565727920666f72206e6f6e657860448201526b34b9ba32b73a103a37b5b2b760a11b6064820152608401610899565b600061190983610ef6565b9050806001600160a01b0316846001600160a01b031614806119445750836001600160a01b031661193984610824565b6001600160a01b0316145b80610b1157506001600160a01b0380821660009081526005602090815260408083209388168352929052205460ff16610b11565b826001600160a01b031661198b82610ef6565b6001600160a01b031614611a075760405162461bcd60e51b815260206004820152602560248201527f4552433732313a207472616e736665722066726f6d20696e636f72726563742060448201527f6f776e65720000000000000000000000000000000000000000000000000000006064820152608401610899565b6001600160a01b038216611a825760405162461bcd60e51b8152602060048201526024808201527f4552433732313a207472616e7366657220746f20746865207a65726f2061646460448201527f72657373000000000000000000000000000000000000000000000000000000006064820152608401610899565b611a8d60008261163b565b6001600160a01b0383166000908152600360205260408120805460019290611ab69084906127f1565b90915550506001600160a01b0382166000908152600360205260408120805460019290611ae49084906127a6565b9091555050600081815260026020526040808220805473ffffffffffffffffffffffffffffffffffffffff19166001600160a01b0386811691821790925591518493918716917fddf252ad1be2c89b69c2b068fc378daa952ba7f163c4a11628f55a4df523b3ef91a4505050565b60006115f682846127d2565b60006115f682846127be565b60008281526007602090815260408083206001600160a01b038516845290915290205460ff16610dff5760008281526007602090815260408083206001600160a01b03851684529091529020805460ff19166001179055611bc83390565b6001600160a01b0316816001600160a01b0316837f2f8788117e7eff1d82e926ec794901d17c78024a50270940304540a733656f0d60405160405180910390a45050565b60008281526007602090815260408083206001600160a01b038516845290915290205460ff1615610dff5760008281526007602090815260408083206001600160a01b0385168085529252808320805460ff1916905551339285917ff6391f5c32d9c69d2a47ea670b442974b53935d1edc7fd64eb21e047a839171b9190a45050565b60065460ff16611ce15760405162461bcd60e51b815260206004820152601460248201527f5061757361626c653a206e6f74207061757365640000000000000000000000006044820152606401610899565b6006805460ff191690557f5db9ee0a495bf2e6ff9c91a7834c1ba4fdd244a5e8aa4e537bd38aeae4b073aa335b6040516001600160a01b03909116815260200160405180910390a1565b60065460ff1615611d7e5760405162461bcd60e51b815260206004820152601060248201527f5061757361626c653a20706175736564000000000000000000000000000000006044820152606401610899565b6006805460ff191660011790557f62e78cea01bee320cd4e420270b5ea74000d11b0c9f74754ebdbfc544b05a258611d0e3390565b816001600160a01b0316836001600160a01b03161415611e155760405162461bcd60e51b815260206004820152601960248201527f4552433732313a20617070726f766520746f2063616c6c6572000000000000006044820152606401610899565b6001600160a01b03838116600081815260056020908152604080832094871680845294825291829020805460ff191686151590811790915591519182527f17307eab39ab6107e8899845ad3d59bd9653f200f220920489ca2b5937696c31910160405180910390a3505050565b611e8d848484611978565b611e99848484846120c0565b61130b5760405162461bcd60e51b815260206004820152603260248201527f4552433732313a207472616e7366657220746f206e6f6e20455243373231526560448201527f63656976657220696d706c656d656e74657200000000000000000000000000006064820152608401610899565b606081611f2f5750506040805180820190915260018152600360fc1b602082015290565b8160005b8115611f595780611f4381612886565b9150611f529050600a836127be565b9150611f33565b60008167ffffffffffffffff811115611f8257634e487b7160e01b600052604160045260246000fd5b6040519080825280601f01601f191660200182016040528015611fac576020820181803683370190505b5090505b8415610b1157611fc16001836127f1565b9150611fce600a866128a1565b611fd99060306127a6565b60f81b818381518110611ffc57634e487b7160e01b600052603260045260246000fd5b60200101906001600160f81b031916908160001a90535061201e600a866127be565b9450611fb0565b60006001600160e01b031982167f80ac58cd00000000000000000000000000000000000000000000000000000000148061208857506001600160e01b031982167f5b5e139f00000000000000000000000000000000000000000000000000000000145b8061078c57507f01ffc9a7000000000000000000000000000000000000000000000000000000006001600160e01b031983161461078c565b60006001600160a01b0384163b1561221857604051630a85bd0160e11b81526001600160a01b0385169063150b7a0290612104903390899088908890600401612757565b602060405180830381600087803b15801561211e57600080fd5b505af192505050801561214e575060408051601f3d908101601f1916820190925261214b918101906124f7565b60015b6121fe573d80801561217c576040519150601f19603f3d011682016040523d82523d6000602084013e612181565b606091505b5080516121f65760405162461bcd60e51b815260206004820152603260248201527f4552433732313a207472616e7366657220746f206e6f6e20455243373231526560448201527f63656976657220696d706c656d656e74657200000000000000000000000000006064820152608401610899565b805181602001fd5b6001600160e01b031916630a85bd0160e11b149050610b11565b506001949350505050565b82805461222f9061284b565b90600052602060002090601f0160209004810192826122515760008555612297565b82601f1061226a57805160ff1916838001178555612297565b82800160010185558215612297579182015b8281111561229757825182559160200191906001019061227c565b506122a39291506122a7565b5090565b5b808211156122a357600081556001016122a8565b600067ffffffffffffffff808411156122d7576122d76128e1565b604051601f8501601f19908116603f011681019082821181831017156122ff576122ff6128e1565b8160405280935085815286868601111561231857600080fd5b858560208301376000602087830101525050509392505050565b600060208284031215612343578081fd5b81356115f6816128f7565b60008060408385031215612360578081fd5b823561236b816128f7565b9150602083013561237b816128f7565b809150509250929050565b60008060006060848603121561239a578081fd5b83356123a5816128f7565b925060208401356123b5816128f7565b929592945050506040919091013590565b600080600080608085870312156123db578081fd5b84356123e6816128f7565b935060208501356123f6816128f7565b925060408501359150606085013567ffffffffffffffff811115612418578182fd5b8501601f81018713612428578182fd5b612437878235602084016122bc565b91505092959194509250565b60008060408385031215612455578182fd5b8235612460816128f7565b91506020830135801515811461237b578182fd5b60008060408385031215612486578182fd5b8235612491816128f7565b946020939093013593505050565b6000602082840312156124b0578081fd5b5035919050565b600080604083850312156124c9578182fd5b82359150602083013561237b816128f7565b6000602082840312156124ec578081fd5b81356115f68161290c565b600060208284031215612508578081fd5b81516115f68161290c565b600060208284031215612524578081fd5b813567ffffffffffffffff81111561253a578182fd5b8201601f8101841361254a578182fd5b610b11848235602084016122bc565b600080604083850312156124c9578081fd5b6000806040838503121561257d578182fd5b50508035926020909101359150565b600081518084526125a4816020860160208601612808565b601f01601f19169290920160200192915050565b8054600090600181811c90808316806125d257607f831692505b60208084108214156125f257634e487b7160e01b86526022600452602486fd5b818015612606576001811461261757612644565b60ff19861689528489019650612644565b60008881526020902060005b8681101561263c5781548b820152908501908301612623565b505084890196505b50505050505092915050565b600061265c82856125b8565b835161266c818360208801612808565b7f2e6a736f6e0000000000000000000000000000000000000000000000000000009101908152600501949350505050565b60006126a982846125b8565b7f6d657461646174612e6a736f6e000000000000000000000000000000000000008152600d019392505050565b7f416363657373436f6e74726f6c3a206163636f756e742000000000000000000081526000835161270e816017850160208801612808565b7f206973206d697373696e6720726f6c6520000000000000000000000000000000601791840191820152835161274b816028840160208801612808565b01602801949350505050565b60006001600160a01b03808716835280861660208401525083604083015260806060830152612789608083018461258c565b9695505050505050565b6020815260006115f6602083018461258c565b600082198211156127b9576127b96128b5565b500190565b6000826127cd576127cd6128cb565b500490565b60008160001904831182151516156127ec576127ec6128b5565b500290565b600082821015612803576128036128b5565b500390565b60005b8381101561282357818101518382015260200161280b565b8381111561130b5750506000910152565b600081612843576128436128b5565b506000190190565b600181811c9082168061285f57607f821691505b6020821081141561288057634e487b7160e01b600052602260045260246000fd5b50919050565b600060001982141561289a5761289a6128b5565b5060010190565b6000826128b0576128b06128cb565b500690565b634e487b7160e01b600052601160045260246000fd5b634e487b7160e01b600052601260045260246000fd5b634e487b7160e01b600052604160045260246000fd5b6001600160a01b0381168114610e9a57600080fd5b6001600160e01b031981168114610e9a57600080fdfea264697066735822122072e6be6fc9f742c2a6864a45f916d9462ffa9b74e468758c9b5db493f45bdb4164736f6c63430008040033687474703a2f2f6c6f63616c686f73743a333030302f6170692f6d657461646174612f",
  "linkReferences": {},
  "deployedLinkReferences": {}
}