{
  "_format": "hh-sol-artifact-1",
  "contractName": "YourContract",
  "sourceName": "contracts/YourContract.sol",
  "abi": [
    {
      "inputs": [],
      "stateMutability": "nonpayable",
      "type": "constructor"
    },
    {
      "anonymous": false,
      "inputs": [
        {
          "indexed": true,
          "internalType": "address",
          "name": "owner",
          "type": "address"
        },
        {
          "indexed": true,
          "internalType": "address",
          "name": "approved",
          "type": "address"
        },
        {
          "indexed": true,
          "internalType": "uint256",
          "name": "tokenId",
          "type": "uint256"
        }
      ],
      "name": "Approval",
      "type": "event"
    },
    {
      "anonymous": false,
      "inputs": [
        {
          "indexed": true,
          "internalType": "address",
          "name": "owner",
          "type": "address"
        },
        {
          "indexed": true,
          "internalType": "address",
          "name": "operator",
          "type": "address"
        },
        {
          "indexed": false,
          "internalType": "bool",
          "name": "approved",
          "type": "bool"
        }
      ],
      "name": "ApprovalForAll",
      "type": "event"
    },
    {
      "anonymous": false,
      "inputs": [
        {
          "indexed": false,
          "internalType": "address",
          "name": "account",
          "type": "address"
        }
      ],
      "name": "Paused",
      "type": "event"
    },
    {
      "anonymous": false,
      "inputs": [
        {
          "indexed": true,
          "internalType": "bytes32",
          "name": "role",
          "type": "bytes32"
        },
        {
          "indexed": true,
          "internalType": "bytes32",
          "name": "previousAdminRole",
          "type": "bytes32"
        },
        {
          "indexed": true,
          "internalType": "bytes32",
          "name": "newAdminRole",
          "type": "bytes32"
        }
      ],
      "name": "RoleAdminChanged",
      "type": "event"
    },
    {
      "anonymous": false,
      "inputs": [
        {
          "indexed": true,
          "internalType": "bytes32",
          "name": "role",
          "type": "bytes32"
        },
        {
          "indexed": true,
          "internalType": "address",
          "name": "account",
          "type": "address"
        },
        {
          "indexed": true,
          "internalType": "address",
          "name": "sender",
          "type": "address"
        }
      ],
      "name": "RoleGranted",
      "type": "event"
    },
    {
      "anonymous": false,
      "inputs": [
        {
          "indexed": true,
          "internalType": "bytes32",
          "name": "role",
          "type": "bytes32"
        },
        {
          "indexed": true,
          "internalType": "address",
          "name": "account",
          "type": "address"
        },
        {
          "indexed": true,
          "internalType": "address",
          "name": "sender",
          "type": "address"
        }
      ],
      "name": "RoleRevoked",
      "type": "event"
    },
    {
      "anonymous": false,
      "inputs": [
        {
          "indexed": true,
          "internalType": "address",
          "name": "from",
          "type": "address"
        },
        {
          "indexed": true,
          "internalType": "address",
          "name": "to",
          "type": "address"
        },
        {
          "indexed": true,
          "internalType": "uint256",
          "name": "tokenId",
          "type": "uint256"
        }
      ],
      "name": "Transfer",
      "type": "event"
    },
    {
      "anonymous": false,
      "inputs": [
        {
          "indexed": false,
          "internalType": "address",
          "name": "account",
          "type": "address"
        }
      ],
      "name": "Unpaused",
      "type": "event"
    },
    {
      "inputs": [],
      "name": "ARTIST_PROOF_COUNT",
      "outputs": [
        {
          "internalType": "uint256",
          "name": "",
          "type": "uint256"
        }
      ],
      "stateMutability": "view",
      "type": "function"
    },
    {
      "inputs": [],
      "name": "DEFAULT_ADMIN_ROLE",
      "outputs": [
        {
          "internalType": "bytes32",
          "name": "",
          "type": "bytes32"
        }
      ],
      "stateMutability": "view",
      "type": "function"
    },
    {
      "inputs": [],
      "name": "ETH_PRICE",
      "outputs": [
        {
          "internalType": "uint256",
          "name": "",
          "type": "uint256"
        }
      ],
      "stateMutability": "view",
      "type": "function"
    },
    {
      "inputs": [],
      "name": "MANAGER_ROLE",
      "outputs": [
        {
          "internalType": "bytes32",
          "name": "",
          "type": "bytes32"
        }
      ],
      "stateMutability": "view",
      "type": "function"
    },
    {
      "inputs": [],
      "name": "MAX_MINT_COUNT",
      "outputs": [
        {
          "internalType": "uint256",
          "name": "",
          "type": "uint256"
        }
      ],
      "stateMutability": "view",
      "type": "function"
    },
    {
      "inputs": [],
      "name": "MAX_SUPPLY",
      "outputs": [
        {
          "internalType": "uint256",
          "name": "",
          "type": "uint256"
        }
      ],
      "stateMutability": "view",
      "type": "function"
    },
    {
      "inputs": [],
      "name": "PRESALE_ETH_PRICE",
      "outputs": [
        {
          "internalType": "uint256",
          "name": "",
          "type": "uint256"
        }
      ],
      "stateMutability": "view",
      "type": "function"
    },
    {
      "inputs": [],
      "name": "PRESALE_MAX_MINT_COUNT",
      "outputs": [
        {
          "internalType": "uint256",
          "name": "",
          "type": "uint256"
        }
      ],
      "stateMutability": "view",
      "type": "function"
    },
    {
      "inputs": [],
      "name": "_baseURIextended",
      "outputs": [
        {
          "internalType": "string",
          "name": "",
          "type": "string"
        }
      ],
      "stateMutability": "view",
      "type": "function"
    },
    {
      "inputs": [],
      "name": "_merkleRoot",
      "outputs": [
        {
          "internalType": "bytes32",
          "name": "",
          "type": "bytes32"
        }
      ],
      "stateMutability": "view",
      "type": "function"
    },
    {
      "inputs": [
        {
          "internalType": "address",
          "name": "to",
          "type": "address"
        },
        {
          "internalType": "uint256",
          "name": "tokenId",
          "type": "uint256"
        }
      ],
      "name": "approve",
      "outputs": [],
      "stateMutability": "nonpayable",
      "type": "function"
    },
    {
      "inputs": [
        {
          "internalType": "uint256",
          "name": "count",
          "type": "uint256"
        },
        {
          "internalType": "address",
          "name": "recipient",
          "type": "address"
        }
      ],
      "name": "artistMint",
      "outputs": [
        {
          "internalType": "uint256",
          "name": "",
          "type": "uint256"
        }
      ],
      "stateMutability": "nonpayable",
      "type": "function"
    },
    {
      "inputs": [
        {
          "internalType": "address",
          "name": "owner",
          "type": "address"
        }
      ],
      "name": "balanceOf",
      "outputs": [
        {
          "internalType": "uint256",
          "name": "",
          "type": "uint256"
        }
      ],
      "stateMutability": "view",
      "type": "function"
    },
    {
      "inputs": [],
      "name": "contractURI",
      "outputs": [
        {
          "internalType": "string",
          "name": "",
          "type": "string"
        }
      ],
      "stateMutability": "view",
      "type": "function"
    },
    {
      "inputs": [
        {
          "internalType": "uint256",
          "name": "tokenId",
          "type": "uint256"
        }
      ],
      "name": "getApproved",
      "outputs": [
        {
          "internalType": "address",
          "name": "",
          "type": "address"
        }
      ],
      "stateMutability": "view",
      "type": "function"
    },
    {
      "inputs": [
        {
          "internalType": "bytes32",
          "name": "role",
          "type": "bytes32"
        }
      ],
      "name": "getRoleAdmin",
      "outputs": [
        {
          "internalType": "bytes32",
          "name": "",
          "type": "bytes32"
        }
      ],
      "stateMutability": "view",
      "type": "function"
    },
    {
      "inputs": [
        {
          "internalType": "bytes32",
          "name": "role",
          "type": "bytes32"
        },
        {
          "internalType": "address",
          "name": "account",
          "type": "address"
        }
      ],
      "name": "grantRole",
      "outputs": [],
      "stateMutability": "nonpayable",
      "type": "function"
    },
    {
      "inputs": [
        {
          "internalType": "bytes32",
          "name": "role",
          "type": "bytes32"
        },
        {
          "internalType": "address",
          "name": "account",
          "type": "address"
        }
      ],
      "name": "hasRole",
      "outputs": [
        {
          "internalType": "bool",
          "name": "",
          "type": "bool"
        }
      ],
      "stateMutability": "view",
      "type": "function"
    },
    {
      "inputs": [
        {
          "internalType": "address",
          "name": "owner",
          "type": "address"
        },
        {
          "internalType": "address",
          "name": "operator",
          "type": "address"
        }
      ],
      "name": "isApprovedForAll",
      "outputs": [
        {
          "internalType": "bool",
          "name": "",
          "type": "bool"
        }
      ],
      "stateMutability": "view",
      "type": "function"
    },
    {
      "inputs": [],
      "name": "maxSupply",
      "outputs": [
        {
          "internalType": "uint256",
          "name": "",
          "type": "uint256"
        }
      ],
      "stateMutability": "pure",
      "type": "function"
    },
    {
      "inputs": [
        {
          "internalType": "uint256",
          "name": "count",
          "type": "uint256"
        }
      ],
      "name": "mint",
      "outputs": [
        {
          "internalType": "uint256",
          "name": "",
          "type": "uint256"
        }
      ],
      "stateMutability": "payable",
      "type": "function"
    },
    {
      "inputs": [],
      "name": "name",
      "outputs": [
        {
          "internalType": "string",
          "name": "",
          "type": "string"
        }
      ],
      "stateMutability": "view",
      "type": "function"
    },
    {
      "inputs": [
        {
          "internalType": "uint256",
          "name": "tokenId",
          "type": "uint256"
        }
      ],
      "name": "ownerOf",
      "outputs": [
        {
          "internalType": "address",
          "name": "",
          "type": "address"
        }
      ],
      "stateMutability": "view",
      "type": "function"
    },
    {
      "inputs": [],
      "name": "pause",
      "outputs": [],
      "stateMutability": "nonpayable",
      "type": "function"
    },
    {
      "inputs": [],
      "name": "paused",
      "outputs": [
        {
          "internalType": "bool",
          "name": "",
          "type": "bool"
        }
      ],
      "stateMutability": "view",
      "type": "function"
    },
    {
      "inputs": [],
      "name": "presaleActive",
      "outputs": [
        {
          "internalType": "bool",
          "name": "",
          "type": "bool"
        }
      ],
      "stateMutability": "view",
      "type": "function"
    },
    {
      "inputs": [
        {
          "internalType": "uint256",
          "name": "count",
          "type": "uint256"
        },
        {
          "internalType": "uint256",
          "name": "index",
          "type": "uint256"
        },
        {
          "internalType": "bytes32[]",
          "name": "proof",
          "type": "bytes32[]"
        }
      ],
      "name": "presaleMint",
      "outputs": [
        {
          "internalType": "uint256",
          "name": "",
          "type": "uint256"
        }
      ],
      "stateMutability": "payable",
      "type": "function"
    },
    {
      "inputs": [
        {
          "internalType": "bytes32",
          "name": "role",
          "type": "bytes32"
        },
        {
          "internalType": "address",
          "name": "account",
          "type": "address"
        }
      ],
      "name": "renounceRole",
      "outputs": [],
      "stateMutability": "nonpayable",
      "type": "function"
    },
    {
      "inputs": [
        {
          "internalType": "bytes32",
          "name": "role",
          "type": "bytes32"
        },
        {
          "internalType": "address",
          "name": "account",
          "type": "address"
        }
      ],
      "name": "revokeRole",
      "outputs": [],
      "stateMutability": "nonpayable",
      "type": "function"
    },
    {
      "inputs": [
        {
          "internalType": "uint256",
          "name": "tokenId",
          "type": "uint256"
        },
        {
          "internalType": "uint256",
          "name": "salePrice",
          "type": "uint256"
        }
      ],
      "name": "royaltyInfo",
      "outputs": [
        {
          "internalType": "address",
          "name": "receiver",
          "type": "address"
        },
        {
          "internalType": "uint256",
          "name": "royaltyAmount",
          "type": "uint256"
        }
      ],
      "stateMutability": "view",
      "type": "function"
    },
    {
      "inputs": [
        {
          "internalType": "address",
          "name": "from",
          "type": "address"
        },
        {
          "internalType": "address",
          "name": "to",
          "type": "address"
        },
        {
          "internalType": "uint256",
          "name": "tokenId",
          "type": "uint256"
        }
      ],
      "name": "safeTransferFrom",
      "outputs": [],
      "stateMutability": "nonpayable",
      "type": "function"
    },
    {
      "inputs": [
        {
          "internalType": "address",
          "name": "from",
          "type": "address"
        },
        {
          "internalType": "address",
          "name": "to",
          "type": "address"
        },
        {
          "internalType": "uint256",
          "name": "tokenId",
          "type": "uint256"
        },
        {
          "internalType": "bytes",
          "name": "_data",
          "type": "bytes"
        }
      ],
      "name": "safeTransferFrom",
      "outputs": [],
      "stateMutability": "nonpayable",
      "type": "function"
    },
    {
      "inputs": [],
      "name": "saleActive",
      "outputs": [
        {
          "internalType": "bool",
          "name": "",
          "type": "bool"
        }
      ],
      "stateMutability": "view",
      "type": "function"
    },
    {
      "inputs": [
        {
          "internalType": "address",
          "name": "operator",
          "type": "address"
        },
        {
          "internalType": "bool",
          "name": "approved",
          "type": "bool"
        }
      ],
      "name": "setApprovalForAll",
      "outputs": [],
      "stateMutability": "nonpayable",
      "type": "function"
    },
    {
      "inputs": [
        {
          "internalType": "string",
          "name": "baseURI_",
          "type": "string"
        }
      ],
      "name": "setBaseURI",
      "outputs": [],
      "stateMutability": "nonpayable",
      "type": "function"
    },
    {
      "inputs": [
        {
          "internalType": "bytes32",
          "name": "merkleRoot_",
          "type": "bytes32"
        }
      ],
      "name": "setMerkleRoot",
      "outputs": [],
      "stateMutability": "nonpayable",
      "type": "function"
    },
    {
      "inputs": [
        {
          "internalType": "bool",
          "name": "val",
          "type": "bool"
        }
      ],
      "name": "setPresaleActive",
      "outputs": [],
      "stateMutability": "nonpayable",
      "type": "function"
    },
    {
      "inputs": [
        {
          "internalType": "bool",
          "name": "val",
          "type": "bool"
        }
      ],
      "name": "setSaleActive",
      "outputs": [],
      "stateMutability": "nonpayable",
      "type": "function"
    },
    {
      "inputs": [
        {
          "internalType": "address payable",
          "name": "withdrawalWallet_",
          "type": "address"
        }
      ],
      "name": "setWithdrawalWallet",
      "outputs": [],
      "stateMutability": "nonpayable",
      "type": "function"
    },
    {
      "inputs": [
        {
          "internalType": "bytes4",
          "name": "interfaceId",
          "type": "bytes4"
        }
      ],
      "name": "supportsInterface",
      "outputs": [
        {
          "internalType": "bool",
          "name": "",
          "type": "bool"
        }
      ],
      "stateMutability": "view",
      "type": "function"
    },
    {
      "inputs": [],
      "name": "symbol",
      "outputs": [
        {
          "internalType": "string",
          "name": "",
          "type": "string"
        }
      ],
      "stateMutability": "view",
      "type": "function"
    },
    {
      "inputs": [
        {
          "internalType": "uint256",
          "name": "tokenId",
          "type": "uint256"
        }
      ],
      "name": "tokenURI",
      "outputs": [
        {
          "internalType": "string",
          "name": "",
          "type": "string"
        }
      ],
      "stateMutability": "view",
      "type": "function"
    },
    {
      "inputs": [],
      "name": "totalSupply",
      "outputs": [
        {
          "internalType": "uint256",
          "name": "",
          "type": "uint256"
        }
      ],
      "stateMutability": "view",
      "type": "function"
    },
    {
      "inputs": [
        {
          "internalType": "address",
          "name": "from",
          "type": "address"
        },
        {
          "internalType": "address",
          "name": "to",
          "type": "address"
        },
        {
          "internalType": "uint256",
          "name": "tokenId",
          "type": "uint256"
        }
      ],
      "name": "transferFrom",
      "outputs": [],
      "stateMutability": "nonpayable",
      "type": "function"
    },
    {
      "inputs": [],
      "name": "unpause",
      "outputs": [],
      "stateMutability": "nonpayable",
      "type": "function"
    },
    {
      "inputs": [],
      "name": "withdraw",
      "outputs": [],
      "stateMutability": "nonpayable",
      "type": "function"
    }
  ],
  "bytecode": "0x60e060405260236080818152906200390c60a03980516200002991600991602090910190620004f3565b507f7f9947af1470e7df017d480516fb72e1b515240c75cf5afacfd79d475f309f35600a55600b805461ffff60a01b19169055604080516101208101825260001980825260208201819052918101829052606081018290526080810182905260a0810182905260c0810182905260e08101829052610100810191909152620000b690600c90600962000582565b50348015620000c457600080fd5b50604080518082018252600c8082526b165bdd5c90dbdb9d1c9858dd60a21b6020808401828152855180870190965292855284015281519192916200010c91600091620004f3565b50805162000122906001906020840190620004f3565b50506006805460ff19169055506200013c6000336200016e565b620001687f241ecf16d79d0f8dbfb92cbc07fe17840425976cf0667f022fe9877caa831b08336200017e565b62000754565b6200017a8282620001ad565b5050565b6000828152600760205260409020600101546200019c813362000251565b620001a88383620001ad565b505050565b60008281526007602090815260408083206001600160a01b038516845290915290205460ff166200017a5760008281526007602090815260408083206001600160a01b03851684529091529020805460ff191660011790556200020d3390565b6001600160a01b0316816001600160a01b0316837f2f8788117e7eff1d82e926ec794901d17c78024a50270940304540a733656f0d60405160405180910390a45050565b60008281526007602090815260408083206001600160a01b038516845290915290205460ff166200017a576200029d816001600160a01b03166014620002f760201b620018911760201c565b620002b383602062001891620002f7821b17811c565b604051602001620002c6929190620005c9565b60408051601f198184030181529082905262461bcd60e51b8252620002ee9160040162000642565b60405180910390fd5b606060006200030883600262000692565b6200031590600262000677565b6001600160401b038111156200033b57634e487b7160e01b600052604160045260246000fd5b6040519080825280601f01601f19166020018201604052801562000366576020820181803683370190505b509050600360fc1b816000815181106200039057634e487b7160e01b600052603260045260246000fd5b60200101906001600160f81b031916908160001a905350600f60fb1b81600181518110620003ce57634e487b7160e01b600052603260045260246000fd5b60200101906001600160f81b031916908160001a9053506000620003f484600262000692565b6200040190600162000677565b90505b60018111156200049b576f181899199a1a9b1b9c1cb0b131b232b360811b85600f16601081106200044557634e487b7160e01b600052603260045260246000fd5b1a60f81b8282815181106200046a57634e487b7160e01b600052603260045260246000fd5b60200101906001600160f81b031916908160001a90535060049490941c936200049381620006e7565b905062000404565b508315620004ec5760405162461bcd60e51b815260206004820181905260248201527f537472696e67733a20686578206c656e67746820696e73756666696369656e746044820152606401620002ee565b9392505050565b828054620005019062000701565b90600052602060002090601f01602090048101928262000525576000855562000570565b82601f106200054057805160ff191683800117855562000570565b8280016001018555821562000570579182015b828111156200057057825182559160200191906001019062000553565b506200057e929150620005b2565b5090565b82600981019282156200057057916020028201828111156200057057825182559160200191906001019062000553565b5b808211156200057e5760008155600101620005b3565b7f416363657373436f6e74726f6c3a206163636f756e742000000000000000000081526000835162000603816017850160208801620006b4565b7001034b99036b4b9b9b4b733903937b6329607d1b601791840191820152835162000636816028840160208801620006b4565b01602801949350505050565b602081526000825180602084015262000663816040850160208701620006b4565b601f01601f19169190910160400192915050565b600082198211156200068d576200068d6200073e565b500190565b6000816000190483118215151615620006af57620006af6200073e565b500290565b60005b83811015620006d1578181015183820152602001620006b7565b83811115620006e1576000848401525b50505050565b600081620006f957620006f96200073e565b506000190190565b600181811c908216806200071657607f821691505b602082108114156200073857634e487b7160e01b600052602260045260246000fd5b50919050565b634e487b7160e01b600052601160045260246000fd5b6131a880620007646000396000f3fe6080604052600436106102fd5760003560e01c80636352211e1161018f578063a0712d68116100e1578063ce394f471161008a578063e8a3d48511610064578063e8a3d4851461083f578063e985e9c514610854578063ec87621c1461089d57600080fd5b8063ce394f47146107ef578063d547741f1461080a578063d5abeb011461082a57600080fd5b8063b88d4fde116100bb578063b88d4fde1461079a578063c87b56dd146107ba578063cdf65306146107da57600080fd5b8063a0712d6814610752578063a217fddf14610765578063a22cb4651461077a57600080fd5b8063841718a6116101435780638832bc291161011d5780638832bc29146106dc57806391d14854146106f757806395d89b411461073d57600080fd5b8063841718a6146106925780638456cb59146106b257806387033ce9146106c757600080fd5b806370a082311161017457806370a082311461063257806375796f76146106525780637cb647591461067257600080fd5b80636352211e146105f157806368428a1b1461061157600080fd5b80632a55205a116102535780633f4ba83a116101fc57806353135ca0116101d657806353135ca01461059857806355f804b3146105b95780635c975abb146105d957600080fd5b80633f4ba83a146105435780633f8121a21461055857806342842e0e1461057857600080fd5b806332cb6b0c1161022d57806332cb6b0c146104f857806336568abe1461050e5780633ccfd60b1461052e57600080fd5b80632a55205a146104835780632f2ff15d146104c25780632fc37ab2146104e257600080fd5b80630edc9629116102b55780631e305c9e1161028f5780631e305c9e1461041e57806323b872dd14610433578063248a9ca31461045357600080fd5b80630edc9629146103c857806318160ddd146103f65780631b59169d1461040b57600080fd5b8063081812fc116102e6578063081812fc146103595780630928fc2214610391578063095ea7b3146103a657600080fd5b806301ffc9a71461030257806306fdde0314610337575b600080fd5b34801561030e57600080fd5b5061032261031d366004612cbf565b6108d1565b60405190151581526020015b60405180910390f35b34801561034357600080fd5b5061034c610915565b60405161032e9190612fe3565b34801561036557600080fd5b50610379610374366004612c83565b6109a7565b6040516001600160a01b03909116815260200161032e565b34801561039d57600080fd5b5061034c610a41565b3480156103b257600080fd5b506103c66103c1366004612c3e565b610acf565b005b3480156103d457600080fd5b506103e86103e3366004612c9b565b610c01565b60405190815260200161032e565b34801561040257600080fd5b506103e8610d2a565b6103e8610419366004612d5e565b610d3a565b34801561042a57600080fd5b506103e8600381565b34801561043f57600080fd5b506103c661044e366004612b4d565b610f9d565b34801561045f57600080fd5b506103e861046e366004612c83565b60009081526007602052604090206001015490565b34801561048f57600080fd5b506104a361049e366004612d3d565b611024565b604080516001600160a01b03909316835260208301919091520161032e565b3480156104ce57600080fd5b506103c66104dd366004612c9b565b6110ab565b3480156104ee57600080fd5b506103e8600a5481565b34801561050457600080fd5b506103e861037981565b34801561051a57600080fd5b506103c6610529366004612c9b565b6110d1565b34801561053a57600080fd5b506103c661115d565b34801561054f57600080fd5b506103c66111c1565b34801561056457600080fd5b506103c6610573366004612c69565b6111f7565b34801561058457600080fd5b506103c6610593366004612b4d565b61125c565b3480156105a457600080fd5b50600b5461032290600160a01b900460ff1681565b3480156105c557600080fd5b506103c66105d4366004612cf7565b611277565b3480156105e557600080fd5b5060065460ff16610322565b3480156105fd57600080fd5b5061037961060c366004612c83565b6112b5565b34801561061d57600080fd5b50600b5461032290600160a81b900460ff1681565b34801561063e57600080fd5b506103e861064d366004612af9565b611340565b34801561065e57600080fd5b506103c661066d366004612af9565b6113da565b34801561067e57600080fd5b506103c661068d366004612c83565b611435565b34801561069e57600080fd5b506103c66106ad366004612c69565b611466565b3480156106be57600080fd5b506103c66114cb565b3480156106d357600080fd5b506103e8601181565b3480156106e857600080fd5b506103e866f523226980800081565b34801561070357600080fd5b50610322610712366004612c9b565b60009182526007602090815260408084206001600160a01b0393909316845291905290205460ff1690565b34801561074957600080fd5b5061034c6114fe565b6103e8610760366004612c83565b61150d565b34801561077157600080fd5b506103e8600081565b34801561078657600080fd5b506103c6610795366004612c0a565b61171e565b3480156107a657600080fd5b506103c66107b5366004612b8d565b611729565b3480156107c657600080fd5b5061034c6107d5366004612c83565b6117b7565b3480156107e657600080fd5b506103e8600b81565b3480156107fb57600080fd5b506103e866ea7aa67b2d000081565b34801561081657600080fd5b506103c6610825366004612c9b565b611843565b34801561083657600080fd5b506103796103e8565b34801561084b57600080fd5b5061034c611869565b34801561086057600080fd5b5061032261086f366004612b15565b6001600160a01b03918216600090815260056020908152604080832093909416825291909152205460ff1690565b3480156108a957600080fd5b506103e87f241ecf16d79d0f8dbfb92cbc07fe17840425976cf0667f022fe9877caa831b0881565b60006001600160e01b031982167f2a55205a00000000000000000000000000000000000000000000000000000000148061090f575061090f82611aa3565b92915050565b6060600080546109249061309b565b80601f01602080910402602001604051908101604052809291908181526020018280546109509061309b565b801561099d5780601f106109725761010080835404028352916020019161099d565b820191906000526020600020905b81548152906001019060200180831161098057829003601f168201915b5050505050905090565b6000818152600260205260408120546001600160a01b0316610a255760405162461bcd60e51b815260206004820152602c60248201527f4552433732313a20617070726f76656420717565727920666f72206e6f6e657860448201526b34b9ba32b73a103a37b5b2b760a11b60648201526084015b60405180910390fd5b506000908152600460205260409020546001600160a01b031690565b60098054610a4e9061309b565b80601f0160208091040260200160405190810160405280929190818152602001828054610a7a9061309b565b8015610ac75780601f10610a9c57610100808354040283529160200191610ac7565b820191906000526020600020905b815481529060010190602001808311610aaa57829003601f168201915b505050505081565b6000610ada826112b5565b9050806001600160a01b0316836001600160a01b03161415610b645760405162461bcd60e51b815260206004820152602160248201527f4552433732313a20617070726f76616c20746f2063757272656e74206f776e6560448201527f72000000000000000000000000000000000000000000000000000000000000006064820152608401610a1c565b336001600160a01b0382161480610b805750610b80813361086f565b610bf25760405162461bcd60e51b815260206004820152603860248201527f4552433732313a20617070726f76652063616c6c6572206973206e6f74206f7760448201527f6e6572206e6f7220617070726f76656420666f7220616c6c00000000000000006064820152608401610a1c565b610bfc8383611ae1565b505050565b60007f241ecf16d79d0f8dbfb92cbc07fe17840425976cf0667f022fe9877caa831b08610c2e8133611b5c565b601184610c3a60085490565b610c449190612ff6565b10610c915760405162461bcd60e51b815260206004820152601360248201527f4578636565646564206d61782070726f6f6673000000000000000000000000006044820152606401610a1c565b61037984610c9e60085490565b610ca89190612ff6565b10610ce05760405162461bcd60e51b815260206004820152600860248201526714d3d3110813d55560c21b6044820152606401610a1c565b60005b84811015610d1d57610cf9600880546001019055565b610d0b84610d0660085490565b611bdc565b80610d15816130d6565b915050610ce3565b506008545b949350505050565b6000610d3560085490565b905090565b6000610d4860065460ff1690565b15610d885760405162461bcd60e51b815260206004820152601060248201526f14185d5cd8589b194e881c185d5cd95960821b6044820152606401610a1c565b600b54600160a01b900460ff16610de15760405162461bcd60e51b815260206004820152601560248201527f50726573616c6520686173206e6f7420626567756e00000000000000000000006044820152606401610a1c565b34610df38666ea7aa67b2d0000613022565b14610e405760405162461bcd60e51b815260206004820181905260248201527f496e636f7272656374204554482073656e743b20636865636b207072696365216044820152606401610a1c565b61037985610e4d60085490565b610e579190612ff6565b10610e8f5760405162461bcd60e51b815260206004820152600860248201526714d3d3110813d55560c21b6044820152606401610a1c565b610e998585611d2b565b60408051602081018690523391810191909152600090606001604051602081830303815290604052805190602001209050610f0b84848080602002602001604051908101604052809392919081815260200183836020028082843760009201919091525050600a549150849050611fb4565b610f575760405162461bcd60e51b815260206004820152600d60248201527f496e76616c69642070726f6f66000000000000000000000000000000000000006044820152606401610a1c565b60005b86811015610f8f57610f70600880546001019055565b610f7d33610d0660085490565b80610f87816130d6565b915050610f5a565b505060085495945050505050565b610fa73382611fca565b6110195760405162461bcd60e51b815260206004820152603160248201527f4552433732313a207472616e736665722063616c6c6572206973206e6f74206f60448201527f776e6572206e6f7220617070726f7665640000000000000000000000000000006064820152608401610a1c565b610bfc8383836120bd565b60008281526002602052604081205481906001600160a01b031661108a5760405162461bcd60e51b815260206004820152601160248201527f4e6f6e6578697374656e7420746f6b656e0000000000000000000000000000006044820152606401610a1c565b306110a061109985600a612297565b60646122a3565b915091509250929050565b6000828152600760205260409020600101546110c78133611b5c565b610bfc83836122af565b6001600160a01b038116331461114f5760405162461bcd60e51b815260206004820152602f60248201527f416363657373436f6e74726f6c3a2063616e206f6e6c792072656e6f756e636560448201527f20726f6c657320666f722073656c6600000000000000000000000000000000006064820152608401610a1c565b6111598282612351565b5050565b7f241ecf16d79d0f8dbfb92cbc07fe17840425976cf0667f022fe9877caa831b086111888133611b5c565b600b546040516001600160a01b03909116904780156108fc02916000818181858888f19350505050158015611159573d6000803e3d6000fd5b7f241ecf16d79d0f8dbfb92cbc07fe17840425976cf0667f022fe9877caa831b086111ec8133611b5c565b6111f46123d4565b50565b7f241ecf16d79d0f8dbfb92cbc07fe17840425976cf0667f022fe9877caa831b086112228133611b5c565b50600b8054911515600160a01b027fffffffffffffffffffffff00ffffffffffffffffffffffffffffffffffffffff909216919091179055565b610bfc83838360405180602001604052806000815250611729565b7f241ecf16d79d0f8dbfb92cbc07fe17840425976cf0667f022fe9877caa831b086112a28133611b5c565b8151610bfc9060099060208501906129da565b6000818152600260205260408120546001600160a01b03168061090f5760405162461bcd60e51b815260206004820152602960248201527f4552433732313a206f776e657220717565727920666f72206e6f6e657869737460448201527f656e7420746f6b656e00000000000000000000000000000000000000000000006064820152608401610a1c565b60006001600160a01b0382166113be5760405162461bcd60e51b815260206004820152602a60248201527f4552433732313a2062616c616e636520717565727920666f7220746865207a6560448201527f726f2061646472657373000000000000000000000000000000000000000000006064820152608401610a1c565b506001600160a01b031660009081526003602052604090205490565b7f241ecf16d79d0f8dbfb92cbc07fe17840425976cf0667f022fe9877caa831b086114058133611b5c565b50600b805473ffffffffffffffffffffffffffffffffffffffff19166001600160a01b0392909216919091179055565b7f241ecf16d79d0f8dbfb92cbc07fe17840425976cf0667f022fe9877caa831b086114608133611b5c565b50600a55565b7f241ecf16d79d0f8dbfb92cbc07fe17840425976cf0667f022fe9877caa831b086114918133611b5c565b50600b8054911515600160a81b027fffffffffffffffffffff00ffffffffffffffffffffffffffffffffffffffffff909216919091179055565b7f241ecf16d79d0f8dbfb92cbc07fe17840425976cf0667f022fe9877caa831b086114f68133611b5c565b6111f4612470565b6060600180546109249061309b565b600061151b60065460ff1690565b1561155b5760405162461bcd60e51b815260206004820152601060248201526f14185d5cd8589b194e881c185d5cd95960821b6044820152606401610a1c565b600b54600160a81b900460ff166115b45760405162461bcd60e51b815260206004820152601260248201527f53616c6520686173206e6f7420626567756e00000000000000000000000000006044820152606401610a1c565b346115c68366f5232269808000613022565b146116135760405162461bcd60e51b815260206004820181905260248201527f496e636f7272656374204554482073656e743b20636865636b207072696365216044820152606401610a1c565b600b82106116895760405162461bcd60e51b815260206004820152602360248201527f547269656420746f206d696e7420746f6f206d616e79204e465473206174206f60448201527f6e636500000000000000000000000000000000000000000000000000000000006064820152608401610a1c565b6103798261169660085490565b6116a09190612ff6565b106116d85760405162461bcd60e51b815260206004820152600860248201526714d3d3110813d55560c21b6044820152606401610a1c565b60005b82811015611710576116f1600880546001019055565b6116fe33610d0660085490565b80611708816130d6565b9150506116db565b5060085461090f565b919050565b6111593383836124eb565b6117333383611fca565b6117a55760405162461bcd60e51b815260206004820152603160248201527f4552433732313a207472616e736665722063616c6c6572206973206e6f74206f60448201527f776e6572206e6f7220617070726f7665640000000000000000000000000000006064820152608401610a1c565b6117b1848484846125ba565b50505050565b60606117c260085490565b8211156118115760405162461bcd60e51b815260206004820152601160248201527f4e6f6e6578697374656e7420746f6b656e0000000000000000000000000000006044820152606401610a1c565b600961181c83612643565b60405160200161182d929190612ea0565b6040516020818303038152906040529050919050565b60008281526007602052604090206001015461185f8133611b5c565b610bfc8383612351565b6060600960405160200161187d9190612eed565b604051602081830303815290604052905090565b606060006118a0836002613022565b6118ab906002612ff6565b67ffffffffffffffff8111156118d157634e487b7160e01b600052604160045260246000fd5b6040519080825280601f01601f1916602001820160405280156118fb576020820181803683370190505b509050600360fc1b8160008151811061192457634e487b7160e01b600052603260045260246000fd5b60200101906001600160f81b031916908160001a9053507f78000000000000000000000000000000000000000000000000000000000000008160018151811061197d57634e487b7160e01b600052603260045260246000fd5b60200101906001600160f81b031916908160001a90535060006119a1846002613022565b6119ac906001612ff6565b90505b6001811115611a4d577f303132333435363738396162636465660000000000000000000000000000000085600f16601081106119fb57634e487b7160e01b600052603260045260246000fd5b1a60f81b828281518110611a1f57634e487b7160e01b600052603260045260246000fd5b60200101906001600160f81b031916908160001a90535060049490941c93611a4681613084565b90506119af565b508315611a9c5760405162461bcd60e51b815260206004820181905260248201527f537472696e67733a20686578206c656e67746820696e73756666696369656e746044820152606401610a1c565b9392505050565b60006001600160e01b031982167f7965db0b00000000000000000000000000000000000000000000000000000000148061090f575061090f8261275d565b6000818152600460205260409020805473ffffffffffffffffffffffffffffffffffffffff19166001600160a01b0384169081179091558190611b23826112b5565b6001600160a01b03167f8c5be1e5ebec7d5bd14f71427d1e84f3dd0314c0f7b2291e5b200ac8c7c3b92560405160405180910390a45050565b60008281526007602090815260408083206001600160a01b038516845290915290205460ff1661115957611b9a816001600160a01b03166014611891565b611ba5836020611891565b604051602001611bb6929190612f26565b60408051601f198184030181529082905262461bcd60e51b8252610a1c91600401612fe3565b6001600160a01b038216611c325760405162461bcd60e51b815260206004820181905260248201527f4552433732313a206d696e7420746f20746865207a65726f20616464726573736044820152606401610a1c565b6000818152600260205260409020546001600160a01b031615611c975760405162461bcd60e51b815260206004820152601c60248201527f4552433732313a20746f6b656e20616c7265616479206d696e746564000000006044820152606401610a1c565b6001600160a01b0382166000908152600360205260408120805460019290611cc0908490612ff6565b9091555050600081815260026020526040808220805473ffffffffffffffffffffffffffffffffffffffff19166001600160a01b03861690811790915590518392907fddf252ad1be2c89b69c2b068fc378daa952ba7f163c4a11628f55a4df523b3ef908290a45050565b611d376003600961300e565b611d4390610100613022565b8110611d915760405162461bcd60e51b815260206004820152600a60248201527f626164207469636b6574000000000000000000000000000000000000000000006044820152606401610a1c565b6000611d9f6101008361300e565b90506000611daf610100846130f1565b90506000600c8360098110611dd457634e487b7160e01b600052603260045260246000fd5b015490506000600c611de7600386612ff6565b60098110611e0557634e487b7160e01b600052603260045260246000fd5b015490506000600c611e1960036002613022565b611e239087612ff6565b60098110611e4157634e487b7160e01b600052603260045260246000fd5b01549050600183851c81169083861c81169083871c16600081611e648486612ff6565b611e6e9190612ff6565b9050808b1115611ec05760405162461bcd60e51b815260206004820152601e60248201527f43616e2774206d696e74206d6f7265207468616e20616c6c6f636174656400006044820152606401610a1c565b876001901b198716965086600c8a60098110611eec57634e487b7160e01b600052603260045260246000fd5b0155600181611efc60038e612ff6565b611f069190613041565b1115611f45576001881b19959095169485600c611f2460038c612ff6565b60098110611f4257634e487b7160e01b600052603260045260246000fd5b01555b600281611f5360038e612ff6565b611f5d9190613041565b1115611fa7576001881b19949094169384600c611f7c60036002613022565b611f86908c612ff6565b60098110611fa457634e487b7160e01b600052603260045260246000fd5b01555b5050505050505050505050565b600082611fc185846127f8565b14949350505050565b6000818152600260205260408120546001600160a01b03166120435760405162461bcd60e51b815260206004820152602c60248201527f4552433732313a206f70657261746f7220717565727920666f72206e6f6e657860448201526b34b9ba32b73a103a37b5b2b760a11b6064820152608401610a1c565b600061204e836112b5565b9050806001600160a01b0316846001600160a01b031614806120895750836001600160a01b031661207e846109a7565b6001600160a01b0316145b80610d2257506001600160a01b0380821660009081526005602090815260408083209388168352929052205460ff16610d22565b826001600160a01b03166120d0826112b5565b6001600160a01b03161461214c5760405162461bcd60e51b815260206004820152602560248201527f4552433732313a207472616e736665722066726f6d20696e636f72726563742060448201527f6f776e65720000000000000000000000000000000000000000000000000000006064820152608401610a1c565b6001600160a01b0382166121c75760405162461bcd60e51b8152602060048201526024808201527f4552433732313a207472616e7366657220746f20746865207a65726f2061646460448201527f72657373000000000000000000000000000000000000000000000000000000006064820152608401610a1c565b6121d2600082611ae1565b6001600160a01b03831660009081526003602052604081208054600192906121fb908490613041565b90915550506001600160a01b0382166000908152600360205260408120805460019290612229908490612ff6565b9091555050600081815260026020526040808220805473ffffffffffffffffffffffffffffffffffffffff19166001600160a01b0386811691821790925591518493918716917fddf252ad1be2c89b69c2b068fc378daa952ba7f163c4a11628f55a4df523b3ef91a4505050565b6000611a9c8284613022565b6000611a9c828461300e565b60008281526007602090815260408083206001600160a01b038516845290915290205460ff166111595760008281526007602090815260408083206001600160a01b03851684529091529020805460ff1916600117905561230d3390565b6001600160a01b0316816001600160a01b0316837f2f8788117e7eff1d82e926ec794901d17c78024a50270940304540a733656f0d60405160405180910390a45050565b60008281526007602090815260408083206001600160a01b038516845290915290205460ff16156111595760008281526007602090815260408083206001600160a01b0385168085529252808320805460ff1916905551339285917ff6391f5c32d9c69d2a47ea670b442974b53935d1edc7fd64eb21e047a839171b9190a45050565b60065460ff166124265760405162461bcd60e51b815260206004820152601460248201527f5061757361626c653a206e6f74207061757365640000000000000000000000006044820152606401610a1c565b6006805460ff191690557f5db9ee0a495bf2e6ff9c91a7834c1ba4fdd244a5e8aa4e537bd38aeae4b073aa335b6040516001600160a01b03909116815260200160405180910390a1565b60065460ff16156124b65760405162461bcd60e51b815260206004820152601060248201526f14185d5cd8589b194e881c185d5cd95960821b6044820152606401610a1c565b6006805460ff191660011790557f62e78cea01bee320cd4e420270b5ea74000d11b0c9f74754ebdbfc544b05a2586124533390565b816001600160a01b0316836001600160a01b0316141561254d5760405162461bcd60e51b815260206004820152601960248201527f4552433732313a20617070726f766520746f2063616c6c6572000000000000006044820152606401610a1c565b6001600160a01b03838116600081815260056020908152604080832094871680845294825291829020805460ff191686151590811790915591519182527f17307eab39ab6107e8899845ad3d59bd9653f200f220920489ca2b5937696c31910160405180910390a3505050565b6125c58484846120bd565b6125d18484848461287a565b6117b15760405162461bcd60e51b815260206004820152603260248201527f4552433732313a207472616e7366657220746f206e6f6e20455243373231526560448201527f63656976657220696d706c656d656e74657200000000000000000000000000006064820152608401610a1c565b6060816126675750506040805180820190915260018152600360fc1b602082015290565b8160005b8115612691578061267b816130d6565b915061268a9050600a8361300e565b915061266b565b60008167ffffffffffffffff8111156126ba57634e487b7160e01b600052604160045260246000fd5b6040519080825280601f01601f1916602001820160405280156126e4576020820181803683370190505b5090505b8415610d22576126f9600183613041565b9150612706600a866130f1565b612711906030612ff6565b60f81b81838151811061273457634e487b7160e01b600052603260045260246000fd5b60200101906001600160f81b031916908160001a905350612756600a8661300e565b94506126e8565b60006001600160e01b031982167f80ac58cd0000000000000000000000000000000000000000000000000000000014806127c057506001600160e01b031982167f5b5e139f00000000000000000000000000000000000000000000000000000000145b8061090f57507f01ffc9a7000000000000000000000000000000000000000000000000000000006001600160e01b031983161461090f565b600081815b845181101561287257600085828151811061282857634e487b7160e01b600052603260045260246000fd5b6020026020010151905080831161284e576000838152602082905260409020925061285f565b600081815260208490526040902092505b508061286a816130d6565b9150506127fd565b509392505050565b60006001600160a01b0384163b156129d257604051630a85bd0160e11b81526001600160a01b0385169063150b7a02906128be903390899088908890600401612fa7565b602060405180830381600087803b1580156128d857600080fd5b505af1925050508015612908575060408051601f3d908101601f1916820190925261290591810190612cdb565b60015b6129b8573d808015612936576040519150601f19603f3d011682016040523d82523d6000602084013e61293b565b606091505b5080516129b05760405162461bcd60e51b815260206004820152603260248201527f4552433732313a207472616e7366657220746f206e6f6e20455243373231526560448201527f63656976657220696d706c656d656e74657200000000000000000000000000006064820152608401610a1c565b805181602001fd5b6001600160e01b031916630a85bd0160e11b149050610d22565b506001610d22565b8280546129e69061309b565b90600052602060002090601f016020900481019282612a085760008555612a4e565b82601f10612a2157805160ff1916838001178555612a4e565b82800160010185558215612a4e579182015b82811115612a4e578251825591602001919060010190612a33565b50612a5a929150612a5e565b5090565b5b80821115612a5a5760008155600101612a5f565b600067ffffffffffffffff80841115612a8e57612a8e613131565b604051601f8501601f19908116603f01168101908282118183101715612ab657612ab6613131565b81604052809350858152868686011115612acf57600080fd5b858560208301376000602087830101525050509392505050565b8035801515811461171957600080fd5b600060208284031215612b0a578081fd5b8135611a9c81613147565b60008060408385031215612b27578081fd5b8235612b3281613147565b91506020830135612b4281613147565b809150509250929050565b600080600060608486031215612b61578081fd5b8335612b6c81613147565b92506020840135612b7c81613147565b929592945050506040919091013590565b60008060008060808587031215612ba2578081fd5b8435612bad81613147565b93506020850135612bbd81613147565b925060408501359150606085013567ffffffffffffffff811115612bdf578182fd5b8501601f81018713612bef578182fd5b612bfe87823560208401612a73565b91505092959194509250565b60008060408385031215612c1c578182fd5b8235612c2781613147565b9150612c3560208401612ae9565b90509250929050565b60008060408385031215612c50578182fd5b8235612c5b81613147565b946020939093013593505050565b600060208284031215612c7a578081fd5b611a9c82612ae9565b600060208284031215612c94578081fd5b5035919050565b60008060408385031215612cad578182fd5b823591506020830135612b4281613147565b600060208284031215612cd0578081fd5b8135611a9c8161315c565b600060208284031215612cec578081fd5b8151611a9c8161315c565b600060208284031215612d08578081fd5b813567ffffffffffffffff811115612d1e578182fd5b8201601f81018413612d2e578182fd5b610d2284823560208401612a73565b60008060408385031215612d4f578182fd5b50508035926020909101359150565b60008060008060608587031215612d73578182fd5b8435935060208501359250604085013567ffffffffffffffff80821115612d98578384fd5b818701915087601f830112612dab578384fd5b813581811115612db9578485fd5b8860208260051b8501011115612dcd578485fd5b95989497505060200194505050565b60008151808452612df4816020860160208601613058565b601f01601f19169290920160200192915050565b8054600090600181811c9080831680612e2257607f831692505b6020808410821415612e4257634e487b7160e01b86526022600452602486fd5b818015612e565760018114612e6757612e94565b60ff19861689528489019650612e94565b60008881526020902060005b86811015612e8c5781548b820152908501908301612e73565b505084890196505b50505050505092915050565b6000612eac8285612e08565b8351612ebc818360208801613058565b7f2e6a736f6e0000000000000000000000000000000000000000000000000000009101908152600501949350505050565b6000612ef98284612e08565b7f6d657461646174612e6a736f6e000000000000000000000000000000000000008152600d019392505050565b7f416363657373436f6e74726f6c3a206163636f756e7420000000000000000000815260008351612f5e816017850160208801613058565b7f206973206d697373696e6720726f6c65200000000000000000000000000000006017918401918201528351612f9b816028840160208801613058565b01602801949350505050565b60006001600160a01b03808716835280861660208401525083604083015260806060830152612fd96080830184612ddc565b9695505050505050565b602081526000611a9c6020830184612ddc565b6000821982111561300957613009613105565b500190565b60008261301d5761301d61311b565b500490565b600081600019048311821515161561303c5761303c613105565b500290565b60008282101561305357613053613105565b500390565b60005b8381101561307357818101518382015260200161305b565b838111156117b15750506000910152565b60008161309357613093613105565b506000190190565b600181811c908216806130af57607f821691505b602082108114156130d057634e487b7160e01b600052602260045260246000fd5b50919050565b60006000198214156130ea576130ea613105565b5060010190565b6000826131005761310061311b565b500690565b634e487b7160e01b600052601160045260246000fd5b634e487b7160e01b600052601260045260246000fd5b634e487b7160e01b600052604160045260246000fd5b6001600160a01b03811681146111f457600080fd5b6001600160e01b0319811681146111f457600080fdfea264697066735822122002c28602e3b58eadc4d2407c0a66d6259086edc380d7390b73f6ba3ddc473b2b64736f6c63430008040033687474703a2f2f6c6f63616c686f73743a333030302f6170692f6d657461646174612f",
  "linkReferences": {},
  "deployedLinkReferences": {}
}