{
  "_format": "hh-sol-artifact-1",
  "contractName": "YourContract",
  "sourceName": "contracts/YourContract.sol",
  "abi": [
    {
      "inputs": [],
      "stateMutability": "nonpayable",
      "type": "constructor"
    },
    {
      "anonymous": false,
      "inputs": [
        {
          "indexed": true,
          "internalType": "address",
          "name": "owner",
          "type": "address"
        },
        {
          "indexed": true,
          "internalType": "address",
          "name": "approved",
          "type": "address"
        },
        {
          "indexed": true,
          "internalType": "uint256",
          "name": "tokenId",
          "type": "uint256"
        }
      ],
      "name": "Approval",
      "type": "event"
    },
    {
      "anonymous": false,
      "inputs": [
        {
          "indexed": true,
          "internalType": "address",
          "name": "owner",
          "type": "address"
        },
        {
          "indexed": true,
          "internalType": "address",
          "name": "operator",
          "type": "address"
        },
        {
          "indexed": false,
          "internalType": "bool",
          "name": "approved",
          "type": "bool"
        }
      ],
      "name": "ApprovalForAll",
      "type": "event"
    },
    {
      "anonymous": false,
      "inputs": [
        {
          "indexed": false,
          "internalType": "address",
          "name": "account",
          "type": "address"
        }
      ],
      "name": "Paused",
      "type": "event"
    },
    {
      "anonymous": false,
      "inputs": [
        {
          "indexed": true,
          "internalType": "bytes32",
          "name": "role",
          "type": "bytes32"
        },
        {
          "indexed": true,
          "internalType": "bytes32",
          "name": "previousAdminRole",
          "type": "bytes32"
        },
        {
          "indexed": true,
          "internalType": "bytes32",
          "name": "newAdminRole",
          "type": "bytes32"
        }
      ],
      "name": "RoleAdminChanged",
      "type": "event"
    },
    {
      "anonymous": false,
      "inputs": [
        {
          "indexed": true,
          "internalType": "bytes32",
          "name": "role",
          "type": "bytes32"
        },
        {
          "indexed": true,
          "internalType": "address",
          "name": "account",
          "type": "address"
        },
        {
          "indexed": true,
          "internalType": "address",
          "name": "sender",
          "type": "address"
        }
      ],
      "name": "RoleGranted",
      "type": "event"
    },
    {
      "anonymous": false,
      "inputs": [
        {
          "indexed": true,
          "internalType": "bytes32",
          "name": "role",
          "type": "bytes32"
        },
        {
          "indexed": true,
          "internalType": "address",
          "name": "account",
          "type": "address"
        },
        {
          "indexed": true,
          "internalType": "address",
          "name": "sender",
          "type": "address"
        }
      ],
      "name": "RoleRevoked",
      "type": "event"
    },
    {
      "anonymous": false,
      "inputs": [
        {
          "indexed": true,
          "internalType": "address",
          "name": "from",
          "type": "address"
        },
        {
          "indexed": true,
          "internalType": "address",
          "name": "to",
          "type": "address"
        },
        {
          "indexed": true,
          "internalType": "uint256",
          "name": "tokenId",
          "type": "uint256"
        }
      ],
      "name": "Transfer",
      "type": "event"
    },
    {
      "anonymous": false,
      "inputs": [
        {
          "indexed": false,
          "internalType": "address",
          "name": "account",
          "type": "address"
        }
      ],
      "name": "Unpaused",
      "type": "event"
    },
    {
      "inputs": [],
      "name": "ARTIST_PROOF_COUNT",
      "outputs": [
        {
          "internalType": "uint256",
          "name": "",
          "type": "uint256"
        }
      ],
      "stateMutability": "view",
      "type": "function"
    },
    {
      "inputs": [],
      "name": "DEFAULT_ADMIN_ROLE",
      "outputs": [
        {
          "internalType": "bytes32",
          "name": "",
          "type": "bytes32"
        }
      ],
      "stateMutability": "view",
      "type": "function"
    },
    {
      "inputs": [],
      "name": "ETH_PRICE",
      "outputs": [
        {
          "internalType": "uint256",
          "name": "",
          "type": "uint256"
        }
      ],
      "stateMutability": "view",
      "type": "function"
    },
    {
      "inputs": [],
      "name": "MANAGER_ROLE",
      "outputs": [
        {
          "internalType": "bytes32",
          "name": "",
          "type": "bytes32"
        }
      ],
      "stateMutability": "view",
      "type": "function"
    },
    {
      "inputs": [],
      "name": "MAX_MINT_COUNT",
      "outputs": [
        {
          "internalType": "uint256",
          "name": "",
          "type": "uint256"
        }
      ],
      "stateMutability": "view",
      "type": "function"
    },
    {
      "inputs": [],
      "name": "MAX_SUPPLY",
      "outputs": [
        {
          "internalType": "uint256",
          "name": "",
          "type": "uint256"
        }
      ],
      "stateMutability": "view",
      "type": "function"
    },
    {
      "inputs": [],
      "name": "PRESALE_ETH_PRICE",
      "outputs": [
        {
          "internalType": "uint256",
          "name": "",
          "type": "uint256"
        }
      ],
      "stateMutability": "view",
      "type": "function"
    },
    {
      "inputs": [],
      "name": "_baseURIextended",
      "outputs": [
        {
          "internalType": "string",
          "name": "",
          "type": "string"
        }
      ],
      "stateMutability": "view",
      "type": "function"
    },
    {
      "inputs": [
        {
          "internalType": "address",
          "name": "to",
          "type": "address"
        },
        {
          "internalType": "uint256",
          "name": "tokenId",
          "type": "uint256"
        }
      ],
      "name": "approve",
      "outputs": [],
      "stateMutability": "nonpayable",
      "type": "function"
    },
    {
      "inputs": [
        {
          "internalType": "uint256",
          "name": "count",
          "type": "uint256"
        },
        {
          "internalType": "address",
          "name": "recipient",
          "type": "address"
        }
      ],
      "name": "artistMint",
      "outputs": [
        {
          "internalType": "uint256",
          "name": "",
          "type": "uint256"
        }
      ],
      "stateMutability": "nonpayable",
      "type": "function"
    },
    {
      "inputs": [
        {
          "internalType": "address",
          "name": "owner",
          "type": "address"
        }
      ],
      "name": "balanceOf",
      "outputs": [
        {
          "internalType": "uint256",
          "name": "",
          "type": "uint256"
        }
      ],
      "stateMutability": "view",
      "type": "function"
    },
    {
      "inputs": [
        {
          "internalType": "uint256",
          "name": "ticketNumber",
          "type": "uint256"
        }
      ],
      "name": "claimTicket",
      "outputs": [],
      "stateMutability": "nonpayable",
      "type": "function"
    },
    {
      "inputs": [],
      "name": "contractURI",
      "outputs": [
        {
          "internalType": "string",
          "name": "",
          "type": "string"
        }
      ],
      "stateMutability": "view",
      "type": "function"
    },
    {
      "inputs": [
        {
          "internalType": "uint256",
          "name": "tokenId",
          "type": "uint256"
        }
      ],
      "name": "getApproved",
      "outputs": [
        {
          "internalType": "address",
          "name": "",
          "type": "address"
        }
      ],
      "stateMutability": "view",
      "type": "function"
    },
    {
      "inputs": [
        {
          "internalType": "bytes32",
          "name": "role",
          "type": "bytes32"
        }
      ],
      "name": "getRoleAdmin",
      "outputs": [
        {
          "internalType": "bytes32",
          "name": "",
          "type": "bytes32"
        }
      ],
      "stateMutability": "view",
      "type": "function"
    },
    {
      "inputs": [
        {
          "internalType": "bytes32",
          "name": "role",
          "type": "bytes32"
        },
        {
          "internalType": "address",
          "name": "account",
          "type": "address"
        }
      ],
      "name": "grantRole",
      "outputs": [],
      "stateMutability": "nonpayable",
      "type": "function"
    },
    {
      "inputs": [
        {
          "internalType": "bytes32",
          "name": "role",
          "type": "bytes32"
        },
        {
          "internalType": "address",
          "name": "account",
          "type": "address"
        }
      ],
      "name": "hasRole",
      "outputs": [
        {
          "internalType": "bool",
          "name": "",
          "type": "bool"
        }
      ],
      "stateMutability": "view",
      "type": "function"
    },
    {
      "inputs": [
        {
          "internalType": "address",
          "name": "owner",
          "type": "address"
        },
        {
          "internalType": "address",
          "name": "operator",
          "type": "address"
        }
      ],
      "name": "isApprovedForAll",
      "outputs": [
        {
          "internalType": "bool",
          "name": "",
          "type": "bool"
        }
      ],
      "stateMutability": "view",
      "type": "function"
    },
    {
      "inputs": [],
      "name": "maxSupply",
      "outputs": [
        {
          "internalType": "uint256",
          "name": "",
          "type": "uint256"
        }
      ],
      "stateMutability": "pure",
      "type": "function"
    },
    {
      "inputs": [
        {
          "internalType": "uint256",
          "name": "count",
          "type": "uint256"
        }
      ],
      "name": "mint",
      "outputs": [
        {
          "internalType": "uint256",
          "name": "",
          "type": "uint256"
        }
      ],
      "stateMutability": "payable",
      "type": "function"
    },
    {
      "inputs": [],
      "name": "name",
      "outputs": [
        {
          "internalType": "string",
          "name": "",
          "type": "string"
        }
      ],
      "stateMutability": "view",
      "type": "function"
    },
    {
      "inputs": [
        {
          "internalType": "uint256",
          "name": "tokenId",
          "type": "uint256"
        }
      ],
      "name": "ownerOf",
      "outputs": [
        {
          "internalType": "address",
          "name": "",
          "type": "address"
        }
      ],
      "stateMutability": "view",
      "type": "function"
    },
    {
      "inputs": [],
      "name": "pause",
      "outputs": [],
      "stateMutability": "nonpayable",
      "type": "function"
    },
    {
      "inputs": [],
      "name": "paused",
      "outputs": [
        {
          "internalType": "bool",
          "name": "",
          "type": "bool"
        }
      ],
      "stateMutability": "view",
      "type": "function"
    },
    {
      "inputs": [],
      "name": "presaleActive",
      "outputs": [
        {
          "internalType": "bool",
          "name": "",
          "type": "bool"
        }
      ],
      "stateMutability": "view",
      "type": "function"
    },
    {
      "inputs": [
        {
          "internalType": "uint256",
          "name": "count",
          "type": "uint256"
        }
      ],
      "name": "presaleMint",
      "outputs": [
        {
          "internalType": "uint256",
          "name": "",
          "type": "uint256"
        }
      ],
      "stateMutability": "payable",
      "type": "function"
    },
    {
      "inputs": [
        {
          "internalType": "bytes32",
          "name": "role",
          "type": "bytes32"
        },
        {
          "internalType": "address",
          "name": "account",
          "type": "address"
        }
      ],
      "name": "renounceRole",
      "outputs": [],
      "stateMutability": "nonpayable",
      "type": "function"
    },
    {
      "inputs": [
        {
          "internalType": "bytes32",
          "name": "role",
          "type": "bytes32"
        },
        {
          "internalType": "address",
          "name": "account",
          "type": "address"
        }
      ],
      "name": "revokeRole",
      "outputs": [],
      "stateMutability": "nonpayable",
      "type": "function"
    },
    {
      "inputs": [
        {
          "internalType": "uint256",
          "name": "tokenId",
          "type": "uint256"
        },
        {
          "internalType": "uint256",
          "name": "salePrice",
          "type": "uint256"
        }
      ],
      "name": "royaltyInfo",
      "outputs": [
        {
          "internalType": "address",
          "name": "receiver",
          "type": "address"
        },
        {
          "internalType": "uint256",
          "name": "royaltyAmount",
          "type": "uint256"
        }
      ],
      "stateMutability": "view",
      "type": "function"
    },
    {
      "inputs": [
        {
          "internalType": "address",
          "name": "from",
          "type": "address"
        },
        {
          "internalType": "address",
          "name": "to",
          "type": "address"
        },
        {
          "internalType": "uint256",
          "name": "tokenId",
          "type": "uint256"
        }
      ],
      "name": "safeTransferFrom",
      "outputs": [],
      "stateMutability": "nonpayable",
      "type": "function"
    },
    {
      "inputs": [
        {
          "internalType": "address",
          "name": "from",
          "type": "address"
        },
        {
          "internalType": "address",
          "name": "to",
          "type": "address"
        },
        {
          "internalType": "uint256",
          "name": "tokenId",
          "type": "uint256"
        },
        {
          "internalType": "bytes",
          "name": "_data",
          "type": "bytes"
        }
      ],
      "name": "safeTransferFrom",
      "outputs": [],
      "stateMutability": "nonpayable",
      "type": "function"
    },
    {
      "inputs": [],
      "name": "saleActive",
      "outputs": [
        {
          "internalType": "bool",
          "name": "",
          "type": "bool"
        }
      ],
      "stateMutability": "view",
      "type": "function"
    },
    {
      "inputs": [
        {
          "internalType": "address",
          "name": "operator",
          "type": "address"
        },
        {
          "internalType": "bool",
          "name": "approved",
          "type": "bool"
        }
      ],
      "name": "setApprovalForAll",
      "outputs": [],
      "stateMutability": "nonpayable",
      "type": "function"
    },
    {
      "inputs": [
        {
          "internalType": "string",
          "name": "baseURI_",
          "type": "string"
        }
      ],
      "name": "setBaseURI",
      "outputs": [],
      "stateMutability": "nonpayable",
      "type": "function"
    },
    {
      "inputs": [
        {
          "internalType": "bool",
          "name": "val",
          "type": "bool"
        }
      ],
      "name": "setPresaleActive",
      "outputs": [],
      "stateMutability": "nonpayable",
      "type": "function"
    },
    {
      "inputs": [
        {
          "internalType": "bool",
          "name": "val",
          "type": "bool"
        }
      ],
      "name": "setSaleActive",
      "outputs": [],
      "stateMutability": "nonpayable",
      "type": "function"
    },
    {
      "inputs": [
        {
          "internalType": "address payable",
          "name": "withdrawalWallet_",
          "type": "address"
        }
      ],
      "name": "setWithdrawalWallet",
      "outputs": [],
      "stateMutability": "nonpayable",
      "type": "function"
    },
    {
      "inputs": [
        {
          "internalType": "bytes4",
          "name": "interfaceId",
          "type": "bytes4"
        }
      ],
      "name": "supportsInterface",
      "outputs": [
        {
          "internalType": "bool",
          "name": "",
          "type": "bool"
        }
      ],
      "stateMutability": "view",
      "type": "function"
    },
    {
      "inputs": [],
      "name": "symbol",
      "outputs": [
        {
          "internalType": "string",
          "name": "",
          "type": "string"
        }
      ],
      "stateMutability": "view",
      "type": "function"
    },
    {
      "inputs": [
        {
          "internalType": "uint256",
          "name": "tokenId",
          "type": "uint256"
        }
      ],
      "name": "tokenURI",
      "outputs": [
        {
          "internalType": "string",
          "name": "",
          "type": "string"
        }
      ],
      "stateMutability": "view",
      "type": "function"
    },
    {
      "inputs": [],
      "name": "totalSupply",
      "outputs": [
        {
          "internalType": "uint256",
          "name": "",
          "type": "uint256"
        }
      ],
      "stateMutability": "view",
      "type": "function"
    },
    {
      "inputs": [
        {
          "internalType": "address",
          "name": "from",
          "type": "address"
        },
        {
          "internalType": "address",
          "name": "to",
          "type": "address"
        },
        {
          "internalType": "uint256",
          "name": "tokenId",
          "type": "uint256"
        }
      ],
      "name": "transferFrom",
      "outputs": [],
      "stateMutability": "nonpayable",
      "type": "function"
    },
    {
      "inputs": [],
      "name": "unpause",
      "outputs": [],
      "stateMutability": "nonpayable",
      "type": "function"
    },
    {
      "inputs": [],
      "name": "withdraw",
      "outputs": [],
      "stateMutability": "nonpayable",
      "type": "function"
    }
  ],
  "bytecode": "0x60e060405260236080818152906200353460a03980516200002991600991602090910190620004a3565b50600a805461ffff60a01b191690556040805160608101825260001980825260208201819052918101919091526200006690600b90600362000532565b503480156200007457600080fd5b50604080518082018252600c8082526b165bdd5c90dbdb9d1c9858dd60a21b602080840182815285518087019096529285528401528151919291620000bc91600091620004a3565b508051620000d2906001906020840190620004a3565b50506006805460ff1916905550620000ec6000336200011e565b620001187f241ecf16d79d0f8dbfb92cbc07fe17840425976cf0667f022fe9877caa831b08336200012e565b62000704565b6200012a82826200015d565b5050565b6000828152600760205260409020600101546200014c813362000201565b6200015883836200015d565b505050565b60008281526007602090815260408083206001600160a01b038516845290915290205460ff166200012a5760008281526007602090815260408083206001600160a01b03851684529091529020805460ff19166001179055620001bd3390565b6001600160a01b0316816001600160a01b0316837f2f8788117e7eff1d82e926ec794901d17c78024a50270940304540a733656f0d60405160405180910390a45050565b60008281526007602090815260408083206001600160a01b038516845290915290205460ff166200012a576200024d816001600160a01b03166014620002a760201b620018a51760201c565b62000263836020620018a5620002a7821b17811c565b6040516020016200027692919062000579565b60408051601f198184030181529082905262461bcd60e51b82526200029e91600401620005f2565b60405180910390fd5b60606000620002b883600262000642565b620002c590600262000627565b6001600160401b03811115620002eb57634e487b7160e01b600052604160045260246000fd5b6040519080825280601f01601f19166020018201604052801562000316576020820181803683370190505b509050600360fc1b816000815181106200034057634e487b7160e01b600052603260045260246000fd5b60200101906001600160f81b031916908160001a905350600f60fb1b816001815181106200037e57634e487b7160e01b600052603260045260246000fd5b60200101906001600160f81b031916908160001a9053506000620003a484600262000642565b620003b190600162000627565b90505b60018111156200044b576f181899199a1a9b1b9c1cb0b131b232b360811b85600f1660108110620003f557634e487b7160e01b600052603260045260246000fd5b1a60f81b8282815181106200041a57634e487b7160e01b600052603260045260246000fd5b60200101906001600160f81b031916908160001a90535060049490941c93620004438162000697565b9050620003b4565b5083156200049c5760405162461bcd60e51b815260206004820181905260248201527f537472696e67733a20686578206c656e67746820696e73756666696369656e7460448201526064016200029e565b9392505050565b828054620004b190620006b1565b90600052602060002090601f016020900481019282620004d5576000855562000520565b82601f10620004f057805160ff191683800117855562000520565b8280016001018555821562000520579182015b828111156200052057825182559160200191906001019062000503565b506200052e92915062000562565b5090565b82600381019282156200052057916020028201828111156200052057825182559160200191906001019062000503565b5b808211156200052e576000815560010162000563565b7f416363657373436f6e74726f6c3a206163636f756e7420000000000000000000815260008351620005b381601785016020880162000664565b7001034b99036b4b9b9b4b733903937b6329607d1b6017918401918201528351620005e681602884016020880162000664565b01602801949350505050565b60208152600082518060208401526200061381604085016020870162000664565b601f01601f19169190910160400192915050565b600082198211156200063d576200063d620006ee565b500190565b60008160001904831182151516156200065f576200065f620006ee565b500290565b60005b838110156200068157818101518382015260200162000667565b8381111562000691576000848401525b50505050565b600081620006a957620006a9620006ee565b506000190190565b600181811c90821680620006c657607f821691505b60208210811415620006e857634e487b7160e01b600052602260045260246000fd5b50919050565b634e487b7160e01b600052601160045260246000fd5b612e2080620007146000396000f3fe6080604052600436106102e75760003560e01c806368428a1b11610184578063a22cb465116100d6578063ce394f471161008a578063e8a3d48511610064578063e8a3d485146107fe578063e985e9c514610813578063ec87621c1461085c57600080fd5b8063ce394f47146107ae578063d547741f146107c9578063d5abeb01146107e957600080fd5b8063c87b56dd116100bb578063c87b56dd14610766578063c9b298f114610786578063cdf653061461079957600080fd5b8063a22cb46514610726578063b88d4fde1461074657600080fd5b806387033ce91161013857806395d89b411161011257806395d89b41146106e9578063a0712d68146106fe578063a217fddf1461071157600080fd5b806387033ce9146106735780638832bc291461068857806391d14854146106a357600080fd5b806375796f761161016957806375796f761461061e578063841718a61461063e5780638456cb591461065e57600080fd5b806368428a1b146105dd57806370a08231146105fe57600080fd5b80632f2ff15d1161023d5780633f8121a2116101f157806355f804b3116101cb57806355f804b3146105855780635c975abb146105a55780636352211e146105bd57600080fd5b80633f8121a21461052457806342842e0e1461054457806353135ca01461056457600080fd5b806336568abe1161022257806336568abe146104da5780633ccfd60b146104fa5780633f4ba83a1461050f57600080fd5b80632f2ff15d146104a457806332cb6b0c146104c457600080fd5b80630edc96291161029f57806323b872dd1161027957806323b872dd14610415578063248a9ca3146104355780632a55205a1461046557600080fd5b80630edc9629146103b25780630fb116d2146103e057806318160ddd1461040057600080fd5b8063081812fc116102d0578063081812fc146103435780630928fc221461037b578063095ea7b31461039057600080fd5b806301ffc9a7146102ec57806306fdde0314610321575b600080fd5b3480156102f857600080fd5b5061030c6103073660046129b5565b610890565b60405190151581526020015b60405180910390f35b34801561032d57600080fd5b506103366108d4565b6040516103189190612c5b565b34801561034f57600080fd5b5061036361035e366004612979565b610966565b6040516001600160a01b039091168152602001610318565b34801561038757600080fd5b50610336610a00565b34801561039c57600080fd5b506103b06103ab366004612934565b610a8e565b005b3480156103be57600080fd5b506103d26103cd366004612991565b610bc0565b604051908152602001610318565b3480156103ec57600080fd5b506103b06103fb366004612979565b610ce9565b34801561040c57600080fd5b506103d2610e03565b34801561042157600080fd5b506103b0610430366004612843565b610e13565b34801561044157600080fd5b506103d2610450366004612979565b60009081526007602052604090206001015490565b34801561047157600080fd5b50610485610480366004612a33565b610e9a565b604080516001600160a01b039093168352602083019190915201610318565b3480156104b057600080fd5b506103b06104bf366004612991565b610f21565b3480156104d057600080fd5b506103d261037981565b3480156104e657600080fd5b506103b06104f5366004612991565b610f47565b34801561050657600080fd5b506103b0610fd3565b34801561051b57600080fd5b506103b0611037565b34801561053057600080fd5b506103b061053f36600461295f565b61106d565b34801561055057600080fd5b506103b061055f366004612843565b6110d2565b34801561057057600080fd5b50600a5461030c90600160a01b900460ff1681565b34801561059157600080fd5b506103b06105a03660046129ed565b6110ed565b3480156105b157600080fd5b5060065460ff1661030c565b3480156105c957600080fd5b506103636105d8366004612979565b61112b565b3480156105e957600080fd5b50600a5461030c90600160a81b900460ff1681565b34801561060a57600080fd5b506103d26106193660046127ef565b6111b6565b34801561062a57600080fd5b506103b06106393660046127ef565b611250565b34801561064a57600080fd5b506103b061065936600461295f565b6112ab565b34801561066a57600080fd5b506103b0611310565b34801561067f57600080fd5b506103d2600b81565b34801561069457600080fd5b506103d26618838370f3400081565b3480156106af57600080fd5b5061030c6106be366004612991565b60009182526007602090815260408084206001600160a01b0393909316845291905290205460ff1690565b3480156106f557600080fd5b50610336611343565b6103d261070c366004612979565b611352565b34801561071d57600080fd5b506103d2600081565b34801561073257600080fd5b506103b0610741366004612900565b611549565b34801561075257600080fd5b506103b0610761366004612883565b611554565b34801561077257600080fd5b50610336610781366004612979565b6115e2565b6103d2610794366004612979565b61166e565b3480156107a557600080fd5b506103d2600481565b3480156107ba57600080fd5b506103d26602738d24e5200081565b3480156107d557600080fd5b506103b06107e4366004612991565b611857565b3480156107f557600080fd5b506103796103d2565b34801561080a57600080fd5b5061033661187d565b34801561081f57600080fd5b5061030c61082e36600461280b565b6001600160a01b03918216600090815260056020908152604080832093909416825291909152205460ff1690565b34801561086857600080fd5b506103d27f241ecf16d79d0f8dbfb92cbc07fe17840425976cf0667f022fe9877caa831b0881565b60006001600160e01b031982167f2a55205a0000000000000000000000000000000000000000000000000000000014806108ce57506108ce82611ab7565b92915050565b6060600080546108e390612d13565b80601f016020809104026020016040519081016040528092919081815260200182805461090f90612d13565b801561095c5780601f106109315761010080835404028352916020019161095c565b820191906000526020600020905b81548152906001019060200180831161093f57829003601f168201915b5050505050905090565b6000818152600260205260408120546001600160a01b03166109e45760405162461bcd60e51b815260206004820152602c60248201527f4552433732313a20617070726f76656420717565727920666f72206e6f6e657860448201526b34b9ba32b73a103a37b5b2b760a11b60648201526084015b60405180910390fd5b506000908152600460205260409020546001600160a01b031690565b60098054610a0d90612d13565b80601f0160208091040260200160405190810160405280929190818152602001828054610a3990612d13565b8015610a865780601f10610a5b57610100808354040283529160200191610a86565b820191906000526020600020905b815481529060010190602001808311610a6957829003601f168201915b505050505081565b6000610a998261112b565b9050806001600160a01b0316836001600160a01b03161415610b235760405162461bcd60e51b815260206004820152602160248201527f4552433732313a20617070726f76616c20746f2063757272656e74206f776e6560448201527f720000000000000000000000000000000000000000000000000000000000000060648201526084016109db565b336001600160a01b0382161480610b3f5750610b3f813361082e565b610bb15760405162461bcd60e51b815260206004820152603860248201527f4552433732313a20617070726f76652063616c6c6572206973206e6f74206f7760448201527f6e6572206e6f7220617070726f76656420666f7220616c6c000000000000000060648201526084016109db565b610bbb8383611af5565b505050565b60007f241ecf16d79d0f8dbfb92cbc07fe17840425976cf0667f022fe9877caa831b08610bed8133611b70565b600b84610bf960085490565b610c039190612c6e565b10610c505760405162461bcd60e51b815260206004820152601360248201527f4578636565646564206d61782070726f6f66730000000000000000000000000060448201526064016109db565b61037984610c5d60085490565b610c679190612c6e565b10610c9f5760405162461bcd60e51b815260206004820152600860248201526714d3d3110813d55560c21b60448201526064016109db565b60005b84811015610cdc57610cb8600880546001019055565b610cca84610cc560085490565b611bf0565b80610cd481612d4e565b915050610ca2565b506008545b949350505050565b610cf66003610100612c9a565b8110610d445760405162461bcd60e51b815260206004820152600a60248201527f626164207469636b65740000000000000000000000000000000000000000000060448201526064016109db565b610100810460ff8216600080600b8460038110610d7157634e487b7160e01b600052603260045260246000fd5b0154915060018383901c16905080600114610dce5760405162461bcd60e51b815260206004820152600f60248201527f616c726561647920636c61696d6564000000000000000000000000000000000060448201526064016109db565b826001901b198216915081600b8560038110610dfa57634e487b7160e01b600052603260045260246000fd5b01555050505050565b6000610e0e60085490565b905090565b610e1d3382611d3f565b610e8f5760405162461bcd60e51b815260206004820152603160248201527f4552433732313a207472616e736665722063616c6c6572206973206e6f74206f60448201527f776e6572206e6f7220617070726f76656400000000000000000000000000000060648201526084016109db565b610bbb838383611e32565b60008281526002602052604081205481906001600160a01b0316610f005760405162461bcd60e51b815260206004820152601160248201527f4e6f6e6578697374656e7420746f6b656e00000000000000000000000000000060448201526064016109db565b30610f16610f0f85600a61200c565b6064612018565b915091509250929050565b600082815260076020526040902060010154610f3d8133611b70565b610bbb8383612024565b6001600160a01b0381163314610fc55760405162461bcd60e51b815260206004820152602f60248201527f416363657373436f6e74726f6c3a2063616e206f6e6c792072656e6f756e636560448201527f20726f6c657320666f722073656c66000000000000000000000000000000000060648201526084016109db565b610fcf82826120c6565b5050565b7f241ecf16d79d0f8dbfb92cbc07fe17840425976cf0667f022fe9877caa831b08610ffe8133611b70565b600a546040516001600160a01b03909116904780156108fc02916000818181858888f19350505050158015610fcf573d6000803e3d6000fd5b7f241ecf16d79d0f8dbfb92cbc07fe17840425976cf0667f022fe9877caa831b086110628133611b70565b61106a612149565b50565b7f241ecf16d79d0f8dbfb92cbc07fe17840425976cf0667f022fe9877caa831b086110988133611b70565b50600a8054911515600160a01b027fffffffffffffffffffffff00ffffffffffffffffffffffffffffffffffffffff909216919091179055565b610bbb83838360405180602001604052806000815250611554565b7f241ecf16d79d0f8dbfb92cbc07fe17840425976cf0667f022fe9877caa831b086111188133611b70565b8151610bbb9060099060208501906126d0565b6000818152600260205260408120546001600160a01b0316806108ce5760405162461bcd60e51b815260206004820152602960248201527f4552433732313a206f776e657220717565727920666f72206e6f6e657869737460448201527f656e7420746f6b656e000000000000000000000000000000000000000000000060648201526084016109db565b60006001600160a01b0382166112345760405162461bcd60e51b815260206004820152602a60248201527f4552433732313a2062616c616e636520717565727920666f7220746865207a6560448201527f726f20616464726573730000000000000000000000000000000000000000000060648201526084016109db565b506001600160a01b031660009081526003602052604090205490565b7f241ecf16d79d0f8dbfb92cbc07fe17840425976cf0667f022fe9877caa831b0861127b8133611b70565b50600a805473ffffffffffffffffffffffffffffffffffffffff19166001600160a01b0392909216919091179055565b7f241ecf16d79d0f8dbfb92cbc07fe17840425976cf0667f022fe9877caa831b086112d68133611b70565b50600a8054911515600160a81b027fffffffffffffffffffff00ffffffffffffffffffffffffffffffffffffffffff909216919091179055565b7f241ecf16d79d0f8dbfb92cbc07fe17840425976cf0667f022fe9877caa831b0861133b8133611b70565b61106a6121e5565b6060600180546108e390612d13565b600061136060065460ff1690565b156113a05760405162461bcd60e51b815260206004820152601060248201526f14185d5cd8589b194e881c185d5cd95960821b60448201526064016109db565b600a54600160a81b900460ff166113f95760405162461bcd60e51b815260206004820152601260248201527f53616c6520686173206e6f7420626567756e000000000000000000000000000060448201526064016109db565b3461140b836618838370f34000612c9a565b146114585760405162461bcd60e51b815260206004820181905260248201527f496e636f7272656374204554482073656e743b20636865636b2070726963652160448201526064016109db565b600482106114b45760405162461bcd60e51b815260206004820152602360248201527f547269656420746f206d696e7420746f6f206d616e79204e465473206174206f6044820152626e636560e81b60648201526084016109db565b610379826114c160085490565b6114cb9190612c6e565b106115035760405162461bcd60e51b815260206004820152600860248201526714d3d3110813d55560c21b60448201526064016109db565b60005b8281101561153b5761151c600880546001019055565b61152933610cc560085490565b8061153381612d4e565b915050611506565b506008546108ce565b919050565b610fcf338383612260565b61155e3383611d3f565b6115d05760405162461bcd60e51b815260206004820152603160248201527f4552433732313a207472616e736665722063616c6c6572206973206e6f74206f60448201527f776e6572206e6f7220617070726f76656400000000000000000000000000000060648201526084016109db565b6115dc8484848461232f565b50505050565b60606115ed60085490565b82111561163c5760405162461bcd60e51b815260206004820152601160248201527f4e6f6e6578697374656e7420746f6b656e00000000000000000000000000000060448201526064016109db565b6009611647836123b8565b604051602001611658929190612b18565b6040516020818303038152906040529050919050565b600061167c60065460ff1690565b156116bc5760405162461bcd60e51b815260206004820152601060248201526f14185d5cd8589b194e881c185d5cd95960821b60448201526064016109db565b600a54600160a01b900460ff166117155760405162461bcd60e51b815260206004820152601560248201527f50726573616c6520686173206e6f7420626567756e000000000000000000000060448201526064016109db565b34611727836602738d24e52000612c9a565b146117745760405162461bcd60e51b815260206004820181905260248201527f496e636f7272656374204554482073656e743b20636865636b2070726963652160448201526064016109db565b600482106117d05760405162461bcd60e51b815260206004820152602360248201527f547269656420746f206d696e7420746f6f206d616e79204e465473206174206f6044820152626e636560e81b60648201526084016109db565b610379826117dd60085490565b6117e79190612c6e565b1061181f5760405162461bcd60e51b815260206004820152600860248201526714d3d3110813d55560c21b60448201526064016109db565b60005b8281101561153b57611838600880546001019055565b61184533610cc560085490565b8061184f81612d4e565b915050611822565b6000828152600760205260409020600101546118738133611b70565b610bbb83836120c6565b606060096040516020016118919190612b65565b604051602081830303815290604052905090565b606060006118b4836002612c9a565b6118bf906002612c6e565b67ffffffffffffffff8111156118e557634e487b7160e01b600052604160045260246000fd5b6040519080825280601f01601f19166020018201604052801561190f576020820181803683370190505b509050600360fc1b8160008151811061193857634e487b7160e01b600052603260045260246000fd5b60200101906001600160f81b031916908160001a9053507f78000000000000000000000000000000000000000000000000000000000000008160018151811061199157634e487b7160e01b600052603260045260246000fd5b60200101906001600160f81b031916908160001a90535060006119b5846002612c9a565b6119c0906001612c6e565b90505b6001811115611a61577f303132333435363738396162636465660000000000000000000000000000000085600f1660108110611a0f57634e487b7160e01b600052603260045260246000fd5b1a60f81b828281518110611a3357634e487b7160e01b600052603260045260246000fd5b60200101906001600160f81b031916908160001a90535060049490941c93611a5a81612cfc565b90506119c3565b508315611ab05760405162461bcd60e51b815260206004820181905260248201527f537472696e67733a20686578206c656e67746820696e73756666696369656e7460448201526064016109db565b9392505050565b60006001600160e01b031982167f7965db0b0000000000000000000000000000000000000000000000000000000014806108ce57506108ce826124d2565b6000818152600460205260409020805473ffffffffffffffffffffffffffffffffffffffff19166001600160a01b0384169081179091558190611b378261112b565b6001600160a01b03167f8c5be1e5ebec7d5bd14f71427d1e84f3dd0314c0f7b2291e5b200ac8c7c3b92560405160405180910390a45050565b60008281526007602090815260408083206001600160a01b038516845290915290205460ff16610fcf57611bae816001600160a01b031660146118a5565b611bb98360206118a5565b604051602001611bca929190612b9e565b60408051601f198184030181529082905262461bcd60e51b82526109db91600401612c5b565b6001600160a01b038216611c465760405162461bcd60e51b815260206004820181905260248201527f4552433732313a206d696e7420746f20746865207a65726f206164647265737360448201526064016109db565b6000818152600260205260409020546001600160a01b031615611cab5760405162461bcd60e51b815260206004820152601c60248201527f4552433732313a20746f6b656e20616c7265616479206d696e7465640000000060448201526064016109db565b6001600160a01b0382166000908152600360205260408120805460019290611cd4908490612c6e565b9091555050600081815260026020526040808220805473ffffffffffffffffffffffffffffffffffffffff19166001600160a01b03861690811790915590518392907fddf252ad1be2c89b69c2b068fc378daa952ba7f163c4a11628f55a4df523b3ef908290a45050565b6000818152600260205260408120546001600160a01b0316611db85760405162461bcd60e51b815260206004820152602c60248201527f4552433732313a206f70657261746f7220717565727920666f72206e6f6e657860448201526b34b9ba32b73a103a37b5b2b760a11b60648201526084016109db565b6000611dc38361112b565b9050806001600160a01b0316846001600160a01b03161480611dfe5750836001600160a01b0316611df384610966565b6001600160a01b0316145b80610ce157506001600160a01b0380821660009081526005602090815260408083209388168352929052205460ff16610ce1565b826001600160a01b0316611e458261112b565b6001600160a01b031614611ec15760405162461bcd60e51b815260206004820152602560248201527f4552433732313a207472616e736665722066726f6d20696e636f72726563742060448201527f6f776e657200000000000000000000000000000000000000000000000000000060648201526084016109db565b6001600160a01b038216611f3c5760405162461bcd60e51b8152602060048201526024808201527f4552433732313a207472616e7366657220746f20746865207a65726f2061646460448201527f726573730000000000000000000000000000000000000000000000000000000060648201526084016109db565b611f47600082611af5565b6001600160a01b0383166000908152600360205260408120805460019290611f70908490612cb9565b90915550506001600160a01b0382166000908152600360205260408120805460019290611f9e908490612c6e565b9091555050600081815260026020526040808220805473ffffffffffffffffffffffffffffffffffffffff19166001600160a01b0386811691821790925591518493918716917fddf252ad1be2c89b69c2b068fc378daa952ba7f163c4a11628f55a4df523b3ef91a4505050565b6000611ab08284612c9a565b6000611ab08284612c86565b60008281526007602090815260408083206001600160a01b038516845290915290205460ff16610fcf5760008281526007602090815260408083206001600160a01b03851684529091529020805460ff191660011790556120823390565b6001600160a01b0316816001600160a01b0316837f2f8788117e7eff1d82e926ec794901d17c78024a50270940304540a733656f0d60405160405180910390a45050565b60008281526007602090815260408083206001600160a01b038516845290915290205460ff1615610fcf5760008281526007602090815260408083206001600160a01b0385168085529252808320805460ff1916905551339285917ff6391f5c32d9c69d2a47ea670b442974b53935d1edc7fd64eb21e047a839171b9190a45050565b60065460ff1661219b5760405162461bcd60e51b815260206004820152601460248201527f5061757361626c653a206e6f742070617573656400000000000000000000000060448201526064016109db565b6006805460ff191690557f5db9ee0a495bf2e6ff9c91a7834c1ba4fdd244a5e8aa4e537bd38aeae4b073aa335b6040516001600160a01b03909116815260200160405180910390a1565b60065460ff161561222b5760405162461bcd60e51b815260206004820152601060248201526f14185d5cd8589b194e881c185d5cd95960821b60448201526064016109db565b6006805460ff191660011790557f62e78cea01bee320cd4e420270b5ea74000d11b0c9f74754ebdbfc544b05a2586121c83390565b816001600160a01b0316836001600160a01b031614156122c25760405162461bcd60e51b815260206004820152601960248201527f4552433732313a20617070726f766520746f2063616c6c65720000000000000060448201526064016109db565b6001600160a01b03838116600081815260056020908152604080832094871680845294825291829020805460ff191686151590811790915591519182527f17307eab39ab6107e8899845ad3d59bd9653f200f220920489ca2b5937696c31910160405180910390a3505050565b61233a848484611e32565b6123468484848461256d565b6115dc5760405162461bcd60e51b815260206004820152603260248201527f4552433732313a207472616e7366657220746f206e6f6e20455243373231526560448201527f63656976657220696d706c656d656e746572000000000000000000000000000060648201526084016109db565b6060816123dc5750506040805180820190915260018152600360fc1b602082015290565b8160005b811561240657806123f081612d4e565b91506123ff9050600a83612c86565b91506123e0565b60008167ffffffffffffffff81111561242f57634e487b7160e01b600052604160045260246000fd5b6040519080825280601f01601f191660200182016040528015612459576020820181803683370190505b5090505b8415610ce15761246e600183612cb9565b915061247b600a86612d69565b612486906030612c6e565b60f81b8183815181106124a957634e487b7160e01b600052603260045260246000fd5b60200101906001600160f81b031916908160001a9053506124cb600a86612c86565b945061245d565b60006001600160e01b031982167f80ac58cd00000000000000000000000000000000000000000000000000000000148061253557506001600160e01b031982167f5b5e139f00000000000000000000000000000000000000000000000000000000145b806108ce57507f01ffc9a7000000000000000000000000000000000000000000000000000000006001600160e01b03198316146108ce565b60006001600160a01b0384163b156126c557604051630a85bd0160e11b81526001600160a01b0385169063150b7a02906125b1903390899088908890600401612c1f565b602060405180830381600087803b1580156125cb57600080fd5b505af19250505080156125fb575060408051601f3d908101601f191682019092526125f8918101906129d1565b60015b6126ab573d808015612629576040519150601f19603f3d011682016040523d82523d6000602084013e61262e565b606091505b5080516126a35760405162461bcd60e51b815260206004820152603260248201527f4552433732313a207472616e7366657220746f206e6f6e20455243373231526560448201527f63656976657220696d706c656d656e746572000000000000000000000000000060648201526084016109db565b805181602001fd5b6001600160e01b031916630a85bd0160e11b149050610ce1565b506001949350505050565b8280546126dc90612d13565b90600052602060002090601f0160209004810192826126fe5760008555612744565b82601f1061271757805160ff1916838001178555612744565b82800160010185558215612744579182015b82811115612744578251825591602001919060010190612729565b50612750929150612754565b5090565b5b808211156127505760008155600101612755565b600067ffffffffffffffff8084111561278457612784612da9565b604051601f8501601f19908116603f011681019082821181831017156127ac576127ac612da9565b816040528093508581528686860111156127c557600080fd5b858560208301376000602087830101525050509392505050565b8035801515811461154457600080fd5b600060208284031215612800578081fd5b8135611ab081612dbf565b6000806040838503121561281d578081fd5b823561282881612dbf565b9150602083013561283881612dbf565b809150509250929050565b600080600060608486031215612857578081fd5b833561286281612dbf565b9250602084013561287281612dbf565b929592945050506040919091013590565b60008060008060808587031215612898578081fd5b84356128a381612dbf565b935060208501356128b381612dbf565b925060408501359150606085013567ffffffffffffffff8111156128d5578182fd5b8501601f810187136128e5578182fd5b6128f487823560208401612769565b91505092959194509250565b60008060408385031215612912578182fd5b823561291d81612dbf565b915061292b602084016127df565b90509250929050565b60008060408385031215612946578182fd5b823561295181612dbf565b946020939093013593505050565b600060208284031215612970578081fd5b611ab0826127df565b60006020828403121561298a578081fd5b5035919050565b600080604083850312156129a3578182fd5b82359150602083013561283881612dbf565b6000602082840312156129c6578081fd5b8135611ab081612dd4565b6000602082840312156129e2578081fd5b8151611ab081612dd4565b6000602082840312156129fe578081fd5b813567ffffffffffffffff811115612a14578182fd5b8201601f81018413612a24578182fd5b610ce184823560208401612769565b60008060408385031215612a45578182fd5b50508035926020909101359150565b60008151808452612a6c816020860160208601612cd0565b601f01601f19169290920160200192915050565b8054600090600181811c9080831680612a9a57607f831692505b6020808410821415612aba57634e487b7160e01b86526022600452602486fd5b818015612ace5760018114612adf57612b0c565b60ff19861689528489019650612b0c565b60008881526020902060005b86811015612b045781548b820152908501908301612aeb565b505084890196505b50505050505092915050565b6000612b248285612a80565b8351612b34818360208801612cd0565b7f2e6a736f6e0000000000000000000000000000000000000000000000000000009101908152600501949350505050565b6000612b718284612a80565b7f6d657461646174612e6a736f6e000000000000000000000000000000000000008152600d019392505050565b7f416363657373436f6e74726f6c3a206163636f756e7420000000000000000000815260008351612bd6816017850160208801612cd0565b7f206973206d697373696e6720726f6c65200000000000000000000000000000006017918401918201528351612c13816028840160208801612cd0565b01602801949350505050565b60006001600160a01b03808716835280861660208401525083604083015260806060830152612c516080830184612a54565b9695505050505050565b602081526000611ab06020830184612a54565b60008219821115612c8157612c81612d7d565b500190565b600082612c9557612c95612d93565b500490565b6000816000190483118215151615612cb457612cb4612d7d565b500290565b600082821015612ccb57612ccb612d7d565b500390565b60005b83811015612ceb578181015183820152602001612cd3565b838111156115dc5750506000910152565b600081612d0b57612d0b612d7d565b506000190190565b600181811c90821680612d2757607f821691505b60208210811415612d4857634e487b7160e01b600052602260045260246000fd5b50919050565b6000600019821415612d6257612d62612d7d565b5060010190565b600082612d7857612d78612d93565b500690565b634e487b7160e01b600052601160045260246000fd5b634e487b7160e01b600052601260045260246000fd5b634e487b7160e01b600052604160045260246000fd5b6001600160a01b038116811461106a57600080fd5b6001600160e01b03198116811461106a57600080fdfea26469706673582212203446371af7b40f7208bb709efe50d8c21d2357ac36f94de6f2e414caeaef715364736f6c63430008040033687474703a2f2f6c6f63616c686f73743a333030302f6170692f6d657461646174612f",
  "linkReferences": {},
  "deployedLinkReferences": {}
}