{
  "_format": "hh-sol-artifact-1",
  "contractName": "YourContract",
  "sourceName": "contracts/YourContract.sol",
  "abi": [
    {
      "inputs": [],
      "stateMutability": "nonpayable",
      "type": "constructor"
    },
    {
      "anonymous": false,
      "inputs": [
        {
          "indexed": true,
          "internalType": "address",
          "name": "owner",
          "type": "address"
        },
        {
          "indexed": true,
          "internalType": "address",
          "name": "approved",
          "type": "address"
        },
        {
          "indexed": true,
          "internalType": "uint256",
          "name": "tokenId",
          "type": "uint256"
        }
      ],
      "name": "Approval",
      "type": "event"
    },
    {
      "anonymous": false,
      "inputs": [
        {
          "indexed": true,
          "internalType": "address",
          "name": "owner",
          "type": "address"
        },
        {
          "indexed": true,
          "internalType": "address",
          "name": "operator",
          "type": "address"
        },
        {
          "indexed": false,
          "internalType": "bool",
          "name": "approved",
          "type": "bool"
        }
      ],
      "name": "ApprovalForAll",
      "type": "event"
    },
    {
      "anonymous": false,
      "inputs": [
        {
          "indexed": true,
          "internalType": "address",
          "name": "previousOwner",
          "type": "address"
        },
        {
          "indexed": true,
          "internalType": "address",
          "name": "newOwner",
          "type": "address"
        }
      ],
      "name": "OwnershipTransferred",
      "type": "event"
    },
    {
      "anonymous": false,
      "inputs": [
        {
          "indexed": false,
          "internalType": "address",
          "name": "account",
          "type": "address"
        }
      ],
      "name": "Paused",
      "type": "event"
    },
    {
      "anonymous": false,
      "inputs": [
        {
          "indexed": true,
          "internalType": "bytes32",
          "name": "role",
          "type": "bytes32"
        },
        {
          "indexed": true,
          "internalType": "bytes32",
          "name": "previousAdminRole",
          "type": "bytes32"
        },
        {
          "indexed": true,
          "internalType": "bytes32",
          "name": "newAdminRole",
          "type": "bytes32"
        }
      ],
      "name": "RoleAdminChanged",
      "type": "event"
    },
    {
      "anonymous": false,
      "inputs": [
        {
          "indexed": true,
          "internalType": "bytes32",
          "name": "role",
          "type": "bytes32"
        },
        {
          "indexed": true,
          "internalType": "address",
          "name": "account",
          "type": "address"
        },
        {
          "indexed": true,
          "internalType": "address",
          "name": "sender",
          "type": "address"
        }
      ],
      "name": "RoleGranted",
      "type": "event"
    },
    {
      "anonymous": false,
      "inputs": [
        {
          "indexed": true,
          "internalType": "bytes32",
          "name": "role",
          "type": "bytes32"
        },
        {
          "indexed": true,
          "internalType": "address",
          "name": "account",
          "type": "address"
        },
        {
          "indexed": true,
          "internalType": "address",
          "name": "sender",
          "type": "address"
        }
      ],
      "name": "RoleRevoked",
      "type": "event"
    },
    {
      "anonymous": false,
      "inputs": [
        {
          "indexed": true,
          "internalType": "address",
          "name": "from",
          "type": "address"
        },
        {
          "indexed": true,
          "internalType": "address",
          "name": "to",
          "type": "address"
        },
        {
          "indexed": true,
          "internalType": "uint256",
          "name": "tokenId",
          "type": "uint256"
        }
      ],
      "name": "Transfer",
      "type": "event"
    },
    {
      "anonymous": false,
      "inputs": [
        {
          "indexed": false,
          "internalType": "address",
          "name": "account",
          "type": "address"
        }
      ],
      "name": "Unpaused",
      "type": "event"
    },
    {
      "stateMutability": "payable",
      "type": "fallback"
    },
    {
      "inputs": [],
      "name": "ARTIST_PROOF_COUNT",
      "outputs": [
        {
          "internalType": "uint256",
          "name": "",
          "type": "uint256"
        }
      ],
      "stateMutability": "view",
      "type": "function"
    },
    {
      "inputs": [],
      "name": "DEFAULT_ADMIN_ROLE",
      "outputs": [
        {
          "internalType": "bytes32",
          "name": "",
          "type": "bytes32"
        }
      ],
      "stateMutability": "view",
      "type": "function"
    },
    {
      "inputs": [],
      "name": "ETH_PRICE",
      "outputs": [
        {
          "internalType": "uint256",
          "name": "",
          "type": "uint256"
        }
      ],
      "stateMutability": "view",
      "type": "function"
    },
    {
      "inputs": [],
      "name": "MANAGER_ROLE",
      "outputs": [
        {
          "internalType": "bytes32",
          "name": "",
          "type": "bytes32"
        }
      ],
      "stateMutability": "view",
      "type": "function"
    },
    {
      "inputs": [],
      "name": "MAX_MINT_COUNT",
      "outputs": [
        {
          "internalType": "uint256",
          "name": "",
          "type": "uint256"
        }
      ],
      "stateMutability": "view",
      "type": "function"
    },
    {
      "inputs": [],
      "name": "MAX_SUPPLY",
      "outputs": [
        {
          "internalType": "uint256",
          "name": "",
          "type": "uint256"
        }
      ],
      "stateMutability": "view",
      "type": "function"
    },
    {
      "inputs": [],
      "name": "PRESALE_ETH_PRICE",
      "outputs": [
        {
          "internalType": "uint256",
          "name": "",
          "type": "uint256"
        }
      ],
      "stateMutability": "view",
      "type": "function"
    },
    {
      "inputs": [],
      "name": "PRESALE_MAX_MINT_COUNT",
      "outputs": [
        {
          "internalType": "uint256",
          "name": "",
          "type": "uint256"
        }
      ],
      "stateMutability": "view",
      "type": "function"
    },
    {
      "inputs": [],
      "name": "_baseURIextended",
      "outputs": [
        {
          "internalType": "string",
          "name": "",
          "type": "string"
        }
      ],
      "stateMutability": "view",
      "type": "function"
    },
    {
      "inputs": [],
      "name": "_merkleRoot",
      "outputs": [
        {
          "internalType": "bytes32",
          "name": "",
          "type": "bytes32"
        }
      ],
      "stateMutability": "view",
      "type": "function"
    },
    {
      "inputs": [],
      "name": "_royaltyBasis",
      "outputs": [
        {
          "internalType": "uint256",
          "name": "",
          "type": "uint256"
        }
      ],
      "stateMutability": "view",
      "type": "function"
    },
    {
      "inputs": [
        {
          "internalType": "address",
          "name": "to",
          "type": "address"
        },
        {
          "internalType": "uint256",
          "name": "tokenId",
          "type": "uint256"
        }
      ],
      "name": "approve",
      "outputs": [],
      "stateMutability": "nonpayable",
      "type": "function"
    },
    {
      "inputs": [
        {
          "internalType": "uint256",
          "name": "count",
          "type": "uint256"
        },
        {
          "internalType": "address",
          "name": "recipient",
          "type": "address"
        }
      ],
      "name": "artistMint",
      "outputs": [
        {
          "internalType": "uint256",
          "name": "",
          "type": "uint256"
        }
      ],
      "stateMutability": "nonpayable",
      "type": "function"
    },
    {
      "inputs": [
        {
          "internalType": "address",
          "name": "owner",
          "type": "address"
        }
      ],
      "name": "balanceOf",
      "outputs": [
        {
          "internalType": "uint256",
          "name": "",
          "type": "uint256"
        }
      ],
      "stateMutability": "view",
      "type": "function"
    },
    {
      "inputs": [],
      "name": "contractURI",
      "outputs": [
        {
          "internalType": "string",
          "name": "",
          "type": "string"
        }
      ],
      "stateMutability": "view",
      "type": "function"
    },
    {
      "inputs": [
        {
          "internalType": "uint256",
          "name": "tokenId",
          "type": "uint256"
        }
      ],
      "name": "getApproved",
      "outputs": [
        {
          "internalType": "address",
          "name": "",
          "type": "address"
        }
      ],
      "stateMutability": "view",
      "type": "function"
    },
    {
      "inputs": [
        {
          "internalType": "bytes32",
          "name": "role",
          "type": "bytes32"
        }
      ],
      "name": "getRoleAdmin",
      "outputs": [
        {
          "internalType": "bytes32",
          "name": "",
          "type": "bytes32"
        }
      ],
      "stateMutability": "view",
      "type": "function"
    },
    {
      "inputs": [
        {
          "internalType": "bytes32",
          "name": "role",
          "type": "bytes32"
        },
        {
          "internalType": "address",
          "name": "account",
          "type": "address"
        }
      ],
      "name": "grantRole",
      "outputs": [],
      "stateMutability": "nonpayable",
      "type": "function"
    },
    {
      "inputs": [
        {
          "internalType": "bytes32",
          "name": "role",
          "type": "bytes32"
        },
        {
          "internalType": "address",
          "name": "account",
          "type": "address"
        }
      ],
      "name": "hasRole",
      "outputs": [
        {
          "internalType": "bool",
          "name": "",
          "type": "bool"
        }
      ],
      "stateMutability": "view",
      "type": "function"
    },
    {
      "inputs": [
        {
          "internalType": "address",
          "name": "owner",
          "type": "address"
        },
        {
          "internalType": "address",
          "name": "operator",
          "type": "address"
        }
      ],
      "name": "isApprovedForAll",
      "outputs": [
        {
          "internalType": "bool",
          "name": "",
          "type": "bool"
        }
      ],
      "stateMutability": "view",
      "type": "function"
    },
    {
      "inputs": [],
      "name": "maxSupply",
      "outputs": [
        {
          "internalType": "uint256",
          "name": "",
          "type": "uint256"
        }
      ],
      "stateMutability": "pure",
      "type": "function"
    },
    {
      "inputs": [
        {
          "internalType": "uint256",
          "name": "count",
          "type": "uint256"
        }
      ],
      "name": "mint",
      "outputs": [
        {
          "internalType": "uint256",
          "name": "",
          "type": "uint256"
        }
      ],
      "stateMutability": "payable",
      "type": "function"
    },
    {
      "inputs": [],
      "name": "name",
      "outputs": [
        {
          "internalType": "string",
          "name": "",
          "type": "string"
        }
      ],
      "stateMutability": "view",
      "type": "function"
    },
    {
      "inputs": [],
      "name": "owner",
      "outputs": [
        {
          "internalType": "address",
          "name": "",
          "type": "address"
        }
      ],
      "stateMutability": "view",
      "type": "function"
    },
    {
      "inputs": [
        {
          "internalType": "uint256",
          "name": "tokenId",
          "type": "uint256"
        }
      ],
      "name": "ownerOf",
      "outputs": [
        {
          "internalType": "address",
          "name": "",
          "type": "address"
        }
      ],
      "stateMutability": "view",
      "type": "function"
    },
    {
      "inputs": [],
      "name": "pause",
      "outputs": [],
      "stateMutability": "nonpayable",
      "type": "function"
    },
    {
      "inputs": [],
      "name": "paused",
      "outputs": [
        {
          "internalType": "bool",
          "name": "",
          "type": "bool"
        }
      ],
      "stateMutability": "view",
      "type": "function"
    },
    {
      "inputs": [],
      "name": "presaleActive",
      "outputs": [
        {
          "internalType": "bool",
          "name": "",
          "type": "bool"
        }
      ],
      "stateMutability": "view",
      "type": "function"
    },
    {
      "inputs": [
        {
          "internalType": "uint256",
          "name": "count",
          "type": "uint256"
        },
        {
          "internalType": "uint256",
          "name": "index",
          "type": "uint256"
        },
        {
          "internalType": "bytes32[]",
          "name": "proof",
          "type": "bytes32[]"
        }
      ],
      "name": "presaleMint",
      "outputs": [
        {
          "internalType": "uint256",
          "name": "",
          "type": "uint256"
        }
      ],
      "stateMutability": "payable",
      "type": "function"
    },
    {
      "inputs": [],
      "name": "renounceOwnership",
      "outputs": [],
      "stateMutability": "nonpayable",
      "type": "function"
    },
    {
      "inputs": [
        {
          "internalType": "bytes32",
          "name": "role",
          "type": "bytes32"
        },
        {
          "internalType": "address",
          "name": "account",
          "type": "address"
        }
      ],
      "name": "renounceRole",
      "outputs": [],
      "stateMutability": "nonpayable",
      "type": "function"
    },
    {
      "inputs": [
        {
          "internalType": "bytes32",
          "name": "role",
          "type": "bytes32"
        },
        {
          "internalType": "address",
          "name": "account",
          "type": "address"
        }
      ],
      "name": "revokeRole",
      "outputs": [],
      "stateMutability": "nonpayable",
      "type": "function"
    },
    {
      "inputs": [
        {
          "internalType": "uint256",
          "name": "tokenId",
          "type": "uint256"
        },
        {
          "internalType": "uint256",
          "name": "salePrice",
          "type": "uint256"
        }
      ],
      "name": "royaltyInfo",
      "outputs": [
        {
          "internalType": "address",
          "name": "receiver",
          "type": "address"
        },
        {
          "internalType": "uint256",
          "name": "royaltyAmount",
          "type": "uint256"
        }
      ],
      "stateMutability": "view",
      "type": "function"
    },
    {
      "inputs": [
        {
          "internalType": "address",
          "name": "from",
          "type": "address"
        },
        {
          "internalType": "address",
          "name": "to",
          "type": "address"
        },
        {
          "internalType": "uint256",
          "name": "tokenId",
          "type": "uint256"
        }
      ],
      "name": "safeTransferFrom",
      "outputs": [],
      "stateMutability": "nonpayable",
      "type": "function"
    },
    {
      "inputs": [
        {
          "internalType": "address",
          "name": "from",
          "type": "address"
        },
        {
          "internalType": "address",
          "name": "to",
          "type": "address"
        },
        {
          "internalType": "uint256",
          "name": "tokenId",
          "type": "uint256"
        },
        {
          "internalType": "bytes",
          "name": "_data",
          "type": "bytes"
        }
      ],
      "name": "safeTransferFrom",
      "outputs": [],
      "stateMutability": "nonpayable",
      "type": "function"
    },
    {
      "inputs": [],
      "name": "saleActive",
      "outputs": [
        {
          "internalType": "bool",
          "name": "",
          "type": "bool"
        }
      ],
      "stateMutability": "view",
      "type": "function"
    },
    {
      "inputs": [
        {
          "internalType": "address",
          "name": "operator",
          "type": "address"
        },
        {
          "internalType": "bool",
          "name": "approved",
          "type": "bool"
        }
      ],
      "name": "setApprovalForAll",
      "outputs": [],
      "stateMutability": "nonpayable",
      "type": "function"
    },
    {
      "inputs": [
        {
          "internalType": "string",
          "name": "baseURI_",
          "type": "string"
        }
      ],
      "name": "setBaseURI",
      "outputs": [],
      "stateMutability": "nonpayable",
      "type": "function"
    },
    {
      "inputs": [
        {
          "internalType": "bytes32",
          "name": "merkleRoot_",
          "type": "bytes32"
        }
      ],
      "name": "setMerkleRoot",
      "outputs": [],
      "stateMutability": "nonpayable",
      "type": "function"
    },
    {
      "inputs": [
        {
          "internalType": "bool",
          "name": "val",
          "type": "bool"
        }
      ],
      "name": "setPresaleActive",
      "outputs": [],
      "stateMutability": "nonpayable",
      "type": "function"
    },
    {
      "inputs": [
        {
          "internalType": "address payable",
          "name": "royaltyWallet_",
          "type": "address"
        }
      ],
      "name": "setRoyaltyWallet",
      "outputs": [],
      "stateMutability": "nonpayable",
      "type": "function"
    },
    {
      "inputs": [
        {
          "internalType": "bool",
          "name": "val",
          "type": "bool"
        }
      ],
      "name": "setSaleActive",
      "outputs": [],
      "stateMutability": "nonpayable",
      "type": "function"
    },
    {
      "inputs": [
        {
          "internalType": "address payable",
          "name": "withdrawalWallet_",
          "type": "address"
        }
      ],
      "name": "setWithdrawalWallet",
      "outputs": [],
      "stateMutability": "nonpayable",
      "type": "function"
    },
    {
      "inputs": [
        {
          "internalType": "bytes4",
          "name": "interfaceId",
          "type": "bytes4"
        }
      ],
      "name": "supportsInterface",
      "outputs": [
        {
          "internalType": "bool",
          "name": "",
          "type": "bool"
        }
      ],
      "stateMutability": "view",
      "type": "function"
    },
    {
      "inputs": [],
      "name": "symbol",
      "outputs": [
        {
          "internalType": "string",
          "name": "",
          "type": "string"
        }
      ],
      "stateMutability": "view",
      "type": "function"
    },
    {
      "inputs": [
        {
          "internalType": "uint256",
          "name": "tokenId",
          "type": "uint256"
        }
      ],
      "name": "tokenURI",
      "outputs": [
        {
          "internalType": "string",
          "name": "",
          "type": "string"
        }
      ],
      "stateMutability": "view",
      "type": "function"
    },
    {
      "inputs": [],
      "name": "totalSupply",
      "outputs": [
        {
          "internalType": "uint256",
          "name": "",
          "type": "uint256"
        }
      ],
      "stateMutability": "view",
      "type": "function"
    },
    {
      "inputs": [
        {
          "internalType": "address",
          "name": "from",
          "type": "address"
        },
        {
          "internalType": "address",
          "name": "to",
          "type": "address"
        },
        {
          "internalType": "uint256",
          "name": "tokenId",
          "type": "uint256"
        }
      ],
      "name": "transferFrom",
      "outputs": [],
      "stateMutability": "nonpayable",
      "type": "function"
    },
    {
      "inputs": [
        {
          "internalType": "address",
          "name": "_newOwner",
          "type": "address"
        }
      ],
      "name": "transferOwnership",
      "outputs": [],
      "stateMutability": "nonpayable",
      "type": "function"
    },
    {
      "inputs": [],
      "name": "unpause",
      "outputs": [],
      "stateMutability": "nonpayable",
      "type": "function"
    },
    {
      "inputs": [],
      "name": "withdraw",
      "outputs": [],
      "stateMutability": "nonpayable",
      "type": "function"
    },
    {
      "stateMutability": "payable",
      "type": "receive"
    }
  ],
  "bytecode": "0x60e0604052602360808181529062003a9f60a03980516200002991600a9160209091019062000553565b507f7f9947af1470e7df017d480516fb72e1b515240c75cf5afacfd79d475f309f35600b556102ee600e55600f805461ffff19169055604080516101208101825260001980825260208201819052918101829052606081018290526080810182905260a0810182905260c0810182905260e08101829052610100810191909152620000b9906010906009620005e2565b50348015620000c757600080fd5b50604080518082018252600c8082526b165bdd5c90dbdb9d1c9858dd60a21b6020808401828152855180870190965292855284015281519192916200010f9160009162000553565b5080516200012590600190602084019062000553565b50506006805460ff19169055506200013d336200017c565b6200014a600033620001ce565b620001767f241ecf16d79d0f8dbfb92cbc07fe17840425976cf0667f022fe9877caa831b0833620001de565b620007b4565b600880546001600160a01b038381166001600160a01b0319831681179093556040519116919082907f8be0079c531659141344cd1fd0a4f28419497f9722a3daafe3b4186f6b6457e090600090a35050565b620001da82826200020d565b5050565b600082815260076020526040902060010154620001fc8133620002b1565b6200020883836200020d565b505050565b60008281526007602090815260408083206001600160a01b038516845290915290205460ff16620001da5760008281526007602090815260408083206001600160a01b03851684529091529020805460ff191660011790556200026d3390565b6001600160a01b0316816001600160a01b0316837f2f8788117e7eff1d82e926ec794901d17c78024a50270940304540a733656f0d60405160405180910390a45050565b60008281526007602090815260408083206001600160a01b038516845290915290205460ff16620001da57620002fd816001600160a01b031660146200035760201b620019911760201c565b620003138360206200199162000357821b17811c565b6040516020016200032692919062000629565b60408051601f198184030181529082905262461bcd60e51b82526200034e91600401620006a2565b60405180910390fd5b6060600062000368836002620006f2565b62000375906002620006d7565b6001600160401b038111156200039b57634e487b7160e01b600052604160045260246000fd5b6040519080825280601f01601f191660200182016040528015620003c6576020820181803683370190505b509050600360fc1b81600081518110620003f057634e487b7160e01b600052603260045260246000fd5b60200101906001600160f81b031916908160001a905350600f60fb1b816001815181106200042e57634e487b7160e01b600052603260045260246000fd5b60200101906001600160f81b031916908160001a905350600062000454846002620006f2565b62000461906001620006d7565b90505b6001811115620004fb576f181899199a1a9b1b9c1cb0b131b232b360811b85600f1660108110620004a557634e487b7160e01b600052603260045260246000fd5b1a60f81b828281518110620004ca57634e487b7160e01b600052603260045260246000fd5b60200101906001600160f81b031916908160001a90535060049490941c93620004f38162000747565b905062000464565b5083156200054c5760405162461bcd60e51b815260206004820181905260248201527f537472696e67733a20686578206c656e67746820696e73756666696369656e7460448201526064016200034e565b9392505050565b828054620005619062000761565b90600052602060002090601f016020900481019282620005855760008555620005d0565b82601f10620005a057805160ff1916838001178555620005d0565b82800160010185558215620005d0579182015b82811115620005d0578251825591602001919060010190620005b3565b50620005de92915062000612565b5090565b8260098101928215620005d05791602002820182811115620005d0578251825591602001919060010190620005b3565b5b80821115620005de576000815560010162000613565b7f416363657373436f6e74726f6c3a206163636f756e74200000000000000000008152600083516200066381601785016020880162000714565b7001034b99036b4b9b9b4b733903937b6329607d1b60179184019182015283516200069681602884016020880162000714565b01602801949350505050565b6020815260008251806020840152620006c381604085016020870162000714565b601f01601f19169190910160400192915050565b60008219821115620006ed57620006ed6200079e565b500190565b60008160001904831182151516156200070f576200070f6200079e565b500290565b60005b838110156200073157818101518382015260200162000717565b8381111562000741576000848401525b50505050565b6000816200075957620007596200079e565b506000190190565b600181811c908216806200077657607f821691505b602082108114156200079857634e487b7160e01b600052602260045260246000fd5b50919050565b634e487b7160e01b600052601160045260246000fd5b6132db80620007c46000396000f3fe6080604052600436106103085760003560e01c806370a0823111610198578063a22cb465116100e0578063ce394f471161008f578063e8a3d4851161006c578063e8a3d485146108ac578063e985e9c5146108c1578063ec87621c1461090a578063f2fde38b1461092c57005b8063ce394f471461085c578063d547741f14610877578063d5abeb011461089757005b8063c87b56dd116100bd578063c87b56dd14610807578063cdeee63714610827578063cdf653061461084757005b8063a22cb465146107b1578063ae3146e9146107d1578063b88d4fde146107e757005b806387033ce91161014757806391d148541161012457806391d148541461072e57806395d89b4114610774578063a0712d6814610789578063a217fddf1461079c57005b806387033ce9146106e05780638832bc29146106f55780638da5cb5b1461071057005b80637cb64759116101755780637cb647591461068b578063841718a6146106ab5780638456cb59146106cb57005b806370a0823114610636578063715018a61461065657806375796f761461066b57005b80632f2ff15d1161025b5780633f8121a21161020a57806355f804b3116101e757806355f804b3146105bf5780635c975abb146105df5780636352211e146105f757806368428a1b1461061757005b80633f8121a21461056557806342842e0e1461058557806353135ca0146105a557005b806336568abe1161023857806336568abe1461051b5780633ccfd60b1461053b5780633f4ba83a1461055057005b80632f2ff15d146104cf5780632fc37ab2146104ef57806332cb6b0c1461050557005b806318160ddd116102b757806323b872dd1161029457806323b872dd14610440578063248a9ca3146104605780632a55205a1461049057005b806318160ddd146104035780631b59169d146104185780631e305c9e1461042b57005b80630928fc22116102e55780630928fc22146103a0578063095ea7b3146103b55780630edc9629146103d557005b806301ffc9a71461031157806306fdde0314610346578063081812fc1461036857005b3661030f57005b005b34801561031d57600080fd5b5061033161032c366004612dd2565b61094c565b60405190151581526020015b60405180910390f35b34801561035257600080fd5b5061035b610990565b60405161033d91906130f6565b34801561037457600080fd5b50610388610383366004612d96565b610a22565b6040516001600160a01b03909116815260200161033d565b3480156103ac57600080fd5b5061035b610abc565b3480156103c157600080fd5b5061030f6103d0366004612d51565b610b4a565b3480156103e157600080fd5b506103f56103f0366004612dae565b610c7c565b60405190815260200161033d565b34801561040f57600080fd5b506103f5610d93565b6103f5610426366004612e71565b610da3565b34801561043757600080fd5b506103f5600381565b34801561044c57600080fd5b5061030f61045b366004612c60565b610fff565b34801561046c57600080fd5b506103f561047b366004612d96565b60009081526007602052604090206001015490565b34801561049c57600080fd5b506104b06104ab366004612e50565b611086565b604080516001600160a01b03909316835260208301919091520161033d565b3480156104db57600080fd5b5061030f6104ea366004612dae565b611121565b3480156104fb57600080fd5b506103f5600b5481565b34801561051157600080fd5b506103f561029a81565b34801561052757600080fd5b5061030f610536366004612dae565b611147565b34801561054757600080fd5b5061030f6111d3565b34801561055c57600080fd5b5061030f611225565b34801561057157600080fd5b5061030f610580366004612d7c565b611249565b34801561059157600080fd5b5061030f6105a0366004612c60565b611276565b3480156105b157600080fd5b50600f546103319060ff1681565b3480156105cb57600080fd5b5061030f6105da366004612e0a565b611291565b3480156105eb57600080fd5b5060065460ff16610331565b34801561060357600080fd5b50610388610612366004612d96565b6112bd565b34801561062357600080fd5b50600f5461033190610100900460ff1681565b34801561064257600080fd5b506103f5610651366004612c0c565b611348565b34801561066257600080fd5b5061030f6113e2565b34801561067757600080fd5b5061030f610686366004612c0c565b611448565b34801561069757600080fd5b5061030f6106a6366004612d96565b611484565b3480156106b757600080fd5b5061030f6106c6366004612d7c565b6114a3565b3480156106d757600080fd5b5061030f6114d7565b3480156106ec57600080fd5b506103f5601181565b34801561070157600080fd5b506103f566f523226980800081565b34801561071c57600080fd5b506008546001600160a01b0316610388565b34801561073a57600080fd5b50610331610749366004612dae565b60009182526007602090815260408084206001600160a01b0393909316845291905290205460ff1690565b34801561078057600080fd5b5061035b6114f8565b6103f5610797366004612d96565b611507565b3480156107a857600080fd5b506103f5600081565b3480156107bd57600080fd5b5061030f6107cc366004612d1d565b611716565b3480156107dd57600080fd5b506103f5600e5481565b3480156107f357600080fd5b5061030f610802366004612ca0565b611721565b34801561081357600080fd5b5061035b610822366004612d96565b6117af565b34801561083357600080fd5b5061030f610842366004612c0c565b61183b565b34801561085357600080fd5b506103f5600b81565b34801561086857600080fd5b506103f566ea7aa67b2d000081565b34801561088357600080fd5b5061030f610892366004612dae565b611877565b3480156108a357600080fd5b5061029a6103f5565b3480156108b857600080fd5b5061035b61189d565b3480156108cd57600080fd5b506103316108dc366004612c28565b6001600160a01b03918216600090815260056020908152604080832093909416825291909152205460ff1690565b34801561091657600080fd5b506103f560008051602061328683398151915281565b34801561093857600080fd5b5061030f610947366004612c0c565b6118c5565b60006001600160e01b031982167f2a55205a00000000000000000000000000000000000000000000000000000000148061098a575061098a82611ba3565b92915050565b60606000805461099f906131ae565b80601f01602080910402602001604051908101604052809291908181526020018280546109cb906131ae565b8015610a185780601f106109ed57610100808354040283529160200191610a18565b820191906000526020600020905b8154815290600101906020018083116109fb57829003601f168201915b5050505050905090565b6000818152600260205260408120546001600160a01b0316610aa05760405162461bcd60e51b815260206004820152602c60248201527f4552433732313a20617070726f76656420717565727920666f72206e6f6e657860448201526b34b9ba32b73a103a37b5b2b760a11b60648201526084015b60405180910390fd5b506000908152600460205260409020546001600160a01b031690565b600a8054610ac9906131ae565b80601f0160208091040260200160405190810160405280929190818152602001828054610af5906131ae565b8015610b425780601f10610b1757610100808354040283529160200191610b42565b820191906000526020600020905b815481529060010190602001808311610b2557829003601f168201915b505050505081565b6000610b55826112bd565b9050806001600160a01b0316836001600160a01b03161415610bdf5760405162461bcd60e51b815260206004820152602160248201527f4552433732313a20617070726f76616c20746f2063757272656e74206f776e6560448201527f72000000000000000000000000000000000000000000000000000000000000006064820152608401610a97565b336001600160a01b0382161480610bfb5750610bfb81336108dc565b610c6d5760405162461bcd60e51b815260206004820152603860248201527f4552433732313a20617070726f76652063616c6c6572206973206e6f74206f7760448201527f6e6572206e6f7220617070726f76656420666f7220616c6c00000000000000006064820152608401610a97565b610c778383611be1565b505050565b6000600080516020613286833981519152610c978133611c4f565b601184610ca360095490565b610cad9190613109565b10610cfa5760405162461bcd60e51b815260206004820152601360248201527f4578636565646564206d61782070726f6f6673000000000000000000000000006044820152606401610a97565b61029a84610d0760095490565b610d119190613109565b10610d495760405162461bcd60e51b815260206004820152600860248201526714d3d3110813d55560c21b6044820152606401610a97565b60005b84811015610d8657610d62600980546001019055565b610d7484610d6f60095490565b611ccf565b80610d7e816131e9565b915050610d4c565b506009545b949350505050565b6000610d9e60095490565b905090565b6000610db160065460ff1690565b15610df15760405162461bcd60e51b815260206004820152601060248201526f14185d5cd8589b194e881c185d5cd95960821b6044820152606401610a97565b600f5460ff16610e435760405162461bcd60e51b815260206004820152601560248201527f50726573616c6520686173206e6f7420626567756e00000000000000000000006044820152606401610a97565b34610e558666ea7aa67b2d0000613135565b14610ea25760405162461bcd60e51b815260206004820181905260248201527f496e636f7272656374204554482073656e743b20636865636b207072696365216044820152606401610a97565b61029a85610eaf60095490565b610eb99190613109565b10610ef15760405162461bcd60e51b815260206004820152600860248201526714d3d3110813d55560c21b6044820152606401610a97565b610efb8585611e11565b60408051602081018690523391810191909152600090606001604051602081830303815290604052805190602001209050610f6d84848080602002602001604051908101604052809392919081815260200183836020028082843760009201919091525050600b54915084905061209a565b610fb95760405162461bcd60e51b815260206004820152600d60248201527f496e76616c69642070726f6f66000000000000000000000000000000000000006044820152606401610a97565b60005b86811015610ff157610fd2600980546001019055565b610fdf33610d6f60095490565b80610fe9816131e9565b915050610fbc565b505060095495945050505050565b61100933826120b0565b61107b5760405162461bcd60e51b815260206004820152603160248201527f4552433732313a207472616e736665722063616c6c6572206973206e6f74206f60448201527f776e6572206e6f7220617070726f7665640000000000000000000000000000006064820152608401610a97565b610c778383836121a3565b60008281526002602052604081205481906001600160a01b03166110ec5760405162461bcd60e51b815260206004820152601160248201527f4e6f6e6578697374656e7420746f6b656e0000000000000000000000000000006044820152606401610a97565b600d54600e546001600160a01b03909116906127109061110c9086613135565b6111169190613121565b915091509250929050565b60008281526007602052604090206001015461113d8133611c4f565b610c778383612370565b6001600160a01b03811633146111c55760405162461bcd60e51b815260206004820152602f60248201527f416363657373436f6e74726f6c3a2063616e206f6e6c792072656e6f756e636560448201527f20726f6c657320666f722073656c6600000000000000000000000000000000006064820152608401610a97565b6111cf8282612412565b5050565b6000805160206132868339815191526111ec8133611c4f565b600c546040516001600160a01b03909116904780156108fc02916000818181858888f193505050501580156111cf573d6000803e3d6000fd5b60008051602061328683398151915261123e8133611c4f565b611246612495565b50565b6000805160206132868339815191526112628133611c4f565b50600f805460ff1916911515919091179055565b610c7783838360405180602001604052806000815250611721565b6000805160206132868339815191526112aa8133611c4f565b8151610c7790600a906020850190612aed565b6000818152600260205260408120546001600160a01b03168061098a5760405162461bcd60e51b815260206004820152602960248201527f4552433732313a206f776e657220717565727920666f72206e6f6e657869737460448201527f656e7420746f6b656e00000000000000000000000000000000000000000000006064820152608401610a97565b60006001600160a01b0382166113c65760405162461bcd60e51b815260206004820152602a60248201527f4552433732313a2062616c616e636520717565727920666f7220746865207a6560448201527f726f2061646472657373000000000000000000000000000000000000000000006064820152608401610a97565b506001600160a01b031660009081526003602052604090205490565b6008546001600160a01b0316331461143c5760405162461bcd60e51b815260206004820181905260248201527f4f776e61626c653a2063616c6c6572206973206e6f7420746865206f776e65726044820152606401610a97565b6114466000612531565b565b6000805160206132868339815191526114618133611c4f565b50600c80546001600160a01b0319166001600160a01b0392909216919091179055565b60008051602061328683398151915261149d8133611c4f565b50600b55565b6000805160206132868339815191526114bc8133611c4f565b50600f80549115156101000261ff0019909216919091179055565b6000805160206132868339815191526114f08133611c4f565b611246612583565b60606001805461099f906131ae565b600061151560065460ff1690565b156115555760405162461bcd60e51b815260206004820152601060248201526f14185d5cd8589b194e881c185d5cd95960821b6044820152606401610a97565b600f54610100900460ff166115ac5760405162461bcd60e51b815260206004820152601260248201527f53616c6520686173206e6f7420626567756e00000000000000000000000000006044820152606401610a97565b346115be8366f5232269808000613135565b1461160b5760405162461bcd60e51b815260206004820181905260248201527f496e636f7272656374204554482073656e743b20636865636b207072696365216044820152606401610a97565b600b82106116815760405162461bcd60e51b815260206004820152602360248201527f547269656420746f206d696e7420746f6f206d616e79204e465473206174206f60448201527f6e636500000000000000000000000000000000000000000000000000000000006064820152608401610a97565b61029a8261168e60095490565b6116989190613109565b106116d05760405162461bcd60e51b815260206004820152600860248201526714d3d3110813d55560c21b6044820152606401610a97565b60005b82811015611708576116e9600980546001019055565b6116f633610d6f60095490565b80611700816131e9565b9150506116d3565b5060095461098a565b919050565b6111cf3383836125fe565b61172b33836120b0565b61179d5760405162461bcd60e51b815260206004820152603160248201527f4552433732313a207472616e736665722063616c6c6572206973206e6f74206f60448201527f776e6572206e6f7220617070726f7665640000000000000000000000000000006064820152608401610a97565b6117a9848484846126cd565b50505050565b60606117ba60095490565b8211156118095760405162461bcd60e51b815260206004820152601160248201527f4e6f6e6578697374656e7420746f6b656e0000000000000000000000000000006044820152606401610a97565b600a61181483612756565b604051602001611825929190612fb3565b6040516020818303038152906040529050919050565b6000805160206132868339815191526118548133611c4f565b50600d80546001600160a01b0319166001600160a01b0392909216919091179055565b6000828152600760205260409020600101546118938133611c4f565b610c778383612412565b6060600a6040516020016118b19190613000565b604051602081830303815290604052905090565b6008546001600160a01b0316331461191f5760405162461bcd60e51b815260206004820181905260248201527f4f776e61626c653a2063616c6c6572206973206e6f7420746865206f776e65726044820152606401610a97565b60006119336008546001600160a01b031690565b905061194d60008051602061328683398151915282611877565b61196560008051602061328683398151915282611877565b61196e82612531565b611979600083611121565b6111cf60008051602061328683398151915283611121565b606060006119a0836002613135565b6119ab906002613109565b67ffffffffffffffff8111156119d157634e487b7160e01b600052604160045260246000fd5b6040519080825280601f01601f1916602001820160405280156119fb576020820181803683370190505b509050600360fc1b81600081518110611a2457634e487b7160e01b600052603260045260246000fd5b60200101906001600160f81b031916908160001a9053507f780000000000000000000000000000000000000000000000000000000000000081600181518110611a7d57634e487b7160e01b600052603260045260246000fd5b60200101906001600160f81b031916908160001a9053506000611aa1846002613135565b611aac906001613109565b90505b6001811115611b4d577f303132333435363738396162636465660000000000000000000000000000000085600f1660108110611afb57634e487b7160e01b600052603260045260246000fd5b1a60f81b828281518110611b1f57634e487b7160e01b600052603260045260246000fd5b60200101906001600160f81b031916908160001a90535060049490941c93611b4681613197565b9050611aaf565b508315611b9c5760405162461bcd60e51b815260206004820181905260248201527f537472696e67733a20686578206c656e67746820696e73756666696369656e746044820152606401610a97565b9392505050565b60006001600160e01b031982167f7965db0b00000000000000000000000000000000000000000000000000000000148061098a575061098a82612870565b600081815260046020526040902080546001600160a01b0319166001600160a01b0384169081179091558190611c16826112bd565b6001600160a01b03167f8c5be1e5ebec7d5bd14f71427d1e84f3dd0314c0f7b2291e5b200ac8c7c3b92560405160405180910390a45050565b60008281526007602090815260408083206001600160a01b038516845290915290205460ff166111cf57611c8d816001600160a01b03166014611991565b611c98836020611991565b604051602001611ca9929190613039565b60408051601f198184030181529082905262461bcd60e51b8252610a97916004016130f6565b6001600160a01b038216611d255760405162461bcd60e51b815260206004820181905260248201527f4552433732313a206d696e7420746f20746865207a65726f20616464726573736044820152606401610a97565b6000818152600260205260409020546001600160a01b031615611d8a5760405162461bcd60e51b815260206004820152601c60248201527f4552433732313a20746f6b656e20616c7265616479206d696e746564000000006044820152606401610a97565b6001600160a01b0382166000908152600360205260408120805460019290611db3908490613109565b909155505060008181526002602052604080822080546001600160a01b0319166001600160a01b03861690811790915590518392907fddf252ad1be2c89b69c2b068fc378daa952ba7f163c4a11628f55a4df523b3ef908290a45050565b611e1d60036009613121565b611e2990610100613135565b8110611e775760405162461bcd60e51b815260206004820152600a60248201527f626164207469636b6574000000000000000000000000000000000000000000006044820152606401610a97565b6000611e8561010083613121565b90506000611e9561010084613204565b9050600060108360098110611eba57634e487b7160e01b600052603260045260246000fd5b0154905060006010611ecd600386613109565b60098110611eeb57634e487b7160e01b600052603260045260246000fd5b0154905060006010611eff60036002613135565b611f099087613109565b60098110611f2757634e487b7160e01b600052603260045260246000fd5b01549050600183851c81169083861c81169083871c16600081611f4a8486613109565b611f549190613109565b9050808b1115611fa65760405162461bcd60e51b815260206004820152601e60248201527f43616e2774206d696e74206d6f7265207468616e20616c6c6f636174656400006044820152606401610a97565b876001901b19871696508660108a60098110611fd257634e487b7160e01b600052603260045260246000fd5b0155600181611fe260038e613109565b611fec9190613154565b111561202b576001881b19959095169485601061200a60038c613109565b6009811061202857634e487b7160e01b600052603260045260246000fd5b01555b60028161203960038e613109565b6120439190613154565b111561208d576001881b19949094169384601061206260036002613135565b61206c908c613109565b6009811061208a57634e487b7160e01b600052603260045260246000fd5b01555b5050505050505050505050565b6000826120a7858461290b565b14949350505050565b6000818152600260205260408120546001600160a01b03166121295760405162461bcd60e51b815260206004820152602c60248201527f4552433732313a206f70657261746f7220717565727920666f72206e6f6e657860448201526b34b9ba32b73a103a37b5b2b760a11b6064820152608401610a97565b6000612134836112bd565b9050806001600160a01b0316846001600160a01b0316148061216f5750836001600160a01b031661216484610a22565b6001600160a01b0316145b80610d8b57506001600160a01b0380821660009081526005602090815260408083209388168352929052205460ff16610d8b565b826001600160a01b03166121b6826112bd565b6001600160a01b0316146122325760405162461bcd60e51b815260206004820152602560248201527f4552433732313a207472616e736665722066726f6d20696e636f72726563742060448201527f6f776e65720000000000000000000000000000000000000000000000000000006064820152608401610a97565b6001600160a01b0382166122ad5760405162461bcd60e51b8152602060048201526024808201527f4552433732313a207472616e7366657220746f20746865207a65726f2061646460448201527f72657373000000000000000000000000000000000000000000000000000000006064820152608401610a97565b6122b8600082611be1565b6001600160a01b03831660009081526003602052604081208054600192906122e1908490613154565b90915550506001600160a01b038216600090815260036020526040812080546001929061230f908490613109565b909155505060008181526002602052604080822080546001600160a01b0319166001600160a01b0386811691821790925591518493918716917fddf252ad1be2c89b69c2b068fc378daa952ba7f163c4a11628f55a4df523b3ef91a4505050565b60008281526007602090815260408083206001600160a01b038516845290915290205460ff166111cf5760008281526007602090815260408083206001600160a01b03851684529091529020805460ff191660011790556123ce3390565b6001600160a01b0316816001600160a01b0316837f2f8788117e7eff1d82e926ec794901d17c78024a50270940304540a733656f0d60405160405180910390a45050565b60008281526007602090815260408083206001600160a01b038516845290915290205460ff16156111cf5760008281526007602090815260408083206001600160a01b0385168085529252808320805460ff1916905551339285917ff6391f5c32d9c69d2a47ea670b442974b53935d1edc7fd64eb21e047a839171b9190a45050565b60065460ff166124e75760405162461bcd60e51b815260206004820152601460248201527f5061757361626c653a206e6f74207061757365640000000000000000000000006044820152606401610a97565b6006805460ff191690557f5db9ee0a495bf2e6ff9c91a7834c1ba4fdd244a5e8aa4e537bd38aeae4b073aa335b6040516001600160a01b03909116815260200160405180910390a1565b600880546001600160a01b038381166001600160a01b0319831681179093556040519116919082907f8be0079c531659141344cd1fd0a4f28419497f9722a3daafe3b4186f6b6457e090600090a35050565b60065460ff16156125c95760405162461bcd60e51b815260206004820152601060248201526f14185d5cd8589b194e881c185d5cd95960821b6044820152606401610a97565b6006805460ff191660011790557f62e78cea01bee320cd4e420270b5ea74000d11b0c9f74754ebdbfc544b05a2586125143390565b816001600160a01b0316836001600160a01b031614156126605760405162461bcd60e51b815260206004820152601960248201527f4552433732313a20617070726f766520746f2063616c6c6572000000000000006044820152606401610a97565b6001600160a01b03838116600081815260056020908152604080832094871680845294825291829020805460ff191686151590811790915591519182527f17307eab39ab6107e8899845ad3d59bd9653f200f220920489ca2b5937696c31910160405180910390a3505050565b6126d88484846121a3565b6126e48484848461298d565b6117a95760405162461bcd60e51b815260206004820152603260248201527f4552433732313a207472616e7366657220746f206e6f6e20455243373231526560448201527f63656976657220696d706c656d656e74657200000000000000000000000000006064820152608401610a97565b60608161277a5750506040805180820190915260018152600360fc1b602082015290565b8160005b81156127a4578061278e816131e9565b915061279d9050600a83613121565b915061277e565b60008167ffffffffffffffff8111156127cd57634e487b7160e01b600052604160045260246000fd5b6040519080825280601f01601f1916602001820160405280156127f7576020820181803683370190505b5090505b8415610d8b5761280c600183613154565b9150612819600a86613204565b612824906030613109565b60f81b81838151811061284757634e487b7160e01b600052603260045260246000fd5b60200101906001600160f81b031916908160001a905350612869600a86613121565b94506127fb565b60006001600160e01b031982167f80ac58cd0000000000000000000000000000000000000000000000000000000014806128d357506001600160e01b031982167f5b5e139f00000000000000000000000000000000000000000000000000000000145b8061098a57507f01ffc9a7000000000000000000000000000000000000000000000000000000006001600160e01b031983161461098a565b600081815b845181101561298557600085828151811061293b57634e487b7160e01b600052603260045260246000fd5b602002602001015190508083116129615760008381526020829052604090209250612972565b600081815260208490526040902092505b508061297d816131e9565b915050612910565b509392505050565b60006001600160a01b0384163b15612ae557604051630a85bd0160e11b81526001600160a01b0385169063150b7a02906129d19033908990889088906004016130ba565b602060405180830381600087803b1580156129eb57600080fd5b505af1925050508015612a1b575060408051601f3d908101601f19168201909252612a1891810190612dee565b60015b612acb573d808015612a49576040519150601f19603f3d011682016040523d82523d6000602084013e612a4e565b606091505b508051612ac35760405162461bcd60e51b815260206004820152603260248201527f4552433732313a207472616e7366657220746f206e6f6e20455243373231526560448201527f63656976657220696d706c656d656e74657200000000000000000000000000006064820152608401610a97565b805181602001fd5b6001600160e01b031916630a85bd0160e11b149050610d8b565b506001610d8b565b828054612af9906131ae565b90600052602060002090601f016020900481019282612b1b5760008555612b61565b82601f10612b3457805160ff1916838001178555612b61565b82800160010185558215612b61579182015b82811115612b61578251825591602001919060010190612b46565b50612b6d929150612b71565b5090565b5b80821115612b6d5760008155600101612b72565b600067ffffffffffffffff80841115612ba157612ba1613244565b604051601f8501601f19908116603f01168101908282118183101715612bc957612bc9613244565b81604052809350858152868686011115612be257600080fd5b858560208301376000602087830101525050509392505050565b8035801515811461171157600080fd5b600060208284031215612c1d578081fd5b8135611b9c8161325a565b60008060408385031215612c3a578081fd5b8235612c458161325a565b91506020830135612c558161325a565b809150509250929050565b600080600060608486031215612c74578081fd5b8335612c7f8161325a565b92506020840135612c8f8161325a565b929592945050506040919091013590565b60008060008060808587031215612cb5578081fd5b8435612cc08161325a565b93506020850135612cd08161325a565b925060408501359150606085013567ffffffffffffffff811115612cf2578182fd5b8501601f81018713612d02578182fd5b612d1187823560208401612b86565b91505092959194509250565b60008060408385031215612d2f578182fd5b8235612d3a8161325a565b9150612d4860208401612bfc565b90509250929050565b60008060408385031215612d63578182fd5b8235612d6e8161325a565b946020939093013593505050565b600060208284031215612d8d578081fd5b611b9c82612bfc565b600060208284031215612da7578081fd5b5035919050565b60008060408385031215612dc0578182fd5b823591506020830135612c558161325a565b600060208284031215612de3578081fd5b8135611b9c8161326f565b600060208284031215612dff578081fd5b8151611b9c8161326f565b600060208284031215612e1b578081fd5b813567ffffffffffffffff811115612e31578182fd5b8201601f81018413612e41578182fd5b610d8b84823560208401612b86565b60008060408385031215612e62578182fd5b50508035926020909101359150565b60008060008060608587031215612e86578182fd5b8435935060208501359250604085013567ffffffffffffffff80821115612eab578384fd5b818701915087601f830112612ebe578384fd5b813581811115612ecc578485fd5b8860208260051b8501011115612ee0578485fd5b95989497505060200194505050565b60008151808452612f0781602086016020860161316b565b601f01601f19169290920160200192915050565b8054600090600181811c9080831680612f3557607f831692505b6020808410821415612f5557634e487b7160e01b86526022600452602486fd5b818015612f695760018114612f7a57612fa7565b60ff19861689528489019650612fa7565b60008881526020902060005b86811015612f9f5781548b820152908501908301612f86565b505084890196505b50505050505092915050565b6000612fbf8285612f1b565b8351612fcf81836020880161316b565b7f2e6a736f6e0000000000000000000000000000000000000000000000000000009101908152600501949350505050565b600061300c8284612f1b565b7f6d657461646174612e6a736f6e000000000000000000000000000000000000008152600d019392505050565b7f416363657373436f6e74726f6c3a206163636f756e742000000000000000000081526000835161307181601785016020880161316b565b7f206973206d697373696e6720726f6c652000000000000000000000000000000060179184019182015283516130ae81602884016020880161316b565b01602801949350505050565b60006001600160a01b038087168352808616602084015250836040830152608060608301526130ec6080830184612eef565b9695505050505050565b602081526000611b9c6020830184612eef565b6000821982111561311c5761311c613218565b500190565b6000826131305761313061322e565b500490565b600081600019048311821515161561314f5761314f613218565b500290565b60008282101561316657613166613218565b500390565b60005b8381101561318657818101518382015260200161316e565b838111156117a95750506000910152565b6000816131a6576131a6613218565b506000190190565b600181811c908216806131c257607f821691505b602082108114156131e357634e487b7160e01b600052602260045260246000fd5b50919050565b60006000198214156131fd576131fd613218565b5060010190565b6000826132135761321361322e565b500690565b634e487b7160e01b600052601160045260246000fd5b634e487b7160e01b600052601260045260246000fd5b634e487b7160e01b600052604160045260246000fd5b6001600160a01b038116811461124657600080fd5b6001600160e01b03198116811461124657600080fdfe241ecf16d79d0f8dbfb92cbc07fe17840425976cf0667f022fe9877caa831b08a2646970667358221220e0a69ad1756cf17133ba9a2bc7fe459acc4b38cbf1f50bc99c399e1ce0a830d964736f6c63430008040033687474703a2f2f6c6f63616c686f73743a333030302f6170692f6d657461646174612f",
  "linkReferences": {},
  "deployedLinkReferences": {}
}