{
  "_format": "hh-sol-artifact-1",
  "contractName": "TestSplitter",
  "sourceName": "contracts/TestSplitter.sol",
  "abi": [
    {
      "inputs": [
        {
          "internalType": "address[]",
          "name": "_payees",
          "type": "address[]"
        },
        {
          "internalType": "uint256[]",
          "name": "_shares",
          "type": "uint256[]"
        }
      ],
      "stateMutability": "payable",
      "type": "constructor"
    },
    {
      "anonymous": false,
      "inputs": [
        {
          "indexed": true,
          "internalType": "contract IERC20",
          "name": "token",
          "type": "address"
        },
        {
          "indexed": false,
          "internalType": "address",
          "name": "to",
          "type": "address"
        },
        {
          "indexed": false,
          "internalType": "uint256",
          "name": "amount",
          "type": "uint256"
        }
      ],
      "name": "ERC20PaymentReleased",
      "type": "event"
    },
    {
      "anonymous": false,
      "inputs": [
        {
          "indexed": false,
          "internalType": "address",
          "name": "account",
          "type": "address"
        },
        {
          "indexed": false,
          "internalType": "uint256",
          "name": "shares",
          "type": "uint256"
        }
      ],
      "name": "PayeeAdded",
      "type": "event"
    },
    {
      "anonymous": false,
      "inputs": [
        {
          "indexed": false,
          "internalType": "address",
          "name": "from",
          "type": "address"
        },
        {
          "indexed": false,
          "internalType": "uint256",
          "name": "amount",
          "type": "uint256"
        }
      ],
      "name": "PaymentReceived",
      "type": "event"
    },
    {
      "anonymous": false,
      "inputs": [
        {
          "indexed": false,
          "internalType": "address",
          "name": "to",
          "type": "address"
        },
        {
          "indexed": false,
          "internalType": "uint256",
          "name": "amount",
          "type": "uint256"
        }
      ],
      "name": "PaymentReleased",
      "type": "event"
    },
    {
      "inputs": [
        {
          "internalType": "uint256",
          "name": "index",
          "type": "uint256"
        }
      ],
      "name": "payee",
      "outputs": [
        {
          "internalType": "address",
          "name": "",
          "type": "address"
        }
      ],
      "stateMutability": "view",
      "type": "function"
    },
    {
      "inputs": [
        {
          "internalType": "address payable",
          "name": "account",
          "type": "address"
        }
      ],
      "name": "release",
      "outputs": [],
      "stateMutability": "nonpayable",
      "type": "function"
    },
    {
      "inputs": [
        {
          "internalType": "contract IERC20",
          "name": "token",
          "type": "address"
        },
        {
          "internalType": "address",
          "name": "account",
          "type": "address"
        }
      ],
      "name": "release",
      "outputs": [],
      "stateMutability": "nonpayable",
      "type": "function"
    },
    {
      "inputs": [
        {
          "internalType": "contract IERC20",
          "name": "token",
          "type": "address"
        },
        {
          "internalType": "address",
          "name": "account",
          "type": "address"
        }
      ],
      "name": "released",
      "outputs": [
        {
          "internalType": "uint256",
          "name": "",
          "type": "uint256"
        }
      ],
      "stateMutability": "view",
      "type": "function"
    },
    {
      "inputs": [
        {
          "internalType": "address",
          "name": "account",
          "type": "address"
        }
      ],
      "name": "released",
      "outputs": [
        {
          "internalType": "uint256",
          "name": "",
          "type": "uint256"
        }
      ],
      "stateMutability": "view",
      "type": "function"
    },
    {
      "inputs": [
        {
          "internalType": "address",
          "name": "account",
          "type": "address"
        }
      ],
      "name": "shares",
      "outputs": [
        {
          "internalType": "uint256",
          "name": "",
          "type": "uint256"
        }
      ],
      "stateMutability": "view",
      "type": "function"
    },
    {
      "inputs": [
        {
          "internalType": "contract IERC20",
          "name": "token",
          "type": "address"
        }
      ],
      "name": "totalReleased",
      "outputs": [
        {
          "internalType": "uint256",
          "name": "",
          "type": "uint256"
        }
      ],
      "stateMutability": "view",
      "type": "function"
    },
    {
      "inputs": [],
      "name": "totalReleased",
      "outputs": [
        {
          "internalType": "uint256",
          "name": "",
          "type": "uint256"
        }
      ],
      "stateMutability": "view",
      "type": "function"
    },
    {
      "inputs": [],
      "name": "totalShares",
      "outputs": [
        {
          "internalType": "uint256",
          "name": "",
          "type": "uint256"
        }
      ],
      "stateMutability": "view",
      "type": "function"
    },
    {
      "stateMutability": "payable",
      "type": "receive"
    }
  ],
  "bytecode": "0x60806040526040516200123f3803806200123f8339810160408190526200002691620003df565b818180518251146200009a5760405162461bcd60e51b815260206004820152603260248201527f5061796d656e7453706c69747465723a2070617965657320616e6420736861726044820152710cae640d8cadccee8d040dad2e6dac2e8c6d60731b60648201526084015b60405180910390fd5b6000825111620000ed5760405162461bcd60e51b815260206004820152601a60248201527f5061796d656e7453706c69747465723a206e6f20706179656573000000000000604482015260640162000091565b60005b825181101562000171576200015c8382815181106200011f57634e487b7160e01b600052603260045260246000fd5b60200260200101518383815181106200014857634e487b7160e01b600052603260045260246000fd5b60200260200101516200017c60201b60201c565b80620001688162000530565b915050620000f0565b50505050506200057a565b6001600160a01b038216620001e95760405162461bcd60e51b815260206004820152602c60248201527f5061796d656e7453706c69747465723a206163636f756e74206973207468652060448201526b7a65726f206164647265737360a01b606482015260840162000091565b600081116200023b5760405162461bcd60e51b815260206004820152601d60248201527f5061796d656e7453706c69747465723a20736861726573206172652030000000604482015260640162000091565b6001600160a01b03821660009081526002602052604090205415620002b75760405162461bcd60e51b815260206004820152602b60248201527f5061796d656e7453706c69747465723a206163636f756e7420616c726561647960448201526a206861732073686172657360a81b606482015260840162000091565b60048054600181019091557f8a35acfbc15ff81a39ae7d344fd709f28e8600b4aa8c65c6b64bfe7fe36bd19b0180546001600160a01b0319166001600160a01b0384169081179091556000908152600260205260408120829055546200031f90829062000515565b600055604080516001600160a01b0384168152602081018390527f40c340f65e17194d14ddddb073d3c9f888e3cb52b5aae0c6c7706b4fbc905fac910160405180910390a15050565b600082601f83011262000379578081fd5b81516020620003926200038c83620004ef565b620004bc565b80838252828201915082860187848660051b8901011115620003b2578586fd5b855b85811015620003d257815184529284019290840190600101620003b4565b5090979650505050505050565b60008060408385031215620003f2578182fd5b82516001600160401b038082111562000409578384fd5b818501915085601f8301126200041d578384fd5b81516020620004306200038c83620004ef565b8083825282820191508286018a848660051b890101111562000450578889fd5b8896505b84871015620004895780516001600160a01b03811681146200047457898afd5b83526001969096019591830191830162000454565b5091880151919650909350505080821115620004a3578283fd5b50620004b28582860162000368565b9150509250929050565b604051601f8201601f191681016001600160401b0381118282101715620004e757620004e762000564565b604052919050565b60006001600160401b038211156200050b576200050b62000564565b5060051b60200190565b600082198211156200052b576200052b6200054e565b500190565b60006000198214156200054757620005476200054e565b5060010190565b634e487b7160e01b600052601160045260246000fd5b634e487b7160e01b600052604160045260246000fd5b610cb5806200058a6000396000f3fe60806040526004361061009a5760003560e01c80638b83209b11610069578063ce7c2ac21161004e578063ce7c2ac214610202578063d79779b214610238578063e33b7de31461026e57600080fd5b80638b83209b146101945780639852595c146101cc57600080fd5b806319165587146100e85780633a98ef391461010a578063406072a91461012e57806348b750441461017457600080fd5b366100e3577f6ef95f06320e7a25a04a175ca677b7052bdd97131872c2192525a629f51be77033604080516001600160a01b0390921682523460208301520160405180910390a1005b600080fd5b3480156100f457600080fd5b50610108610103366004610ac0565b610283565b005b34801561011657600080fd5b506000545b6040519081526020015b60405180910390f35b34801561013a57600080fd5b5061011b610149366004610afc565b6001600160a01b03918216600090815260066020908152604080832093909416825291909152205490565b34801561018057600080fd5b5061010861018f366004610afc565b610439565b3480156101a057600080fd5b506101b46101af366004610b34565b6106bd565b6040516001600160a01b039091168152602001610125565b3480156101d857600080fd5b5061011b6101e7366004610ac0565b6001600160a01b031660009081526003602052604090205490565b34801561020e57600080fd5b5061011b61021d366004610ac0565b6001600160a01b031660009081526002602052604090205490565b34801561024457600080fd5b5061011b610253366004610ac0565b6001600160a01b031660009081526005602052604090205490565b34801561027a57600080fd5b5060015461011b565b6001600160a01b0381166000908152600260205260409020546102fc5760405162461bcd60e51b815260206004820152602660248201527f5061796d656e7453706c69747465723a206163636f756e7420686173206e6f2060448201526573686172657360d01b60648201526084015b60405180910390fd5b600061030760015490565b6103119047610bb3565b9050600061033e8383610339866001600160a01b031660009081526003602052604090205490565b6106fb565b9050806103a15760405162461bcd60e51b815260206004820152602b60248201527f5061796d656e7453706c69747465723a206163636f756e74206973206e6f742060448201526a191d59481c185e5b595b9d60aa1b60648201526084016102f3565b6001600160a01b038316600090815260036020526040812080548392906103c9908490610bb3565b9250508190555080600160008282546103e29190610bb3565b909155506103f290508382610740565b604080516001600160a01b0385168152602081018390527fdf20fd1e76bc69d672e4814fafb2c449bba3a5369d8359adf9e05e6fde87b056910160405180910390a1505050565b6001600160a01b0381166000908152600260205260409020546104ad5760405162461bcd60e51b815260206004820152602660248201527f5061796d656e7453706c69747465723a206163636f756e7420686173206e6f2060448201526573686172657360d01b60648201526084016102f3565b6001600160a01b0382166000908152600560205260408120546040517f70a082310000000000000000000000000000000000000000000000000000000081523060048201526001600160a01b038516906370a082319060240160206040518083038186803b15801561051e57600080fd5b505afa158015610532573d6000803e3d6000fd5b505050506040513d601f19601f820116820180604052508101906105569190610b4c565b6105609190610bb3565b90506000610599838361033987876001600160a01b03918216600090815260066020908152604080832093909416825291909152205490565b9050806105fc5760405162461bcd60e51b815260206004820152602b60248201527f5061796d656e7453706c69747465723a206163636f756e74206973206e6f742060448201526a191d59481c185e5b595b9d60aa1b60648201526084016102f3565b6001600160a01b03808516600090815260066020908152604080832093871683529290529081208054839290610633908490610bb3565b90915550506001600160a01b03841660009081526005602052604081208054839290610660908490610bb3565b90915550610671905084848361085e565b604080516001600160a01b038581168252602082018490528616917f3be5b7a71e84ed12875d241991c70855ac5817d847039e17a9d895c1ceb0f18a910160405180910390a250505050565b6000600482815481106106e057634e487b7160e01b600052603260045260246000fd5b6000918252602090912001546001600160a01b031692915050565b600080546001600160a01b0385168252600260205260408220548391906107229086610beb565b61072c9190610bcb565b6107369190610c0a565b90505b9392505050565b804710156107905760405162461bcd60e51b815260206004820152601d60248201527f416464726573733a20696e73756666696369656e742062616c616e636500000060448201526064016102f3565b6000826001600160a01b03168260405160006040518083038185875af1925050503d80600081146107dd576040519150601f19603f3d011682016040523d82523d6000602084013e6107e2565b606091505b50509050806108595760405162461bcd60e51b815260206004820152603a60248201527f416464726573733a20756e61626c6520746f2073656e642076616c75652c207260448201527f6563697069656e74206d6179206861766520726576657274656400000000000060648201526084016102f3565b505050565b604080516001600160a01b03848116602483015260448083018590528351808403909101815260649092018352602080830180517bffffffffffffffffffffffffffffffffffffffffffffffffffffffff167fa9059cbb0000000000000000000000000000000000000000000000000000000017905283518085019094528084527f5361666545524332303a206c6f772d6c6576656c2063616c6c206661696c6564908401526108599286929160009161091c9185169084906109ac565b805190915015610859578080602001905181019061093a9190610adc565b6108595760405162461bcd60e51b815260206004820152602a60248201527f5361666545524332303a204552433230206f7065726174696f6e20646964206e60448201527f6f7420737563636565640000000000000000000000000000000000000000000060648201526084016102f3565b60606107368484600085856001600160a01b0385163b610a0e5760405162461bcd60e51b815260206004820152601d60248201527f416464726573733a2063616c6c20746f206e6f6e2d636f6e747261637400000060448201526064016102f3565b600080866001600160a01b03168587604051610a2a9190610b64565b60006040518083038185875af1925050503d8060008114610a67576040519150601f19603f3d011682016040523d82523d6000602084013e610a6c565b606091505b5091509150610a7c828286610a87565b979650505050505050565b60608315610a96575081610739565b825115610aa65782518084602001fd5b8160405162461bcd60e51b81526004016102f39190610b80565b600060208284031215610ad1578081fd5b813561073981610c67565b600060208284031215610aed578081fd5b81518015158114610739578182fd5b60008060408385031215610b0e578081fd5b8235610b1981610c67565b91506020830135610b2981610c67565b809150509250929050565b600060208284031215610b45578081fd5b5035919050565b600060208284031215610b5d578081fd5b5051919050565b60008251610b76818460208701610c21565b9190910192915050565b6020815260008251806020840152610b9f816040850160208701610c21565b601f01601f19169190910160400192915050565b60008219821115610bc657610bc6610c51565b500190565b600082610be657634e487b7160e01b81526012600452602481fd5b500490565b6000816000190483118215151615610c0557610c05610c51565b500290565b600082821015610c1c57610c1c610c51565b500390565b60005b83811015610c3c578181015183820152602001610c24565b83811115610c4b576000848401525b50505050565b634e487b7160e01b600052601160045260246000fd5b6001600160a01b0381168114610c7c57600080fd5b5056fea26469706673582212201778951aeb54747b3066f933cc6e0dce00ea7adc54da03db8f269c8fd540426e64736f6c63430008040033",
  "linkReferences": {},
  "deployedLinkReferences": {}
}